:020000040800F2
:100000000000012039280008352600083B2600089A
:1000100041260008472600084D2600080000000081
:100020000000000000000000000000002124010882
:1000300053260008000000007126010879F100082D
:1000400089280008892800088928000889280008CC
:1000500089280008892800088928000889280008BC
:1000600089280008892800088928000889280008AC
:10007000892800088928000889280008892800089C
:100080008928000889280008892800080000000045
:1000900000000000000000000000000089280008A7
:1000A0008928000861260008892800088928000896
:1000B000892800088928000889280008892800085C
:1000C000892800088928000889280008892800084C
:1000D000892800088928000875260008000000000B
:1000E00089280008892800088928000800000000E5
:1000F0000000000000000000000000008928000847
:1001000000000000892800088928000889280008C4
:1001100000000000000000000000000000000000DF
:1001200089280008892800088928000889280008EB
:100130008928000800000000000000000000000006
:1001400000000000000000000000000089280008F6
:1001500089280008892800088928000889280008BB
:10016000892800088928000800000000000000001D
:10017000000000000000000000000000000000007F
:1001800000000000892800080000000000000000B6
:0401900089280008B2
:1001A00010B5054C237833B9044B13B10448AFF3B1
:1001B00000800123237010BDD80200200000000041
:1001C000A4FE010808B5034B1BB103490348AFF374
:1001D000008008BD00000000DC020020A4FE010831
:1001E00010F8012B11F8013B012A28BF9A42F7D0E1
:1001F000D01A70470000000000000000000000005E
:1002000001F0FF01102A2BDB10F0070F08D010F8C7
:10021000013B013A8B422DD010F0070F42B3F6D1CB
:10022000F0B441EA012141EA014122F007047FF0E4
:1002300000070023F0E80256083C85EA010586EA3B
:10024000010685FA47F5A3FA87F586FA47F6A5FA77
:1002500087F68EB9EED1F0BC01F0FF0102F0070283
:1002600032B110F8013B013A83EA010313B1F8D12E
:100270000020704701387047002D06BF354603380F
:10028000073815F0010F07D1013015F4807F02BF48
:10029000013015F4C03F0130F0BC0138704700BF99
:1002A000034613F8012B002AFBD1181A01387047B6
:1002B00081F0004102E000BF83F0004330B54FEA17
:1002C00041044FEA430594EA050F08BF90EA020F84
:1002D0001FBF54EA000C55EA020C7FEA645C7FEA17
:1002E000655C00F0E2804FEA5454D4EB5555B8BF3A
:1002F0006D420CDD2C4480EA020281EA030382EAAB
:10030000000083EA010180EA020281EA0303362D3C
:1003100088BF30BD11F0004F4FEA01314FF4801C0F
:100320004CEA113102D0404261EB410113F0004F21
:100330004FEA03334CEA133302D0524263EB4303D8
:1003400094EA050F00F0A780A4F10104D5F1200E76
:100350000DDB02FA0EFC22FA05F2801841F10001D1
:1003600003FA0EF2801843FA05F359410EE0A5F1A5
:1003700020050EF1200E012A03FA0EFC28BF4CF0D6
:10038000020C43FA05F3C01851EBE37101F000458C
:1003900007D54FF0000EDCF1000C7EEB00006EEB99
:1003A0000101B1F5801F1BD3B1F5001F0CD3490823
:1003B0005FEA30004FEA3C0C04F101044FEA44527A
:1003C00012F5800F80F09A80BCF1004F08BF5FEA01
:1003D000500C50F1000041EB045141EA050130BDE1
:1003E0005FEA4C0C404141EB0101013C28BFB1F5F3
:1003F000801FE9D291F0000F04BF01460020B1FA3E
:1004000081F308BF2033A3F10B03B3F120020CDA10
:100410000C3208DD02F1140CC2F10C0201FA0CF0EE
:1004200021FA02F10CE002F11402D8BFC2F1200C53
:1004300001FA02F120FA0CFCDCBF41EA0C01904009
:10044000E41AA2BF01EB0451294330BD6FEA040452
:100450001F3C1CDA0C340EDC04F11404C4F120023D
:1004600020FA04F001FA02F340EA030021FA04F34F
:1004700045EA030130BDC4F10C04C4F1200220FAA6
:1004800002F001FA04F340EA0300294630BD21FAE4
:1004900004F0294630BD94F0000F83F4801306BFAA
:1004A00081F480110134013D4EE77FEA645C18BF9E
:1004B0007FEA655C29D094EA050F08BF90EA020F35
:1004C00005D054EA000C04BF1946104630BD91EA2D
:1004D000030F1EBF0021002030BD5FEA545C05D130
:1004E0004000494128BF41F0004130BD14F580046F
:1004F0003CBF01F5801130BD01F0004545F0FE41E3
:1005000041F470014FF0000030BD7FEA645C1ABF17
:10051000194610467FEA655C1CBF0B46024650EA4E
:10052000013406BF52EA033591EA030F41F400217A
:1005300030BD00BF90F0000F04BF0021704730B500
:100540004FF4806404F132044FF000054FF00001D5
:1005500050E700BF90F0000F04BF0021704730B596
:100560004FF4806404F1320410F0004548BF40426B
:100570004FF000013EE700BF42004FEAE2014FEAC0
:1005800031014FEA02701FBF12F07F4393F07F4F9B
:1005900081F06051704732F07F4208BF704793F09E
:1005A0007F4F04BF41F40021704730B54FF46074B1
:1005B00001F0004521F000411CE700BF50EA0102B4
:1005C00008BF704730B54FF000050AE050EA01025D
:1005D00008BF704730B511F0004502D5404261EBCD
:1005E00041014FF4806404F132045FEA915C3FF40E
:1005F000D8AE4FF003025FEADC0C18BF03325FEAAB
:10060000DC0C18BF033202EBDC02C2F1200300FA5B
:1006100003FC20FA02F001FA03FE40EA0E0021FA80
:1006200002F11444BDE600BF70B54FF0FF0C4CF46E
:10063000E06C1CEA11541DBF1CEA135594EA0C0F20
:1006400095EA0C0F00F0DEF82C4481EA030621EA5B
:100650004C5123EA4C5350EA013518BF52EA033596
:1006600041F4801143F4801338D0A0FB02CE4FF048
:100670000005E1FB02E506F00042E0FB03E54FF078
:100680000006E1FB03569CF0000F18BF4EF0010E70
:10069000A4F1FF04B6F5007F64F5407404D25FEA6C
:1006A0004E0E6D4146EB060642EAC62141EA55511F
:1006B0004FEAC52040EA5E504FEACE2EB4F1FD0C61
:1006C00088BFBCF5E06F1ED8BEF1004F08BF5FEADF
:1006D000500E50F1000041EB045170BD06F0004691
:1006E00046EA010140EA020081EA0301B4EB5C043E
:1006F000C2BFD4EB0C0541EA045170BD41F4801136
:100700004FF0000E013C00F3AB8014F1360FDEBF5A
:10071000002001F0004170BDC4F10004203C35DA36
:100720000C341BDC04F11404C4F1200500FA05F3B9
:1007300020FA04F001FA05F240EA020001F000425A
:1007400021F0004110EBD37021FA04F642EB0601D0
:100750005EEA430E08BF20EAD37070BDC4F10C04FA
:10076000C4F1200500FA04F320FA05F001FA04F2BE
:1007700040EA020001F0004110EBD37041F10001AA
:100780005EEA430E08BF20EAD37070BDC4F12005B5
:1007900000FA05F24EEA020E20FA04F301FA05F21D
:1007A00043EA020321FA04F001F0004121FA04F2C5
:1007B00020EA020000EBD3705EEA430E08BF20EA95
:1007C000D37070BD94F0000F0FD101F000464000CF
:1007D00041EB010111F4801F08BF013CF7D041EA51
:1007E000060195F0000F18BF704703F00046520055
:1007F00043EB030313F4801F08BF013DF7D043EA26
:100800000603704794EA0C0F0CEA135518BF95EADB
:100810000C0F0CD050EA410618BF52EA4306D1D162
:1008200081EA030101F000414FF0000070BD50EA81
:10083000410606BF1046194652EA430619D094EA0B
:100840000C0F02D150EA013613D195EA0C0F05D1F5
:1008500052EA03361CBF104619460AD181EA030149
:1008600001F0004141F0FE4141F470014FF0000001
:1008700070BD41F0FE4141F4780170BD70B54FF09C
:10088000FF0C4CF4E06C1CEA11541DBF1CEA13551C
:1008900094EA0C0F95EA0C0F00F0A7F8A4EB0504FE
:1008A00081EA030E52EA03354FEA013100F08880F5
:1008B0004FEA03334FF0805545EA131343EA1263BE
:1008C0004FEA022245EA111545EA10654FEA002673
:1008D0000EF000419D4208BF964244F1FD0404F52C
:1008E000407402D25B084FEA3202B61A65EB030588
:1008F0005B084FEA32024FF480104FF4002CB6EB45
:10090000020E75EB030E22BFB61A754640EA0C00C4
:100910005B084FEA3202B6EB020E75EB030E22BF04
:10092000B61A754640EA5C005B084FEA3202B6EB45
:10093000020E75EB030E22BFB61A754640EA9C0004
:100940005B084FEA3202B6EB020E75EB030E22BFD4
:10095000B61A754640EADC0055EA060E18D04FEA92
:10096000051545EA16754FEA06164FEAC30343EA32
:1009700052734FEAC2025FEA1C1CC0D111F4801FFF
:100980000BD141EA00014FF000004FF0004CB6E7F8
:1009900011F4801F04BF01430020B4F1FD0C88BF97
:1009A000BCF5E06F3FF6AFAEB5EB030C04BFB6EBA2
:1009B000020C5FEA500C50F1000041EB045170BD95
:1009C0000EF0004E4EEA113114EB5C04C2BFD4EBC2
:1009D0000C0541EA045170BD41F480114FF0000E46
:1009E000013C90E645EA060E8DE60CEA135594EAC2
:1009F0000C0F08BF95EA0C0F3FF43BAF94EA0C0FC5
:100A00000AD150EA01347FF434AF95EA0C0F7FF439
:100A100025AF104619462CE795EA0C0F06D152EA8D
:100A200003353FF4FDAE1046194622E750EA410671
:100A300018BF52EA43067FF4C5AE50EA41047FF482
:100A40000DAF52EA43057FF4EBAE12E74FF0FF3CE7
:100A500006E000BF4FF0010C02E000BF4FF0010CB8
:100A60004DF804CD4FEA410C7FEA6C5C4FEA430C31
:100A700018BF7FEA6C5C1BD001B050EA410C0CBF80
:100A800052EA430C91EA030F02BF90EA020F0020E2
:100A9000704710F1000F91EA030F58BF994208BF49
:100AA00090422CBFD8176FEAE37040F00100704706
:100AB0004FEA410C7FEA6C5C02D150EA013C07D15D
:100AC0004FEA430C7FEA6C5CD6D152EA033CD3D0A8
:100AD0005DF8040B704700BF8446104662468C46A2
:100AE0001946634600E000BF01B5FFF7B7FF0028D5
:100AF00048BF10F1000F01BD4DF808EDFFF7F4FFFE
:100B00000CBF012000205DF808FB00BF4DF808ED88
:100B1000FFF7EAFF34BF012000205DF808FB00BFAB
:100B20004DF808EDFFF7E0FF94BF012000205DF8CD
:100B300008FB00BF4DF808EDFFF7CEFF94BF012082
:100B400000205DF808FB00BF4DF808EDFFF7C4FF7B
:100B500034BF012000205DF808FB00BF4FEA410CC4
:100B60007FEA6C5C02D150EA013C0AD14FEA430CA7
:100B70007FEA6C5C02D152EA033C02D14FF00000E4
:100B800070474FF0010070474FEA410212F5001222
:100B900015D211D56FF47873B3EB625212D94FEAC4
:100BA000C12343F0004343EA505311F0004F23FAAE
:100BB00002F018BF404270474FF00000704750EA03
:100BC000013005D111F0004008BF6FF000407047C0
:100BD0004FF00000704700BF4A0011D212F500121A
:100BE00011D20DD56FF47873B3EB62520ED44FEA85
:100BF000C12343F0004343EA505323FA02F0704705
:100C00004FF00000704750EA013002D14FF0FF3042
:100C100070474FF0000070474FEA4102B2F1E043E5
:100C200024BFB3F5001CDCF1FE5C0DD901F0004CD3
:100C30004FEAC0024CEA5070B2F1004F40EB830023
:100C400008BF20F00100704711F0804F21D113F14F
:100C50003872BCBF01F00040704741F480114FEA88
:100C60005252C2F11802C2F1200C10FA0CF320FA11
:100C700002F018BF40F001004FEAC1234FEAD3232E
:100C800003FA0CFC40EA0C0023FA02F34FEA430398
:100C9000CCE77FEA625307D150EA01331EBF4FF021
:100CA000FE4040F44000704701F0004040F0FE403C
:100CB00040F40000704700BF53B94AB9002908BF8B
:100CC00000281CBF4FF0FF314FF0FF3000F0BAB9E1
:100CD000ADF1080C6DE904CE00F050F8DDF804E049
:100CE000DDE9022304B07047430803F05533C01A0E
:100CF000830803F0333300F03330184400EB101056
:100D000000F00F3000EB002000EB0040000E7047B9
:100D100038B50022002304460D46FFF7F7FE28B938
:100D200020462946BDE8384000F00AB8204605F1C3
:100D3000004100F005F8404261EB410138BD00BFC1
:100D4000D0B50C4B002206460F46FFF76DFCFFF7AF
:100D500043FF0446FFF7EEFB074B0022FFF764FC5E
:100D600002460B4630463946FFF7A6FAFFF734FF36
:100D70002146D0BD0000F03D0000F0412DE9F047D4
:100D8000089E0D4604460F46002B4AD18A429446DF
:100D900065D9B2FA82F343B102FA03FCC3F120022F
:100DA0009F4020FA02F217439C404FEA1C4E1FFA64
:100DB0008CF5B7FBFEF1220C0EFB117742EA0742DD
:100DC00001FB05F090420AD91CEB020201F1FF374A
:100DD00080F01C81904240F2198102396244121A5B
:100DE000A4B2B2FBFEF00EFB102244EA024400FB68
:100DF00005F5A5420AD91CEB040400F1FF3280F08E
:100E00000781A54240F204816444023840EA01406F
:100E1000641B00211EB1DC400023C6E90043BDE88D
:100E2000F0878B4208D9002E00F0ED800021C6E942
:100E300000050846BDE8F087B3FA83F1002949D1DF
:100E4000AB4202D3824200F2F880841A65EB0302BF
:100E500001201746002EE2D0C6E90047DFE702B9BD
:100E6000FFDEB2FA82F3002B40F090808A1A4FEA3C
:100E70001C471FFA8CFE0121B2FBF7F507FB15207A
:100E8000220C42EA00420EFB05F0904208D91CEB0E
:100E9000020205F1FF3802D2904200F2CB804546B3
:100EA000121AA4B2B2FBF7F007FB102244EA024484
:100EB0000EFB00FEA64508D91CEB040400F1FF322E
:100EC00002D2A64500F2BB801046A4EB0E0440EA15
:100ED00005409FE7C1F120078B4022FA07FC4CEA4E
:100EE000030C05FA01F420FA07F3FD404FEA1C4910
:100EF0002343B5FBF9F81FFA8CFE09FB18551C0CAF
:100F000044EA054408FB0EF5A54202FA01F200FA94
:100F100001F00BD91CEB040408F1FF3A80F0888043
:100F2000A54240F28580A8F102086444641B9DB28A
:100F3000B4FBF9F309FB134445EA044403FB0EFE3A
:100F4000A64508D91CEB040403F1FF356CD2A64575
:100F50006AD9023B644443EA0843A3FB0295A4EB2D
:100F60000E04AC42C846AE4656D353D056B1B0EB91
:100F7000080264EB0E0404FA07F7CA40CC4017439A
:100F8000C6E9007418460021BDE8F087C3F12001CE
:100F900002FA03FC20FA01F225FA01F19D402A43EE
:100FA0004FEA1C471FFA8CFEB1FBF7F007FB101548
:100FB000110C41EA054100FB0EF58D4204FA03F4E1
:100FC00008D91CEB010100F1FF382FD28D422DD939
:100FD00002386144491B92B2B1FBF7F507FB1511CA
:100FE00042EA014205FB0EF1914208D91CEB0202D4
:100FF00005F1FF3816D2914214D9023D6244521ACB
:1010000045EA004138E73146304608E73946E6E62A
:101010001046FBE64845A9D2B9EB020865EB0C0E79
:10102000013BA3E74546EAE72B4694E74046D1E774
:10103000D0467BE7023D624432E708460AE7644453
:10104000023842E7704700BF80B582B000AF7860D9
:101050000B467B807B681B68084A93420AD17B88D9
:10106000182B07D1064B18680023002205490EF003
:1010700053FB00BF00BF0837BD4680BD00440040A1
:10108000140400203C04002080B500AF044B1B6812
:101090004FF0FF3118460EF044FA00BF80BD00BF8C
:1010A0002C04002080B500AF034B1B6818460EF0DF
:1010B00083FA00BF80BD00BF2C04002080B500AFC4
:1010C000044B1B684FF0FF3118460EF02AFA00BFA0
:1010D00080BD00BF3004002080B500AF034B1B680B
:1010E00018460EF069FA00BF80BD00BF3004002032
:1010F00080B500AF044B1B684FF0FF3118460EF06F
:1011000010FA00BF80BD00BF3404002080B500AFDE
:10111000034B1B6818460EF04FFA00BF80BD00BF9E
:101120003404002080B500AF044B1B684FF0FF3142
:1011300018460EF0F6F900BF80BD00BF380400204D
:1011400080B500AF034B1B6818460EF035FA00BFA0
:1011500080BD00BF3804002080B500AF03F002FC62
:1011600000F0F8F84E480AF091FD00F009FA00F09E
:10117000DBF900F06DF900F0A1F90DF0CBFF00F004
:1011800053F90DF0C7FF0EF011F846480EF043F981
:101190000346454A136045480EF03DF90346444A6C
:1011A000136044480EF037F90346434A136043483E
:1011B0000EF031F90346424A1360424A1E210120D3
:1011C0000EF037FA0346404A1360404A20210120BE
:1011D0000EF02FFA03463E4A13603E4A18210120C2
:1011E0000EF027FA03463C4A13603C4A08210120CE
:1011F0000EF01FFA03463A4A13603A4AC62101200C
:101200000EF017FA0346384A1360384A02210120CB
:101210000EF00FFA0346364A1360364A002136486C
:101220000EF00EF80346354A1360354A0021354862
:101230000EF006F80346344A1360344A002134485D
:101240000DF0FEFF0346334A1360334A0021334852
:101250000DF0F6FF0346324A1360324A002132484D
:101260000DF0EEFF0346314A1360314A0021314848
:101270000DF0E6FF0346304A1360304A0021304843
:101280000DF0DEFF03462F4A13602F4A00212F483E
:101290000DF0D6FF03462E4A13600DF0ABFFFEE7BC
:1012A00019EF0008A82402082C040020B824020822
:1012B00030040020C824020834040020D824020886
:1012C00038040020182402081404002030240208E6
:1012D00018040020482402081C040020602402088E
:1012E000200400207824020824040020902402080E
:1012F00028040020F822020875160008F4030020D4
:101300001C23020885160008F80300204023020869
:10131000CD170008FC030020642302083D1A0008D2
:101320000004002088230208651A00080404002035
:10133000AC230208E11F000808040020D0230208A3
:101340007D2000080C040020F4230208F12100088D
:101350001004002080B594B000AF07F120033022C4
:10136000002118461AF0D0FD07F10C0300221A6084
:101370005A609A60DA601A610023BB60284B1B6CCC
:10138000274A43F080531364254B1B6C03F08053B2
:10139000BB60BB6800237B60224B1B6823F4404387
:1013A000204A43F4004313601E4B1B6803F4404380
:1013B0007B607B6801233B624FF480337B620223B6
:1013C000BB634FF48003FB6304233B6454237B64BF
:1013D0000223BB640423FB6407F12003184603F0D7
:1013E00031FE0346002B01D000F090FF0F23FB607D
:1013F00002233B6100237B614FF48053BB610023D8
:10140000FB6107F10C030221184604F093F8034630
:10141000002B01D000F07AFF00BF5037BD4680BDE1
:10142000003802400070004080B500AF064B074A0C
:101430001A60054803F0BAFB0346002B01D000F008
:1014400065FF00BF80BD00BFF402002000300240F5
:1014500080B500AF174B184A1A60164B4FF48272D2
:101460005A60144B00229A60124B0022DA60114B32
:1014700002221A610F4B01225A610E4B4FF4007287
:101480009A610C4B0022DA610A4B00221A62094B66
:1014900000225A62074B00229A62064B0A22DA6245
:1014A000044804F099FA0346002B01D000F02EFF07
:1014B00000BF80BDFC0200200030014080B500AFBD
:1014C000174B184A1A60164B4FF482725A60144B2D
:1014D00000229A60124B0022DA60114B02221A613C
:1014E0000F4B01225A610E4B4FF400729A610C4B64
:1014F0000022DA610A4B00221A62094B00225A626A
:10150000074B00229A62064B0A22DA62044804F072
:1015100063FA0346002B01D000F0F8FE00BF80BD47
:1015200054030020003C004080B500AF124B134A2A
:101530001A60114B4FF496525A600F4B4FF4805281
:101540009A600D4B0022DA600B4B4FF480621A61F7
:10155000094B04225A61084B00229A61064B002273
:10156000DA61054805F082FA0346002B01D000F04D
:10157000CDFE00BF80BD00BFAC0300200044004092
:1015800080B588B000AF07F10C0300221A605A60E2
:101590009A60DA601A610023BB60334B1B6B324ADE
:1015A00043F080031363304B1B6B03F08003BB607D
:1015B000BB6800237B602C4B1B6B2B4A43F0010361
:1015C0001363294B1B6B03F001037B607B680023D3
:1015D0003B60254B1B6B244A43F002031363224BF1
:1015E0001B6B03F002033B603B68012210211F4884
:1015F00003F00EFD00224FF400411C4803F008FDEB
:10160000002240211A4803F003FD1023FB60012350
:101610003B6100237B610323BB6107F10C03194687
:10162000124803F071FB4FF40043FB6001233B6160
:1016300000237B610023BB6107F10C0319460B48B3
:1016400003F062FB4023FB6001233B6100237B61CD
:101650000023BB6107F10C031946054803F054FB56
:1016600000BF2037BD4680BD003802400000024068
:101670000004024080B582B000AF786001200DF018
:10168000AFFEFBE780B594B000AF7860474B3B619D
:1016900000233B73464B186807F10C01022300221C
:1016A0000EF0F4FB424B1B6807F10C0100221846B8
:1016B0000EF072FF18223F493F4805F027FA6420D8
:1016C0000DF08EFED7ED047AB0EE670A4FF47A7112
:1016D0003A4802F099FB3A4B1B6818460EF0DAF8CC
:1016E0000346002B40D0364B186807F12C014FF40D
:1016F0007A7300220EF070F807F12C03184602F0FE
:10170000F5FB0346002B2FD102F0D2FDF0EE407A1C
:10171000C7ED077A02F0F2FCF0EE407AC7ED057AE9
:1017200002F078FDF0EE407AC7ED097A02F040FD54
:10173000F0EE407AC7ED087A02F020FDF0EE407A34
:10174000C7ED067A02F081FDF0EE407AC7ED0A7A25
:101750001C4B186807F11401022300220EF096FBBF
:1017600002E0194B5B68FB6418221249124805F02D
:10177000CDF90346012BF4D04FF47A700DF030FE12
:101780000B4B1B6807F10C01002218460EF004FFFA
:101790003B7B002B9FD000233B73054B186807F160
:1017A0000C01022300220EF071FB7BE76F12833ADB
:1017B000200400203C040020AC030020C0AF1C002B
:1017C000140400201C0400200044004090B5ADF239
:1017D0002C4D12AF07F57873A3F577731860874C1B
:1017E000684604F11003482219461AF062FD94E895
:1017F0000F0003F063F8824B824A8349834802F06A
:10180000D7FD07F1E00207F5F07107F538704FF4E6
:10181000807317F0BBFE7E497E4817F09BFE17F0E1
:10182000EDFE0346002B03DA17F010FF17F0E6FE7B
:10183000794817F095FF0346002B0FDD07F1D8011B
:1018400008230022744817F00DFF744B186807F145
:10185000D801022300220EF019FB13E007F578737C
:10186000A3F542736E4A5A6007F57873A3F5427385
:1018700001221A70694B186807F1D801022300226F
:101880000EF004FB674817F06BFF0346002B0FDDDB
:1018900007F11001C6230022624817F0E3FE624BF5
:1018A000186807F11001022300220EF0EFFA13E08E
:1018B00007F57873A3F5747301221A7007F578732E
:1018C000A3F5747300225A70574B186807F1100182
:1018D000022300220EF0DAFA544817F041FF0346C3
:1018E000002B0FDD07F10C01022300224F4817F0F7
:1018F000B9FE4F4B186807F10C01022300220EF0CD
:10190000C5FA0BE007F57873A3F5757300225A70DA
:1019100007F57873A3F5757301221A70454817F01F
:101920009BFF454817F098FF3C4B1B6807F1D80117
:10193000002218460EF030FE07F57873A3F54273C7
:101940001B78002B14D007F57873A3F5427300229F
:101950001A7007F1D803082219462F4817F0C6FE5F
:101960002E4B186807F1D801022300220EF08EFAE0
:101970002D4B1B6807F11001002218460EF00CFEDB
:1019800007F57873A3F574731B78002B14D007F553
:101990007873A3F5747300221A7007F11003C6223E
:1019A0001946204817F0A2FE1F4B186807F11001D6
:1019B000022300220EF06AFA1D4B1B6807F10C018E
:1019C000002218460EF0E8FD07F57873A3F575734D
:1019D0001B78002B0CD007F57873A3F575730022E4
:1019E0001A7007F10C0302221946104817F07EFE08
:1019F0004FF47A700DF0F4FC96E700BFFC02002073
:101A000011490008ED4800084D4900083549000813
:101A1000D9100008BD100008BCFF010820040020F8
:101A20006F12833ACCFF010824040020DCFF010878
:101A300028040020F0FF0108F8FF010880B584B0F9
:101A400000AF78600023FB60FB680133FB6009F0A6
:101A5000F7FB0CF0D1FF0AF07FF94FF47A700DF02C
:101A6000BFFCF1E790B5ADF5845D83B012AF07F12F
:101A7000400343F83C0C07F5805303F10803202290
:101A8000002118461AF040FA07F5815303F10803C4
:101A90001722002118461AF037FA402307F5815221
:101AA00002F108021370082307F5815202F10902BE
:101AB0001370DC4B1B7807F5815202F10A02137098
:101AC000D94B1B7807F5815202F10B021370D74BEB
:101AD0001B7807F5815202F10C021370D44B1B786E
:101AE00007F5815202F10D02137007F5805303F1DF
:101AF0000B0307F5815202F1080210681860928802
:101B00009A80022307F5815202F11E02137007F535
:101B1000815303F10E031B6807F5805202F1110295
:101B2000136007F5815303F112031B6807F5805218
:101B300002F11502136007F5815303F116031B68C8
:101B400007F5805202F11902136007F5815303F182
:101B50001A031B6807F5805202F11D021360B54C91
:101B6000684604F11003482219461AF0A2FB94E8D3
:101B70000F000DF093FAB049B0480DF03BFAB048B1
:101B80000DF020FA07F5815303F1080318460DF014
:101B90001DF9AC49AC4807F09DFAAC49AC4807F0D8
:101BA00073FAAC49AC4807F049FAAC4AAC49AC48C6
:101BB00007F0F4FF07F12003183B4FF400621946C9
:101BC00004200AF075F8A7480AF060F8A649A7486B
:101BD0000AF040F807F5815303F11E031B7807F55F
:101BE000815202F101021370002307F5805202F1C5
:101BF000080213700DF0A8F90346002B40F0EB81AA
:101C00004FF4FA700FF0A4F907F5815303F10803BC
:101C1000062219464FF4106005F0CCFF07F58153FA
:101C200003F11E031B78022B06D107F608031946A1
:101C3000002009F05BFA03E00DF0D8F80DF078F918
:101C4000FFF756FA0DF022F90DF038F90346002B94
:101C500040F0E080002307F5815202F10E0213707C
:101C6000002307F5815202F10F021370002307F5DC
:101C7000815202F110021370002307F5815202F124
:101C800011021370002307F5815202F11202137042
:101C9000002307F5815202F113021370002307F5A8
:101CA000815202F114021370002307F5815202F1F0
:101CB00015021370002307F5815202F1160213700A
:101CC000002307F5815202F117021370002307F574
:101CD000815202F118021370002307F5815202F1BC
:101CE00019021370002307F5815202F11A021370D2
:101CF000002307F5815202F11B021370002307F540
:101D0000815202F11C021370002307F5815202F187
:101D10001D021370FFF7FAF9002307F5815202F153
:101D20001F0213705AE007F5815303F11F031A785D
:101D300007F5815303F11F031B7802F582523A44E1
:101D400012F8122C03F582533B4403F82F2C07F5AD
:101D5000815303F11F031A7807F5815303F11F0321
:101D60001B7802F582523A4412F80E2C03F5825386
:101D70003B4403F82B2C07F5815303F11F031A781A
:101D800007F5815303F11F031B7802F582523A4491
:101D900012F80A2C03F582533B4403F8272C07F56D
:101DA000815303F11F031A7807F5815303F11F03D1
:101DB0001B7802F582523A4412F8062C03F582533E
:101DC0003B4403F8232C07F5815303F11F031B78D1
:101DD000013307F5815202F11F02137007F5815399
:101DE00003F11F031B78032B9DD9002307F58052B5
:101DF00002F1080213701E4B186807F5805101F1BB
:101E00000801022300220EF041F800BF01200DF06E
:101E1000E7FADFE6002307F5815202F11F02137093
:101E200083E000BF107AFF1F117AFF1F127AFF1F95
:101E3000137AFF1F5403002055F000083DF00008FE
:101E4000E1F30008CDF00008F1F0000885F000088B
:101E50006DF00008A51000088910000821EE0008A8
:101E600039EE000819EF000841110008251100089B
:101E70001804002007F5815303F11F031A7807F5B2
:101E8000815303F11F031B7802F582523A4412F882
:101E9000122C03F582533B4403F82F2C07F5815392
:101EA00003F11F031A7807F5815303F11F031B7811
:101EB00002F582523A4412F80E2C03F582533B4449
:101EC00003F82B2C07F5815303F11F031A7807F54C
:101ED000815303F11F031B7802F582523A4412F832
:101EE0000A2C03F582533B4403F8272C07F5815352
:101EF00003F11F031A7807F5815303F11F031B78C1
:101F000002F582523A4412F8062C03F582533B4400
:101F100003F8232C07F5815303F11F031B780133CA
:101F200007F5815202F11F02137007F5815303F187
:101F30001F031B78032B9DD9012307F5805202F163
:101F4000080213700CF0DCFF0346DBB207F5805289
:101F500002F10A0213700CF0C7FF0346DBB207F56B
:101F6000805202F10902137009F0F8F9034607F5EF
:101F7000815202F104021360FFF7C8F807F581539C
:101F800003F10E031B78002B0ED1144B186807F5D4
:101F9000805101F10801022300220DF077FF4FF478
:101FA0007A700DF01DFA15E007F5805303F1080370
:101FB0001533184609F096FE084B186807F580514E
:101FC00001F10801022300220DF060FF4FF47A7046
:101FD0000DF006FA34E600BFFCE500BF180400204F
:101FE00080B584B000AF78601D4B1B6818460DF0BB
:101FF000B9F9F8601B4B1B6818460DF0B3F9F8608F
:10200000194B1B6818460DF0ADF9F860174B1B68AB
:1020100018460DF0A7F9F860154B1B6818460DF02F
:10202000A1F9F860134B1B6818460DF09BF9F86096
:10203000114B1B6818460DF095F9F86000200DF063
:1020400091F9F86000200DF08DF9F86000200DF096
:1020500089F9F8604FF47A700DF0C2F9C4E700BF57
:10206000F4030020F8030020FC03002000040020FB
:1020700004040020080400200C04002080B5ADF505
:10208000815D84B000AF07F1300343F82C0C4A4A5D
:1020900007F5805303F108031268114619800233D3
:1020A000120C1A70032307F5815202F10E0213700D
:1020B00007F5805303F1080307F5815202F10E0280
:1020C000127807F6080107F1100008380BF0BCFE83
:1020D0003A480CF02BFE3A480CF040FE394B1B6896
:1020E0000321184600F0F8FB374B1B680421184603
:1020F00000F0F2FB354B1B680021184600F0ECFBAA
:10210000334B1B680221184600F0E6FB3149324888
:102110000CF08EFC314932480CF08AFC31493248CF
:102120000CF086FC314B1B6807F5805101F10C0166
:10213000002218460EF030FA07F5805303F10C0325
:102140001B78002B31D00CF0E7FE0346012B2CD17D
:10215000002307F5815202F10F02137018E0FEF719
:10216000C7FF07F5815303F10F031B7818460BF0E7
:1021700087FEFEF7CBFF0DF013F907F5815303F14E
:102180000F031B78013307F5815202F10F02137020
:1021900007F5815303F10F031A7807F5815303F113
:1021A0000E031B789A42DAD303E04FF47A700DF0F5
:1021B00017F90DF0F5F8B5E7BC0C02081933000863
:1021C000C13300081C040020200400202404002047
:1021D0002804002004000208200302082C0302083F
:1021E000D8060208EC060208B00C02081804002009
:1021F00080B5ADF6F80D02AF07F50F63A3F6EC035B
:1022000018603549354801F049F94FF47A700DF0FE
:10221000E7F8334B1B6807F50D61002218460EF0F6
:10222000BBF997F8D03883F00103DBB2002B49D11A
:102230000CF072FE0346012B44D12A4B1B6807F6B3
:102240000801002218460EF0A7F90BE04FF47A704F
:102250000DF0C6F8234B1B6807F60801002218464C
:102260000EF09AF997F8093883F00103DBB2002BDE
:10227000ECD197F8093883F00103DBB2002B23D1AE
:1022800007F5816207F6080107F50D604FF48063DA
:10229000019307F1080300934FF4806301F01AF9EA
:1022A0000346002B12D101F001FA0346002B0FDB8D
:1022B00001F04CFA0346002B0CD14FF47A700DF06C
:1022C0008FF8FAE700BFA0E700BF9EE700BF9CE7DA
:1022D00000BF9AE700BF98E70D110008F110000851
:1022E000180400202404002080B582B000AF78607C
:1022F0007B681B68044A934201D102F055FB00BF82
:102300000837BD4680BD00BF0000014080B400AF6B
:1023100072B600BFFEE7000080B582B000AF0023B8
:102320007B60124B5B6C114A43F4804353640F4B48
:102330005B6C03F480437B607B6800233B600B4B4A
:102340001B6C0A4A43F080531364084B1B6C03F068
:1023500080533B603B6800220F216FF0010002F0C8
:10236000FBFB00BF0837BD4680BD00BF0038024000
:1023700080B485B000AF78607B681B680B4A9342DD
:102380000DD10023FB600A4B1B6B094A43F48053B9
:102390001363074B1B6B03F48053FB60FB6800BFA8
:1023A0001437BD465DF8047B704700BF0030024023
:1023B0000038024080B58CB000AF786007F11C0394
:1023C00000221A605A609A60DA601A617B681B68A2
:1023D000324A93422CD10023BB61314B5B6C304AB3
:1023E00043F4805353642E4B5B6C03F48053BB6106
:1023F000BB6900237B612A4B1B6B294A43F0010315
:102400001363274B1B6B03F001037B617B69E023A4
:10241000FB6102233B6200237B620323BB62052333
:10242000FB6207F11C0319461E4802F06DFC30E008
:102430007B681B681C4A93422BD100233B61184BDD
:102440001B6C174A43F400431364154B1B6C03F4D5
:1024500000433B613B690023FB60114B1B6B104A3F
:1024600043F0020313630E4B1B6B03F00203FB608C
:10247000FB683823FB6102233B6200237B6203235A
:10248000BB620623FB6207F11C031946074802F0F2
:102490003BFC00BF3037BD4680BD00BF003001406F
:1024A0000038024000000240003C004000040240AE
:1024B00080B58AB000AF786007F1140300221A607B
:1024C0005A609A60DA601A617B681B681D4A934201
:1024D00033D100233B611C4B1B6C1B4A43F400337C
:1024E0001364194B1B6C03F400333B613B690023FD
:1024F000FB60154B1B6B144A43F001031363124B33
:102500001B6B03F00103FB60FB680C237B61022360
:10251000BB610023FB6103233B6207237B6207F15E
:1025200014031946094802F0EFFB0022052126207A
:1025300002F012FB262002F02BFB00BF2837BD461D
:1025400080BD00BF0044004000380240000002404F
:1025500080B58CB000AF78600023BB6200237B6243
:102560000023BB602E4B5B6C2D4A43F00103536488
:102570002B4B5B6C03F00103BB60BB6807F10C02E3
:1025800007F110031146184603F0F4F903F0DEF9E1
:10259000B862BB6A234AA2FB03239B0C013B7B620C
:1025A000214B224A1A60204B40F2E732DA601E4A81
:1025B0007B6A53601C4B00221A611B4B00229A60FD
:1025C000194B00229A61184803F0DCFF034687F894
:1025D0002F3097F82F30002B1BD1134804F02CF824
:1025E000034687F82F3097F82F30002B11D1192090
:1025F00002F0CEFA7B680F2B08D8002279681920E8
:1026000002F0AAFA0A4A7B68136002E0012387F805
:102610002F3097F82F3018463037BD4680BD00BFA9
:102620000038024083DE1B435C04002000000140B0
:102630009C00002080B400AFFEE780B400AFFEE74E
:1026400080B400AFFEE780B400AFFEE780B400AF17
:10265000FEE780B400AF00BFBD465DF8047B704765
:1026600080B500AF024804F049F800BF80BD00BF4C
:102670005C04002080B500AF024804F0A5FA00BF5A
:1026800080BD00BFAC03002080B400AF012318461A
:10269000BD465DF8047B704780B582B000AF7860BE
:1026A000396019F0D1FD034616221A604FF0FF334E
:1026B00018460837BD4680BD80B582B000AF78604F
:1026C0004FF0FF317868FFF7E7FFFEE780B586B08F
:1026D00000AFF860B9607A6000237B610AE0AFF375
:1026E00000800146BB685A1CBA60CAB21A707B6986
:1026F00001337B617A697B689A42F0DB7B6818461C
:102700001837BD4680BD80B586B000AFF860B960AF
:102710007A6000237B6109E0BB685A1CBA601B78B1
:102720001846AFF300807B6901337B617A697B686F
:102730009A42F1DB7B6818461837BD4680BD80B4ED
:1027400083B000AF78604FF0FF3318460C37BD46BA
:102750005DF8047B704780B483B000AF7860396067
:102760003B684FF400525A60002318460C37BD46B0
:102770005DF8047B704780B483B000AF78600123BC
:1027800018460C37BD465DF8047B704780B485B0B1
:1027900000AFF860B9607A60002318461437BD4670
:1027A0005DF8047B7047000080B586B000AF7860AC
:1027B000144A154BD31A7B617B693B61134B1B6831
:1027C000002B02D1114B124A1A60104B1A687B6819
:1027D00013443A699A4207D219F036FD03460C2297
:1027E0001A604FF0FF3309E0084B1B68FB60074B92
:1027F0001A687B681344054A1360FB68184618374B
:10280000BD4680BD0000012000040000A40400209B
:1028100070DA002080B400AF064BD3F88830054A48
:1028200043F47003C2F8883000BFBD465DF8047BF6
:10283000704700BF00ED00E0DFF834D0FFF7EAFF9B
:102840000C480D490D4A002302E0D458C45004330B
:10285000C4188C42F9D30A4A0A4C002301E01360E1
:102860000432A242FBD319F0F5FCFEF775FC704769
:102870000000012000000020D80200208032020861
:10288000D802002070DA0020FEE780B483B000AFE9
:102890000346FB71FB792F2B05D9FB79392B02D825
:1028A000FB79303B12E0FB79602B05D9FB79662B75
:1028B00002D8FB79573B09E0FB79402B05D9FB791E
:1028C000462B02D8FB79373B00E0002318460C3733
:1028D000BD465DF8047B704780B483B000AF78607C
:1028E0000B46FB70FB78002B06D17B68002B2AD0AF
:1028F000184A7B68136026E0FB78012B06D17B68C1
:10290000002B20D0144A7B6813601CE0FB78022B5C
:1029100006D17B68002B16D0104A7B68136012E04A
:10292000FB78032B06D17B68002B0CD00C4A7B680C
:10293000136008E0FB78042B05D17B68002B02D0E4
:10294000084A7B68136000BF0C37BD465DF8047B06
:10295000704700BFA8040020AC040020B004002091
:10296000B4040020B804002080B5CCB000AF07F557
:102970009873A3F5967318600A4607F59873A3F247
:102980002D131A7007F59873A3F22D131B78042BDF
:1029900000F24F8101A252F823F000BFB1290008D4
:1029A000332C00083D2B0008332C0008C32B0008F3
:1029B00007F16403C6220021184619F0A5FA07F5AD
:1029C0009873A3F59673A24918680BF0A9F803460B
:1029D0003121184619F0AFFA0346002B03D001232A
:1029E00087F8653012E007F59873A3F59673984958
:1029F00018680BF095F803463021184619F09BFA39
:102A00000346002B02D0002387F8653007F5987342
:102A1000A3F596738F4918680BF082F8C7F82C015C
:102A2000D7F82C31002B06D1D7F82C01FDF738FC54
:102A30000346202B07D807F164038433D7F82C1101
:102A4000184619F02EFC07F59873A3F59673824982
:102A500018680BF065F8C7F82C01D7F82C31002B5B
:102A600006D1D7F82C01FDF71BFC0346202B07D815
:102A700007F16403A533D7F82C11184619F011FC9F
:102A800007F59873A3F59673744918680BF048F826
:102A9000C7F82C01D7F82C31002B06D1D7F82C0120
:102AA000FDF7FEFB03467F2B08D807F164030233D2
:102AB0007F22D7F82C11184619F080FA07F5987381
:102AC000A3F59673664918680BF02AF8C7F82C012D
:102AD000D7F82C31002B06D1D7F82C01FDF7E0FBFD
:102AE0000346052B1ED807F116031A465D49D7F891
:102AF0002C0119F0D9F807F59873A3F58D731B888D
:102B0000002B0FD007F59873A3F58D731B884FF634
:102B1000FF72934206D007F59873A3F58D731B8857
:102B2000A7F8E630012387F864304F4B186807F1A7
:102B30006401022300220DF0A9F97DE007F11C03D6
:102B400002220021184619F0DFF907F59873A3F562
:102B50009673464918680AF0E3FF03463121184688
:102B600019F0E9F90346002B06D007F59873A3F591
:102B70008A7301225A7015E007F59873A3F59673CE
:102B80003A4918680AF0CCFF03463021184619F07C
:102B9000D2F90346002B05D007F59873A3F58A7385
:102BA00000225A7007F59873A3F58A7301221A70F0
:102BB0002F4B186807F11C01022300220DF066F963
:102BC0003AE007F59873A3F596732A4918680AF056
:102BD000A7FFC7F82C01D7F82C31002B2BD0264AA1
:102BE0002649D7F82C0119F05FF8234B1B681846CB
:102BF000FDF7C2FC14A3D3E90023FDF7A5FF0346AC
:102C0000002B00D117E01C4B1A6807F59873A3F549
:102C100092735A6007F59873A3F5927301221A70A4
:102C2000174B186807F10C01022300220DF02EF952
:102C300001E000BF00E000BF00BF07F59877BD4688
:102C400080BD00BFAFF300802D431CEBE2361A3F7E
:102C5000C00C0208C80C0208D00C0208DC0C0208E8
:102C6000E00C0208E80C0208A8040020EC0C0208A2
:102C7000B0040020F40C0208BC040020FC0C020884
:102C8000B80400202DE9F04FADF5097D0AAF07F536
:102C9000FC73A3F5EE73186007F5FC73A3F5F273EC
:102CA0001A6007F5FC73A3F2DD130A461A7007F5E4
:102CB000FC73A3F59E73734A1846114651231A46B6
:102CC00019F0F7FA07F5FC73A3F5E0736E4A18469E
:102CD000114684231A4619F0ECFA07F5FC73A3F5A4
:102CE000EA736A4A1C4615460FCD0FC42B68238031
:102CF00007F5FC73A3F2DD131B78042B00F093801F
:102D0000042B00F3B880002B02D0032B31D0B2E0AB
:102D10005F4B1B6807F59871002218460DF03CFCCC
:102D2000B7F8B2311D4697F831311E4607F5987352
:102D30009C1C07F5987303F1840207F1BC0107F5A9
:102D4000FC73A3F5EE70019600952346006818F019
:102D50008BFF07F5FC73A3F5EE731868FDF7A0FA77
:102D600003469AB207F5FC73A3F5F2731B681A8049
:102D700082E0484B1B6807F58C71002218460DF065
:102D80000BFCD7F818311846FDF7F6FBC7E902012E
:102D9000D7F81C311846FDF7EFFB04460D46D7F86F
:102DA00024311846FDF7E8FB80468946D7F82831DC
:102DB0001846FDF7E1FB82468B46D7F82C311846C2
:102DC000FDF7DAFBC7E90001D7F820311846FDF717
:102DD000D3FB02460B4607F1380607F5FC71A1F557
:102DE000EE70CDE9082397ED007B8DED067BCDE9F4
:102DF00004ABCDE90289CDE90045D7E9022331468C
:102E0000006818F031FF07F5FC73A3F5EE7318683E
:102E1000FDF746FA03469AB207F5FC73A3F5F27381
:102E20001B681A8028E01C4B1B6807F5887100227C
:102E300018460DF0B1FBD7F814311846FDF79CFB8E
:102E400002460B4607F1240107F5FC70A0F5EE7071
:102E5000006818F009FF07F5FC73A3F5EE73186816
:102E6000FDF71EFA03469AB207F5FC73A3F5F27359
:102E70001B681A8000E000BF00BF07F5FE77BD4663
:102E8000BDE8F08F000D0208540D0208D80D0208AD
:102E9000A8040020B4040020B804002080B5ADF5DB
:102EA0003E7D02AF07F53C73A3F53973186007F553
:102EB0003C73A3F53A73196007F53C73A3F53B73B4
:102EC0001A6007F19003C7F8E43207F53C73A3F5E5
:102ED0003973AB4918680AF023FEC7F8E002D7F847
:102EE000E032002B23D007F19403A64A92E80300B6
:102EF00018600433197007F194032D22D7F8E012FB
:102F0000184619F036F807F53C73A3F539739E4956
:102F100018680AF005FEC7F8E002D7F8E002FDF7EE
:102F2000BFF90346B3F5007F80F0138111E007F588
:102F30003C73A3F53B731B68944A10681860928831
:102F40009A8007F53C73A3F53A731B6805221A8033
:102F500011E1D7F8E032002B00F0E980D7F8E00269
:102F6000FDF79EF90346C7F8DC32D7F8DC3207F1EB
:102F7000C8000093D7F8E032D7F8E4224FF400718C
:102F800016F084FCC7F8EC0207F53C73A3F539731F
:102F90007F4918680AF0C4FDC7F8D8020023C7F8B3
:102FA000E83230E0D7F8E832D7F8D82213441B785B
:102FB0001846FFF76AFCC7F8CC02D7F8E8320133AD
:102FC000D7F8D82213441B781846FFF75EFCC7F8E1
:102FD000C802D7F8CC321B015AB2D7F8C8325BB25C
:102FE000134359B2D7F8E832DA0F13445B101A468C
:102FF000C9B207F53C73A3F522739954D7F8E832A8
:103000000233C7F8E832D7F8E8321F2BCADD07F5DC
:103010003C73A3F5227300221A7407F110031846BB
:1030200016F050FD07F11003184616F069FDD7F8A9
:10303000E4321A6807F1C80107F11003184617F0C7
:1030400049FC07F17C0207F110031146184617F0FE
:10305000B6FC07F11003184616F041FD07F53C7366
:10306000A3F51D7300221A7407F17C0107F16803B0
:103070001022184618F090FF0346002B06D04FF0A0
:10308000FF33C7F8EC32D7F8EC3274E007F53C7345
:10309000A3F539733F4918680AF042FDC7F8D40216
:1030A0000A21D7F8D4020AF0EDFD0346C7F8D03262
:1030B000D7F8D032002B0FD1374B00221A60D7F847
:1030C000E4321A6807F1C80107F19403184616F0B4
:1030D0000DFBC7F8EC021DE00A21D7F8D4020AF074
:1030E000D1FD03461A462C4B1B689A4206D04FF07E
:1030F000FF33C7F8EC32D7F8EC323CE0D7F8E432D3
:103100001A6807F1C80107F19403184616F04CFB42
:10311000C7F8EC02204B1B6801331F4A1360D7F835
:10312000EC32002B15DA0023C7F8EC3211E007F57A
:103130003C73A3F53B731B68144A106818609288AF
:103140009A8007F53C73A3F53A731B6805221A8031
:1031500011E007F53C73A3F53B731B680F4A118818
:10316000927819809A7007F53C73A3F53A731B683F
:1031700002221A80FFE7184607F53C77BD4680BD5E
:10318000EC0D0208F80D0208080E0208000E0208F5
:10319000100E0208180E0208C0040020200E0208BB
:1031A0002DE9F04FADF5117D12AF07F5FC73A3F5D6
:1031B000EA73186007F5FC73A3F5EC73196007F563
:1031C000FC73A3F5E8734F4A18461146E4231A46E8
:1031D00019F06FF84C4B1B6807F5F0710022184688
:1031E0000DF0DAF9494B1B6807F5EC71002218461F
:1031F0000DF0D2F9464B1B6807F58871002218467E
:103200000DF0CAF9434B1B6807F58671002218467A
:103210000DF0C2F9D7F8E0311846FDF7ADF9C7E96E
:103220000601D7F8E4311846FDF7A6F982468B4629
:10323000D7F8EC311846FDF79FF905460E46D7F84A
:10324000F0311846FDF798F9C7E90401D7F8F431D1
:103250001846FDF791F9C7E90201D7F8E831184699
:10326000FDF78AF980468946D7F8DC311846FDF724
:1032700083F997F80D317B6097F811313B60B7F80F
:1032800092311A4607F1280C07F5FC73A3F5EA748E
:1032900007F58873023310930F9207F58873843310
:1032A0000E933B680D937B680C93CDE90A01CDE941
:1032B000088997ED027B8DED067B97ED047B8DED04
:1032C000047BCDE90256CDE900ABD7E90623614680
:1032D000206818F0C9FC07F5FC73A3F5EA731868B9
:1032E000FCF7DEFF03469AB207F5FC73A3F5EC7317
:1032F0001B681A800023184607F5FE77BD46BDE817
:10330000F08F00BF240E0208B4040020B80400208F
:10331000A8040020B004002080B586B000AFF8609B
:10332000B9607A603B6000233B602149F868FCF794
:1033300057FF0346002B06D10021B868FFF714FBA6
:103340000123FB752FE01B49F868FCF749FF034692
:10335000002B06D10221B868FFF706FB0123FB759D
:1033600021E01549F868FCF73BFF0346002B0DD11F
:103370007A683968B868FFF791FD0346002B02DAD6
:103380000023FB750FE00123FB750CE00B49F86887
:10339000FCF726FF0346002B05D10421B868FFF790
:1033A000E3FA0123FB75FB7D18461837BD4680BD47
:1033B000080F02081C0F0208300F0208400F020815
:1033C00080B586B000AFF860B9607A600023FB7505
:1033D0002849F868FCF704FF0346002B07D17A68F8
:1033E0000021B868FFF74EFC0123FB753DE0224940
:1033F000F868FCF7F5FE0346002B0BD1BB681F49AC
:103400001A460B461B8813800123FB757B6802223A
:103410001A802AE01A49F868FCF7E2FE0346002BFE
:1034200007D17A680321B868FFF72CFC0123FB75EC
:103430001BE01449F868FCF7D3FE0346002B07D1C4
:103440007A680421B868FFF71DFC0123FB750CE0C6
:103450000D49F868FCF7C4FE0346002B05D17968D6
:10346000B868FFF79DFE0123FB75FB7D18461837F2
:10347000BD4680BD580F02086C0F0208200E0208DE
:10348000780F0208840F0208980F020880B400AF7A
:1034900000BFBD465DF8047B7047000080B483B078
:1034A00000AF786039607B68002B02D07B68074AE8
:1034B00013603B68002B02D03B68054A136000BFD5
:1034C0000C37BD465DF8047B704700BF5C000020F0
:1034D00060000020B0B588B004AFF860B9607A60D1
:1034E0007B805E4AFB6813605D4ABB6813605D4A7F
:1034F0007B6813605C4A3B6A13605C4A7B8813807C
:103500005B4ABB8C1380554B1B68DB781C46534BC6
:103510001B681B791D46514B1B685B791A464F4B44
:103520001B689B7919464D4B1B68DB7918464B4B42
:103530001B681B7A03930290019100922B4622464E
:103540004C494D4818F090FB4B4800F00DFA434BA6
:103550001B685B7A1946414B1B689B7A18463F4BA8
:103560001B68DB7A1A463D4B1B681B7B019300925C
:1035700003460A464149424818F076FB404800F0AD
:1035800015FA374B1B680233184608F0EBFB03466D
:10359000002B0CD0324B1B68981C3A4B01933A4BD2
:1035A00000933A4B3A4A3B4918F07EFB0DE02C4B16
:1035B0001B6802333649184608F0A6FB0346B3F1F0
:1035C000FF3F02D14FF0FF3343E0334B0022DA7666
:1035D000314B03221A72304B274ADA602E4B41F2EC
:1035E00088321A832C4B01229A761D4B1B68843338
:1035F000294A13641A4B1B68A533274AD364184B16
:103600001B68B3F88220254B1A80254B00229A8034
:10361000234B00221A70224B00229A70204B00226A
:103620005A7005211F4809F037F90E4B1A680F4BE5
:103630001B8818460C4B1B680D49098802910193A1
:10364000009013464FF47A721649174808F074FC3C
:10365000002318461037BD46B0BD00BFC804002087
:10366000C4040020F4040020F0040020D20700204D
:10367000D0070020A40F0208CC040020C00F0208CD
:10368000DC040020D7070020D6070020D507002043
:10369000D4070020CC0F020804000020D807002027
:1036A00048080020DC070020EC07002080B582B02D
:1036B00000AF1F4B1B6898471E4B1B881A461E49BC
:1036C0001E4809F066F90346FB801D4B1B689847AE
:1036D000B7F90630012B10D0154B1B689847174BD4
:1036E0001B68DBB2184604F06FFD154B1B6898474A
:1036F000FB880A3B9BB21BB216E00D4B1B68984738
:103700001049114808F01EFF0346FB800C4B1B6854
:103710009847B7F90630002B04D0FB88143B9BB2C6
:103720001BB201E0B7F9063018460837BD4680BD28
:103730005C000020D8070020D4070020DC07002010
:103740006000002004000020EC07002080B582B05B
:1037500000AF802200217E4818F0D6FB0022032112
:103760007B4800F043F9002203217A4800F0DEF99B
:103770007848FCF795FD0346774AD360764B754A47
:103780009A60764B1B689847734A7149744808F0F1
:103790005FFF0346FB71734B1B68984797F907302F
:1037A000002B02D097F90730CDE06B4B9B8801339B
:1037B0009AB2694B9A8080220021654818F0A4FBD8
:1037C00000220521624800F011F90022052161481C
:1037D00000F0ACF95F48FCF763FD03465E4AD36036
:1037E0005D4B5C4A9A605D4B1B6898475A4A584942
:1037F0005B4808F02DFF0346FB715A4B1B68984746
:1038000097F90730002B02D097F907309BE0524B15
:103810009B8801339AB2504B9A80802200214C48F9
:1038200018F072FB00220421494800F0DFF8002262
:103830000421484800F07AF94648FCF731FD034678
:10384000454AD360444B434A9A60444B1B689847AF
:10385000414A3F49424808F0FBFE0346FB71414B99
:103860001B68984797F90730002B02D097F907306B
:1038700069E0394B9B8801339AB2374B9A8080229A
:103880000021334818F040FB00220621304800F0A8
:10389000ADF8002206212F4800F048F92D48FCF72A
:1038A000FFFC03462C4AD3602B4B2A4A9A602B4BD1
:1038B0001B689847284A2649294808F0C9FE03464C
:1038C000FB71284B1B68984797F90730002B02D0F3
:1038D00097F9073037E0204B9B8801339AB21E4B93
:1038E0009A80802200211A4818F00EFB002207213E
:1038F000174800F07BF800220721164800F016F95F
:103900001448FCF7CDFC0346134AD360124B114A0E
:103910009A60124B1B6898470F4A0D49104808F0EF
:1039200097FE0346FB710F4B1B68984797F90730CA
:10393000002B02D097F9073005E0074B9B88013335
:103940009AB2054B9A8018460837BD4680BD00BF25
:10395000F804002078050020480800205C000020C2
:10396000EC0700206000002080B584B000AF7860D4
:103970000023FB737868FCF793FC03460D2B02D9F8
:103980000E23FB7304E07868FCF78AFC0346FB73A4
:10399000FB7B1A467968044818F010FB0023184690
:1039A0001037BD4680BD00BF5808002080B582B0EA
:1039B00000AF78600C4B00221A707868FCF770FC3E
:1039C0000346122B0AD87868FCF76AFC03461A46AD
:1039D0007968054818F0F2FA002301E04FF0FF3350
:1039E00018460837BD4680BD6808002080B586B0FF
:1039F00004AF78600B46FB701346BB7000217868FB
:103A000018F04FFCFB78013B062B6CD801A252F852
:103A100023F000BF313A00084B3A0008653A00082D
:103A2000993A00087F3A0008B33A0008CD3A0008F6
:103A3000BB7802932F4B01932F4B00932F4B304AAF
:103A40003049786818F010F94EE0BB7802932E4B9D
:103A50000193294B00932C4B294A2A49786818F086
:103A600003F941E0294B0293234B0193284B009328
:103A7000284B234A2849786818F0F6F834E0274B99
:103A800002931D4B0193224B0093224B1C4A224967
:103A9000786818F0E9F827E0214B0293164B019360
:103AA0001B4B00931B4B164A1B49786818F0DCF837
:103AB0001AE01C4B0293104B0193154B0093154BCE
:103AC0000F4A1549786818F0CFF80DE0164B0293AD
:103AD000094B01930E4B00930E4B094A0E4978682F
:103AE00018F0C2F800E000BF002318460837BD46B2
:103AF00080BD00BF8C00002058080020740000200A
:103B0000640000200025020884000020081002083C
:103B100010100208E80F0208F00F0208181002083F
:103B200020100208281002083810020890B597B03B
:103B300012AF78600B46FB701346BB700023FB731B
:103B40007B6800221A70FB78013B062B00F21A8179
:103B500001A252F823F000BFA93B0008753B000802
:103B6000D73B0008833C00082D3C0008D93C0008E6
:103B70002F3D0008BB78BA78B978B878854C07949F
:103B8000854C0694844C05940490834803900291DC
:103B900001920093804B804A8049786818F064F85D
:103BA0000346FB73FB7BF0E0B978BB78BA787948C1
:103BB000059079480490784803900292764A0192E1
:103BC00000930B46744A7649786818F04DF803461E
:103BD000FB73FB7BD9E06F4B1093724B0F93724BCF
:103BE0000E93724B0D93724B0C93724B0B936A4B6B
:103BF0000A93714B0993714B0893714B0793664B72
:103C000006936D4B05936F4B04936F4B03936C4B73
:103C100002936E4B0193604B0093674B684A6C496B
:103C2000786818F021F80346FB73AEE0594B109307
:103C30005C4B0F935C4B0E935C4B0D935C4B0C9366
:103C40005C4B0B93544B0A935B4B0993614B08936A
:103C5000614B0793504B0693574B05935F4B04936F
:103C60005F4B03935C4B0293584B01934A4B009379
:103C7000514B594A5649786817F0F6FF0346FB73D3
:103C800083E0444B1093474B0F93474B0E93474BA6
:103C90000D93474B0C93474B0B933F4B0A93464B6B
:103CA0000993504B0893504B07933B4B0693424B61
:103CB00005934E4B04934A4B03934B4B0293434B58
:103CC0000193354B00933C4B474A4149786817F0C4
:103CD000CBFF0346FB7358E02E4B1093314B0F93F1
:103CE000314B0E93314B0D93314B0C93314B0B9366
:103CF000294B0A93304B09933D4B08933D4B079357
:103D0000254B06932C4B05933B4B0493344B039369
:103D1000384B02932D4B01931F4B0093264B354A92
:103D20002B49786817F0A0FF0346FB732DE0194B71
:103D300010931C4B0F931C4B0E931C4B0D931C4B61
:103D40000C931C4B0B93144B0A931B4B09932B4B5B
:103D500008932B4B0793104B0693174B0593294B56
:103D600004931F4B0393264B0293184B01930A4B6A
:103D70000093114B224A1649786817F075FF0346E5
:103D8000FB7302E04FF0FF33FFE718461437BD46E0
:103D900090BD00BF68080020580800201C250208BC
:103DA000DC260208401002084810020850100208E1
:103DB000601002087010020810100208801002083B
:103DC00008100208841002088C100208B0100208C3
:103DD00074280208B810020818100208BC10020863
:103DE000C4100208C810020820100208CC100208F3
:103DF000D410020828100208D8100208DC100208AB
:103E000038100208E0100208B0B584B000AFF860C6
:103E1000B96087ED010AF868FCF78CFB04460D4693
:103E2000B868FCF787FB4FF00002174BFCF7FCFB70
:103E300002460B4620462946FCF720FD02460B466B
:103E400010461946FCF7E8FE0346104A13607868EE
:103E5000FCF792FB4FF000020B4BFCF7E5FB024630
:103E60000B464FF000000A49FCF708FD02460B46DE
:103E700010461946FCF7D0FE0346064A136000BF01
:103E80001037BD46B0BD00BF00408F4094000020F9
:103E90000000F03F9800002080B485B000AF78604B
:103EA0000023BB730223FB730EE0FB7B7A68134491
:103EB0001B787B73FB7B7A6813441A78BB7B1344B3
:103EC000BB73FB7B0133FB73FB7B162BEDD97B684C
:103ED00017331B78BA7B9A4201D1012300E00023FB
:103EE00018461437BD465DF8047B704780B582B034
:103EF00000AF78607B6801335A211846FCF770F9EF
:103F00000346002B02D14FF0FF33B6E07868FFF78D
:103F1000C3FF0346002B02D16FF00103ADE07B68C5
:103F200002331B781A047B6803331B781B0213448B
:103F30007A68043212781344524A13607B6814334F
:103F40001B789B09DBB203F00103002B1BD07B68BD
:103F500005331B781A047B6806331B781B02134455
:103F60007A68073212781344474A1360454B1A683F
:103F7000454B1B68B2FBF3F307EE903AF8EE677A15
:103F8000424BC3ED007A7B6808331B781A047B68C8
:103F900009331B781B0213447A680A3212781344DF
:103FA0003B4A13607B6814331B785B09DBB203F078
:103FB0000103002B0ED07B680B331B781A047B683F
:103FC0000C331B781B0213447A680D3212781344A9
:103FD000304A13607B680E331B781A047B680F33FA
:103FE0001B781B0213447A681032127813442A4A51
:103FF00013607B6814331B781B09DBB203F00103E9
:10400000002B0ED07B6811331B781A047B681233A7
:104010001B781B0213447A681332127813441F4A28
:1040200013607B6815331B789BB21B029AB27B68C6
:1040300016331B789BB213449AB2194B1A807B68D3
:1040400014331B78DB09DBB203F00103002B04D02F
:10405000144B1B680133134A1360134B1A88104B1F
:104060001B889A4204D9114B1B6801330F4A136015
:104070000B4B1A880C4B1A80002318460837BD4694
:1040800080BD00BF7C08002080080020940800202C
:104090008C08002090080020840800208808002058
:1040A0009C080020980800209E080020A0080020FE
:1040B00080B400AF0E4B1B68002B02D1DFED0D6A00
:1040C0000DE00D4B1B6807EE903AB8EE677A084B8F
:1040D0001B6807EE903AF8EE677AC7EE276AF0EEB3
:1040E000667AB0EE670ABD465DF8047B704700BF94
:1040F00080080020000000007C08002080B582B00D
:1041000000AFFFF7D5FF87ED010A084BD3ED007A2A
:1041100097ED017A67EE277AC7ED007A3B6807EEE4
:10412000903AB0EE670A0837BD4680BD9400002083
:1041300080B400AF0E4B1B68002B02D1DFED0D6A7F
:104140000DE00D4B1B6807EE903AB8EE677A084B0E
:104150001B6807EE903AF8EE677AC7EE276AF0EE32
:10416000667AB0EE670ABD465DF8047B704700BF13
:1041700090080020000000008C08002080B582B06C
:1041800000AFFFF7D5FF87ED010A084BD3ED007AAA
:1041900097ED017A67EE277AC7ED007A3B6807EE64
:1041A000903AB0EE670A0837BD4680BD98000020FF
:1041B00080B483B000AF134B1B68002B02D14FF0CB
:1041C000000316E0104B1A680E4B1B68B2FBF3F3AA
:1041D00007EE903AB8EE677A0C4BD3ED007A27EEF3
:1041E000277A0B4BD3ED007A67EE277AC7ED017A79
:1041F0007B6807EE903AB0EE670A0C37BD465DF873
:10420000047B704788080020840800209400002068
:104210009800002080B584B000AFFFF76FFF87EDF6
:10422000030AFFF7ABFF87ED020A97ED037AD7ED9C
:10423000027A67EE277AC7ED017A7B6807EE903A3B
:10424000B0EE670A1037BD4680BD80B584B000AFC0
:10425000FFF7AEFF87ED030AFFF7DCFF87ED020AE9
:10426000D7ED027AF5EE407AF1EE10FA02D14FF076
:104270007E5314E097ED037AD7ED027AB4EEE77A35
:10428000F1EE10FA02DD4FF07E5308E0D7ED036A3D
:1042900097ED027AC6EE877AC7ED017A7B6807EE62
:1042A000903AB0EE670A1037BD4680BD00000000AE
:1042B000B0B584B000AFFFF7ADFF87ED030A324B16
:1042C0001B681846FCF736F902460B464FF0000013
:1042D0002E49FCF7D3FA02460B4614461D462C4BDA
:1042E00093ED007A2B4BD3ED007A67EE277A17EE29
:1042F000900AFCF741F902460B464FF000002349B3
:10430000FCF7BCFA02460B4620462946FCF78CF91E
:1043100002460B461046194617A3D3E90023FCF7C3
:1043200083F902460B461046194615A3D3E900232C
:10433000FCF77AF902460B4610461946FCF76CFC6E
:104340000346BB60144B1B681B04144A12881344B9
:104350007B607B6807EE903AF8EEE76A97ED027AA9
:10436000C6EE877AC7ED007A3B6807EE903AB0EE6A
:10437000670A1037BD46B0BD0000000065CDCD41D5
:10438000000000000020AC40840800200000F03F46
:104390009400002098000020980800209C0800202D
:1043A00080B400AF00BFBD465DF8047B70470000DD
:1043B00080B485B000AFF860B9607A603B60FB689C
:1043C000002B03D00E4AFB68D36002E00C4B0D4A71
:1043D000DA60BB68002B03D0094ABB68136102E0B6
:1043E000074B084A1A61064A7B685360044A3B68D7
:1043F000936000BF1437BD465DF8047B704700BF73
:10440000A4080020A143000880B500AF00F09CF88C
:10441000662000F01FFA992000F01CFA00F09EF8C8
:1044200000BF80BD90B585B000AF7860FFF7ECFFAE
:1044300000F0D2F9F860FB683E4A93423FD0FB6837
:104440003C4A934267D8FB683B4A934221D0FB68C1
:10445000394A93425FD8FB68384A934245D0FB689B
:10446000374A934257D1374B354A1A60354B0122B0
:104470009A80344B0122DA80324B4FF480521A81F9
:10448000304B4FF480725A812E4B4FF400729A8158
:1044900045E02C4B284A1A602A4B01229A80294B6E
:1044A0000122DA80274B4FF480521A81254B4FF4BA
:1044B00080725A81234B4FF480629A812FE0214B06
:1044C0001C4A1A601F4B01229A801E4B0122DA807F
:1044D0001C4B4FF480521A811A4B4FF480725A8150
:1044E000184B4FF400629A8119E0164B134A1A6078
:1044F000144B01229A80134B0122DA80114B4FF4A6
:1045000080521A810F4B4FF480725A810D4B4FF439
:1045100080629A8103E00B4B00221A6000BF7B6827
:10452000084A1C4613460FCB84E80F0078681437FE
:10453000BD4690BD1740EF001640EF001620C200A8
:104540001540EF00B808002080B500AF024BDB68D3
:10455000984700BF80BD00BFA408002080B500AF11
:10456000024B1B69984700BF80BD00BFA408002014
:1045700080B582B000AF786000F07CF9FFF7E4FF0F
:10458000202000F067F97B681B0CDBB2184600F0B6
:1045900061F97B681B0ADBB2184600F05BF97B68A7
:1045A000DBB2184600F056F9FFF7D8FF00F06DF9BE
:1045B00000BF0837BD4680BD80B584B000AFF8604D
:1045C000B9601346FB8000F055F9FFF7BDFF0220EC
:1045D00000F040F9BB681B0CDBB2184600F03AF95A
:1045E000BB681B0ADBB2184600F034F9BB68DBB2CB
:1045F000184600F02FF907E0FB681B78184600F01A
:1046000029F9FB680133FB60FB885A1EFA80002BF6
:10461000F2D1FFF7A3FF00F038F900BF1037BD4615
:1046200080BD80B586B000AFF860B9601346FB80EE
:104630000023FB750023BB7500237B7500233B75AE
:104640000023FB74BB687B757B7D5B423B75FB88FD
:104650001B0A9BB2FB75FB88BB757B7D002B24D1AD
:10466000FB7D002B14D1FB881A46B968F868FFF768
:10467000A3FF7BE04FF48072B968F868FFF79CFFF6
:10468000BB6803F58073BB60FB6803F58073FB6058
:10469000FB7D5A1EFA75002BECD1BB7D9BB21A46EE
:1046A000B968F868FFF788FF60E0FB7D002B25D133
:1046B000BA7D3B7D9A421AD9BA7D3B7DD31AFB74F1
:1046C0003B7D9BB21A46B968F868FFF775FF3B7DE2
:1046D000BA681344BB603B7DFA681344FB60FB7C03
:1046E0009BB21A46B968F868FFF766FF3EE0FB88A0
:1046F0001A46B968F868FFF75FFF37E03B7D9BB269
:10470000FA88D31AFB80FB881B0A9BB2FB75FB88D7
:10471000BB753B7D9BB21A46B968F868FFF74CFF42
:104720003B7DBA681344BB603B7DFA681344FB6071
:104730000DE04FF48072B968F868FFF73DFFBB6881
:1047400003F58073BB60FB6803F58073FB60FB7D42
:104750005A1EFA75002BECD1BB7D002B06D0BB7D19
:104760009BB21A46B968F868FFF726FF00BF1837F2
:10477000BD4680BD80B584B000AFF860B960134617
:10478000FB80FFF7E1FE032000F064F8BB681B0C20
:10479000DBB2184600F05EF8BB681B0ADBB21846B5
:1047A00000F058F8BB68DBB2184600F053F808E098
:1047B00000F046F803461A46FB681A70FB6801339E
:1047C000FB60FB885A1EFA80002BF1D1FFF7C6FE72
:1047D00000BF1037BD4680BD80B584B000AF002358
:1047E000FB600023BB6000237B6000233B60FFF77E
:1047F000ABFEFFF7B3FEFFF7A7FEFFF7AFFEFFF735
:10480000A3FE9F2000F026F800F01AF80346BB60D4
:1048100000F016F803467B6000F012F803463B6098
:10482000FFF79CFEBB681A047B681B0213433A68BF
:104830001343FB60FB6818461037BD4680BD00007F
:1048400080B500AF024B5B6898470346184680BDB1
:10485000A408002080B582B000AF0346FB71044B72
:104860009B68FA791046984700BF0837BD4680BD5F
:10487000A408002080B500AFFFF766FE0620FFF712
:10488000E9FFFFF76BFE00BF80BD80B582B000AFCF
:104890000023FB71FFF758FE0520FFF7DBFFFFF752
:1048A000CFFF0346FB71FB7903F00103002BF6D128
:1048B000FFF754FE00BF0837BD4680BD84B080B509
:1048C00000AF07F1080C8CE80F00074B184607F102
:1048D00008035822194617F0ECFC00BFBD46BDE89E
:1048E000804004B0704700BFC808002080B582B087
:1048F00000AFF91D41F288330122044801F038FA73
:10490000FB7918460837BD4680BD00BFC8080020A7
:1049100080B582B000AF0346FB71F91D41F28833C8
:104920000122034801F0E1F800BF0837BD4680BD11
:10493000C808002080B500AF00221021024800F016
:1049400067FB00BF80BD00BF0000024080B500AF24
:1049500001221021024800F05BFB00BF80BD00BFB8
:104960000000024080B500AF0E4B1B680D4A43F4B7
:10497000007313600B4B1B680A4A43F48063136097
:10498000084B1B68074A43F480731360032000F050
:10499000D8F80F20FDF7DCFDFDF7BEFC002318461C
:1049A00080BD00BF003C024080B400AF064B1B78C6
:1049B0001A46064B1B681344044A136000BFBD46E9
:1049C0005DF8047B704700BFA00000202009002094
:1049D00080B400AF034B1B681846BD465DF8047BEE
:1049E000704700BF2009002080B485B000AF786018
:1049F0007B6803F00703FB600C4BDB68BB60BA68A5
:104A00004FF6FF031340BB60FB681A02BB681343F9
:104A100043F0BF6343F40033BB60044ABB68D36018
:104A200000BF1437BD465DF8047B704700ED00E021
:104A300080B400AF044BDB681B0A03F00703184681
:104A4000BD465DF8047B704700ED00E080B483B0A4
:104A500000AF0346FB7197F90730002B0BDBFB79A6
:104A600003F01F02074997F907305B09012000FA9C
:104A700002F241F8232000BF0C37BD465DF8047BED
:104A8000704700BF00E100E080B483B000AF034690
:104A90003960FB7197F90730002B0ADB3B68DAB20B
:104AA0000C4997F907301201D2B20B4483F8002366
:104AB0000AE03B68DAB20849FB7903F00F03043BD4
:104AC0001201D2B20B441A7600BF0C37BD465DF816
:104AD000047B704700E100E000ED00E080B489B0A5
:104AE00000AFF860B9607A60FB6803F00703FB6110
:104AF000FB69C3F10703042B28BF0423BB61FB69D7
:104B00000433062B02D9FB69033B00E000237B61E1
:104B10004FF0FF32BB6902FA03F3DA43BB681A4075
:104B20007B699A404FF0FF317B6901FA03F3D94367
:104B30007B680B40134318462437BD465DF8047B61
:104B4000704780B582B000AF78607868FFF74CFF9F
:104B500000BF0837BD4680BD80B586B000AF0346B4
:104B6000B9607A60FB7300237B61FFF761FF7861B6
:104B70007A68B9687869FFF7B1FF024697F90F3094
:104B800011461846FFF780FF00BF1837BD4680BDAD
:104B900080B582B000AF0346FB7197F90730184625
:104BA000FFF754FF00BF0837BD4680BD80B582B017
:104BB00000AF78607B68002B01D101230EE07B6899
:104BC0005B79DBB2002B05D17B6800221A71786813
:104BD000FDF7CEFB7B6801225A7100231846083787
:104BE000BD4680BD80B584B000AF78607B689B6DAA
:104BF000FB60FFF7EDFEB8607B6893F83530DBB201
:104C0000022B08D07B6880225A657B68002283F8DB
:104C10003420012352E07B681B681A687B681B689C
:104C200022F016021A607B681B685A697B681B6851
:104C300022F080025A617B681B6C002B03D17B68D9
:104C40009B6C002B07D07B681B681A687B681B680D
:104C500022F008021A607B681B681A687B681B6870
:104C600022F001021A6013E0FFF7B2FE0246BB68B1
:104C7000D31A052B0CD97B6820225A657B68032246
:104C800083F835207B68002283F83420032315E065
:104C90007B681B681B6803F00103002BE4D17B6871
:104CA000DB6D3F229A40FB689A607B68012283F8A3
:104CB00035207B68002283F8342000231846103703
:104CC000BD4680BD80B483B000AF78607B6893F848
:104CD0003530DBB2022B04D07B6880225A65012379
:104CE0000CE07B68052283F835207B681B681A6816
:104CF0007B681B6822F001021A60002318460C37FB
:104D0000BD465DF8047B704780B489B000AF786021
:104D1000396000237B6100233B610023BB610023DA
:104D2000FB6159E10122FB6902FA03F37B613B68F5
:104D30001B687A6913403B613A697B699A4240F08B
:104D400048813B685B6803F00303012B05D03B6897
:104D50005B6803F00303022B30D17B689B68BB6167
:104D6000FB695B00032202FA03F3DB43BA691340D9
:104D7000BB613B68DA68FB695B0002FA03F3BA695E
:104D80001343BB617B68BA699A607B685B68BB61EF
:104D90000122FB6902FA03F3DB43BA691340BB61EA
:104DA0003B685B681B0903F00102FB6902FA03F32D
:104DB000BA691343BB617B68BA695A603B685B6838
:104DC00003F00303032B17D07B68DB68BB61FB692F
:104DD0005B00032202FA03F3DB43BA691340BB61B1
:104DE0003B689A68FB695B0002FA03F3BA691343F4
:104DF000BB617B68BA69DA603B685B6803F00303F8
:104E0000022B23D1FB69DA087B68083253F8223081
:104E1000BB61FB6903F007039B000F2202FA03F357
:104E2000DB43BA691340BB613B681A69FB6903F055
:104E300007039B0002FA03F3BA691343BB61FB69E2
:104E4000DA087B680832B96943F822107B681B686E
:104E5000BB61FB695B00032202FA03F3DB43BA691F
:104E60001340BB613B685B6803F00302FB695B00B6
:104E700002FA03F3BA691343BB617B68BA691A602B
:104E80003B685B6803F44033002B00F0A2800023F2
:104E9000FB60574B5B6C564A43F480435364544B5E
:104EA0005B6C03F48043FB60FB68524AFB699B0820
:104EB000023352F82330BB61FB6903F003039B000C
:104EC0000F2202FA03F3DB43BA691340BB617B682C
:104ED000494A934219D07B68484A934213D07B6871
:104EE000474A93420DD07B68464A934207D07B687D
:104EF000454A934201D1042308E0072306E0032337
:104F000004E0022302E0012300E00023FA6902F03A
:104F1000030292009340BA691343BB613549FB69B0
:104F20009B080233BA6941F82320384B9B68BB6168
:104F30003B69DB43BA691340BB613B685B6803F4C0
:104F40008013002B03D0BA693B691343BB612F4A1E
:104F5000BB6993602D4BDB68BB613B69DB43BA697E
:104F60001340BB613B685B6803F40013002B03D064
:104F7000BA693B691343BB61244ABB69D360234BC5
:104F80005B68BB613B69DB43BA691340BB613B684B
:104F90005B6803F40033002B03D0BA693B69134309
:104FA000BB611A4ABB695360184B1B68BB613B6904
:104FB000DB43BA691340BB613B685B6803F4803331
:104FC000002B03D0BA693B691343BB610F4ABB692D
:104FD0001360FB690133FB61FB690F2B7FF6A2AE07
:104FE00000BF00BF2437BD465DF8047B704700BF9B
:104FF0000038024000380140000002400004024036
:1050000000080240000C024000100240003C014039
:1050100080B483B000AF78600B467B8013467B7012
:105020007B78002B03D07A887B689A6103E07B88C9
:105030001A047B689A6100BF0C37BD465DF8047B9B
:105040007047000080B586B000AF78607B68002BA9
:1050500001D1012367E27B681B6803F00103002B89
:1050600075D0884B9B6803F00C03042B0CD0854B48
:105070009B6803F00C03082B12D1824B5B6803F48E
:105080008003B3F5800F0BD17E4B1B6803F4003314
:10509000002B5BD07B685B68002B57D1012342E279
:1050A0007B685B68B3F5803F06D1764B1B68754A19
:1050B00043F4803313601DE07B685B68B3F5A02F79
:1050C0000CD1704B1B686F4A43F4802313606D4B07
:1050D0001B686C4A43F4803313600BE0694B1B6818
:1050E000684A23F480331360664B1B68654A23F4D7
:1050F000802313607B685B68002B13D0FFF768FC8C
:10510000386108E0FFF764FC02463B69D31A642B60
:1051100001D9032307E25B4B1B6803F40033002B28
:10512000F0D014E0FFF754FC386108E0FFF750FCC2
:1051300002463B69D31A642B01D90323F3E1514B97
:105140001B6803F40033002BF0D100E000BF7B6844
:105150001B6803F00203002B63D04A4B9B6803F0EB
:105160000C03002B0BD0474B9B6803F00C03082B60
:105170001CD1444B5B6803F48003002B16D1414BD8
:105180001B6803F00203002B05D07B68DB68012B52
:1051900001D00123C7E13B4B1B6823F0F8027B6879
:1051A0001B69DB00374913430B603AE07B68DB681F
:1051B000002B20D0344B01221A60FFF709FC386124
:1051C00008E0FFF705FC02463B69D31A022B01D920
:1051D0000323A8E12B4B1B6803F00203002BF0D044
:1051E000284B1B6823F0F8027B681B69DB0025490C
:1051F00013430B6015E0244B00221A60FFF7E8FB15
:10520000386108E0FFF7E4FB02463B69D31A022B42
:1052100001D9032387E11B4B1B6803F00203002B1A
:10522000F0D17B681B6803F00803002B36D07B6845
:105230005B69002B16D0154B01221A60FFF7C8FBE3
:10524000386108E0FFF7C4FB02463B69D31A022B22
:1052500001D9032367E10B4B5B6F03F00203002BC3
:10526000F0D01BE0094B00221A60FFF7B1FB386158
:105270000EE0FFF7ADFB02463B69D31A022B07D9BC
:10528000032350E10038024000004742800E4742AD
:10529000884B5B6F03F00203002BEAD17B681B682D
:1052A00003F00403002B00F097800023FB75814B73
:1052B0001B6C03F08053002B0FD10023BB607D4B90
:1052C0001B6C7C4A43F0805313647A4B1B6C03F0D5
:1052D0008053BB60BB680123FB75774B1B6803F4ED
:1052E0008073002B18D1744B1B68734A43F480738E
:1052F0001360FFF76DFB386108E0FFF769FB0246BA
:105300003B69D31A022B01D903230CE16A4B1B68BA
:1053100003F48073002BF0D07B689B68012B06D1CF
:10532000644B1B6F634A43F0010313671CE07B6807
:105330009B68052B0CD15F4B1B6F5E4A43F0040347
:1053400013675C4B1B6F5B4A43F0010313670BE071
:10535000584B1B6F574A23F001031367554B1B6FC4
:10536000544A23F0040313677B689B68002B15D015
:10537000FFF72EFB38610AE0FFF72AFB02463B6984
:10538000D31A41F28832934201D90323CBE0494B2F
:105390001B6F03F00203002BEED014E0FFF718FBA5
:1053A00038610AE0FFF714FB02463B69D31A41F269
:1053B0008832934201D90323B5E03E4B1B6F03F0C3
:1053C0000203002BEED1FB7D012B05D1394B1B6C69
:1053D000384A23F0805313647B689B69002B00F0EC
:1053E000A180344B9B6803F00C03082B5CD07B68D6
:1053F0009B69022B41D1314B00221A60FFF7E8FA7A
:10540000386108E0FFF7E4FA02463B69D31A022B41
:1054100001D9032387E0274B1B6803F00073002B9F
:10542000F0D17B68DA697B681B6A1A437B685B6A28
:105430009B011A437B689B6A5B08013B1B041A4370
:105440007B68DB6A1B061B4913434B601B4B012225
:105450001A60FFF7BDFA386108E0FFF7B9FA0246B3
:105460003B69D31A022B01D903235CE0114B1B6863
:1054700003F00073002BF0D054E0104B00221A60B0
:10548000FFF7A6FA386108E0FFF7A2FA02463B6987
:10549000D31A022B01D9032345E0064B1B6803F006
:1054A0000073002BF0D13DE07B689B69012B07D195
:1054B000012338E00038024000700040600047429D
:1054C0001B4B5B68FB607B689B69012B28D0FB68EA
:1054D00003F480027B68DB699A4221D1FB6803F008
:1054E0003F027B681B6A9A421AD1FA6847F6C0737A
:1054F00013407A68526A9201934211D1FB6803F417
:1055000040327B689B6A5B08013B1B049A4207D1CF
:10551000FB6803F070627B68DB6A1B069A4201D06D
:10552000012300E0002318461837BD4680BD00BFA8
:105530000038024080B584B000AF786039607B6885
:10554000002B01D10123CCE0684B1B6803F007035B
:105550003A689A420CD9654B3A68D2B21A70634BDA
:105560001B6803F007033A689A4201D00123B8E0B0
:105570007B681B6803F00203002B20D07B681B684C
:1055800003F00403002B05D0594B9B68584A43F4A1
:10559000E05393607B681B6803F00803002B05D081
:1055A000534B9B68524A43F460439360504B9B6853
:1055B00023F0F0027B689B684D4913438B607B6846
:1055C0001B6803F00103002B44D07B685B68012B50
:1055D00007D1474B1B6803F40033002B19D101237B
:1055E0007FE07B685B68022B03D07B685B68032BE2
:1055F00007D13F4B1B6803F00073002B09D1012337
:105600006FE03B4B1B6803F00203002B01D1012329
:1056100067E0374B9B6823F003027B685B68344983
:1056200013438B60FFF7D4F9F8600AE0FFF7D0F975
:105630000246FB68D31A41F28832934201D9032310
:105640004FE02B4B9B6803F00C027B685B689B0070
:105650009A42EBD1254B1B6803F007033A689A4244
:105660000CD2224B3A68D2B21A70204B1B6803F05E
:1056700007033A689A4201D0012332E07B681B6835
:1056800003F00403002B08D0194B9B6823F4E0526D
:105690007B68DB68164913438B607B681B6803F0EB
:1056A0000803002B09D0124B9B6823F460427B68EF
:1056B0001B69DB000E4913438B6000F021F80246A2
:1056C0000B4B9B681B0903F00F030A49CB5C22FAC2
:1056D00003F3094A1360094B1B681846FCF738FFAF
:1056E000002318461037BD4680BD00BF003C024075
:1056F00000380240E8240208000000209C0000203E
:105700002DE9B04F94B000AF00237B640023FB640D
:1057100000233B640023BB64794B9B6803F00C03BC
:10572000082B0DD0082B00F2E180002B02D0042BB7
:1057300003D0DBE0734BBB64DBE0734BBB64D8E0AE
:105740006F4B5B6803F03F037B646D4B5B6803F456
:105750008003002B63D06A4B5B689B090022BB630C
:10576000FA63BB6BC3F308033B6300237B63D7E996
:105770000C4522462B464FF000004FF00001590126
:1057800041EAD261500102460B462146511A396165
:10579000294663EB01037B614FF000024FF00003E9
:1057A000D7E904AB59468B01514643EA9163514610
:1057B0008A015146B2EB0108594663EB01094FF0EB
:1057C00000024FF000034FEAC90343EA58734FEA5F
:1057D000C80290469946234618EB0303BB602B464C
:1057E00049EB0303FB604FF000024FF00003D7E9E1
:1057F000024529464B02214643EAD15321464A023B
:10580000104619467B6C0022BB62FA62D7E90A2374
:10581000FBF752FA02460B461346FB6458E0384B3E
:105820005B689B09002218461146C0F308033B62DF
:1058300000237B62D7E9088942464B464FF00000BF
:105840004FF00001590141EAD261500102460B4676
:105850004146B2EB010A494663EB010B4FF00002EF
:105860004FF000034FEA8B1343EA9A634FEA8A1220
:10587000B2EB0A0463EB0B054FF000024FF000039C
:10588000EB0043EA5473E20014461D464346E31816
:105890003B604B4645EB03037B604FF000024FF04B
:1058A0000003D7E9004529468B02214643EA91537C
:1058B00021468A02104619467B6C0022BB61FA61C0
:1058C000D7E90623FBF7F8F902460B461346FB64BB
:1058D0000B4B5B681B0C03F0030301335B003B6461
:1058E000FA6C3B6CB2FBF3F3BB6402E0054BBB64A8
:1058F00000BFBB6C18465037BD46BDE8B08F00BF37
:10590000003802400024F40000127A0080B400AF96
:10591000034B1B681846BD465DF8047B704700BF0B
:105920000000002080B500AFFFF7F0FF0246054BF6
:105930009B689B0A03F007030349CB5C22FA03F33D
:10594000184680BD00380240F824020880B500AF38
:10595000FFF7DCFF0246054B9B685B0B03F0070378
:105960000349CB5C22FA03F3184680BD003802409D
:10597000F824020880B483B000AF786039607B6897
:105980000F221A60124B9B6803F003027B685A6077
:105990000F4B9B6803F0F0027B689A600C4B9B688E
:1059A00003F4E0527B68DA60094B9B68DB0803F480
:1059B000E0527B681A61074B1B6803F007023B68E3
:1059C0001A6000BF0C37BD465DF8047B704700BF0E
:1059D00000380240003C024080B582B000AF7860E1
:1059E0007B68002B01D101237BE07B685B6A002B85
:1059F00008D17B685B68B3F5827F09D07B680022A1
:105A0000DA6105E07B6800221A617B6800225A6136
:105A10007B6800229A627B6893F85130DBB2002BDE
:105A200006D17B68002283F850207868FCF7C2FC1E
:105A30007B68022283F851207B681B681A687B68A8
:105A40001B6822F040021A607B685B6803F4827274
:105A50007B689B6803F404431A437B68DB6803F4A8
:105A600000631A437B681B6903F002031A437B68D7
:105A70005B6903F001031A437B689B6903F40073BD
:105A80001A437B68DB6903F038031A437B681B6A9F
:105A900003F0800342EA03017B689B6A03F400522F
:105AA0007B681B680A431A607B689B691B0C03F0C8
:105AB00004017B685B6A03F010027B681B680A4381
:105AC0005A607B681B68DA697B681B6822F4006295
:105AD000DA617B6800225A657B68012283F85120D5
