:020000040801F1
:10000000000001203D2D0108392B01083F2B01087C
:10001000452B01084B2B0108512B01080000000063
:10002000000000000000000000000000C1300208D5
:10003000572B01080000000011330208D5FD01080C
:100040008D2D01088D2D01088D2D01088D2D0108A4
:100050008D2D01088D2D01088D2D01088D2D010894
:100060008D2D01088D2D01088D2D01088D2D010884
:100070008D2D01088D2D01088D2D01088D2D010874
:100080008D2D01088D2D01088D2D01080000000027
:100090000000000000000000000000008D2D01089D
:1000A0008D2D0108652B01088D2D01088D2D01086E
:1000B0008D2D01088D2D01088D2D01088D2D010834
:1000C0008D2D01088D2D01088D2D01088D2D010824
:1000D0008D2D01088D2D0108792B010800000000ED
:1000E0008D2D01088D2D01088D2D010800000000C7
:1000F0000000000000000000000000008D2D01083D
:10010000000000008D2D01088D2D01088D2D0108A6
:1001100000000000000000000000000000000000DF
:100120008D2D01088D2D01088D2D01088D2D0108C3
:100130008D2D0108000000000000000000000000FC
:100140000000000000000000000000008D2D0108EC
:100150008D2D01088D2D01088D2D01088D2D010893
:100160008D2D01088D2D0108000000000000000009
:10017000000000000000000000000000000000007F
:10018000000000008D2D01080000000000000000AC
:040190008D2D0108A8
:1001A00010B5054C237833B9044B13B10448AFF3B1
:1001B00000800123237010BDF80200200000000021
:1001C0003417030808B5034B1BB103490348AFF3C9
:1001D000008008BD00000000FC0200203417030866
:1001E00010F8012B11F8013B012A28BF9A42F7D0E1
:1001F000D01A70470000000000000000000000005E
:1002000001F0FF01102A2BDB10F0070F08D010F8C7
:10021000013B013A8B422DD010F0070F42B3F6D1CB
:10022000F0B441EA012141EA014122F007047FF0E4
:1002300000070023F0E80256083C85EA010586EA3B
:10024000010685FA47F5A3FA87F586FA47F6A5FA77
:1002500087F68EB9EED1F0BC01F0FF0102F0070283
:1002600032B110F8013B013A83EA010313B1F8D12E
:100270000020704701387047002D06BF354603380F
:10028000073815F0010F07D1013015F4807F02BF48
:10029000013015F4C03F0130F0BC0138704700BF99
:1002A000034613F8012B002AFBD1181A01387047B6
:1002B00081F0004102E000BF83F0004330B54FEA17
:1002C00041044FEA430594EA050F08BF90EA020F84
:1002D0001FBF54EA000C55EA020C7FEA645C7FEA17
:1002E000655C00F0E2804FEA5454D4EB5555B8BF3A
:1002F0006D420CDD2C4480EA020281EA030382EAAB
:10030000000083EA010180EA020281EA0303362D3C
:1003100088BF30BD11F0004F4FEA01314FF4801C0F
:100320004CEA113102D0404261EB410113F0004F21
:100330004FEA03334CEA133302D0524263EB4303D8
:1003400094EA050F00F0A780A4F10104D5F1200E76
:100350000DDB02FA0EFC22FA05F2801841F10001D1
:1003600003FA0EF2801843FA05F359410EE0A5F1A5
:1003700020050EF1200E012A03FA0EFC28BF4CF0D6
:10038000020C43FA05F3C01851EBE37101F000458C
:1003900007D54FF0000EDCF1000C7EEB00006EEB99
:1003A0000101B1F5801F1BD3B1F5001F0CD3490823
:1003B0005FEA30004FEA3C0C04F101044FEA44527A
:1003C00012F5800F80F09A80BCF1004F08BF5FEA01
:1003D000500C50F1000041EB045141EA050130BDE1
:1003E0005FEA4C0C404141EB0101013C28BFB1F5F3
:1003F000801FE9D291F0000F04BF01460020B1FA3E
:1004000081F308BF2033A3F10B03B3F120020CDA10
:100410000C3208DD02F1140CC2F10C0201FA0CF0EE
:1004200021FA02F10CE002F11402D8BFC2F1200C53
:1004300001FA02F120FA0CFCDCBF41EA0C01904009
:10044000E41AA2BF01EB0451294330BD6FEA040452
:100450001F3C1CDA0C340EDC04F11404C4F120023D
:1004600020FA04F001FA02F340EA030021FA04F34F
:1004700045EA030130BDC4F10C04C4F1200220FAA6
:1004800002F001FA04F340EA0300294630BD21FAE4
:1004900004F0294630BD94F0000F83F4801306BFAA
:1004A00081F480110134013D4EE77FEA645C18BF9E
:1004B0007FEA655C29D094EA050F08BF90EA020F35
:1004C00005D054EA000C04BF1946104630BD91EA2D
:1004D000030F1EBF0021002030BD5FEA545C05D130
:1004E0004000494128BF41F0004130BD14F580046F
:1004F0003CBF01F5801130BD01F0004545F0FE41E3
:1005000041F470014FF0000030BD7FEA645C1ABF17
:10051000194610467FEA655C1CBF0B46024650EA4E
:10052000013406BF52EA033591EA030F41F400217A
:1005300030BD00BF90F0000F04BF0021704730B500
:100540004FF4806404F132044FF000054FF00001D5
:1005500050E700BF90F0000F04BF0021704730B596
:100560004FF4806404F1320410F0004548BF40426B
:100570004FF000013EE700BF42004FEAE2014FEAC0
:1005800031014FEA02701FBF12F07F4393F07F4F9B
:1005900081F06051704732F07F4208BF704793F09E
:1005A0007F4F04BF41F40021704730B54FF46074B1
:1005B00001F0004521F000411CE700BF50EA0102B4
:1005C00008BF704730B54FF000050AE050EA01025D
:1005D00008BF704730B511F0004502D5404261EBCD
:1005E00041014FF4806404F132045FEA915C3FF40E
:1005F000D8AE4FF003025FEADC0C18BF03325FEAAB
:10060000DC0C18BF033202EBDC02C2F1200300FA5B
:1006100003FC20FA02F001FA03FE40EA0E0021FA80
:1006200002F11444BDE600BF70B54FF0FF0C4CF46E
:10063000E06C1CEA11541DBF1CEA135594EA0C0F20
:1006400095EA0C0F00F0DEF82C4481EA030621EA5B
:100650004C5123EA4C5350EA013518BF52EA033596
:1006600041F4801143F4801338D0A0FB02CE4FF048
:100670000005E1FB02E506F00042E0FB03E54FF078
:100680000006E1FB03569CF0000F18BF4EF0010E70
:10069000A4F1FF04B6F5007F64F5407404D25FEA6C
:1006A0004E0E6D4146EB060642EAC62141EA55511F
:1006B0004FEAC52040EA5E504FEACE2EB4F1FD0C61
:1006C00088BFBCF5E06F1ED8BEF1004F08BF5FEADF
:1006D000500E50F1000041EB045170BD06F0004691
:1006E00046EA010140EA020081EA0301B4EB5C043E
:1006F000C2BFD4EB0C0541EA045170BD41F4801136
:100700004FF0000E013C00F3AB8014F1360FDEBF5A
:10071000002001F0004170BDC4F10004203C35DA36
:100720000C341BDC04F11404C4F1200500FA05F3B9
:1007300020FA04F001FA05F240EA020001F000425A
:1007400021F0004110EBD37021FA04F642EB0601D0
:100750005EEA430E08BF20EAD37070BDC4F10C04FA
:10076000C4F1200500FA04F320FA05F001FA04F2BE
:1007700040EA020001F0004110EBD37041F10001AA
:100780005EEA430E08BF20EAD37070BDC4F12005B5
:1007900000FA05F24EEA020E20FA04F301FA05F21D
:1007A00043EA020321FA04F001F0004121FA04F2C5
:1007B00020EA020000EBD3705EEA430E08BF20EA95
:1007C000D37070BD94F0000F0FD101F000464000CF
:1007D00041EB010111F4801F08BF013CF7D041EA51
:1007E000060195F0000F18BF704703F00046520055
:1007F00043EB030313F4801F08BF013DF7D043EA26
:100800000603704794EA0C0F0CEA135518BF95EADB
:100810000C0F0CD050EA410618BF52EA4306D1D162
:1008200081EA030101F000414FF0000070BD50EA81
:10083000410606BF1046194652EA430619D094EA0B
:100840000C0F02D150EA013613D195EA0C0F05D1F5
:1008500052EA03361CBF104619460AD181EA030149
:1008600001F0004141F0FE4141F470014FF0000001
:1008700070BD41F0FE4141F4780170BD70B54FF09C
:10088000FF0C4CF4E06C1CEA11541DBF1CEA13551C
:1008900094EA0C0F95EA0C0F00F0A7F8A4EB0504FE
:1008A00081EA030E52EA03354FEA013100F08880F5
:1008B0004FEA03334FF0805545EA131343EA1263BE
:1008C0004FEA022245EA111545EA10654FEA002673
:1008D0000EF000419D4208BF964244F1FD0404F52C
:1008E000407402D25B084FEA3202B61A65EB030588
:1008F0005B084FEA32024FF480104FF4002CB6EB45
:10090000020E75EB030E22BFB61A754640EA0C00C4
:100910005B084FEA3202B6EB020E75EB030E22BF04
:10092000B61A754640EA5C005B084FEA3202B6EB45
:10093000020E75EB030E22BFB61A754640EA9C0004
:100940005B084FEA3202B6EB020E75EB030E22BFD4
:10095000B61A754640EADC0055EA060E18D04FEA92
:10096000051545EA16754FEA06164FEAC30343EA32
:1009700052734FEAC2025FEA1C1CC0D111F4801FFF
:100980000BD141EA00014FF000004FF0004CB6E7F8
:1009900011F4801F04BF01430020B4F1FD0C88BF97
:1009A000BCF5E06F3FF6AFAEB5EB030C04BFB6EBA2
:1009B000020C5FEA500C50F1000041EB045170BD95
:1009C0000EF0004E4EEA113114EB5C04C2BFD4EBC2
:1009D0000C0541EA045170BD41F480114FF0000E46
:1009E000013C90E645EA060E8DE60CEA135594EAC2
:1009F0000C0F08BF95EA0C0F3FF43BAF94EA0C0FC5
:100A00000AD150EA01347FF434AF95EA0C0F7FF439
:100A100025AF104619462CE795EA0C0F06D152EA8D
:100A200003353FF4FDAE1046194622E750EA410671
:100A300018BF52EA43067FF4C5AE50EA41047FF482
:100A40000DAF52EA43057FF4EBAE12E74FF0FF3CE7
:100A500006E000BF4FF0010C02E000BF4FF0010CB8
:100A60004DF804CD4FEA410C7FEA6C5C4FEA430C31
:100A700018BF7FEA6C5C1BD001B050EA410C0CBF80
:100A800052EA430C91EA030F02BF90EA020F0020E2
:100A9000704710F1000F91EA030F58BF994208BF49
:100AA00090422CBFD8176FEAE37040F00100704706
:100AB0004FEA410C7FEA6C5C02D150EA013C07D15D
:100AC0004FEA430C7FEA6C5CD6D152EA033CD3D0A8
:100AD0005DF8040B704700BF8446104662468C46A2
:100AE0001946634600E000BF01B5FFF7B7FF0028D5
:100AF00048BF10F1000F01BD4DF808EDFFF7F4FFFE
:100B00000CBF012000205DF808FB00BF4DF808ED88
:100B1000FFF7EAFF34BF012000205DF808FB00BFAB
:100B20004DF808EDFFF7E0FF94BF012000205DF8CD
:100B300008FB00BF4DF808EDFFF7CEFF94BF012082
:100B400000205DF808FB00BF4DF808EDFFF7C4FF7B
:100B500034BF012000205DF808FB00BF4FEA410CC4
:100B60007FEA6C5C02D150EA013C0AD14FEA430CA7
:100B70007FEA6C5C02D152EA033C02D14FF00000E4
:100B800070474FF0010070474FEA410212F5001222
:100B900015D211D56FF47873B3EB625212D94FEAC4
:100BA000C12343F0004343EA505311F0004F23FAAE
:100BB00002F018BF404270474FF00000704750EA03
:100BC000013005D111F0004008BF6FF000407047C0
:100BD0004FF00000704700BF4A0011D212F500121A
:100BE00011D20DD56FF47873B3EB62520ED44FEA85
:100BF000C12343F0004343EA505323FA02F0704705
:100C00004FF00000704750EA013002D14FF0FF3042
:100C100070474FF0000070474FEA4102B2F1E043E5
:100C200024BFB3F5001CDCF1FE5C0DD901F0004CD3
:100C30004FEAC0024CEA5070B2F1004F40EB830023
:100C400008BF20F00100704711F0804F21D113F14F
:100C50003872BCBF01F00040704741F480114FEA88
:100C60005252C2F11802C2F1200C10FA0CF320FA11
:100C700002F018BF40F001004FEAC1234FEAD3232E
:100C800003FA0CFC40EA0C0023FA02F34FEA430398
:100C9000CCE77FEA625307D150EA01331EBF4FF021
:100CA000FE4040F44000704701F0004040F0FE403C
:100CB00040F40000704700BF53B94AB9002908BF8B
:100CC00000281CBF4FF0FF314FF0FF3000F0BAB9E1
:100CD000ADF1080C6DE904CE00F050F8DDF804E049
:100CE000DDE9022304B07047430803F05533C01A0E
:100CF000830803F0333300F03330184400EB101056
:100D000000F00F3000EB002000EB0040000E7047B9
:100D100038B50022002304460D46FFF7F7FE28B938
:100D200020462946BDE8384000F00AB8204605F1C3
:100D3000004100F005F8404261EB410138BD00BFC1
:100D4000D0B50C4B002206460F46FFF76DFCFFF7AF
:100D500043FF0446FFF7EEFB074B0022FFF764FC5E
:100D600002460B4630463946FFF7A6FAFFF734FF36
:100D70002146D0BD0000F03D0000F0412DE9F047D4
:100D8000089E0D4604460F46002B4AD18A429446DF
:100D900065D9B2FA82F343B102FA03FCC3F120022F
:100DA0009F4020FA02F217439C404FEA1C4E1FFA64
:100DB0008CF5B7FBFEF1220C0EFB117742EA0742DD
:100DC00001FB05F090420AD91CEB020201F1FF374A
:100DD00080F01C81904240F2198102396244121A5B
:100DE000A4B2B2FBFEF00EFB102244EA024400FB68
:100DF00005F5A5420AD91CEB040400F1FF3280F08E
:100E00000781A54240F204816444023840EA01406F
:100E1000641B00211EB1DC400023C6E90043BDE88D
:100E2000F0878B4208D9002E00F0ED800021C6E942
:100E300000050846BDE8F087B3FA83F1002949D1DF
:100E4000AB4202D3824200F2F880841A65EB0302BF
:100E500001201746002EE2D0C6E90047DFE702B9BD
:100E6000FFDEB2FA82F3002B40F090808A1A4FEA3C
:100E70001C471FFA8CFE0121B2FBF7F507FB15207A
:100E8000220C42EA00420EFB05F0904208D91CEB0E
:100E9000020205F1FF3802D2904200F2CB804546B3
:100EA000121AA4B2B2FBF7F007FB102244EA024484
:100EB0000EFB00FEA64508D91CEB040400F1FF322E
:100EC00002D2A64500F2BB801046A4EB0E0440EA15
:100ED00005409FE7C1F120078B4022FA07FC4CEA4E
:100EE000030C05FA01F420FA07F3FD404FEA1C4910
:100EF0002343B5FBF9F81FFA8CFE09FB18551C0CAF
:100F000044EA054408FB0EF5A54202FA01F200FA94
:100F100001F00BD91CEB040408F1FF3A80F0888043
:100F2000A54240F28580A8F102086444641B9DB28A
:100F3000B4FBF9F309FB134445EA044403FB0EFE3A
:100F4000A64508D91CEB040403F1FF356CD2A64575
:100F50006AD9023B644443EA0843A3FB0295A4EB2D
:100F60000E04AC42C846AE4656D353D056B1B0EB91
:100F7000080264EB0E0404FA07F7CA40CC4017439A
:100F8000C6E9007418460021BDE8F087C3F12001CE
:100F900002FA03FC20FA01F225FA01F19D402A43EE
:100FA0004FEA1C471FFA8CFEB1FBF7F007FB101548
:100FB000110C41EA054100FB0EF58D4204FA03F4E1
:100FC00008D91CEB010100F1FF382FD28D422DD939
:100FD00002386144491B92B2B1FBF7F507FB1511CA
:100FE00042EA014205FB0EF1914208D91CEB0202D4
:100FF00005F1FF3816D2914214D9023D6244521ACB
:1010000045EA004138E73146304608E73946E6E62A
:101010001046FBE64845A9D2B9EB020865EB0C0E79
:10102000013BA3E74546EAE72B4694E74046D1E774
:10103000D0467BE7023D624432E708460AE7644453
:10104000023842E7704700BF80B400AF00BFBD4622
:101050005DF8047B704780B400AF00231846BD469E
:101060005DF8047B7047000080B582B000AF786007
:101070000B467B807B681B680E4A934216D17B88A7
:10108000182B13D10C4B1B6818460FF031FA03468E
:10109000002B06D1084B18680023002207490FF0E7
:1010A00069F918220549064806F07CFB00BF08379D
:1010B000BD4680BD00440040480400207404002068
:1010C000D803002080B500AF044B1B684FF0FF3100
:1010D00018460FF054F800BF80BD00BF6404002024
:1010E00080B500AF034B1B6818460FF093F800BFA4
:1010F00080BD00BF6404002080B500AF044B1B68B6
:101100004FF0FF3118460FF03AF800BF80BD00BF26
:101110006804002080B500AF034B1B6818460FF031
:1011200079F800BF80BD00BF6804002080B500AF23
:10113000044B1B684FF0FF3118460FF020F800BF3A
:1011400080BD00BF6C04002080B500AF034B1B685E
:1011500018460FF05FF800BF80BD00BF6C04002090
:1011600080B500AF044B1B684FF0FF3118460FF0FD
:1011700006F800BF80BD00BF7004002080B500AF3E
:10118000034B1B6818460FF045F800BF80BD00BF39
:101190007004002080B500AF00220221024804F054
:1011A00031FD00BF80BD00BF0000024080B500AF30
:1011B00001220221024804F025FD00BF80BD00BFCE
:1011C0000000024080B500AF72B600BF604B614ABC
:1011D0009A6062B600BF04F0BFF900F027F95E48DC
:1011E0000BF080FB00F054FA00F026FA00F0B8F99A
:1011F00000F0ECF90EF0BCFD00F084F900F096F977
:101200000EF0B6FD0EF000FE54480EF032FF03461D
:10121000534A136053480EF02CFF0346524A1360A2
:1012200052480EF026FF0346514A136051480EF013
:1012300020FF0346504A1360504A1E2101200FF040
:1012400026F803464E4A13604E4A202101200FF033
:101250001EF803464C4A13604C4A242101200FF02B
:1012600016F803464A4A13604A4A082101200FF043
:101270000EF80346484A1360484AC62101200FF081
:1012800006F80346464A1360464A022101200EF042
:10129000FEFF0346444A1360444A042101200EF035
:1012A000F6FF0346424A1360424A002142480EF0CC
:1012B000F5FD0346414A1360414A002141480EF0C2
:1012C000EDFD0346404A1360404A002140480EF0BD
:1012D000E5FD03463F4A13603F4A00213F480EF0B8
:1012E000DDFD03463E4A13603E4A00213E480EF0B3
:1012F000D5FD03463D4A13603D4A00213D480EF0AE
:10130000CDFD03463C4A13603C4A00213C480EF0A8
:10131000C5FD03463B4A13603B4A00213B480EF0A3
:10132000BDFD03463A4A13603A4A00213A480EF09E
:10133000B5FD0346394A1360394A002139480EF099
:10134000ADFD0346384A13600EF082FDFEE700BF94
:1013500000ED00E00000010875FB0108DC3F030818
:1013600064040020EC3F030868040020FC3F0308ED
:101370006C0400200C40030870040020343F030874
:10138000480400204C3F03084C040020643F03083D
:10139000500400207C3F030854040020943F0308BD
:1013A00058040020AC3F03085C040020C43F03083D
:1013B00060040020CC3D03088517010820040020AC
:1013C000F03D03089517010824040020143E03088B
:1013D0002919010828040020383E0308911C01083F
:1013E0002C0400205C3E0308CD1C010830040020C2
:1013F000803E03084922010834040020A43E03086B
:10140000E522010838040020C83E030869240108C9
:101410003C040020EC3E03080127010840040020A2
:10142000103F03081D2701084404002080B594B034
:1014300000AF07F120033022002118461CF0AEF95E
:1014400007F10C0300221A605A609A60DA601A6190
:101450000023BB60294B1B6C284A43F08053136464
:10146000264B1B6C03F08053BB60BB6800237B6082
:10147000234B1B6823F44043214A43F40043136089
:101480001F4B1B6803F440437B607B6809233B626E
:101490004FF480337B6201237B630223BB634FF4F1
:1014A0008003FB6304233B6454237B640223BB64FB
:1014B0000423FB6407F12003184604F00FFC0346E5
:1014C000002B01D001F0A4F90F23FB6002233B6144
:1014D00000237B614FF48053BB610023FB6107F164
:1014E0000C030221184604F071FE0346002B01D0C4
:1014F00001F08EF900BF5037BD4680BD0038024074
:101500000070004080B500AF064B074A1A600548DE
:1015100004F046F90346002B01D001F079F900BF31
:1015200080BD00BF140300200030024080B500AF32
:10153000094B0A4A1A60084B06225A60064B40F6CD
:10154000FF729A60044804F076FB0346002B01D03A
:1015500001F05EF900BF80BD1C0300200030004098
:1015600080B500AF174B184A1A60164B4FF48272C1
:101570005A60144B00229A60124B0022DA60114B21
:1015800002221A610F4B01225A610E4B4FF4007276
:101590009A610C4B0022DA610A4B00221A62094B55
:1015A00000225A62074B00229A62064B0A22DA6234
:1015B000044805F05DF80346002B01D001F028F93E
:1015C00000BF80BD280300200030014080B500AF7F
:1015D000174B184A1A60164B4FF482725A60144B1C
:1015E00000229A60124B0022DA60114B02221A612B
:1015F0000F4B01225A610E4B4FF400729A610C4B53
:101600000022DA610A4B00221A62094B00225A6258
:10161000074B00229A62064B0A22DA62044805F060
:1016200027F80346002B01D001F0F2F800BF80BD7F
:1016300080030020003C004080B500AF124B134AED
:101640001A60114B4FF496525A600F4B4FF4805270
:101650009A600D4B0022DA600B4B4FF480621A61E6
:10166000094B04225A61084B00229A61064B002262
:10167000DA61054806F046F80346002B01D001F078
:10168000C7F800BF80BD00BFD80300200044004061
:1016900080B588B000AF07F10C0300221A605A60D1
:1016A0009A60DA601A610023BB60334B1B6B324ACD
:1016B00043F080031363304B1B6B03F08003BB606C
:1016C000BB6800237B602C4B1B6B2B4A43F0010350
:1016D0001363294B1B6B03F001037B607B680023C2
:1016E0003B60254B1B6B244A43F002031363224BE0
:1016F0001B6B03F002033B603B68012212211F4871
:1017000004F080FA00224FF400411C4804F07AFAF9
:10171000002240211A4804F075FA48F20203FB60E7
:1017200001233B6100237B610023BB6107F10C03B4
:101730001946124804F0E2F81023FB6001233B61D4
:1017400000237B610323BB6107F10C0319460B489F
:1017500004F0D4F84023FB6001233B6100237B614C
:101760000023BB6107F10C031946054804F0C6F8D5
:1017700000BF2037BD4680BD003802400000024057
:101780000004024080B582B000AF786001200EF006
:1017900055FCFBE780B598B000AF78600023FB658F
:1017A000574BFB6000233B7241F288300EF046FC41
:1017B000544B1B6807F10801002218460FF01AFD70
:1017C000FB68BB65FFF7F2FC4FF4FA700EF036FCD5
:1017D0004D4B5B6818224D494D4805F0E3FF4FF42F
:1017E0007A700EF02BFCFFF7D5FCD7ED037AB0EE44
:1017F000670A4FF47A71474803F0A8F8464B186817
:1018000007F134014FF47A7300220EF013FE034601
:1018100013F1020F4CD007F13403184603F008F916
:101820000346002B55D103F033FBF0EE407A3B4BDF
:10183000C3ED007A03F02CFBB0EE407A384BD3EDC9
:10184000007A77EE277AC7ED067A03F0E9F9F0EE31
:10185000407AC7ED047A03F093FAF0EE407AC7EDD0
:10186000087A03F04FFAF0EE407AC7ED077A03F0FA
:1018700023FAF0EE407AC7ED057A03F0A9FAF0EE0C
:10188000407AC7ED097A03F0DFFA0346BB6203F042
:10189000E7FA0346FB6203F0EFFA03463B63214B92
:1018A000186807F11001022300220FF01DF910E063
:1018B000FB6D0133FB6504E0134B5B687B650EF049
:1018C0009DFB18221149124805F06CFF0346012BBD
:1018D000F2D00EF093FB0B4B1B6807F108010022BE
:1018E00018460FF087FCD7ED037A97ED167AB4EE21
:1018F000677AF1EE10FA81D0FB68BB6575E700BF2F
:101900006F12833A54040020004400407404002005
:10191000D8030020C0AF1C00480400209804002019
:10192000940400205004002090B5ADF25C4D12AF3D
:1019300007F58263A3F20C4318601423C7F80C3434
:101940000023C7F808344FF0000307F20442136085
:10195000BC4C684604F11003482219461CF0F3F809
:1019600094E80F0003F0A4FDB74BB84AB849B94852
:1019700003F018FB07F5827207F5017107F5417056
:101980004FF4807319F016F9B349B44819F0F6F81A
:1019900019F048F90346002B03DA19F06BF919F036
:1019A00041F9AF4819F0EEF90346002B0FDD07F1BE
:1019B000FC0108230022AA4819F068F9A94B18680D
:1019C00007F1FC01022300220FF08EF813E007F567
:1019D0008263A3F54573A44A5A6007F58263A3F5B1
:1019E000457301221A709F4B186807F1FC0102230E
:1019F00000220FF079F89D4819F0C4F90346002B36
:101A00000FDD07F13401C6230022984819F03EF992
:101A1000974B186807F13401022300220FF064F895
:101A200027E007F58263A3F5777301221A7007F5A3
:101A30008263A3F5777300225A7007F58263A3F5DA
:101A40007773002283F8842007F58263A3F5777308
:101A5000002283F8A52007F58263A3F5777300229F
:101A60009A70834B186807F13401022300220FF0AB
:101A70003BF8804819F086F90346002B0FDD07F18B
:101A80003001022300227B4819F000F97A4B1868D4
:101A900007F13001022300220FF026F80BE007F5D2
:101AA0008263A3F5787300225A7007F58263A3F569
:101AB000787301221A70714819F064F90346002BFB
:101AC0000BDD042300226E496C4819F0DFF86C4BE3
:101AD0001B6807F2044213600DE0694B4FF00002EF
:101AE0001A604FF0000307F20442136004226449B5
:101AF000624819F00FF9634819F0C0F9624819F00B
:101B00009FFA614819F0BAF9564B1B6807F1FC01BE
:101B1000002218460FF06EFB07F58263A3F54573AC
:101B20001B78002B14D007F58263A3F545730022C0
:101B30001A7007F1FC0308221946494819F0EAF81F
:101B4000484B186807F1FC01022300220EF0CCFF7D
:101B5000474B1B6807F13401002218460FF04AFB7F
:101B600007F58263A3F577731B78002B14D007F574
:101B70008263A3F5777300221A7007F13403C6223B
:101B800019463A4819F0C6F8394B186807F134017C
:101B9000022300220EF0A8FF374B1B6807F130012B
:101BA000002218460FF026FB07F58263A3F5787331
:101BB0001B78002B0CD007F58263A3F57873002205
:101BC0001A7007F13003022219462A4819F0A2F8C8
:101BD0002E4B1B6807F10C01002218460FF00AFB80
:101BE000D7F80C24D7F808349A4212D307F5826349
:101BF000A3F2044393ED027A07F20443D3ED007A93
:101C000077EE677AB7EE007AF4EEC77AF1EE10FA63
:101C10000DDD07F10C03083304221946174819F0AB
:101C200079F8D7F80C3403F56163C7F80C34D7F8AA
:101C300008340133C7F808344FF47A700EF0FEF917
:101C400062E700BF2803002005550108E1540108A0
:101C5000415501082955010815110108F91001081D
:101C600074180308540400206F12833A8418030880
:101C700058040020941803085C040020A8180308E6
:101C800094040020BC180308C41803085004002062
:101C900080B584B000AF78600023FB60FB6801333F
:101CA000FB600AF0F9F80DF0D5FC0AF083FE064B54
:101CB000186807F10C01022300220EF015FF4FF403
:101CC0007A700EF0BBF9E9E76004002090B5ADF53D
:101CD000845D83B012AF07F1400343F83C0C07F575
:101CE000805303F108032022002118461BF056FD03
:101CF00007F5815303F108031722002118461BF052
:101D00004DFD402307F5815202F1080213700823AC
:101D100007F5815202F109021370DC4B1B7807F5BD
:101D2000815202F10A021370D94B1B7807F58152D8
:101D300002F10B021370D74B1B7807F5815202F1A9
:101D40000C021370D44B1B7807F5815202F10D027F
:101D5000137007F5805303F10B0307F5815202F16D
:101D600008021068186092889A80022307F5815251
:101D700002F11E02137007F5815303F10E031B6875
:101D800007F5805202F11102136007F5815303F148
:101D900012031B6807F5805202F11502136007F564
:101DA000815303F116031B6807F5805202F11902F3
:101DB000136007F5815303F11A031B6807F580527E
:101DC00002F11D021360B54C684604F1100348226D
:101DD00019461BF0B8FE94E80F000DF08DFFB049D6
:101DE000B0480DF035FFB0480DF01AFF07F58153EC
:101DF00003F1080318460DF017FEAC49AC4807F094
:101E0000B5FFAC49AC4807F08BFFAC49AC4807F0D4
:101E100061FFAC4AAC49AC4808F00CFD07F1200367
:101E2000183B4FF40062194604200AF06DFDA748E4
:101E30000AF058FDA649A7480AF038FD07F5815376
:101E400003F11E031B7807F5815202F101021370A2
:101E5000002307F5805202F1080213700DF0A2FE74
:101E60000346002B40F0EB814FF4FA700FF0A2FE16
:101E700007F5815303F10803062219464FF4106059
:101E800006F0E4FC07F5815303F11E031B78022BD7
:101E900006D107F608031946002009F053FF03E0B6
:101EA0000DF0D2FD0DF072FEFFF740F90DF01CFEB3
:101EB0000DF032FE0346002B40F0E080002307F5D2
:101EC000815202F10E021370002307F5815202F1D4
:101ED0000F021370002307F5815202F110021370F4
:101EE000002307F5815202F111021370002307F558
:101EF000815202F112021370002307F5815202F1A0
:101F000013021370002307F5815202F114021370BB
:101F1000002307F5815202F115021370002307F523
:101F2000815202F116021370002307F5815202F16B
:101F300017021370002307F5815202F11802137083
:101F4000002307F5815202F119021370002307F5EF
:101F5000815202F11A021370002307F5815202F137
:101F60001B021370002307F5815202F11C0213704B
:101F7000002307F5815202F11D021370FFF7E4F808
:101F8000002307F5815202F11F0213705AE007F592
:101F9000815303F11F031A7807F5815303F11F03DF
:101FA0001B7802F582523A4412F8122C03F5825340
:101FB0003B4403F82F2C07F5815303F11F031A78D4
:101FC00007F5815303F11F031B7802F582523A444F
:101FD00012F80E2C03F582533B4403F82B2C07F523
:101FE000815303F11F031A7807F5815303F11F038F
:101FF0001B7802F582523A4412F80A2C03F58253F8
:102000003B4403F8272C07F5815303F11F031A788B
:1020100007F5815303F11F031B7802F582523A44FE
:1020200012F8062C03F582533B4403F8232C07F5E2
:10203000815303F11F031B78013307F5815202F12D
:102040001F02137007F5815303F11F031B78032B45
:102050009DD9002307F5805202F1080213701E4B30
:10206000186807F5805101F10801022300220EF0E3
:102070003BFD00BF01200DF0E1FFDFE6002307F587
:10208000815202F11F02137083E000BF107AFF1F1C
:10209000117AFF1F127AFF1F137AFF1F800300209F
:1020A000B1FC010899FC01083D00020829FD010866
:1020B0004DFD0108E1FC0108C9FC0108E11001081F
:1020C000C51001087DFA010895FA010875FB0108A1
:1020D0007D110108611101084C04002007F58153AE
:1020E00003F11F031A7807F5815303F11F031B78CF
:1020F00002F582523A4412F8122C03F582533B4403
:1021000003F82F2C07F5815303F11F031A7807F505
:10211000815303F11F031B7802F582523A4412F8EF
:102120000E2C03F582533B4403F82B2C07F5815307
:1021300003F11F031A7807F5815303F11F031B787E
:1021400002F582523A4412F80A2C03F582533B44BA
:1021500003F8272C07F5815303F11F031A7807F5BD
:10216000815303F11F031B7802F582523A4412F89F
:10217000062C03F582533B4403F8232C07F58153C7
:1021800003F11F031B78013307F5815202F11F028F
:10219000137007F5815303F11F031B78032B9DD99F
:1021A000012307F5805202F1080213700DF0D6FCEE
:1021B0000346DBB207F5805202F10A0213700DF0FC
:1021C000C1FC0346DBB207F5805202F1090213702D
:1021D00009F0F0FE034607F5815202F10402136094
:1021E000FEF7B2FF07F5815303F10E031B78002BB6
:1021F0000ED1144B186807F5805101F10801022334
:1022000000220EF071FC4FF47A700DF017FF15E00C
:1022100007F5805303F10803153318460AF08EFBC7
:10222000084B186807F5805101F1080102230022CC
:102230000EF05AFC4FF47A700DF000FF34E600BF48
:10224000FCE500BF4C04002080B584B000AF78608E
:102250001D4B1B6818460DF0B3FEF8601B4B1B6846
:1022600018460DF0ADFEF860194B1B6818460DF0CE
:10227000A7FEF860174B1B6818460DF0A1FEF8602A
:10228000154B1B6818460DF09BFEF860134B1B683E
:1022900018460DF095FEF860114B1B6818460DF0BE
:1022A0008FFEF86000200DF08BFEF86000200DF02E
:1022B00087FEF86000200DF083FEF8604FF47A701E
:1022C0000DF0BCFEC4E700BF200400202404002061
:1022D000280400202C0400203004002034040020B6
:1022E0003804002080B5ADF5815D84B000AF07F102
:1022F000300343F82C0C4D4A07F5805303F10803D3
:102300001268114619800233120C1A70032307F564
:10231000815202F10E02137007F5805303F1080396
:1023200007F5815202F10E02127807F6080107F153
:10233000100008380CF0B6FB3D480DF025FB3D4879
:102340000DF03AFB3C4B1B680321184600F046FD9C
:102350003A4B1B680421184600F040FD384B1B68BF
:102360000021184600F03AFD364B1B680221184642
:1023700000F034FD344B1B680521184600F02EFD9B
:10238000324933480DF082F9324933480DF07EF975
:10239000324933480DF07AF9324B1B6807F580510A
:1023A00001F10C01002218460EF024FF07F58053BE
:1023B00003F10C031B78002B2FD00DF0DBFB034641
:1023C000012B2AD1002307F5815202F10F0213706D
:1023D00016E0FEF7ABFE07F5815303F10F031B7800
:1023E00018460CF07BFBFEF7AFFE07F5815303F1B7
:1023F0000F031B78013307F5815202F10F021370AE
:1024000007F5815303F10F031A7807F5815303F1A0
:102410000E031B789A42DCD303E04FF47A700DF080
:102420000DFE64200DF00AFEB6E700BFE4240308A9
:10243000ED3A0108013C010850040020540400203A
:10244000580400205C04002060040020D018030819
:10245000EC1B0308F81B03082C1F0308401F03088C
:10246000D82403084C04002080B5ADF5226D02AFDE
:1024700007F61823A3F6142318609549954801F030
:102480008FFC4FF47A700DF0D9FD934B1B6807F663
:10249000F811002218460EF0ADFE97F8F83983F0D7
:1024A0000103DBB2002B40F008810DF063FB034613
:1024B000012B40F00281894B1B6807F51361002254
:1024C00018460EF097FE0BE04FF47A700DF0B6FD53
:1024D000824B1B6807F51361002218460EF08AFE36
:1024E00097F8313983F00103DBB2002BECD197F878
:1024F000313983F00103DBB2002B40F0E08007F2BA
:102500000C5207F5136107F6F8104FF4806301933E
:1025100007F5867300934FF4806301F05DFC03467A
:10252000002B40F0CE8001F043FD0346002BC0F2AB
:10253000CA8001F08DFD0346002B40F0C68007F1F4
:102540008C030021184602F0AFF9654B1B6807F6B3
:102550000C11002218460EF04DFE07F61823A3F5C5
:102560008673D3ED027A07F10C03B0EE670A5D497A
:10257000184602F0D1F907F10C0207F18C0311465D
:10258000184601F0B7FE0346002B40F0868007F6A0
:102590001823A3F58673D3ED007A07F10C03B0EE90
:1025A000670A5149184602F0B7F907F10C0207F122
:1025B0008C031146184601F09DFE0346002B6ED198
:1025C00007F61823A3F58673D3ED017A07F10C0300
:1025D000B0EE670A4549184602F09EF907F10C0271
:1025E00007F18C031146184601F084FE0346002BC8
:1025F00057D107F61823A3F58673D3ED057A9FED1F
:102600003C7A67EE877A07F10C03B0EE670A394926
:10261000184602F081F907F10C0207F18C0311460C
:10262000184601F067FE0346002B3CD107F618233D
:10263000A3F58673D3ED037A07F10C03B0EE670AB6
:102640002D49184602F068F907F10C0207F18C03D6
:102650001146184601F04EFE0346002B25D107F621
:102660001823A3F58673D3ED047A07F10C03B0EEBB
:10267000670A2249184602F04FF907F10C0207F1E8
:102680008C031146184601F035FE0346002B0ED18F
:1026900047F230500DF0D2FC57E700BF08E000BF12
:1026A00006E000BF04E000BF02E000BF00E000BFA2
:1026B0004FF47A700DF0C2FCE3E600BFE1E600BF24
:1026C000DFE600BFDDE600BFDBE600BFD9E600BF06
:1026D000491101082D1101084C0400205804002064
:1026E00050040020E8240308F0240308F824030819
:1026F0000000C84200250308102503081825030818
:1027000080B582B000AF7860034803F0D6FA4FF48A
:10271000FA700DF093FCF7E71C03002080B58EB033
:1027200002AF78602F4B1B6807F11001002218469A
:102730000EF060FD3B7C83F00103DBB2002B04D183
:102740000DF018FA0346012B04D04FF47A700DF007
:1027500075FC45E07B7E5AB27B7F5BB2DB435BB2AC
:1027600013435BB2DBB23B73BB7E5AB2BB7F5BB23F
:10277000DB435BB213435BB2DBB27B73FB7E5AB2CB
:10278000FB7F5BB2DB435BB213435BB2DBB2BB7379
:102790003B7F5AB297F820305BB2DB435BB2134306
:1027A0005BB2DBB2FB73FEF7C1FCFEF7D9FC002382
:1027B00041F288320221042006F03EFA07F10C03B0
:1027C00041F28832009216220749042006F012FFD7
:1027D000FEF7D4FCFEF7B8FC42F210700DF02EFCB0
:1027E000A0E700BF4C0400202825030880B582B074
:1027F00000AF78607B681B68044A934201D102F005
:10280000CDFE00BF0837BD4680BD00BF00000140BF
:1028100080B400AF72B600BFFEE7000080B582B0A2
:1028200000AF00237B60124B5B6C114A43F4804382
:1028300053640F4B5B6C03F480437B607B68002325
:102840003B600B4B1B6C0A4A43F080531364084BEC
:102850001B6C03F080533B603B6800220F216FF03C
:10286000010002F073FF00BF0837BD4680BD00BF06
:102870000038024080B485B000AF78607B681B6888
:102880000B4A93420DD10023FB600A4B1B6B094A94
:1028900043F480531363074B1B6B03F48053FB60BB
:1028A000FB6800BF1437BD465DF8047B704700BF6E
:1028B000003002400038024080B58CB000AF786034
:1028C00007F11C0300221A605A609A60DA601A61EC
:1028D0007B681B68324A93422CD10023BB61314B89
:1028E0005B6C304A43F4805353642E4B5B6C03F4AF
:1028F0008053BB61BB6900237B612A4B1B6B294A58
:1029000043F001031363274B1B6B03F001037B614F
:102910007B69E023FB6102233B6200237B6203238C
:10292000BB620523FB6207F11C0319461E4802F037
:10293000E5FF30E07B681B681C4A93422BD10023E3
:102940003B61184B1B6C174A43F400431364154B4F
:102950001B6C03F400433B613B690023FB60114B9C
:102960001B6B104A43F0020313630E4B1B6B03F007
:102970000203FB60FB683823FB6102233B620023F8
:102980007B620323BB620623FB6207F11C0319462B
:10299000074802F0B3FF00BF3037BD4680BD00BF1F
:1029A000003001400038024000000240003C00407E
:1029B0000004024080B58AB000AF786007F11403CC
:1029C00000221A605A609A60DA601A617B681B689C
:1029D0001D4A934233D100233B611C4B1B6C1B4AA5
:1029E00043F400331364194B1B6C03F400333B6155
:1029F0003B690023FB60154B1B6B144A43F001033A
:102A00001363124B1B6B03F00103FB60FB680C2389
:102A10007B610223BB610023FB6103233B6207232D
:102A20007B6207F114031946094802F067FF002290
:102A30000521262002F08AFE262002F0A3FE00BF18
:102A40002837BD4680BD00BF00440040003802402A
:102A50000000024080B58CB000AF78600023BB62FC
:102A600000237B620023BB602E4B5B6C2D4A43F03E
:102A7000010353642B4B5B6C03F00103BB60BB6829
:102A800007F10C0207F110031146184603F0BEFDD2
:102A900003F0A8FDB862BB6A234AA2FB03239B0C88
:102AA000013B7B62214B224A1A60204B40F2E73205
:102AB000DA601E4A7B6A53601C4B00221A611B4B72
:102AC00000229A60194B00229A61184804F0A6FB74
:102AD000034687F82F3097F82F30002B1BD113486F
:102AE00004F0F6FB034687F82F3097F82F30002BC1
:102AF00011D1192002F046FE7B680F2B08D8002266
:102B00007968192002F022FE0A4A7B68136002E00D
:102B1000012387F82F3097F82F3018463037BD46FD
:102B200080BD00BF0038024083DE1B439C040020B0
:102B300000000140BC00002080B400AFFEE780B47C
:102B400000AFFEE780B400AFFEE780B400AFFEE761
:102B500080B400AFFEE780B400AF00BFBD465DF8B3
:102B6000047B704780B500AF024804F013FC00BF3F
:102B700080BD00BF9C04002080B500AF024804F077
:102B80006FFE00BF80BD00BFD803002080B400AF3F
:102B900001231846BD465DF8047B704780B582B0BE
:102BA00000AF786039601AF099FF034616221A6068
:102BB0004FF0FF3318460837BD4680BD80B582B060
:102BC00000AF78604FF0FF317868FFF7E7FFFEE76E
:102BD00080B586B000AFF860B9607A6000237B6191
:102BE0000AE0AFF300800146BB685A1CBA60CAB263
:102BF0001A707B6901337B617A697B689A42F0DBEA
:102C00007B6818461837BD4680BD80B586B000AFDA
:102C1000F860B9607A6000237B6109E0BB685A1CE8
:102C2000BA601B781846AFF300807B6901337B6183
:102C30007A697B689A42F1DB7B6818461837BD4693
:102C400080BD80B483B000AF78604FF0FF3318468A
:102C50000C37BD465DF8047B704780B483B000AF8D
:102C6000786039603B684FF400525A600023184680
:102C70000C37BD465DF8047B704780B483B000AF6D
:102C80007860012318460C37BD465DF8047B704719
:102C900080B485B000AFF860B9607A600023184650
:102CA0001437BD465DF8047B7047000080B586B0E0
:102CB00000AF7860144A154BD31A7B617B693B6186
:102CC000134B1B68002B02D1114B124A1A60104B98
:102CD0001A687B6813443A699A4207D21AF0FEFEDA
:102CE00003460C221A604FF0FF3309E0084B1B68C3
:102CF000FB60074B1A687B681344054A1360FB6846
:102D000018461837BD4680BD0000012000040000B1
:102D1000E4040020F8DA002080B400AF064BD3F8BA
:102D20008830054A43F47003C2F8883000BFBD46BE
:102D30005DF8047B704700BF00ED00E0DFF834D0A1
:102D4000FFF7EAFF0C480D490D4A002302E0D45872
:102D5000C4500433C4188C42F9D30A4A0A4C0023E5
:102D600001E013600432A242FBD31AF0BDFEFEF76D
:102D700029FA70470000012000000020F80200201E
:102D8000C04D0308F8020020F4DA0020FEE780B40A
:102D900083B000AF0346FB71FB792F2B05D9FB797C
:102DA000392B02D8FB79303B12E0FB79602B05D937
:102DB000FB79662B02D8FB79573B09E0FB79402B66
:102DC00005D9FB79462B02D8FB79373B00E000237D
:102DD00018460C37BD465DF8047B704780B483B05D
:102DE00000AF78600B46FB70FB78002B06D17B6848
:102DF000002B34D01D4A7B68136030E0FB78012B38
:102E000006D17B68002B2AD0194A7B68136026E024
:102E1000FB78022B06D17B68002B20D0154A7B68FB
:102E200013601CE0FB78032B06D17B68002B16D0C7
:102E3000114A7B68136012E0FB78042B06D17B6893
:102E4000002B0CD00D4A7B68136008E0FB78052B43
:102E500005D17B68002B02D0094A7B68136000BF54
:102E60000C37BD465DF8047B704700BFE8040020C6
:102E7000EC040020F0040020F4040020F8040020FA
:102E8000FC04002080B5CCB000AF07F59873A3F523
:102E9000967318600A4607F59873A3F22D131A70FB
:102EA00007F59873A3F22D131B78042B00F24A81C7
:102EB00001A252F823F000BFCD2E010845310108D0
:102EC0005930010845310108DF30010807F164037A
:102ED000C622002118461AF061FC07F59873A3F585
:102EE00096739C4918680BF049FC0346312118463B
:102EF0001AF06BFC0346002B03D0012387F86530E2
:102F000012E007F59873A3F59673924918680BF0D1
:102F100035FC0346302118461AF057FC0346002BB7
:102F200002D0002387F8653007F59873A3F59673F0
:102F3000894918680BF022FCC7F82C01D7F82C310E
:102F4000002B06D1D7F82C01FDF7AAF90346202B58
:102F500007D807F164038433D7F82C1118461AF008
:102F6000EAFD07F59873A3F596737C4918680BF092
:102F700005FCC7F82C01D7F82C31002B06D1D7F867
:102F80002C01FDF78DF90346202B07D807F16403C8
:102F9000A533D7F82C1118461AF0CDFD07F5987314
:102FA000A3F596736E4918680BF0E8FBC7F82C017F
:102FB000D7F82C31002B06D1D7F82C01FDF770F98A
:102FC00003467F2B08D807F1640302337F22D7F82A
:102FD0002C1118461AF03CFC07F59873A3F596736C
:102FE000604918680BF0CAFBC7F82C01D7F82C31E0
:102FF000002B06D1D7F82C01FDF752F90346052B1B
:103000001ED807F116031A465749D7F82C011AF0B3
:1030100095FA07F59873A3F58D731B88002B0FD0D5
:1030200007F59873A3F58D731B884FF6FF729342D3
:1030300006D007F59873A3F58D731B88A7F8E630C3
:10304000012387F86430494B186807F164010223B3
:1030500000220DF049FD78E007F11C030222002157
:1030600018461AF09BFB07F59873A3F59673404931
:1030700018680BF083FB0346312118461AF0A5FBB4
:103080000346002B06D007F59873A3F58A73012237
:103090005A7015E007F59873A3F5967334491868CC
:1030A0000BF06CFB0346302118461AF08EFB0346EA
:1030B000002B05D007F59873A3F58A7300225A7088
:1030C00007F59873A3F58A7301221A70294B1868C3
:1030D00007F11C01022300220DF006FD35E007F583
:1030E0009873A3F59673244918680BF047FBC7F84B
:1030F0002C01D7F82C31002B26D0204A2049D7F8B4
:103100002C011AF01BFA1D4BD3ED007AF5EEC07AB4
:10311000F1EE10FA00DC17E0184B1A6807F5987307
:10312000A3F592735A6007F59873A3F59273012281
:103130001A70144B186807F10C01022300220DF0DD
:10314000D3FC01E000BF00E000BF00BF07F59877A7
:10315000BD4680BD402503084825030850250308C7
:103160005C2503086025030868250308E80400209F
:103170006C250308F00400207425030800050020D6
:103180007C250308F80400202DE9F04FADF50B7DF8
:103190000AAF07F50073A3F5F273186007F5007323
:1031A000A3F5F6731A6007F50073A3F2E5130A4658
:1031B0001A7007F50073A3F5A473734A18461146F5
:1031C00051231A461AF0BFFC07F50073A3F5E67306
:1031D0006E4A1846114684231A461AF0B4FC07F5C5
:1031E0000073A3F5F0736A4A1C4615460FCD0FC451
:1031F0002B68238007F50073A3F2E5131B78042BDB
:1032000000F09380042B00F3B880002B02D0032B36
:1032100031D0B2E05F4B1B6807F59C710022184665
:103220000DF0E8FFB7F8BA311D4697F839311E4660
:1032300007F59C739C1C07F59C7303F1840207F14E
:10324000B80107F50073A3F5F270019600952346C7
:1032500000681AF053F907F50073A3F5F2731868C4
:10326000FDF71EF803469AB207F50073A3F5F6734F
:103270001B681A8082E0484B1B6807F58A710022A0
:1032800018460DF0B7FFD7F814311846FDF774F95A
:10329000C7E90201D7F818311846FDF76DF9044661
:1032A0000D46D7F820311846FDF766F98046894665
:1032B000D7F824311846FDF75FF982468B46D7F8D8
:1032C00028311846FDF758F9C7E90001D7F81C3135
:1032D0001846FDF751F902460B4607F1340607F58B
:1032E0000071A1F5F270CDE9082397ED007B8DED1B
:1032F000067BCDE904ABCDE90289CDE90045D7E9EC
:103300000223314600681AF0F9F807F50073A3F5B7
:10331000F2731868FCF7C4FF03469AB207F500730E
:10332000A3F5F6731B681A8028E01C4B1B6807F591
:103330008671002218460DF05DFFD7F8103118464F
:10334000FDF71AF902460B4607F1200107F5007058
:10335000A0F5F27000681AF0D1F807F50073A3F534
:10336000F2731868FCF79CFF03469AB207F50073E6
:10337000A3F5F6731B681A8000E000BF00BF07F5D5
:103380000177BD46BDE8F08F80250308D4250308EA
:1033900058260308E8040020F4040020F804002064
:1033A00090B5ADF53F7D02AF07F53C74A4F53974D7
:1033B000206007F53C70A0F53A70016007F53C719C
:1033C000A1F53B710A6007F53C72A2F53C721360EF
:1033D00007F19003C7F8E43207F53C73A3F539739E
:1033E000AC4918680BF0CAF9C7F8E002D7F8E03228
:1033F000002B25D007F53C73A3F53C7307F194022D
:10340000196810461AF097FB07F194032D22D7F89C
:10341000E01218461AF0F7F907F53C73A3F5397373
:103420009D4918680BF0AAF9C7F8E002D7F8E00246
:10343000FCF736FF0346B3F5007F80F0138111E0FF
:1034400007F53C73A3F53B731B68944A106818603A
:1034500092889A8007F53C73A3F53A731B6805229E
:103460001A8011E1D7F8E032002B00F0E980D7F89C
:10347000E002FCF715FF0346C7F8DC32D7F8DC3270
:1034800007F1C8000093D7F8E032D7F8E4224FF4F0
:10349000007117F011FEC7F8EC0207F53C73A3F5B5
:1034A00039737F4918680BF069F9C7F8D80200230F
:1034B000C7F8E83230E0D7F8E832D7F8D82213441A
:1034C0001B781846FFF763FCC7F8CC02D7F8E83240
:1034D0000133D7F8D82213441B781846FFF757FC5E
:1034E000C7F8C802D7F8CC321B015AB2D7F8C83295
:1034F0005BB2134359B2D7F8E832DA0F13445B10CA
:103500001A46C9B207F53C73A3F522739954D7F84C
:10351000E8320233C7F8E832D7F8E8321F2BCADDA9
:1035200007F53C73A3F5227300221A7407F1100308
:10353000184617F0DDFE07F11003184617F0F6FEE7
:10354000D7F8E4321A6807F1C80107F110031846EA
:1035500018F0D6FD07F17C0207F11003114618465A
:1035600018F043FE07F11003184617F0CEFE07F5DA
:103570003C73A3F51D7300221A7407F17C0107F157
:103580006803102218461AF051F90346002B06D0A2
:103590004FF0FF33C7F8EC32D7F8EC3274E007F5A0
:1035A0003C73A3F539733F4918680BF0E7F8C7F887
:1035B000D4020A21D7F8D4020BF092F90346C7F8D7
:1035C000D032D7F8D032002B0FD1374B00221A60FF
:1035D000D7F8E4321A6807F1C80107F194031846D6
:1035E00017F098FBC7F8EC021DE00A21D7F8D402C7
:1035F0000BF076F903461A462B4B1B689A4206D00D
:103600004FF0FF33C7F8EC32D7F8EC323CE0D7F894
:10361000E4321A6807F1C80107F19403184617F05D
:10362000D5FBC7F8EC02204B1B6801331E4A136020
:10363000D7F8EC32002B15DA0023C7F8EC3211E092
:1036400007F53C73A3F53B731B68144A10681860B8
:1036500092889A8007F53C73A3F53A731B6805229C
:103660001A8011E007F53C73A3F53B731B680F4A02
:103670001188927819809A7007F53C73A3F53A7314
:103680001B6802221A80FFE7184607F53D77BD4602
:1036900090BD00BF6C260308802603087826030827
:1036A00088260308902603080405002098260308AE
:1036B00080B592B002AF78603960124978680BF03B
:1036C0005DF8F863FB6B002B05D1F86BFCF7E8FDA8
:1036D00003462C2B10D807F10800FB6B00933B68C6
:1036E000094A322119F0D6FE07F10803184617F0EF
:1036F000C5FB03465BB201E04FF0FF33184640378D
:10370000BD4680BD9C260308A42603082DE9F04F82
:10371000ADF5337D16AF07F51C73A3F50D73186077
:1037200007F51C73A3F50E73196007F51C73A3F559
:103730000B735D4A184611464FF497731A461AF0F8
:1037400002FA5A4B1B6807F51371002218460DF058
:1037500051FD574B1B6807F51171002218460DF0FB
:1037600049FD544B1B6807F5BE71002218460DF049
:1037700041FD514B1B6807F5BC71002218460DF046
:1037800039FD4E4B1B6807F5BA71002218460DF043
:1037900031FDD7F84C321846FCF7EEFEC7E90C01B4
:1037A000D7F850321846FCF7E7FEC7E90A01D7F808
:1037B00058321846FCF7E0FEC7E90801D7F85C323A
:1037C0001846FCF7D9FEC7E90601D7F8603218465B
:1037D000FCF7D2FEC7E90401D7F854321846FCF7CB
:1037E000CBFE82468B46D7F848321846FCF7C4FE1B
:1037F0008046894697F87931FB6097F87D31BB6048
:10380000B7F8FE317B60D7F86442D7F86802D7F882
:103810006C12D7F8742107F1440607F51C73A3F561
:103820000D75149213911290119407F5BE73023323
:10383000109379680F9107F5BE7384330E93B968BE
:103840000D91FB680C93CDE90A89CDE908AB97EDA2
:10385000047B8DED067B97ED067B8DED047B97ED6C
:10386000087B8DED027B97ED0A7B8DED007BD7E920
:103870000C233146286819F041FE07F51C73A3F5A7
:103880000D731868FCF70CFD03469AB207F51C731C
:10389000A3F50E731B681A800023184607F51D77E1
:1038A000BD46BDE8F08F00BFAC260308F40400203D
:1038B000F8040020E8040020F0040020FC040020AC
:1038C000F0B5DBB00EAF786307F59870A0F58070A7
:1038D000016007F59871A1F582710A6007F5987289
:1038E000A2F5847213600023C7F82C3107F1C003DE
:1038F000184617F0FDFC07F1C003184617F016FD37
:1039000007F13C03796B18461AF015F907F598731F
:10391000A3F5807307F13C001422196819F073FFB6
:1039200007F17C0341220021184619F037FF07F107
:103930007C0107F13C004023D7F82C2117F0A6F9B1
:103940000346A7F82A31B7F82A31402B10D1B7F82F
:103950002A2107F17C0107F1C003184618F0D0FBBB
:10396000B7F82A31D7F82C211344C7F82C3119E0C5
:10397000B7F82A2107F17C0107F1C003184618F0B7
:10398000BFFB07F58C7207F1C0031146184618F00B
:103990002CFC07F1C003184617F0B7FC002387F88A
:1039A000283102E00CF02AFBBAE797F818319C4660
:1039B00097F819319E4697F81A311D4697F81B3132
:1039C0001E4697F81C317B6297F81D313B6297F8D1
:1039D0001E31FB6197F81F31BB6197F820317B6185
:1039E00097F821313B6197F82231FB6097F823313A
:1039F000BB6097F824317B6097F825311C4697F817
:103A00002631194697F827311A4607F59873A3F51A
:103A100082700D920C910B947A680A92BA6809929E
:103A2000FA6808923A6907927A690692BA69059229
:103A3000FA6904923A6A03927B6A029301960095AE
:103A4000734662460849006819F058FD07F59873F7
:103A5000A3F584731B6820221A800023184607F5FB
:103A60009A77BD46F0BD00BFDC27030880B592B051
:103A700000AF7860396007F10803184A07CA03C32A
:103A80001A8007F108031846FCF70AFC03461A4699
:103A900007F10803134412491A460B4603CB106082
:103AA00051601B78137207F108030E49184617F08E
:103AB000E7FA78647B6C002B0ADB7B680A4A118882
:103AC000927819809A703B6802221A80012300E0E4
:103AD000002318464837BD4680BD00BF2028030894
:103AE0002C280308382803084828030880B586B026
:103AF00000AFF860B9607A603B600023FB7500237B
:103B00003B603749F868FCF76BFB0346002B06D196
:103B10000021B868FFF7B6F90123FB755AE0314977
:103B2000F868FCF75DFB0346002B06D10221B8685C
:103B3000FFF7A8F90123FB754CE02B49F868FCF767
:103B40004FFB0346002B0ED1284B7A683968B868C2
:103B5000FFF726FC0346002B02DA0023FB7539E051
:103B60000123FB7536E02249F868FCF739FB034670
:103B7000002B0CD11D49B868FFF79AFD0346002BB6
:103B800002DB0123FB7525E00223FB7522E01949C6
:103B9000F868FCF725FB0346002B06D10421B86822
:103BA000FFF770F90123FB7514E01349F868FCF77F
:103BB00017FB0346002B0DD1104B7A683968B868A3
:103BC000FFF7EEFB0346002B02DA0023FB7501E052
:103BD0000123FB75FB7D18461837BD4680BD00BF2D
:103BE0004C28030860280308742803088428030865
:103BF0008C2803089C280308B428030820280308FD
:103C000080B586B000AFF860B9607A600023FB75BC
:103C10004F49F868FCF7E4FA0346002B07D17A68AD
:103C20000021B868FFF7B0FA0123FB758BE0494922
:103C3000F868FCF7D5FA0346002B0BD1BB68464960
:103C40001A460B461B8813800123FB757B680222F2
:103C50001A8078E04149F868FCF7C2FA0346002B65
:103C600007D17A680321B868FFF78EFA0123FB7544
:103C700069E03B49F868FCF7B3FA0346002B07D12B
:103C80007A680421B868FFF77FFA0123FB755AE0D0
:103C90003449F868FCF7A4FA0346002B06D179688A
:103CA000B868FFF733FD0123FB754CE02E49F86837
:103CB000FCF796FA0346002B11D17B68BA682B49B2
:103CC0002B48FFF7FDFD0346002B02D10123FB75B6
:103CD00039E07B6800221A800023FB7533E0254918
:103CE000F868FCF77DFA0346002B06D17968B868BE
:103CF000FFF7BCFE0346FB7525E01F49F868FCF79B
:103D00006FFA0346002B05D11C4817F099F90123DF
:103D1000FB7518E01A49F868FCF762FA0346002BB5
:103D200005D1184817F0C4F80123FB750BE01649BC
:103D3000F868FCF755FA0346002B04D1134817F036
:103D40007FF90123FB75FB7D18461837BD4680BD02
:103D5000C8280308DC280308E8280308EC2803081F
:103D6000F82803080C290308182903082C2803083D
:103D7000202803083029030848290308602903087C
:103D8000682903087C29030890290308A42903084B
:103D900080B400AF00BFBD465DF8047B70470000F3
:103DA00080B483B000AF786039607B68002B02D0AC
:103DB0007B68074A13603B68002B02D03B68054ACA
:103DC000136000BF0C37BD465DF8047B704700BF31
:103DD0005C00002060000020B0B588B004AFF8603F
:103DE000B9607A607B805E4AFB6813605D4ABB689D
:103DF00013605D4A7B6813605C4A3B6A13605C4AEF
:103E00007B8813805B4ABB8C1380554B1B68DB7827
:103E10001C46534B1B681B791D46514B1B685B7935
:103E20001A464F4B1B689B7919464D4B1B68DB7933
:103E300018464B4B1B681B7A03930290019100922A
:103E40002B4622464C494D4819F058FB4B4800F090
:103E500081FA434B1B685B7A1946414B1B689B7A7E
:103E600018463F4B1B68DB7A1A463D4B1B681B7B91
:103E70000193009203460A464149424819F03EFB2D
:103E8000404800F089FA374B1B680233184608F0A7
:103E900097FD0346002B0CD0324B1B68981C3A4B05
:103EA00001933A4B00933A4B3A4A3B4919F046FB8F
:103EB0000DE02C4B1B6802333649184608F050FDC4
:103EC0000346B3F1FF3F02D14FF0FF3343E0334BE2
:103ED0000022DA76314B03221A72304B274ADA601D
:103EE0002E4B41F288321A832C4B01229A761D4BBD
:103EF0001B688433294A13641A4B1B68A533274A6D
:103F0000D364184B1B68B3F88220254B1A80254BCD
:103F100000229A80234B00221A70224B00229A70B2
:103F2000204B00225A7005211F4809F0E3FA0E4B7E
:103F30001A680F4B1B8818460C4B1B680D490988E3
:103F400002910193009013464FF47A721649174874
:103F500008F020FE002318461037BD46B0BD00BF54
:103F60000C0500200805002038050020340500203D
:103F70001608002014080020A829030810050020B6
:103F8000C4290308200500201B0800201A0800206F
:103F90001908002018080020D02903080400002078
:103FA0001C0800208C080020200800203008002079
:103FB00080B582B000AF1F4B1B6898471E4B1B8813
:103FC0001A461E491E4809F012FB0346FB801D4B92
:103FD0001B689847B7F90630012B10D0154B1B68AA
:103FE0009847174B1B68DBB2184604F039FF154B96
:103FF0001B689847FB880A3B9BB21BB216E00D4B2F
:104000001B6898471049114809F0CAF80346FB801D
:104010000C4B1B689847B7F90630002B04D0FB887F
:10402000143B9BB21BB201E0B7F9063018460837C3
:10403000BD4680BD5C0000201C0800201808002040
:10404000200800206000002004000020300800202C
:1040500080B582B000AF80220021A04819F09EFBFD
:10406000002203219D4800F0B7F9002203219C485B
:1040700000F064FA9A48FCF713F90346994AD360B2
:10408000984B974A9A60974B01225A70964B1B683F
:104090009847944A9149954809F008F90346FB71FD
:1040A000934B1B68984797F90730002B02D097F97C
:1040B00007300FE18B4B9B8801339AB2894B9A8072
:1040C00080220021854819F069FB002205218348E0
:1040D00000F082F900220521814800F02FFA804883
:1040E000FCF7DEF803467F4AD3607E4B7C4A9A6039
:1040F0007C4B01225A707C4B1B689847794A774960
:104100007A4809F0D3F80346FB71794B1B6898474E
:1041100097F90730002B02D097F90730DAE0714B9E
:104120009B8801339AB26F4B9A80802200216B48A2
:1041300019F034FB00220421684800F04DF90022F8
:104140000421674800F0FAF96548FCF7A9F803462E
:10415000644AD360634B624A9A60624B01225A7090
:10416000614B1B6898475F4A5C49604809F09EF8BC
:104170000346FB715E4B1B68984797F90730002B8D
:1041800002D097F90730A5E0564B9B8801339AB2CD
:10419000544B9A8080220021504819F0FFFA0022E7
:1041A00008214E4800F018F9002208214C4800F080
:1041B000C5F94B48FCF774F803464A4AD360494BAB
:1041C000474A9A60474B01225A70474B1B689847F1
:1041D000444A4249454809F069F80346FB71444B9B
:1041E0001B68984797F90730002B02D097F90730E2
:1041F00070E03C4B9B8801339AB23A4B9A80802204
:104200000021364819F0CAFA00220621334800F08E
:10421000E3F800220621324800F090F93048FCF71C
:104220003FF803462F4AD3602E4B2D4A9A602D4B00
:1042300001225A702C4B1B6898472A4A27492B4861
:1042400009F034F80346FB71294B1B68984797F92E
:104250000730002B02D097F907303BE0214B9B88B9
:1042600001339AB21F4B9A80802200211B4819F01B
:1042700095FA00220721194800F0AEF80022072124
:10428000174800F05BF91648FCF70AF80346154A90
:10429000D360144B124A9A60124B01225A70124B8F
:1042A0001B6898470F4A0D49104808F0FFFF034666
:1042B000FB710F4B1B68984797F90730002B02D012
:1042C00097F9073006E0074B9B8801339AB2054BFC
:1042D0009A80002318460837BD4680BD3C05002063
:1042E000BC0500208C0800205C0000203008002065
:1042F0006000002080B584B000AF78603960386815
:10430000FBF7CEFF03460F4AD3600E4A3B6893602B
:104310000C4B9B8801339AB20A4B9A800A4B1B685C
:104320009847084A7968094808F0C0FF0346FB73BC
:10433000074B1B68984797F90F3018461037BD4652
:1043400080BD00BF8C0800205C00002030080020E9
:104350006000002080B584B000AF78600023FB735C
:104360007868FBF79DFF03460D2B02D90E23FB73E4
:1043700004E07868FBF794FF0346FB73FB7B1A4667
:104380007968044819F064FA002318461037BD46CE
:1043900080BD00BF9C08002080B582B000AF78606F
:1043A0000C4B00221A707868FBF77AFF0346122B39
:1043B0000AD87868FBF774FF03461A4679680548FF
:1043C00019F046FA002301E04FF0FF331846083792
:1043D000BD4680BDAC08002080B586B004AF7860D3
:1043E0000B46FB701346BB700021786819F0A3FBE5
:1043F000FB78013B072B7BD801A252F823F000BFCA
:10440000214401083B44010855440108894401083E
:104410006F440108BD440108D7440108A3440108C2
:10442000BB780293364B0193364B0093364B374A99
:104430003749786819F062F85DE0BB780293354B34
:104440000193304B0093334B304A3149786819F06F
:1044500055F850E0304B02932A4B01932F4B0093B9
:104460002F4B2A4A2F49786819F048F843E02E4B21
:104470000293244B0193294B0093294B234A29494A
:10448000786819F03BF836E0284B02931D4B0193F6
:10449000224B0093224B1D4A2249786819F02EF8CE
:1044A00029E0234B0293174B01931C4B00931C4BA9
:1044B000164A1C49786819F021F81CE01D4B02933C
:1044C000104B0193154B0093154B104A1549786812
:1044D00019F014F80FE0184B02930A4B01930F4B9D
:1044E00000930F4B094A0F49786819F007F802E06A
:1044F0004FF0FF3300E0002318460837BD4680BD6B
:104500008C0000209C080020740000206400002023
:1045100034400308840000200C2A0308142A0308EE
:10452000EC290308F42903081C2A0308242A030899
:104530002C2A03083C2A03084C2A030890B597B09C
:1045400012AF78600B46FB701346BB700023FB7301
:104550007B6800221A70FB78013B072B00F28181F7
:1045600001A252F823F000BFBD45010889450108AA
:10457000EB450108974601084146010843470108F9
:104580000D480108ED460108BB78BA78B978B878CB
:10459000814C0794814C0694804C059404907F488C
:1045A00003900291019200937C4B7C4A7C4978688D
:1045B00018F0A4FF0346FB73FB7B55E1B978BB7889
:1045C000BA78754805907548049074480390029233
:1045D000724A019200930B46704A7249786818F04B
:1045E0008DFF0346FB73FB7B3EE16B4B10936E4BE1
:1045F0000F936E4B0E936E4B0D936E4B0C936E4B55
:104600000B93664B0A936D4B09936D4B08936D4B5F
:104610000793624B0693694B05936B4B04936B4B6B
:104620000393684B02936A4B01935C4B0093634B7B
:10463000644A6849786818F061FF0346FB7313E128
:10464000554B1093584B0F93584B0E93584B0D935B
:10465000584B0C93584B0B93504B0A93574B099361
:104660005D4B08935D4B07934C4B0693534B05935F
:104670005B4B04935B4B0393584B0293544B019356
:10468000464B00934D4B554A5249786818F036FF17
:104690000346FB73E8E0404B1093434B0F93434BAF
:1046A0000E93434B0D93434B0C93434B0B933B4B5C
:1046B0000A93424B09934C4B08934C4B0793374B4F
:1046C00006933E4B05934A4B0493464B0393474B4B
:1046D00002933F4B0193314B0093384B434A3D4982
:1046E000786818F00BFF0346FB73BDE02A4B10936C
:1046F0002D4B0F932D4B0E932D4B0D932D4B0C9358
:104700002D4B0B93254B0A932C4B0993394B089354
:10471000394B0793214B0693284B0593374B049352
:10472000304B0393344B0293294B01931B4B009363
:10473000224B314A2749786818F0E0FE0346FB73A4
:1047400092E0154B1093184B0F93184B0E93184B88
:104750000D93184B0C93184B0B93104B0A93174B5C
:104760000993274B0893274B07930C4B0693134B46
:104770000593254B04931B4B0393224B0293144B3D
:104780000193064B00930D4B1E4A1249786818F0AE
:10479000B5FE0346FB7367E0AC0800209C080020D0
:1047A0005040030810420308542A03085C2A0308F7
:1047B000642A0308742A0308842A0308142A0308B5
:1047C000942A03080C2A0308982A0308A82A030835
:1047D000CC2A0308A8430308D42A03081C2A030888
:1047E000D82A0308E82A0308EC2A0308242A030825
:1047F000F02A0308142B03082C2A0308182B03089B
:10480000382B03083C2A03083C2B0308184B109351
:10481000184B0F93184B0E93184B0D93184B0C938A
:10482000184B0B93184B0A93184B0993184B08938A
:10483000184B0793144B0693144B0593164B049394
:10484000164B0393134B0293154B01930E4B00939E
:104850000E4B104A1349786818F050FE0346FB735C
:1048600002E04FF0FF33FFE718461437BD4690BD16
:10487000AC080020542A03085C2A0308642A0308B1
:10488000742A0308842A03089C080020142A0308B9
:10489000682B03084C2A03086C2B0308E82A03083A
:1048A000CC2A0308A843030880B584B002AF78601F
:1048B0000B46FB707B6800221A70114B0093114B62
:1048C000114A1249786818F019FEFB78012B02D0C2
:1048D000022B06D00BE00B4A0D49786818F00EFE4B
:1048E00008E0084A0B49786818F008FE02E04FF02B
:1048F000FF3300E0002318460837BD4680BD00BFE7
:10490000CC2A03089C080020142A0308942B0308CF
:1049100094000020A400002080B586B002AFF860AB
:10492000B96087ED010A7868FBF726FE02460B4660
:10493000CDE90023BA680449F86818F0DFFD00BF2C
:104940001037BD4680BD00BFA02B0308B0B584B0B2
:1049500000AFF860B96087ED010AF868FBF7EAFD7F
:1049600004460D46B868FBF7E5FD4FF00002174B13
:10497000FBF75AFE02460B4620462946FBF77EFF10
:1049800002460B4610461946FCF746F90346104A04
:1049900013607868FBF7F0FD4FF000020B4BFBF75C
:1049A00043FE02460B464FF000000A49FBF766FF44
:1049B00002460B4610461946FCF72EF90346064AF6
:1049C000136000BF1037BD46B0BD00BF00408F4030
:1049D000B40000200000F03FB800002080B485B093
:1049E00000AF78600023BB730223FB730EE0FB7BF8
:1049F0007A6813441B787B73FB7B7A6813441A78BC
:104A0000BB7B1344BB73FB7B0133FB73FB7B162B1C
:104A1000EDD97B6817331B78BA7B9A4201D1012309
:104A200000E0002318461437BD465DF8047B70474C
:104A300080B582B000AF78607B6801335A21184698
:104A4000FBF7CEFB0346002B02D14FF0FF33A9E06A
:104A50007868FFF7C3FF0346002B02D16FF0010314
:104A6000A0E07B6802331B781A047B6803331B7851
:104A70001B0213447A680432127813444B4A1360C1
:104A80007B6814331B789B09DBB203F00103002B16
:104A90000ED07B6805331B781A047B6806331B78BD
:104AA0001B0213447A68073212781344404A136099
:104AB0007B6808331B781A047B6809331B781B0258
:104AC00013447A680A32127813443A4A13607B68B6
:104AD00014331B785B09DBB203F00103002B0ED00B
:104AE0007B680B331B781A047B680C331B781B0222
:104AF00013447A680D32127813442F4A13607B688E
:104B00000E331B781A047B680F331B781B02134487
:104B10007A68103212781344284A13607B68143381
:104B20001B781B09DBB203F00103002B0ED07B685E
:104B300011331B781A047B6812331B781B02134451
:104B40007A681332127813441D4A13607B68153358
:104B50001B789BB21B029AB27B6816331B789BB200
:104B600013449AB2174B1A807B6814331B78DB0905
:104B7000DBB203F00103002B04D0134B1B6801339D
:104B8000114A1360114B1A880E4B1B889A4204D9A4
:104B90000F4B1B6801330E4A13600A4B1A880B4BEC
:104BA0001A80002318460837BD4680BDC008002083
:104BB000C4080020D0080020D4080020C808002025
:104BC000CC080020DC080020D8080020DE080020E7
:104BD000E008002080B400AF0E4B1B68002B02D110
:104BE000DFED0D6A0DE00D4B1B6807EE903AB8EE55
:104BF000677A084B1B6807EE903AF8EE677AC7EEC3
:104C0000276AF0EE667AB0EE670ABD465DF8047B6F
:104C1000704700BFC408002000000000C00800204A
:104C200080B582B000AFFFF7D5FF87ED000A0D4BCE
:104C3000D3ED007A97ED007A67EE277AC7ED017A17
:104C4000D7ED017AF5EEC07AF1EE10FA01D5064BF8
:104C50007B607B6807EE903AB0EE670A0837BD4686
:104C600080BD00BFB40000205F70893080B400AF09
:104C70000E4B1B68002B02D1DFED0D6A0DE00D4BD2
:104C80001B6807EE903AB8EE677A084B1B6807EE90
:104C9000903AF8EE677AC7EE276AF0EE667AB0EEE1
:104CA000670ABD465DF8047B704700BFD40800204A
:104CB00000000000D008002080B582B000AFFFF7F0
:104CC000D5FF87ED000A0D4BD3ED007A97ED007A02
:104CD00067EE277AC7ED017AD7ED017AF5EEC07A53
:104CE000F1EE10FA01D5064B7B607B6807EE903A37
:104CF000B0EE670A0837BD4680BD00BFB80000208F
:104D00005F70893080B483B000AF184B1B68002BF4
:104D100002D14FF000031FE0154B1A68134B1B68BC
:104D2000B2FBF3F307EE903AB8EE677A114BD3ED8E
:104D3000007A27EE277A104BD3ED007A67EE277AB8
:104D4000C7ED017AD7ED017AF5EEC07AF1EE10FAEF
:104D500001D50A4B7B607B6807EE903AB0EE670A9C
:104D60000C37BD465DF8047B704700BFCC080020BF
:104D7000C8080020B4000020B80000205F7089300F
:104D800080B584B000AFFFF74BFF87ED020AFFF755
:104D900093FF87ED010A97ED027AD7ED017A67EE6E
:104DA000277AC7ED037AD7ED037AB2EE0E7AF4EEE6
:104DB000C77AF1EE10FA01D5044BFB60FB6807EEF1
:104DC000903AB0EE670A1037BD4680BD5F708930FB
:104DD00080B584B000AFFFF795FF87ED030AFFF7BA
:104DE000CFFF87ED020AD7ED027AF5EE407AF1EEB9
:104DF00010FA02D14FF000031EE0D7ED037AF5EE72
:104E0000407AF1EE10FA02D14FF0000314E097ED72
:104E1000037AD7ED027AB4EEE77AF1EE10FA02DD0A
:104E20004FF07E5308E0D7ED036A97ED027AC6EEA5
:104E3000877AC7ED017A7B6807EE903AB0EE670A91
:104E40001037BD4680BD000080B400AF034B1B6827
:104E50001846BD465DF8047B704700BFE00800209F
:104E600080B400AF034B1B681846BD465DF8047B59
:104E7000704700BFD808002080B400AF034B1B88E8
:104E80001846BD465DF8047B704700BFDC08002073
:104E9000B0B584B000AFFFF773FF87ED020A384B5F
:104EA0001B681846FBF746FB02460B464FF0000016
:104EB0003449FBF7E3FC02460B4614461D46324BD1
:104EC00093ED007A314BD3ED007A67EE277A17EE37
:104ED000900AFBF751FB02460B464FF000002949B0
:104EE000FBF7CCFC02460B4620462946FBF79CFB11
:104EF00002460B46104619461DA3D3E90023FBF7D3
:104F000093FB02460B46104619461BA3D3E9002328
:104F1000FBF78AFB02460B4610461946FBF77CFE60
:104F200003467B60FFF790FF03461C04FFF7A4FFD6
:104F3000034623443B603B6807EE903AF8EEE76A8D
:104F400097ED017AC6EE877AC7ED037AD7ED037A3B
:104F5000F5EEC07AF1EE10FA01D50D4BFB60FB685F
:104F600007EE903AB0EE670A1037BD46B0BD00BFFD
:104F70000000000065CDCD41000000000020AC40E5
:104F8000C80800200000F03FB4000020B800002056
:104F90005F70893080B400AF00BFBD465DF8047B10
:104FA0007047000080B485B000AFF860B9607A60E7
:104FB0003B60FB68002B03D00E4AFB68D36002E025
:104FC0000C4B0D4ADA60BB68002B03D0094ABB6862
:104FD000136102E0074B084A1A61064A7B68536076
:104FE000044A3B68936000BF1437BD465DF8047BFC
:104FF000704700BFE4080020954F010880B500AF5E
:1050000000F09CF8662000F01FFA992000F01CFACE
:1050100000F09EF800BF80BD90B585B000AF78600D
:10502000FFF7ECFF00F0D2F9F860FB683E4A9342CC
:105030003FD0FB683C4A934267D8FB683B4A9342A7
:1050400021D0FB68394A93425FD8FB68384A9342C3
:1050500045D0FB68374A934257D1374B354A1A60DF
:10506000354B01229A80344B0122DA80324B4FF4C7
:1050700080521A81304B4FF480725A812E4B4FF47C
:1050800000729A8145E02C4B284A1A602A4B012273
:105090009A80294B0122DA80274B4FF480521A81E3
:1050A000254B4FF480725A81234B4FF480629A81D2
:1050B0002FE0214B1C4A1A601F4B01229A801E4B85
:1050C0000122DA801C4B4FF480521A811A4B4FF4A4
:1050D00080725A81184B4FF400629A8119E0164B86
:1050E000134A1A60144B01229A80134B0122DA8072
:1050F000114B4FF480521A810F4B4FF480725A813A
:105100000D4B4FF480629A8103E00B4B00221A6032
:1051100000BF7B68084A1C4613460FCB84E80F008B
:1051200078681437BD4690BD1740EF001640EF0079
:105130001620C2001540EF00F808002080B500AF2F
:10514000024BDB68984700BF80BD00BFE408002029
:1051500080B500AF024B1B69984700BF80BD00BF00
:10516000E408002080B582B000AF786000F07CF9E0
:10517000FFF7E4FF202000F067F97B681B0CDBB22F
:10518000184600F061F97B681B0ADBB2184600F094
:105190005BF97B68DBB2184600F056F9FFF7D8FFE1
:1051A00000F06DF900BF0837BD4680BD80B584B002
:1051B00000AFF860B9601346FB8000F055F9FFF7C7
:1051C000BDFF022000F040F9BB681B0CDBB21846A3
:1051D00000F03AF9BB681B0ADBB2184600F034F95C
:1051E000BB68DBB2184600F02FF907E0FB681B78BC
:1051F000184600F029F9FB680133FB60FB885A1E52
:10520000FA80002BF2D1FFF7A3FF00F038F900BFBE
:105210001037BD4680BD80B586B000AFF860B9607C
:105220001346FB800023FB750023BB7500237B75B1
:1052300000233B750023FB74BB687B757B7D5B4261
:105240003B75FB881B0A9BB2FB75FB88BB757B7D9E
:10525000002B24D1FB7D002B14D1FB881A46B968A2
:10526000F868FFF7A3FF7BE04FF48072B968F86835
:10527000FFF79CFFBB6803F58073BB60FB6803F519
:105280008073FB60FB7D5A1EFA75002BECD1BB7D51
:105290009BB21A46B968F868FFF788FF60E0FB7DAB
:1052A000002B25D1BA7D3B7D9A421AD9BA7D3B7D30
:1052B000D31AFB743B7D9BB21A46B968F868FFF7B6
:1052C00075FF3B7DBA681344BB603B7DFA681344AD
:1052D000FB60FB7C9BB21A46B968F868FFF766FF73
:1052E0003EE0FB881A46B968F868FFF75FFF37E0D1
:1052F0003B7D9BB2FA88D31AFB80FB881B0A9BB2CA
:10530000FB75FB88BB753B7D9BB21A46B968F86894
:10531000FFF74CFF3B7DBA681344BB603B7DFA68E6
:105320001344FB600DE04FF48072B968F868FFF732
:105330003DFFBB6803F58073BB60FB6803F58073BA
:10534000FB60FB7D5A1EFA75002BECD1BB7D002B58
:1053500006D0BB7D9BB21A46B968F868FFF726FFF6
:1053600000BF1837BD4680BD80B584B000AFF8607F
:10537000B9601346FB80FFF7E1FE032000F064F8FC
:10538000BB681B0CDBB2184600F05EF8BB681B0A5A
:10539000DBB2184600F058F8BB68DBB2184600F0E4
:1053A00053F808E000F046F803461A46FB681A7006
:1053B000FB680133FB60FB885A1EFA80002BF1D199
:1053C000FFF7C6FE00BF1037BD4680BD80B584B074
:1053D00000AF0023FB600023BB6000237B60002341
:1053E0003B60FFF7ABFEFFF7B3FEFFF7A7FEFFF74B
:1053F000AFFEFFF7A3FE9F2000F026F800F01AF89A
:105400000346BB6000F016F803467B6000F012F81C
:1054100003463B60FFF79CFEBB681A047B681B02D7
:1054200013433A681343FB60FB6818461037BD46C8
:1054300080BD000080B500AF024B5B689847034613
:10544000184680BDE408002080B582B000AF034656
:10545000FB71044B9B68FA791046984700BF0837E8
:10546000BD4680BDE408002080B500AFFFF766FEB2
:105470000620FFF7E9FFFFF76BFE00BF80BD80B598
:1054800082B000AF0023FB71FFF758FE0520FFF745
:10549000DBFFFFF7CFFF0346FB71FB7903F001034E
:1054A000002BF6D1FFF754FE00BF0837BD4680BD84
:1054B00084B080B500AF07F1080C8CE80F00074BF3
:1054C000184607F108035822194618F03CFB00BFA4
:1054D000BD46BDE8804004B0704700BF0809002009
:1054E00080B582B000AFF91D41F288330122044833
:1054F00001F08AFAFB7918460837BD4680BD00BF27
:105500000809002080B582B000AF0346FB71F91D89
:1055100041F288330122034801F033F900BF083714
:10552000BD4680BD0809002080B500AF00221021D3
:10553000024800F067FB00BF80BD00BF00000240D2
:1055400080B500AF01221021024800F05BFB00BFD4
:1055500080BD00BF0000024080B500AF0E4B1B684D
:105560000D4A43F4007313600B4B1B680A4A43F463
:1055700080631360084B1B68074A43F48073136011
:10558000032000F0D8F80F20FDF764FAFDF746F984
:105590000023184680BD00BF003C024080B400AF2D
:1055A000064B1B781A46064B1B681344044A1360CB
:1055B00000BFBD465DF8047B704700BFC0000020FF
:1055C0006009002080B400AF034B1B681846BD463D
:1055D0005DF8047B704700BF6009002080B485B08F
:1055E00000AF78607B6803F00703FB600C4BDB685F
:1055F000BB60BA684FF6FF031340BB60FB681A023A
:10560000BB68134343F0BF6343F40033BB60044AF9
:10561000BB68D36000BF1437BD465DF8047B70479C
:1056200000ED00E080B400AF044BDB681B0A03F020
:1056300007031846BD465DF8047B704700ED00E0A7
:1056400080B483B000AF0346FB7197F90730002B9D
:105650000BDBFB7903F01F02074997F907305B0961
:10566000012000FA02F241F8232000BF0C37BD46AA
:105670005DF8047B704700BF00E100E080B483B0B8
:1056800000AF03463960FB7197F90730002B0ADB46
:105690003B68DAB20C4997F907301201D2B20B44D9
:1056A00083F800230AE03B68DAB20849FB7903F08B
:1056B0000F03043B1201D2B20B441A7600BF0C3721
:1056C000BD465DF8047B704700E100E000ED00E0BE
:1056D00080B489B000AFF860B9607A60FB6803F00D
:1056E0000703FB61FB69C3F10703042B28BF0423F5
:1056F000BB61FB690433062B02D9FB69033B00E065
:1057000000237B614FF0FF32BB6902FA03F3DA43F7
:10571000BB681A407B699A404FF0FF317B6901FA00
:1057200003F3D9437B680B40134318462437BD4627
:105730005DF8047B704780B582B000AF7860786810
:10574000FFF74CFF00BF0837BD4680BD80B586B06F
:1057500000AF0346B9607A60FB7300237B61FFF7FB
:1057600061FF78617A68B9687869FFF7B1FF02462E
:1057700097F90F3011461846FFF780FF00BF183722
:10578000BD4680BD80B582B000AF0346FB7197F97E
:1057900007301846FFF754FF00BF0837BD4680BDED
:1057A00080B582B000AF78607B68002B01D1012307
:1057B0000EE07B685B79DBB2002B05D17B680022B1
:1057C0001A717868FDF756F87B6801225A71002338
:1057D00018460837BD4680BD80B584B000AF7860FC
:1057E0007B689B6DFB60FFF7EDFEB8607B6893F80C
:1057F0003530DBB2022B08D07B6880225A657B688B
:10580000002283F83420012352E07B681B681A6869
:105810007B681B6822F016021A607B681B685A6955
:105820007B681B6822F080025A617B681B6C002B2E
:1058300003D17B689B6C002B07D07B681B681A68C0
:105840007B681B6822F008021A607B681B681A6874
:105850007B681B6822F001021A6013E0FFF7B2FEBA
:105860000246BB68D31A052B0CD97B6820225A65E7
:105870007B68032283F835207B68002283F834207C
:10588000032315E07B681B681B6803F00103002BF2
:10589000E4D17B68DB6D3F229A40FB689A607B68AD
:1058A000012283F835207B68002283F8342000230E
:1058B00018461037BD4680BD80B483B000AF786015
:1058C0007B6893F83530DBB2022B04D07B688022F2
:1058D0005A6501230CE07B68052283F835207B683C
:1058E0001B681A687B681B6822F001021A6000239B
:1058F00018460C37BD465DF8047B704780B489B00C
:1059000000AF7860396000237B6100233B61002396
:10591000BB610023FB6159E10122FB6902FA03F339
:105920007B613B681B687A6913403B613A697B691C
:105930009A4240F048813B685B6803F00303012B07
:1059400005D03B685B6803F00303022B30D17B6812
:105950009B68BB61FB695B00032202FA03F3DB4334
:10596000BA691340BB613B68DA68FB695B0002FA05
:1059700003F3BA691343BB617B68BA699A607B68B9
:105980005B68BB610122FB6902FA03F3DB43BA697E
:105990001340BB613B685B681B0903F00102FB69B4
:1059A00002FA03F3BA691343BB617B68BA695A60B0
:1059B0003B685B6803F00303032B17D07B68DB684D
:1059C000BB61FB695B00032202FA03F3DB43BA69A4
:1059D0001340BB613B689A68FB695B0002FA03F302
:1059E000BA691343BB617B68BA69DA603B685B687C
:1059F00003F00303022B23D1FB69DA087B6808322A
:105A000053F82230BB61FB6903F007039B000F22B0
:105A100002FA03F3DB43BA691340BB613B681A69BE
:105A2000FB6903F007039B0002FA03F3BA6913430F
:105A3000BB61FB69DA087B680832B96943F8221058
:105A40007B681B68BB61FB695B00032202FA03F3FE
:105A5000DB43BA691340BB613B685B6803F0030238
:105A6000FB695B0002FA03F3BA691343BB617B680D
:105A7000BA691A603B685B6803F44033002B00F09E
:105A8000A2800023FB60574B5B6C564A43F4804373
:105A90005364544B5B6C03F48043FB60FB68524AD5
:105AA000FB699B08023352F82330BB61FB6903F0AA
:105AB00003039B000F2202FA03F3DB43BA6913408E
:105AC000BB617B68494A934219D07B68484A93423C
:105AD00013D07B68474A93420DD07B68464A934275
