:020000040801F1
:1000000000000120E52D0108D52B0108DD2B01089A
:10001000E52B0108ED2B0108F52B0108000000007D
:10002000000000000000000000000000E1340208B1
:10003000FD2B0108000000003137020871010208A1
:10004000352E0108352E0108352E0108352E010800
:10005000352E0108352E0108352E0108352E0108F0
:10006000352E0108352E0108352E0108352E0108E0
:10007000352E0108352E0108352E0108352E0108D0
:10008000352E0108352E0108352E0108000000002C
:10009000000000000000000000000000352E0108F4
:1000A000352E01080D2C0108352E0108352E0108CA
:1000B000352E0108352E0108352E0108352E010890
:1000C000352E0108352E0108352E0108352E010880
:1000D000352E0108352E0108212C010800000000F2
:1000E000352E0108352E0108352E010800000000CC
:1000F000000000000000000000000000352E010894
:1001000000000000352E0108352E0108352E0108AB
:1001100000000000000000000000000000000000DF
:10012000352E0108352E0108352E0108352E01081F
:10013000352E010800000000000000000000000053
:10014000000000000000000000000000352E010843
:10015000352E0108352E0108352E0108352E0108EF
:10016000352E0108352E01080000000000000000B7
:10017000000000000000000000000000000000007F
:1001800000000000352E0108000000000000000003
:04019000352E0108FF
:1001A00010B5054C237833B9044B13B10448AFF3B1
:1001B00000800123237010BDF80200200000000021
:1001C000601A030808B5034B1BB103490348AFF39A
:1001D000008008BD00000000FC020020601A030837
:1001E00010F8012B11F8013B012A28BF9A42F7D0E1
:1001F000D01A70470000000000000000000000005E
:1002000001F0FF01102A2BDB10F0070F08D010F8C7
:10021000013B013A8B422DD010F0070F42B3F6D1CB
:10022000F0B441EA012141EA014122F007047FF0E4
:1002300000070023F0E80256083C85EA010586EA3B
:10024000010685FA47F5A3FA87F586FA47F6A5FA77
:1002500087F68EB9EED1F0BC01F0FF0102F0070283
:1002600032B110F8013B013A83EA010313B1F8D12E
:100270000020704701387047002D06BF354603380F
:10028000073815F0010F07D1013015F4807F02BF48
:10029000013015F4C03F0130F0BC0138704700BF99
:1002A000034613F8012B002AFBD1181A01387047B6
:1002B00081F0004102E000BF83F0004330B54FEA17
:1002C00041044FEA430594EA050F08BF90EA020F84
:1002D0001FBF54EA000C55EA020C7FEA645C7FEA17
:1002E000655C00F0E2804FEA5454D4EB5555B8BF3A
:1002F0006D420CDD2C4480EA020281EA030382EAAB
:10030000000083EA010180EA020281EA0303362D3C
:1003100088BF30BD11F0004F4FEA01314FF4801C0F
:100320004CEA113102D0404261EB410113F0004F21
:100330004FEA03334CEA133302D0524263EB4303D8
:1003400094EA050F00F0A780A4F10104D5F1200E76
:100350000DDB02FA0EFC22FA05F2801841F10001D1
:1003600003FA0EF2801843FA05F359410EE0A5F1A5
:1003700020050EF1200E012A03FA0EFC28BF4CF0D6
:10038000020C43FA05F3C01851EBE37101F000458C
:1003900007D54FF0000EDCF1000C7EEB00006EEB99
:1003A0000101B1F5801F1BD3B1F5001F0CD3490823
:1003B0005FEA30004FEA3C0C04F101044FEA44527A
:1003C00012F5800F80F09A80BCF1004F08BF5FEA01
:1003D000500C50F1000041EB045141EA050130BDE1
:1003E0005FEA4C0C404141EB0101013C28BFB1F5F3
:1003F000801FE9D291F0000F04BF01460020B1FA3E
:1004000081F308BF2033A3F10B03B3F120020CDA10
:100410000C3208DD02F1140CC2F10C0201FA0CF0EE
:1004200021FA02F10CE002F11402D8BFC2F1200C53
:1004300001FA02F120FA0CFCDCBF41EA0C01904009
:10044000E41AA2BF01EB0451294330BD6FEA040452
:100450001F3C1CDA0C340EDC04F11404C4F120023D
:1004600020FA04F001FA02F340EA030021FA04F34F
:1004700045EA030130BDC4F10C04C4F1200220FAA6
:1004800002F001FA04F340EA0300294630BD21FAE4
:1004900004F0294630BD94F0000F83F4801306BFAA
:1004A00081F480110134013D4EE77FEA645C18BF9E
:1004B0007FEA655C29D094EA050F08BF90EA020F35
:1004C00005D054EA000C04BF1946104630BD91EA2D
:1004D000030F1EBF0021002030BD5FEA545C05D130
:1004E0004000494128BF41F0004130BD14F580046F
:1004F0003CBF01F5801130BD01F0004545F0FE41E3
:1005000041F470014FF0000030BD7FEA645C1ABF17
:10051000194610467FEA655C1CBF0B46024650EA4E
:10052000013406BF52EA033591EA030F41F400217A
:1005300030BD00BF90F0000F04BF0021704730B500
:100540004FF4806404F132044FF000054FF00001D5
:1005500050E700BF90F0000F04BF0021704730B596
:100560004FF4806404F1320410F0004548BF40426B
:100570004FF000013EE700BF42004FEAE2014FEAC0
:1005800031014FEA02701FBF12F07F4393F07F4F9B
:1005900081F06051704732F07F4208BF704793F09E
:1005A0007F4F04BF41F40021704730B54FF46074B1
:1005B00001F0004521F000411CE700BF50EA0102B4
:1005C00008BF704730B54FF000050AE050EA01025D
:1005D00008BF704730B511F0004502D5404261EBCD
:1005E00041014FF4806404F132045FEA915C3FF40E
:1005F000D8AE4FF003025FEADC0C18BF03325FEAAB
:10060000DC0C18BF033202EBDC02C2F1200300FA5B
:1006100003FC20FA02F001FA03FE40EA0E0021FA80
:1006200002F11444BDE600BF70B54FF0FF0C4CF46E
:10063000E06C1CEA11541DBF1CEA135594EA0C0F20
:1006400095EA0C0F00F0DEF82C4481EA030621EA5B
:100650004C5123EA4C5350EA013518BF52EA033596
:1006600041F4801143F4801338D0A0FB02CE4FF048
:100670000005E1FB02E506F00042E0FB03E54FF078
:100680000006E1FB03569CF0000F18BF4EF0010E70
:10069000A4F1FF04B6F5007F64F5407404D25FEA6C
:1006A0004E0E6D4146EB060642EAC62141EA55511F
:1006B0004FEAC52040EA5E504FEACE2EB4F1FD0C61
:1006C00088BFBCF5E06F1ED8BEF1004F08BF5FEADF
:1006D000500E50F1000041EB045170BD06F0004691
:1006E00046EA010140EA020081EA0301B4EB5C043E
:1006F000C2BFD4EB0C0541EA045170BD41F4801136
:100700004FF0000E013C00F3AB8014F1360FDEBF5A
:10071000002001F0004170BDC4F10004203C35DA36
:100720000C341BDC04F11404C4F1200500FA05F3B9
:1007300020FA04F001FA05F240EA020001F000425A
:1007400021F0004110EBD37021FA04F642EB0601D0
:100750005EEA430E08BF20EAD37070BDC4F10C04FA
:10076000C4F1200500FA04F320FA05F001FA04F2BE
:1007700040EA020001F0004110EBD37041F10001AA
:100780005EEA430E08BF20EAD37070BDC4F12005B5
:1007900000FA05F24EEA020E20FA04F301FA05F21D
:1007A00043EA020321FA04F001F0004121FA04F2C5
:1007B00020EA020000EBD3705EEA430E08BF20EA95
:1007C000D37070BD94F0000F0FD101F000464000CF
:1007D00041EB010111F4801F08BF013CF7D041EA51
:1007E000060195F0000F18BF704703F00046520055
:1007F00043EB030313F4801F08BF013DF7D043EA26
:100800000603704794EA0C0F0CEA135518BF95EADB
:100810000C0F0CD050EA410618BF52EA4306D1D162
:1008200081EA030101F000414FF0000070BD50EA81
:10083000410606BF1046194652EA430619D094EA0B
:100840000C0F02D150EA013613D195EA0C0F05D1F5
:1008500052EA03361CBF104619460AD181EA030149
:1008600001F0004141F0FE4141F470014FF0000001
:1008700070BD41F0FE4141F4780170BD70B54FF09C
:10088000FF0C4CF4E06C1CEA11541DBF1CEA13551C
:1008900094EA0C0F95EA0C0F00F0A7F8A4EB0504FE
:1008A00081EA030E52EA03354FEA013100F08880F5
:1008B0004FEA03334FF0805545EA131343EA1263BE
:1008C0004FEA022245EA111545EA10654FEA002673
:1008D0000EF000419D4208BF964244F1FD0404F52C
:1008E000407402D25B084FEA3202B61A65EB030588
:1008F0005B084FEA32024FF480104FF4002CB6EB45
:10090000020E75EB030E22BFB61A754640EA0C00C4
:100910005B084FEA3202B6EB020E75EB030E22BF04
:10092000B61A754640EA5C005B084FEA3202B6EB45
:10093000020E75EB030E22BFB61A754640EA9C0004
:100940005B084FEA3202B6EB020E75EB030E22BFD4
:10095000B61A754640EADC0055EA060E18D04FEA92
:10096000051545EA16754FEA06164FEAC30343EA32
:1009700052734FEAC2025FEA1C1CC0D111F4801FFF
:100980000BD141EA00014FF000004FF0004CB6E7F8
:1009900011F4801F04BF01430020B4F1FD0C88BF97
:1009A000BCF5E06F3FF6AFAEB5EB030C04BFB6EBA2
:1009B000020C5FEA500C50F1000041EB045170BD95
:1009C0000EF0004E4EEA113114EB5C04C2BFD4EBC2
:1009D0000C0541EA045170BD41F480114FF0000E46
:1009E000013C90E645EA060E8DE60CEA135594EAC2
:1009F0000C0F08BF95EA0C0F3FF43BAF94EA0C0FC5
:100A00000AD150EA01347FF434AF95EA0C0F7FF439
:100A100025AF104619462CE795EA0C0F06D152EA8D
:100A200003353FF4FDAE1046194622E750EA410671
:100A300018BF52EA43067FF4C5AE50EA41047FF482
:100A40000DAF52EA43057FF4EBAE12E74FF0FF3CE7
:100A500006E000BF4FF0010C02E000BF4FF0010CB8
:100A60004DF804CD4FEA410C7FEA6C5C4FEA430C31
:100A700018BF7FEA6C5C1BD001B050EA410C0CBF80
:100A800052EA430C91EA030F02BF90EA020F0020E2
:100A9000704710F1000F91EA030F58BF994208BF49
:100AA00090422CBFD8176FEAE37040F00100704706
:100AB0004FEA410C7FEA6C5C02D150EA013C07D15D
:100AC0004FEA430C7FEA6C5CD6D152EA033CD3D0A8
:100AD0005DF8040B704700BF8446104662468C46A2
:100AE0001946634600E000BF01B5FFF7B7FF0028D5
:100AF00048BF10F1000F01BD4DF808EDFFF7F4FFFE
:100B00000CBF012000205DF808FB00BF4DF808ED88
:100B1000FFF7EAFF34BF012000205DF808FB00BFAB
:100B20004DF808EDFFF7E0FF94BF012000205DF8CD
:100B300008FB00BF4DF808EDFFF7CEFF94BF012082
:100B400000205DF808FB00BF4DF808EDFFF7C4FF7B
:100B500034BF012000205DF808FB00BF4FEA410CC4
:100B60007FEA6C5C02D150EA013C0AD14FEA430CA7
:100B70007FEA6C5C02D152EA033C02D14FF00000E4
:100B800070474FF0010070474FEA410212F5001222
:100B900015D211D56FF47873B3EB625212D94FEAC4
:100BA000C12343F0004343EA505311F0004F23FAAE
:100BB00002F018BF404270474FF00000704750EA03
:100BC000013005D111F0004008BF6FF000407047C0
:100BD0004FF00000704700BF4A0011D212F500121A
:100BE00011D20DD56FF47873B3EB62520ED44FEA85
:100BF000C12343F0004343EA505323FA02F0704705
:100C00004FF00000704750EA013002D14FF0FF3042
:100C100070474FF0000070474FEA4102B2F1E043E5
:100C200024BFB3F5001CDCF1FE5C0DD901F0004CD3
:100C30004FEAC0024CEA5070B2F1004F40EB830023
:100C400008BF20F00100704711F0804F21D113F14F
:100C50003872BCBF01F00040704741F480114FEA88
:100C60005252C2F11802C2F1200C10FA0CF320FA11
:100C700002F018BF40F001004FEAC1234FEAD3232E
:100C800003FA0CFC40EA0C0023FA02F34FEA430398
:100C9000CCE77FEA625307D150EA01331EBF4FF021
:100CA000FE4040F44000704701F0004040F0FE403C
:100CB00040F40000704700BF53B94AB9002908BF8B
:100CC00000281CBF4FF0FF314FF0FF3000F0B4B9E7
:100CD000ADF1080C6DE904CE00F050F8DDF804E049
:100CE000DDE9022304B07047430803F05533C01A0E
:100CF000830803F0333300F03330184400EB101056
:100D000000F00F3000EB002000EB0040000E7047B9
:100D100038B50022002304460D46FFF7F7FE28B938
:100D200020462946BDE8384000F00AB8204605F1C3
:100D3000004100F005F8404261EB410138BD00BFC1
:100D4000D0B50C4B002206460F46FFF76DFCFFF7AF
:100D500043FF0446FFF7EEFB074B0022FFF764FC5E
:100D600002460B4630463946FFF7A6FAFFF734FF36
:100D70002146D0BD0000F03D0000F0412DE9F047D4
:100D8000089D0C46002B4ED194468C458646B2FAFF
:100D900082F262D94AB1C2F12003914020FA03F3F2
:100DA0000CFA02FC194300FA02FE4FEA1C471FFA34
:100DB0008CF6B1FBF7F44FEA1E4307FB141143EA2C
:100DC000014304FB06F199420AD91CEB030304F129
:100DD000FF3080F01281994240F20F81023C63445F
:100DE000591A1FFA8EF3B1FBF7F007FB101143EA13
:100DF000014300FB06F69E420AD91CEB030300F1F7
:100E0000FF3180F0FC809E4240F2F980634402385A
:100E10009B1B40EA044000211DB1D3400022C5E9DC
:100E20000032BDE8F0878B4205D90DB1C5E900015C
:100E300000210846F5E7B3FA83F1002946D1A34221
:100E400002D39042C0F0F080861A64EB03030120C5
:100E5000002DE6D0C5E90063E3E7002A40F090806A
:100E6000A1EB0C044FEA1C481FFA8CF70121B4FBDC
:100E7000F8F64FEA1E4308FB164443EA044307FB17
:100E800006F0984208D91CEB030306F1FF3402D2A6
:100E9000984200F2CD8026461C1A1FFA8EF3B4FB4E
:100EA000F8F008FB104443EA044300FB07F79F42B5
:100EB00008D91CEB030300F1FF3402D29F4200F279
:100EC000B0802046DB1B40EA0640A5E7C1F12006C2
:100ED0008B4022FA06F71F4320FA06FC04FA01F3BE
:100EE00043EA0C03F44000FA01F8380C4FEA1349C6
:100EF000B4FBF0FE1FFA87FC00FB1E4449EA0444E1
:100F00000EFB0CF9A14502FA01F20AD93C190EF1C7
:100F1000FF3A80F08480A14540F28180AEF1020E5C
:100F20003C44A4EB09041FFA83F9B4FBF0F300FB83
:100F3000134449EA044403FB0CFCA44507D93C19BB
:100F400003F1FF3067D2A44565D9023B3C4443EA34
:100F50000E40A0FB0293A4EB0C049C42CE469C46A0
:100F600051D34ED055B1B8EB0E0364EB0C0404FA28
:100F700006F6CB401E43CC40C5E90064002150E793
:100F8000C2F1200320FA03F10CFA02FC24FA03F365
:100F900094400C434FEA1C4800FA02FE1FFA8CF7FB
:100FA000B3FBF8F008FB1031230C43EA014300FBCC
:100FB00007F1994208D91CEB030300F1FF362CD24C
:100FC00099422AD9023863445B1AA4B2B3FBF8F100
:100FD00008FB113344EA034401FB07F3A34208D999
:100FE0001CEB040401F1FF3613D2A34211D90239DC
:100FF0006444E41A41EA004139E70446F0E6084651
:1010000006E7C845AED2B9EB020E63EB070C013818
:10101000A8E73146EDE7034699E73046D4E7D646E0
:101020007FE7634402384DE70646234608460FE74C
:10103000023E634430E700BF704700BF80B400AF9A
:1010400000BFBD465DF8047B704780B400AF00234D
:101050001846BD465DF8047B704780B500AF03F0CD
:10106000B1FA00BF80BD000080B582B000AF7860EB
:101070000B467B807B681B680E4A934216D17B88A7
:10108000182B13D10C4B1B6818460FF0FFFB0346BF
:10109000002B06D1084B18680023002207490FF0E7
:1010A00037FB18220549064806F006FD00BF083741
:1010B000BD4680BD00440040480400207404002068
:1010C000D803002080B500AF044B1B684FF0FF3100
:1010D00018460FF022FA00BF80BD00BF6404002054
:1010E00080B500AF034B1B6818460FF061FA00BFD4
:1010F00080BD00BF6404002080B500AF044B1B68B6
:101100004FF0FF3118460FF008FA00BF80BD00BF56
:101110006804002080B500AF034B1B6818460FF031
:1011200047FA00BF80BD00BF6804002080B500AF53
:10113000044B1B684FF0FF3118460FF0EEF900BF6B
:1011400080BD00BF6C04002080B500AF034B1B685E
:1011500018460FF02DFA00BF80BD00BF6C040020C0
:1011600080B500AF044B1B684FF0FF3118460FF0FD
:10117000D4F900BF80BD00BF7004002080B500AF6F
:10118000034B1B6818460FF013FA00BF80BD00BF69
:101190007004002080B500AF00220221024804F054
:1011A000BBFE00BF80BD00BF0000024080B500AFA5
:1011B00001220221024804F0AFFE00BF80BD00BF43
:1011C0000000024080B500AF72B600BF604B614ABC
:1011D0009A6062B600BF04F025FB00F027F95E4874
:1011E0000BF0F2FC00F054FA00F026FA00F0B8F927
:1011F00000F0ECF90EF08AFF00F084F900F096F9A7
:101200000EF084FF0EF0CEFF54480FF000F90346B5
:10121000534A136053480FF0FAF80346524A1360DA
:1012200052480FF0F4F80346514A136051480FF04A
:10123000EEF80346504A1360504A1E2101200FF079
:10124000F4F903464E4A13604E4A202101200FF064
:10125000ECF903464C4A13604C4A242101200FF05C
:10126000E4F903464A4A13604A4A082101200FF074
:10127000DCF90346484A1360484AC62101200FF0B2
:10128000D4F90346464A1360464A022101200FF072
:10129000CCF90346444A1360444A042101200FF06C
:1012A000C4F90346424A1360424A002142480EF004
:1012B000C3FF0346414A1360414A002141480EF0F2
:1012C000BBFF0346404A1360404A002140480EF0ED
:1012D000B3FF03463F4A13603F4A00213F480EF0E8
:1012E000ABFF03463E4A13603E4A00213E480EF0E3
:1012F000A3FF03463D4A13603D4A00213D480EF0DE
:101300009BFF03463C4A13603C4A00213C480EF0D8
:1013100093FF03463B4A13603B4A00213B480EF0D3
:101320008BFF03463A4A13603A4A00213A480EF0CE
:1013300083FF0346394A1360394A002139480EF0C9
:101340007BFF0346384A13600EF050FF00BFFDE7F5
:1013500000ED00E00000010811FF0108D843030878
:1013600064040020E843030868040020F8430308ED
:101370006C04002008440308700400203043030874
:1013800048040020484303084C040020604303083D
:1013900050040020784303085404002090430308BD
:1013A00058040020A84303085C040020C04303083D
:1013B00060040020C84103088517010820040020AC
:1013C000EC4103089517010824040020104203088B
:1013D000291901082804002034420308951C01083B
:1013E0002C04002058420308D51C010830040020BA
:1013F0007C4203085122010834040020A042030863
:10140000FD22010838040020C44203089524010885
:101410003C040020E8420308512701084004002052
:101420000C430308712701084404002080B594B0E0
:1014300000AF07F120033022002118461CF0A8FB62
:1014400007F10C0300221A605A609A60DA601A6190
:101450000023BB60294B1B6C284A43F08053136464
:10146000264B1B6C03F08053BB60BB6800237B6082
:10147000234B1B6823F44043214A43F40043136089
:101480001F4B1B6803F440437B607B6809233B626E
:101490004FF480337B6201237B630223BB634FF4F1
:1014A0008003FB6304233B6454237B640223BB64FB
:1014B0000423FB6407F12003184604F099FD03465A
:1014C000002B01D001F0F2F90F23FB6002233B61F6
:1014D00000237B614FF48053BB610023FB6107F164
:1014E0000C030221184604F0FBFF0346002B01D039
:1014F00001F0DCF900BF5037BD4680BD0038024026
:101500000070004080B500AF064B074A1A600548DE
:1015100004F0D0FA0346002B01D001F0C7F900BF58
:1015200080BD00BF140300200030024080B500AF32
:10153000094B0A4A1A60084B06225A60064B40F6CD
:10154000FF729A60044804F000FD0346002B01D0AE
:1015500001F0ACF900BF80BD1C030020003000404A
:1015600080B500AF174B184A1A60164B4FF48272C1
:101570005A60144B00229A60124B0022DA60114B21
:1015800002221A610F4B01225A610E4B4FF4007276
:101590009A610C4B0022DA610A4B00221A62094B55
:1015A00000225A62074B00229A62064B0A22DA6234
:1015B000044805F0E7F90346002B01D001F076F965
:1015C00000BF80BD280300200030014080B500AF7F
:1015D000174B184A1A60164B4FF482725A60144B1C
:1015E00000229A60124B0022DA60114B02221A612B
:1015F0000F4B01225A610E4B4FF400729A610C4B53
:101600000022DA610A4B00221A62094B00225A6258
:10161000074B00229A62064B0A22DA62044805F060
:10162000B1F90346002B01D001F040F900BF80BDA5
:1016300080030020003C004080B500AF124B134AED
:101640001A60114B4FF496525A600F4B4FF4805270
:101650009A600D4B0022DA600B4B4FF480621A61E6
:10166000094B04225A61084B00229A61064B002262
:10167000DA61054806F0D0F90346002B01D001F0ED
:1016800015F900BF80BD00BFD80300200044004012
:1016900080B588B000AF07F10C0300221A605A60D1
:1016A0009A60DA601A610023BB60334B1B6B324ACD
:1016B00043F080031363304B1B6B03F08003BB606C
:1016C000BB6800237B602C4B1B6B2B4A43F0010350
:1016D0001363294B1B6B03F001037B607B680023C2
:1016E0003B60254B1B6B244A43F002031363224BE0
:1016F0001B6B03F002033B603B68012212211F4871
:1017000004F00AFC00224FF400411C4804F004FCE1
:10171000002240211A4804F0FFFB48F20203FB605C
:1017200001233B6100237B610023BB6107F10C03B4
:101730001946124804F06CFA1023FB6001233B6148
:1017400000237B610323BB6107F10C0319460B489F
:1017500004F05EFA4023FB6001233B6100237B61C0
:101760000023BB6107F10C031946054804F050FA49
:1017700000BF2037BD4680BD003802400000024057
:101780000004024080B582B000AF786001200EF006
:1017900023FEFBE780B598B000AF78600023FB65BF
:1017A000574BFB6000233B7241F288300EF014FE71
:1017B000544B1B6807F10801002218460FF0FEFE8B
:1017C000FB68BB65FFF7F2FC4FF4FA700EF004FE05
:1017D0004D4B5B6818224D494D4806F06DF94FF4AA
:1017E0007A700EF0F9FDFFF7D5FCD7ED037AB0EE75
:1017F000670A4FF47A71474803F0F0F9464B1868CE
:1018000007F134014FF47A7300220EF0E1FF034632
:1018100013F1020F4CD007F13403184603F050FACD
:101820000346002B55D103F07BFCF0EE407A3B4B96
:10183000C3ED007A03F074FCB0EE407A384BD3ED80
:10184000007A77EE277AC7ED067A03F02FFBF0EEE9
:10185000407AC7ED047A03F0D9FBF0EE407AC7ED89
:10186000087A03F095FBF0EE407AC7ED077A03F0B3
:1018700069FBF0EE407AC7ED057A03F0EFFBF0EE7E
:10188000407AC7ED097A03F025FC0346BB6203F0FA
:101890002DFC0346FB6203F035FC03463B63214B02
:1018A000186807F11001022300220FF0F5FA10E08A
:1018B000FB6D0133FB6504E0134B5B687B650EF049
:1018C0006BFD18221149124806F0F6F80346012B69
:1018D000F2D00EF061FD0B4B1B6807F108010022EE
:1018E00018460FF06BFED7ED037A97ED167AB4EE3B
:1018F000677AF1EE10FA81D0FB68BB6575E700BF2F
:101900006F12833A54040020004400407404002005
:10191000D8030020C0AF1C00480400209804002019
:10192000940400205004002090B5ADF25C4D12AF3D
:1019300007F58263A3F20C4318601423C7F80C3434
:101940000023C7F808344FF0000307F20442136085
:10195000BD4C684604F11003482219461CF0EDFA0C
:1019600094E80F0003F00AFFB84BB94AB949BA48E6
:1019700003F060FC07F5827207F5017107F541700D
:101980004FF4807319F01AFBB449B54819F0FAFA0C
:1019900019F04CFB0346002B05DA03F05FFD19F04C
:1019A0006DFB19F043FBAF4819F0F0FB0346002B29
:1019B0000FDD07F1FC0108230022AA4819F06AFB99
:1019C000A94B186807F1FC01022300220FF064FA0A
:1019D00013E007F58263A3F54573A44A5A6007F53F
:1019E0008263A3F5457301221A709F4B186807F1B3
:1019F000FC01022300220FF04FFA9D4819F0C6FBAC
:101A00000346002B0FDD07F13401C623002298485E
:101A100019F040FB974B186807F1340102230022AC
:101A20000FF03AFA27E007F58263A3F577730122F6
:101A30001A7007F58263A3F5777300225A7007F5D1
:101A40008263A3F57773002283F8842007F582630D
:101A5000A3F57773002283F8A52007F58263A3F529
:101A6000777300229A70834B186807F134010223C0
:101A700000220FF011FA804819F088FB0346002B72
:101A80000FDD07F13001022300227B4819F002FB31
:101A90007A4B186807F13001022300220FF0FCF99D
:101AA0000BE007F58263A3F5787300225A7007F5FF
:101AB0008263A3F5787301221A70714819F066FBEE
:101AC0000346002B0BDD042300226E496C4819F0FD
:101AD000E1FA6C4B1B6807F2044213600DE0694B9E
:101AE0004FF000021A604FF0000307F20442136047
:101AF00004226449624819F011FB634819F0C2FBE3
:101B0000624819F0A3FC614819F0BCFB564B1B68F6
:101B100007F1FC01002218460FF050FD07F5826323
:101B2000A3F545731B78002B14D007F58263A3F54A
:101B3000457300221A7007F1FC0308221946494830
:101B400019F0ECFA484B186807F1FC010223002257
:101B50000FF0A2F9474B1B6807F134010022184629
:101B60000FF02CFD07F58263A3F577731B78002B2C
:101B700014D007F58263A3F5777300221A7007F17A
:101B80003403C62219463A4819F0C8FA394B186886
:101B900007F13401022300220FF07EF9374B1B6856
:101BA00007F13001002218460FF008FD07F58263A7
:101BB000A3F578731B78002B0CD007F58263A3F58F
:101BC000787300221A7007F13003022219462A485E
:101BD00019F0A4FA2E4B1B6807F10C0100221846DD
:101BE0000FF0ECFCD7F80C24D7F808349A4212D343
:101BF00007F58263A3F2044393ED027A07F20443EC
:101C0000D3ED007A77EE677AB7EE007AF4EEC77A12
:101C1000F1EE10FA0DDD07F10C030833042219462A
:101C2000174819F07BFAD7F80C3403F56163C7F84D
:101C30000C34D7F808340133C7F808344FF47A70FD
:101C40000EF0CAFB62E700BF28030020D15701084D
:101C5000AD5701080D580108F55701081511010885
:101C6000F91001089C1B0308540400206F12833AEA
:101C7000AC1B030858040020BC1B03085C040020B4
:101C8000D01B030894040020E41B0308EC1B03088A
:101C90005004002080B584B000AF78600023FB6062
:101CA000FB680133FB600AF06BFA0DF0A1FE0AF04D
:101CB000F3FF074B186807F10C01022300220FF015
:101CC000EBF84FF47A700EF087FB00BFE8E700BF37
:101CD0006004002090B5ADF5845D83B012AF07F1CC
:101CE000400343F83C0C07F5805303F1080320221E
:101CF000002118461BF04CFF07F5815303F1080340
:101D00001722002118461BF043FF402307F581529C
:101D100002F108021370082307F5815202F109024B
:101D20001370DC4B1B7807F5815202F10A02137025
:101D3000D94B1B7807F5815202F10B021370D74B78
:101D40001B7807F5815202F10C021370D44B1B78FB
:101D500007F5815202F10D02137007F5805303F16C
:101D60000B0307F5815202F108021068186092888F
:101D70009A80022307F5815202F11E02137007F5C3
:101D8000815303F10E031B6807F5805202F1110223
:101D9000136007F5815303F112031B6807F58052A6
:101DA00002F11502136007F5815303F116031B6856
:101DB00007F5805202F11902136007F5815303F110
:101DC0001A031B6807F5805202F11D021360B54C1F
:101DD000684604F11003482219461CF0AEF894E856
:101DE0000F000EF057F9B049B0480EF0FFF8B048B8
:101DF0000EF0E4F807F5815303F1080318460DF0DF
:101E0000E1FFAC49AC4808F029F9AC49AC4808F00E
:101E1000FFF8AC49AC4808F0D5F8AC4AAC49AC483E
:101E200008F07CFE07F12003183B4FF400621946CE
:101E300004200AF0DBFEA7480AF0C6FEA649A74820
:101E40000AF0A6FE07F5815303F11E031B7807F580
:101E5000815202F101021370002307F5805202F152
:101E6000080213700EF06CF80346002B40F0EB8173
:101E70004FF4FA7010F08CF807F5815303F1080362
:101E8000062219464FF4106006F06AFE07F58153EA
:101E900003F11E031B78022B06D107F6080319462F
:101EA00000200AF0C3F803E00DF09CFF0EF03CF8B0
:101EB000FFF73CF90DF0E6FF0DF0FCFF0346002BA9
:101EC00040F0E080002307F5815202F10E0213700A
:101ED000002307F5815202F10F021370002307F56A
:101EE000815202F110021370002307F5815202F1B2
:101EF00011021370002307F5815202F112021370D0
:101F0000002307F5815202F113021370002307F535
:101F1000815202F114021370002307F5815202F17D
:101F200015021370002307F5815202F11602137097
:101F3000002307F5815202F117021370002307F501
:101F4000815202F118021370002307F5815202F149
:101F500019021370002307F5815202F11A0213705F
:101F6000002307F5815202F11B021370002307F5CD
:101F7000815202F11C021370002307F5815202F115
:101F80001D021370FFF7E0F8002307F5815202F1FC
:101F90001F0213705AE007F5815303F11F031A78EB
:101FA00007F5815303F11F031B7802F582523A446F
:101FB00012F8122C03F582533B4403F82F2C07F53B
:101FC000815303F11F031A7807F5815303F11F03AF
:101FD0001B7802F582523A4412F80E2C03F5825314
:101FE0003B4403F82B2C07F5815303F11F031A78A8
:101FF00007F5815303F11F031B7802F582523A441F
:1020000012F80A2C03F582533B4403F8272C07F5FA
:10201000815303F11F031A7807F5815303F11F035E
:102020001B7802F582523A4412F8062C03F58253CB
:102030003B4403F8232C07F5815303F11F031B785E
:10204000013307F5815202F11F02137007F5815326
:1020500003F11F031B78032B9DD9002307F5805242
:1020600002F1080213701E4B186807F5805101F148
:102070000801022300220EF00FFF00BF01200EF026
:10208000ABF9DFE6002307F5815202F11F0213705E
:1020900083E000BF107AFF1F117AFF1F127AFF1F23
:1020A000137AFF1F800300204D000208350002084C
:1020B000D9030208C5000208E90002087D000208F1
:1020C00065000208E1100108C510010819FE0108A9
:1020D00031FE010811FF01087D110108611101089D
:1020E0004C04002007F5815303F11F031A7807F50C
:1020F000815303F11F031B7802F582523A4412F810
:10210000122C03F582533B4403F82F2C07F581531F
:1021100003F11F031A7807F5815303F11F031B789E
:1021200002F582523A4412F80E2C03F582533B44D6
:1021300003F82B2C07F5815303F11F031A7807F5D9
:10214000815303F11F031B7802F582523A4412F8BF
:102150000A2C03F582533B4403F8272C07F58153DF
:1021600003F11F031A7807F5815303F11F031B784E
:1021700002F582523A4412F8062C03F582533B448E
:1021800003F8232C07F5815303F11F031B78013358
:1021900007F5815202F11F02137007F5815303F115
:1021A0001F031B78032B9DD9012307F5805202F1F1
:1021B000080213700DF0A0FE0346DBB207F5805253
:1021C00002F10A0213700DF08BFE0346DBB207F535
:1021D000805202F1090213700AF060F8034607F515
:1021E000815202F104021360FEF7AEFF07F581533E
:1021F00003F10E031B78002B0ED1144B186807F562
:10220000805101F10801022300220EF045FE4FF437
:102210007A700EF0E1F815E007F5805303F108033A
:10222000153318460AF0FCFC084B186807F5805176
:1022300001F10801022300220EF02EFE4FF47A7005
:102240000EF0CAF834E600BFFCE500BF4C040020E5
:1022500080B584B000AF78601F4B1B6818460EF045
:102260007DF8F8601D4B1B6818460EF077F8F86093
:102270001B4B1B6818460EF071F8F860194B1B6871
:1022800018460EF06BF8F860174B1B6818460EF0F6
:1022900065F8F860154B1B6818460EF05FF8F8609B
:1022A000134B1B6818460EF059F8F860114B1B6869
:1022B00018460EF053F8F8600F4B1B6818460EF0E6
:1022C0004DF8F86000200EF049F8F8604FF47A708D
:1022D0000EF082F800BFBFE7200400202404002095
:1022E000280400202C0400203004002034040020A6
:1022F000380400203C0400204404002080B5ADF5E3
:10230000815D84B000AF07F1300343F82C0C514AD3
:1023100007F5805303F10803126811461980023350
:10232000120C1A70032307F5815202F10E0213708A
:1023300007F5805303F1080307F5815202F10E02FD
:10234000127807F6080107F1100008380CF078FD44
:1023500041480DF0E7FC41480DF0FCFC404B1B6888
:102360000321184600F02EFE3E4B1B680421184640
:1023700000F028FE3C4B1B680021184600F022FEAE
:102380003A4B1B680221184600F01CFE384B1B68B4
:102390000521184600F016FE364937480DF044FB7B
:1023A000364937480DF040FB364937480DF03CFBC5
:1023B000364B1B6807F5805101F10C0100221846CD
:1023C0000FF0FCF807F5805303F10C031B78002B8A
:1023D00037D00DF09DFD0346012B32D1002307F5C8
:1023E000815202F10F0213701EE0FEF79FFE07F507
:1023F000815303F10F031B7818460CF03DFDFEF7E7
:10240000A3FE234B4FF080521A60BFF34F8FBFF3F0
:102410006F8F07F5815303F10F031B78013307F525
:10242000815202F10F02137007F5815303F10F037C
:102430001A7807F5815303F10E031B789A42D4D31F
:1024400003E04FF47A700DF0C7FF64200DF0C4FF75
:10245000AEE700BF0C2803085D3D0108713E01088E
:102460005004002054040020580400205C04002084
:1024700060040020F81B0308141F0308201F030832
:102480005422030868220308002803084C04002093
:1024900004ED00E080B5ADF5226D02AF07F618231C
:1024A000A3F6142318609E499E4801F0B1FD4FF435
:1024B0007A700DF091FF9C4B1B6807F6F811002213
:1024C00018460FF07BF897F8F83983F00103DBB278
:1024D000002B40F01A810DF01BFD0346012B40F04C
:1024E0001481924B1B6807F51361002218460FF008
:1024F00065F80BE04FF47A700DF06EFF8B4B1B68A4
:1025000007F51361002218460FF058F897F8313993
:1025100083F00103DBB2002BECD197F8313983F063
:102520000103DBB2002B40F0F28007F20C5207F5FA
:10253000136107F6F8104FF48063019307F5867373
:1025400000934FF4806301F07FFD0346002B40F0C1
:10255000E08001F065FE0346002BC0F2DC8001F054
:10256000AFFE0346002B40F0D88007F18C0300211A
:10257000184602F0E1FA6D4B1B6807F51361002263
:1025800018460FF01BF897F8313983F00103DBB2DE
:10259000002B02D002F01CF8B2E0654B1B6807F676
:1025A0000C11002218460FF009F807F61823A3F5BE
:1025B0008673D3ED027A07F10C03B0EE670A5D492A
:1025C000184602F0F1FA07F10C0207F18C031146EC
:1025D000184601F0C7FF0346002B40F0868007F63F
:1025E0001823A3F58673D3ED007A07F10C03B0EE40
:1025F000670A5149184602F0D7FA07F10C0207F1B1
:102600008C031146184601F0ADFF0346002B6ED136
:1026100007F61823A3F58673D3ED017A07F10C03AF
:10262000B0EE670A4549184602F0BEFA07F10C02FF
:1026300007F18C031146184601F094FF0346002B66
:1026400057D107F61823A3F58673D3ED057A9FEDCE
:102650003C7A67EE877A07F10C03B0EE670A3949D6
:10266000184602F0A1FA07F10C0207F18C0311469B
:10267000184601F077FF0346002B3CD107F61823DC
:10268000A3F58673D3ED037A07F10C03B0EE670A66
:102690002D49184602F088FA07F10C0207F18C0365
:1026A0001146184601F05EFF0346002B25D107F6C0
:1026B0001823A3F58673D3ED047A07F10C03B0EE6B
:1026C000670A2249184602F06FFA07F10C0207F177
:1026D0008C031146184601F045FF0346002B0ED12E
:1026E00047F230500DF078FE45E700BF08E000BF2C
:1026F00006E000BF04E000BF02E000BF00E000BF52
:102700004FF47A700DF068FED1E600BFCFE600BF4F
:10271000CDE600BFCBE600BFC9E600BFC7E600BFFD
:10272000491101082D1101084C0400205804002013
:102730005004002010280308182803082028030844
:102740000000C84228280308382803084028030846
:1027500080B582B000AF7860044803F038FC4FF4D5
:10276000FA700DF039FE00BFF6E700BF1C03002031
:1027700080B5CEB002AF07F59873A3F596731860D5
:10278000404B1B6807F58671002218460EF016FFB5
:1027900097F80C3183F00103DBB2002B04D10DF06C
:1027A000B7FB0346012B04D042F210700DF014FE6B
:1027B00067E097F815315AB297F819315BB2DB43ED
:1027C0005BB213435BB2DBB287F8083197F816317E
:1027D0005AB297F81A315BB2DB435BB213435BB278
:1027E000DBB287F8093197F817315AB297F81B31E5
:1027F0005BB2DB435BB213435BB2DBB287F80A31F7
:1028000097F818315AB297F81C315BB2DB435BB2D0
:1028100013435BB2DBB287F80B3107F586731846BA
:1028200000F00AFB07F108034FF48071184600F02E
:1028300013FB0346A7F82E31B7F92E31002B1FDB0F
:10284000FEF774FCFEF78CFC002341F28832022173
:10285000042006F071FBB7F82E2107F5847307F109
:10286000080141F288300090042007F03FF8FEF79D
:1028700085FCFEF769FC41F288300DF0ADFD7FE785
:1028800000BF7DE74C04002080B582B000AF7860C7
:102890007B681B68044A934201D102F0E5FF00BF48
:1028A0000837BD4680BD00BF0000014080B400AFC6
:1028B00072B600BF00BFFDE780B582B000AF002355
:1028C0007B60124B5B6C114A43F4804353640F4BA3
:1028D0005B6C03F480437B607B6800233B600B4BA5
:1028E0001B6C0A4A43F080531364084B1B6C03F0C3
:1028F00080533B603B6800220F216FF0010003F022
:10290000AFF800BF0837BD4680BD00BF00380240A9
:1029100080B485B000AF78607B681B680B4A934237
:102920000DD10023FB600A4B1B6B094A43F4805313
:102930001363074B1B6B03F48053FB60FB6800BF02
:102940001437BD465DF8047B704700BF003002407D
:102950000038024080B58CB000AF786007F11C03EE
:1029600000221A605A609A60DA601A617B681B68FC
:10297000324A93422CD10023BB61314B5B6C304A0D
:1029800043F4805353642E4B5B6C03F48053BB6160
:10299000BB6900237B612A4B1B6B294A43F001036F
:1029A0001363274B1B6B03F001037B617B69E023FF
:1029B000FB6102233B6200237B620323BB6205238E
:1029C000FB6207F11C0319461E4803F021F930E0B1
:1029D0007B681B681C4A93422BD100233B61184B38
:1029E0001B6C174A43F400431364154B1B6C03F430
:1029F00000433B613B690023FB60114B1B6B104A9A
:102A000043F0020313630E4B1B6B03F00203FB60E6
:102A1000FB683823FB6102233B6200237B620323B4
:102A2000BB620623FB6207F11C031946074803F04B
:102A3000EFF800BF3037BD4680BD00BF0030014019
:102A40000038024000000240003C00400004024008
:102A500080B58AB000AF786007F1140300221A60D5
:102A60005A609A60DA601A617B681B681D4A93425B
:102A700033D100233B611C4B1B6C1B4A43F40033D6
:102A80001364194B1B6C03F400333B613B69002357
:102A9000FB60154B1B6B144A43F001031363124B8D
:102AA0001B6B03F00103FB60FB680C237B610223BB
:102AB000BB610023FB6103233B6207237B6207F1B9
:102AC00014031946094803F0A3F800220521262023
:102AD00002F0C6FF262002F0DFFF00BF2837BD4608
:102AE00080BD00BF004400400038024000000240AA
:102AF00080B58CB000AF78600023BB6200237B629E
:102B00000023BB602E4B5B6C2D4A43F001035364E2
:102B10002B4B5B6C03F00103BB60BB6807F10C023D
:102B200007F110031146184603F0FAFE03F0E4FE25
:102B3000B862BB6A234AA2FB03239B0C013B7B6266
:102B4000214B224A1A60204B40F2E732DA601E4ADB
:102B50007B6A53601C4B00221A611B4B00229A6057
:102B6000194B00229A61184804F0E2FC034687F8EA
:102B70002F3097F82F30002B1BD1134804F032FD73
:102B8000034687F82F3097F82F30002B11D11920EA
:102B900002F082FF7B680F2B08D800227968192089
:102BA00002F05EFF0A4A7B68136002E0012387F8A7
:102BB0002F3097F82F3018463037BD4680BD00BF04
:102BC0000038024083DE1B439C04002000000140CB
:102BD000BC00002080B400AF00BFFDE780B400AFB0
:102BE00000BFFDE780B400AF00BFFDE780B400AFD9
:102BF00000BFFDE780B400AF00BFFDE780B400AFC9
:102C000000BFBD465DF8047B7047000080B500AF93
:102C1000024804F049FD00BF80BD00BF9C040020B5
:102C200080B500AF024804F0A5FF00BF80BD00BF23
:102C3000D803002080B400AF01231846BD465DF8DC
:102C4000047B704780B582B000AF786039601BF0BC
:102C50003FF9034616221A604FF0FF331846083733
:102C6000BD4680BD80B582B000AF78604FF0FF31C7
:102C70007868FFF7E7FF00BFFDE780B586B000AFDB
:102C8000F860B9607A6000237B610AE0AFF30080EE
:102C90000146BB685A1CBA60CAB21A707B6901331C
:102CA0007B617A697B689A42F0DB7B68184618374B
:102CB000BD4680BD80B586B000AFF860B9607A606F
:102CC00000237B6109E0BB685A1CBA601B78184678
:102CD000AFF300807B6901337B617A697B689A423C
:102CE000F1DB7B6818461837BD4680BD80B483B0E1
:102CF00000AF78604FF0FF3318460C37BD465DF8E3
:102D0000047B704780B483B000AF786039603B6863
:102D10004FF400525A60002318460C37BD465DF848
:102D2000047B704780B483B000AF786001231846FD
:102D30000C37BD465DF8047B704780B485B000AFAA
:102D4000F860B9607A60002318461437BD465DF814
:102D5000047B704780B586B000AF7860144A154B8D
:102D6000D31A7B617B693B61134B1B68002B02D13B
:102D7000114B124A1A60104B1A687B6813443A6967
:102D80009A4207D21BF0A4F803460C221A604FF0B7
:102D9000FF3309E0084B1B68FB60074B1A687B6830
:102DA0001344054A1360FB6818461837BD4680BDBA
:102DB0000000012000040000E404002018DB0020D3
:102DC00080B400AF064BD3F88830054A43F4700353
:102DD000C2F8883000BFBD465DF8047B704700BF75
:102DE00000ED00E0DFF834D0FFF7EAFF0C480D49B2
:102DF0000D4A002302E0D458C4500433C4188C4256
:102E0000F9D30A4A0A4C002301E013600432A242BB
:102E1000FBD31BF063F8FEF7D5F9704700000120E3
:102E200000000020F8020020C0510308F802002032
:102E300014DB0020FEE7000080B582B000AF7860B0
:102E40002022796803481BF078F800BF0837BD4698
:102E500080BD00BFE8040020F0B5ADB018AF7864C5
:102E60000B46A7F842307B6C00221A703C4BDB7893
:102E7000FB633B4B1B79BB63394B5B797B63384B03
:102E80009B793B63364BDB79FB62354B1B7ABB622C
:102E9000334B5B7A7B62324B9B7A3B62304BDB7A03
:102EA000FB612F4B1B7BBB612D4B5B7B7B612C4BF9
:102EB0009B7B3B612A4BDB7BFB60294B1B7CBB6014
:102EC000274B5B7C7B60264B9B7C3B60244BDB7CF5
:102ED0001E46234B1B7D1D46214B5B7D1C46204B14
:102EE0009B7D18461E4BDB7D19461D4B1B7E1A46EB
:102EF0001C4B1693159214911390129411951096E1
:102F00003A680F927A680E92BA680D92FA680C923B
:102F10003A690B927A690A92BA690992FA69089237
:102F20003A6A07927A6A0692BA6A0592FA6A049233
:102F30003A6B03927A6B0292BA6B0192FB6B00932D
:102F4000094B0A4A0A49786C1AF0D4FC0346A7F8E0
:102F50004E30B7F94E3018465437BD46F0BD00BF6D
:102F6000E8040020282903085028030860280308E3
:102F70006828030880B483B000AF0346FB71FB7977
:102F80002F2B05D9FB79392B02D8FB79303B12E086
:102F9000FB79602B05D9FB79662B02D8FB79573B6F
:102FA00009E0FB79402B05D9FB79462B02D8FB7948
:102FB000373B00E0002318460C37BD465DF8047B24
:102FC0007047000080B483B000AF78600B46FB70A0
:102FD000FB78002B06D17B68002B34D01D4A7B6820
:102FE000136030E0FB78012B06D17B68002B2AD0E0
:102FF000194A7B68136026E0FB78022B06D17B68B8
:10300000002B20D0154A7B6813601CE0FB78032B53
:1030100006D17B68002B16D0114A7B68136012E042
:10302000FB78042B06D17B68002B0CD00D4A7B6803
:10303000136008E0FB78052B05D17B68002B02D0DC
:10304000094A7B68136000BF0C37BD465DF8047BFE
:10305000704700BF080500200C0500201005002067
:1030600014050020180500201C05002080B5CCB0F8
:1030700000AF07F59873A3F5967318600A4607F535
:103080009873A3F22D131A7007F59873A3F22D13FA
:103090001B78042B00F28A8101A252F823F000BFB2
:1030A000B5300108AD33010881320108AD330108A4
:1030B0004733010807F16403C622002118461AF0BD
:1030C00067FD07F59873A3F59673BC4918680BF074
:1030D00023FD0346312118461AF071FD0346002BEB
:1030E0000FD107F59873A3F59673B44918680BF0E0
:1030F00013FD0346B24918461AF024FE0346002B7E
:1031000003D0012387F8653022E007F59873A3F513
:103110009673AA4918680BF0FFFC03463021184645
:103120001AF04DFD0346002B0FD107F59873A3F558
:103130009673A24918680BF0EFFC0346A1491846A4
:103140001AF000FE0346002B02D0002387F86530FA
:1031500007F59873A3F596739B4918680BF0DCFC90
:10316000C7F82C01D7F82C31002B06D1D7F82C0149
:10317000FDF796F80346202B07D807F16403843344
:10318000D7F82C1118461AF0D0FE07F59873A3F55E
:1031900096738E4918680BF0BFFCC7F82C01D7F85E
:1031A0002C31002B06D1D7F82C01FDF779F8034616
:1031B000202B07D807F16403A533D7F82C11184644
:1031C0001AF0B3FE07F59873A3F596738049186853
:1031D0000BF0A2FCC7F82C01D7F82C31002B06D13C
:1031E000D7F82C01FDF75CF803467F2B08D807F1D0
:1031F000640302337F22D7F82C1118461AF022FDFF
:1032000007F59873A3F59673724918680BF084FC60
:10321000C7F82C01D7F82C31002B06D1D7F82C0198
:10322000FDF73EF80346052B1ED807F116031A4694
:103230006949D7F82C011AF07DFB07F59873A3F5BF
:103240008D731B88002B0FD007F59873A3F58D7332
:103250001B884FF6FD72934206D807F59873A3F5C5
:103260008D731B88A7F8E630012387F864305B4B29
:10327000186807F16401022300220DF00DFE98E0AA
:1032800007F11C030222002118461AF081FC07F501
:103290009873A3F59673524918680BF03DFC0346EA
:1032A000312118461AF08BFC0346002B0FD107F58D
:1032B0009873A3F596734A4918680BF02DFC0346E2
:1032C0003F4918461AF03EFD0346002B06D007F58D
:1032D0009873A3F58A7301225A7025E007F5987355
:1032E000A3F596733E4918680BF016FC034630218F
:1032F00018461AF064FC0346002B0FD107F59873AB
:10330000A3F59673364918680BF006FC03462D4961
:1033100018461AF017FD0346002B05D007F59873E1
:10332000A3F58A7300225A7007F59873A3F58A7380
:1033300001221A702B4B186807F11C01022300228E
:103340000DF0AAFD35E007F59873A3F596732649AD
:1033500018680BF0E1FBC7F82C01D7F82C31002BD3
:1033600026D0224A2249D7F82C011AF0E3FA1F4B43
:10337000D3ED007AF5EEC07AF1EE10FA00DC17E03A
:103380001A4B1A6807F59873A3F592735A6007F5FC
:103390009873A3F5927301221A70164B186807F1FF
:1033A0000C01022300220DF077FD01E000BF00E0D8
:1033B00000BF00BF07F59877BD4680BD30290308E0
:1033C000382903084029030848290308502903081D
:1033D0005C29030860290308682903080805002000
:1033E0006C2903081005002074290308200500201B
:1033F0007C290308180500202DE9F04FADF50B7D61
:103400000AAF07F50073A3F5F273186007F50073B0
:10341000A3F5F6731A6007F50073A3F2E5130A46E5
:103420001A7007F50073A3F5A473734A1846114682
:1034300051231A461AF081FD07F50073A3F5E673D0
:103440006E4A1846114684231A461AF076FD07F58F
:103450000073A3F5F0736A4A1C4615460FCD0FC4DE
:103460002B68238007F50073A3F2E5131B78042B68
:1034700000F09380042B00F3B880002B02D0032BC4
:1034800031D0B2E05F4B1B6807F59C7100221846F3
:103490000EF094F8B7F8BA311D4697F839311E4648
:1034A00007F59C739C1C07F59C7303F1840207F1DC
:1034B000B80107F50073A3F5F27001960095234655
:1034C00000681AF017FA07F50073A3F5F27318688D
:1034D000FCF7E6FE03469AB207F50073A3F5F67310
:1034E0001B681A8082E0484B1B6807F58A7100222E
:1034F00018460EF063F8D7F814311846FDF73CF87B
:10350000C7E90201D7F818311846FDF735F8044627
:103510000D46D7F820311846FDF72EF8804689462B
:10352000D7F824311846FDF727F882468B46D7F89E
:1035300028311846FDF720F8C7E90001D7F81C31FB
:103540001846FDF719F802460B4607F1340607F551
:103550000071A1F5F270CDE9082397ED007B8DEDA8
:10356000067BCDE904ABCDE90289CDE90045D7E979
:103570000223314600681AF0BDF907F50073A3F580
:10358000F2731868FCF78CFE03469AB207F50073D5
:10359000A3F5F6731B681A8028E01C4B1B6807F51F
:1035A0008671002218460EF009F8D7F81031184637
:1035B000FCF7E2FF02460B4607F1200107F5007019
:1035C000A0F5F27000681AF095F907F50073A3F5FD
:1035D000F2731868FCF764FE03469AB207F50073AD
:1035E000A3F5F6731B681A8000E000BF00BF07F563
:1035F0000177BD46BDE8F08F80290308D429030870
:10360000582A03080805002014050020180500208A
:1036100090B5ADF53F7D02AF07F53C74A4F5397464
:10362000206007F53C70A0F53A70016007F53C7129
:10363000A1F53B710A6007F53C72A2F53C7213607C
:1036400007F19003C7F8E43207F53C73A3F539732B
:10365000AC4918680BF060FAC7F8E002D7F8E0321E
:10366000002B25D007F53C73A3F53C7307F19402BA
:10367000196810461AF059FC07F194032D22D7F867
:10368000E01218461AF0B9FA07F53C73A3F539733E
:103690009D4918680BF040FAC7F8E002D7F8E0023D
:1036A000FCF7FEFD0346B3F5007F80F0138111E0C7
:1036B00007F53C73A3F53B731B68944A10681860C8
:1036C00092889A8007F53C73A3F53A731B6805222C
:1036D0001A8011E1D7F8E032002B00F0E980D7F82A
:1036E000E002FCF7DDFD0346C7F8DC32D7F8DC3238
:1036F00007F1C8000093D7F8E032D7F8E4224FF47E
:10370000007117F0DFFEC7F8EC0207F53C73A3F574
:1037100039737F4918680BF0FFF9C7F8D802002306
:10372000C7F8E83230E0D7F8E832D7F8D8221344A7
:103730001B781846FFF71EFCC7F8CC02D7F8E83212
:103740000133D7F8D82213441B781846FFF712FC30
:10375000C7F8C802D7F8CC321B015AB2D7F8C83222
:103760005BB2134359B2D7F8E832DA0F13445B1057
:103770001A46C9B207F53C73A3F522739954D7F8DA
:10378000E8320233C7F8E832D7F8E8321F2BCADD37
:1037900007F53C73A3F5227300221A7407F1100396
:1037A000184617F0ABFF07F11003184617F0C4FFD7
:1037B000D7F8E4321A6807F1C80107F11003184678
:1037C00018F0A4FE07F17C0207F110031146184619
:1037D00018F011FF07F11003184617F09CFF07F5CA
:1037E0003C73A3F51D7300221A7407F17C0107F1E5
:1037F0006803102218461AF013FA0346002B06D06D
:103800004FF0FF33C7F8EC32D7F8EC3274E007F52D
:103810003C73A3F539733F4918680BF07DF9C7F87D
:10382000D4020A21D7F8D4020BF028FA0346C7F8CD
:10383000D032D7F8D032002B0FD1374B00221A608C
:10384000D7F8E4321A6807F1C80107F19403184663
:1038500017F064FCC7F8EC021DE00A21D7F8D40287
:103860000BF00CFA03461A462B4B1B689A4206D003
:103870004FF0FF33C7F8EC32D7F8EC323CE0D7F822
:10388000E4321A6807F1C80107F19403184617F0EB
:10389000A1FCC7F8EC02204B1B6801331E4A1360E1
:1038A000D7F8EC32002B15DA0023C7F8EC3211E020
:1038B00007F53C73A3F53B731B68144A1068186046
:1038C00092889A8007F53C73A3F53A731B6805222A
:1038D0001A8011E007F53C73A3F53B731B680F4A90
:1038E0001188927819809A7007F53C73A3F53A73A2
:1038F0001B6802221A80FFE7184607F53D77BD4690
:1039000090BD00BF6C2A0308802A0308782A0308A8
:10391000882A0308902A030824050020982A03080F
:1039200080B592B002AF78603960124978680BF0C8
:10393000F3F8F863FB6B002B05D1F86BFCF7B0FCD8
:1039400003462C2B10D807F10800FB6B00933B6853
:10395000094A322119F09AFF07F10803184617F0B7
:1039600091FC03465BB201E04FF0FF33184640374D
:10397000BD4680BD9C2A0308A42A03082DE9F04F08
:10398000ADF5337D16AF07F51C73A3F50D73186005
:1039900007F51C73A3F50E73196007F51C73A3F5E7
:1039A0000B735D4A184611464FF497731A461AF086
:1039B000C4FA5A4B1B6807F51371002218460DF024
:1039C000FDFD574B1B6807F51171002218460DF0DD
:1039D000F5FD544B1B6807F5BE71002218460DF02B
:1039E000EDFD514B1B6807F5BC71002218460DF028
:1039F000E5FD4E4B1B6807F5BA71002218460DF025
:103A0000DDFDD7F84C321846FCF7B6FDC7E90C01CE
:103A1000D7F850321846FCF7AFFDC7E90A01D7F8CE
:103A200058321846FCF7A8FDC7E90801D7F85C3200
:103A30001846FCF7A1FDC7E90601D7F86032184621
:103A4000FCF79AFDC7E90401D7F854321846FCF791
:103A500093FD82468B46D7F848321846FCF78CFD1A
:103A60008046894697F87931FB6097F87D31BB60D5
:103A7000B7F8FE317B60D7F86442D7F86802D7F810
:103A80006C12D7F8742107F1440607F51C73A3F5EF
:103A90000D75149213911290119407F5BE730233B1
:103AA000109379680F9107F5BE7384330E93B9684C
:103AB0000D91FB680C93CDE90A89CDE908AB97ED30
:103AC000047B8DED067B97ED067B8DED047B97EDFA
:103AD000087B8DED027B97ED0A7B8DED007BD7E9AE
:103AE0000C233146286819F005FF07F51C73A3F570
:103AF0000D731868FCF7D4FB03469AB207F51C73E4
:103B0000A3F50E731B681A800023184607F51D776E
:103B1000BD46BDE8F08F00BFAC2A030814050020A5
:103B20001805002008050020100500201C050020B5
:103B3000F0B5DBB00EAF786307F59870A0F5807034
:103B4000016007F59871A1F582710A6007F5987216
:103B5000A2F5847213600023C7F82C3107F1C0036B
:103B6000184617F0CBFD07F1C003184617F0E4FD27
:103B700007F13C03796B18461AF0D7F907F59873EB
:103B8000A3F5807307F13C00142219681AF035F888
:103B900007F17C0341220021184619F0F9FF07F1D3
:103BA0007C0107F13C004023D7F82C2117F072FA72
:103BB0000346A7F82A31B7F82A31402B10D1B7F8BD
:103BC0002A2107F17C0107F1C003184618F09EFC7A
:103BD000B7F82A31D7F82C211344C7F82C3119E053
:103BE000B7F82A2107F17C0107F1C003184618F045
:103BF0008DFC07F58C7207F1C0031146184618F0CA
:103C0000FAFC07F1C003184617F085FD002387F87A
:103C1000283102E00CF0C0FBBAE797F818319C4657
:103C200097F819319E4697F81A311D4697F81B31BF
:103C30001E4697F81C317B6297F81D313B6297F85E
:103C40001E31FB6197F81F31BB6197F820317B6112
:103C500097F821313B6197F82231FB6097F82331C7
:103C6000BB6097F824317B6097F825311C4697F8A4
:103C70002631194697F827311A4607F59873A3F5A8
:103C800082700D920C910B947A680A92BA6809922C
:103C9000FA6808923A6907927A690692BA690592B7
:103CA000FA6904923A6A03927B6A0293019600953C
:103CB000734662460849006819F01CFE07F59873C0
:103CC000A3F584731B6820221A800023184607F589
:103CD0009A77BD46F0BD00BFDC2B030880B592B0DB
:103CE00000AF7860396007F10803184A07CA03C3B8
:103CF0001A8007F108031846FCF7D2FA03461A4661
:103D000007F10803134412491A460B4603CB10600F
:103D100051601B78137207F108030E49184617F01B
:103D2000B5FB78647B6C002B0ADB7B680A4A118840
:103D3000927819809A703B6802221A80012300E071
:103D4000002318464837BD4680BD00BF202C03081D
:103D50002C2C0308382C0308482C030880B586B0A7
:103D600000AFF860B9607A603B600023FB75002308
:103D70003B603749F868FCF733FA0346002B06D15D
:103D80000021B868FFF772F90123FB755AE0314949
:103D9000F868FCF725FA0346002B06D10221B86823
:103DA000FFF764F90123FB754CE02B49F868FCF739
:103DB00017FA0346002B0ED1284B7A683968B86889
:103DC000FFF726FC0346002B02DA0023FB7539E0DF
:103DD0000123FB7536E02249F868FCF701FA034637
:103DE000002B0CD11D49B868FFF79AFD0346002B44
:103DF00002DB0123FB7525E00223FB7522E0194954
:103E0000F868FCF7EDF90346002B06D10421B868E9
:103E1000FFF72CF90123FB7514E01349F868FCF750
:103E2000DFF90346002B0DD1104B7A683968B8686A
:103E3000FFF7EEFB0346002B02DA0023FB7501E0DF
:103E40000123FB75FB7D18461837BD4680BD00BFBA
:103E50004C2C0308602C0308742C0308842C0308E2
:103E60008C2C03089C2C0308B42C0308202C03087A
:103E700080B586B000AFF860B9607A600023FB754A
:103E80004F49F868FCF7ACF90346002B07D17A6874
:103E90000021B868FFF7B0FA0123FB758BE04949B0
:103EA000F868FCF79DF90346002B0BD1BB68464927
:103EB0001A460B461B8813800123FB757B68022280
:103EC0001A8078E04149F868FCF78AF90346002B2C
:103ED00007D17A680321B868FFF78EFA0123FB75D2
:103EE00069E03B49F868FCF77BF90346002B07D1F2
:103EF0007A680421B868FFF77FFA0123FB755AE05E
:103F00003449F868FCF76CF90346002B06D1796850
:103F1000B868FFF733FD0123FB754CE02E49F868C4
:103F2000FCF75EF90346002B11D17B68BA682B4978
:103F30002B48FFF7FDFD0346002B02D10123FB7543
:103F400039E07B6800221A800023FB7533E02549A5
:103F5000F868FCF745F90346002B06D17968B86884
:103F6000FFF7BCFE0346FB7525E01F49F868FCF728
:103F700037F90346002B05D11C4817F067FA0123D7
:103F8000FB7518E01A49F868FCF72AF90346002B7C
:103F900005D1184817F090F90123FB750BE016497D
:103FA000F868FCF71DF90346002B04D1134817F0FD
:103FB0004DFA0123FB75FB7D18461837BD4680BDC1
:103FC000C82C0308DC2C0308E82C0308EC2C03089D
:103FD000F82C03080C2D0308182D03082C2C0308BB
:103FE000202C0308302D0308482D0308602D0308FA
:103FF000682D03087C2D0308902D0308A42D0308C9
:1040000080B400AF00BFBD465DF8047B7047000080
:1040100080B483B000AF786039607B68002B02D039
:104020007B68074A13603B68002B02D03B68054A57
:10403000136000BF0C37BD465DF8047B704700BFBE
:104040005C00002060000020B0B588B004AFF860CC
:10405000B9607A607B805E4AFB6813605D4ABB682A
:1040600013605D4A7B6813605C4A3B6A13605C4A7C
:104070007B8813805B4ABB8C1380554B1B68DB78B5
:104080001C46534B1B681B791D46514B1B685B79C3
:104090001A464F4B1B689B7919464D4B1B68DB79C1
:1040A00018464B4B1B681B7A0393029001910092B8
:1040B0002B4622464C494D4819F01CFC4B4800F059
:1040C00091FA434B1B685B7A1946414B1B689B7AFC
:1040D00018463F4B1B68DB7A1A463D4B1B681B7B1F
:1040E0000193009203460A464149424819F002FCF6
:1040F000404800F099FA374B1B680233184608F025
:10410000D1FD0346002B0CD0324B1B68981C3A4B58
:1041100001933A4B00933A4B3A4A3B4919F00AFC57
:104120000DE02C4B1B6802333649184608F08AFD17
:104130000346B3F1FF3F02D14FF0FF3343E0334B6F
:104140000022DA76314B03221A72304B274ADA60AA
:104150002E4B41F288321A832C4B01229A761D4B4A
:104160001B688433294A13641A4B1B68A533274AFA
:10417000D364184B1B68B3F88220254B1A80254B5B
:1041800000229A80234B00221A70224B00229A7040
:10419000204B00225A7005211F4809F069FB0E4B85
:1041A0001A680F4B1B8818460C4B1B680D49098871
:1041B000029101930090134642F21072164917487B
:1041C00008F05AFE002318461037BD46B0BD00BFA8
:1041D0002C0500202805002058050020540500204B
:1041E0003608002034080020A82D030830050020E0
:1041F000C42D0308400500203B0800203A08002099
:104200003908002038080020D02D030804000020C1
:104210003C080020AC080020400800205008002086
:1042200080B582B000AF1F4B1B6898471E4B1B88A0
:104230001A461E491E4809F098FB0346FB801D4B99
:104240001B689847B7F90630012B10D0154B1B6837
:104250009847174B1B68DBB2184604F081FF154BDB
:104260001B689847FB880A3B9BB21BB216E00D4BBC
:104270001B6898471049114809F00EF90346FB8066
:104280000C4B1B689847B7F90630002B04D0FB880D
:10429000143B9BB21BB201E0B7F906301846083751
:1042A000BD4680BD5C0000203C080020380800208E
:1042B000400800206000002004000020500800207A
:1042C00080B582B000AF80220021A04819F060FCC8
:1042D000002203219D4800F0C7F9002203219C48D9
:1042E00000F074FA9A48FBF7DBFF0346994AD36063
:1042F000984B974A9A60974B01225A70964B1B68CD
:104300009847944A9149954809F04CF90346FB7146
:10431000934B1B68984797F90730002B02D097F909
:1043200007300FE18B4B9B8801339AB2894B9A80FF
:1043300080220021854819F02BFC002205218348AA
:1043400000F092F900220521814800F03FFA8048F0
:10435000FBF7A6FF03467F4AD3607E4B7C4A9A60F8
:104360007C4B01225A707C4B1B689847794A7749ED
:104370007A4809F017F90346FB71794B1B68984797
:1043800097F90730002B02D097F90730DAE0714B2C
:104390009B8801339AB26F4B9A80802200216B4830
:1043A00019F0F6FB00220421684800F05DF90022B4
:1043B0000421674800F00AFA6548FBF771FF0346DD
:1043C000644AD360634B624A9A60624B01225A701E
:1043D000614B1B6898475F4A5C49604809F0E2F806
:1043E0000346FB715E4B1B68984797F90730002B1B
:1043F00002D097F90730A5E0564B9B8801339AB25B
:10440000544B9A8080220021504819F0C1FB0022B1
:1044100008214E4800F028F9002208214C4800F0FD
:10442000D5F94B48FBF73CFF03464A4AD360494B5A
:10443000474A9A60474B01225A70474B1B6898477E
:10444000444A4249454809F0ADF80346FB71444BE4
:104450001B68984797F90730002B02D097F907306F
:1044600070E03C4B9B8801339AB23A4B9A80802291
:104470000021364819F08CFB00220621334800F059
:10448000F3F800220621324800F0A0F93048FBF78B
:1044900007FF03462F4AD3602E4B2D4A9A602D4BBF
:1044A00001225A702C4B1B6898472A4A27492B48EF
:1044B00009F078F80346FB71294B1B68984797F978
:1044C0000730002B02D097F907303BE0214B9B8847
:1044D00001339AB21F4B9A80802200211B4819F0A9
:1044E00057FB00220721194800F0BEF800220721DF
:1044F000174800F06BF91648FBF7D2FE0346154A41
:10450000D360144B124A9A60124B01225A70124B1C
:104510001B6898470F4A0D49104809F043F80346B5
:10452000FB710F4B1B68984797F90730002B02D09F
:1045300097F9073006E0074B9B8801339AB2054B89
:104540009A80002318460837BD4680BD5C050020D0
:10455000DC050020AC0800205C0000205008002092
:104560006000002080B584B000AF786039603868A2
:10457000FBF796FE03460F4AD3600E4A3B689360F2
:104580000C4B9B8801339AB20A4B9A800A4B1B68EA
:104590009847084A7968094809F004F80346FB730C
:1045A000074B1B68984797F90F3018461037BD46E0
:1045B00080BD00BFAC0800205C0000205008002037
:1045C0006000002080B500AF09F0DEF800BF80BDBC
:1045D00080B500AF024809F0A4F800BF80BD00BF5D
:1045E0005008002080B584B000AF78600023FB73D2
:1045F0007868FBF755FE03460D2B02D90E23FB739B
:1046000004E07868FBF74CFE0346FB73FB7B1A461D
:104610007968044819F016FB002318461037BD4688
:1046200080BD00BFBC08002080B582B000AF7860BC
:104630000C4B00221A707868FBF732FE0346122BEF
:104640000AD87868FBF72CFE03461A4679680548B5
:1046500019F0F8FA002301E04FF0FF33184608374D
:10466000BD4680BDCC08002080B586B004AF786020
:104670000B46FB701346BB700021786819F055FC9F
:10468000FB78013B072B7BD801A252F823F000BF37
:10469000B1460108CB460108E54601081947010863
:1046A000FF4601084D4701086747010833470108E5
:1046B000BB780293364B0193364B0093364B374A07
:1046C0003749786819F016F95DE0BB780293354BED
:1046D0000193304B0093334B304A3149786819F0DD
:1046E00009F950E0304B02932A4B01932F4B009372
:1046F0002F4B2A4A2F49786819F0FCF843E02E4BDB
:104700000293244B0193294B0093294B234A2949B7
:10471000786819F0EFF836E0284B02931D4B0193AF
:10472000224B0093224B1D4A2249786819F0E2F887
:1047300029E0234B0293174B01931C4B00931C4B16
:10474000164A1C49786819F0D5F81CE01D4B0293F5
:10475000104B0193154B0093154B104A154978687F
:1047600019F0C8F80FE0184B02930A4B01930F4B56
:1047700000930F4B094A0F49786819F0BBF802E023
:104780004FF0FF3300E0002318460837BD4680BDD8
:104790008C000020BC080020740000206400002071
:1047A00030440308840000200C2E0308142E030854
:1047B000EC2D0308F42D03081C2E0308242E0308F7
:1047C0002C2E03083C2E03084C2E030890B597B0FE
:1047D00012AF78600B46FB701346BB700023FB736F
:1047E0007B6800221A70FB78013B072B00F2818165
:1047F00001A252F823F000BF4D48010819480108F2
:104800007B48010827490108D1480108D34901081C
:104810009D4A01087D490108BB78BA78B978B87813
:10482000814C0794814C0694804C059404907F48F9
:1048300003900291019200937C4B7C4A7C497868FA
:1048400019F058F80346FB73FB7B55E1B978BB7848
:10485000BA787548059075480490744803900292A0
:10486000724A019200930B46704A7249786819F0B7
:1048700041F80346FB73FB7B3EE16B4B10936E4BA1
:104880000F936E4B0E936E4B0D936E4B0C936E4BC2
:104890000B93664B0A936D4B09936D4B08936D4BCD
:1048A0000793624B0693694B05936B4B04936B4BD9
:1048B0000393684B02936A4B01935C4B0093634BE9
:1048C000644A6849786819F015F80346FB7313E1E8
:1048D000554B1093584B0F93584B0E93584B0D93C9
:1048E000584B0C93584B0B93504B0A93574B0993CF
:1048F0005D4B08935D4B07934C4B0693534B0593CD
:104900005B4B04935B4B0393584B0293544B0193C3
:10491000464B00934D4B554A5249786818F0EAFFD0
:104920000346FB73E8E0404B1093434B0F93434B1C
:104930000E93434B0D93434B0C93434B0B933B4BC9
:104940000A93424B09934C4B08934C4B0793374BBC
:1049500006933E4B05934A4B0493464B0393474BB8
:1049600002933F4B0193314B0093384B434A3D49EF
:10497000786818F0BFFF0346FB73BDE02A4B109325
:104980002D4B0F932D4B0E932D4B0D932D4B0C93C5
:104990002D4B0B93254B0A932C4B0993394B0893C2
:1049A000394B0793214B0693284B0593374B0493C0
:1049B000304B0393344B0293294B01931B4B0093D1
:1049C000224B314A2749786818F094FF0346FB735D
:1049D00092E0154B1093184B0F93184B0E93184BF6
:1049E0000D93184B0C93184B0B93104B0A93174BCA
:1049F0000993274B0893274B07930C4B0693134BB4
:104A00000593254B04931B4B0393224B0293144BAA
:104A10000193064B00930D4B1E4A1249786818F01B
:104A200069FF0346FB7367E0CC080020BC08002048
:104A30004C4403080C460308542E03085C2E03085C
:104A4000602E0308702E0308802E0308142E03081E
:104A5000902E03080C2E0308942E0308A42E03089E
:104A6000C82E0308A4470308D02E03081C2E0308F1
:104A7000D42E0308E42E0308E82E0308242E03088E
:104A8000EC2E0308102F03082C2E0308142F030804
:104A9000342F03083C2E0308382F0308184B1093BB
:104AA000184B0F93184B0E93184B0D93184B0C93F8
:104AB000184B0B93184B0A93184B0993184B0893F8
:104AC000184B0793144B0693144B0593164B049302
:104AD000164B0393134B0293154B01930E4B00930C
:104AE0000E4B104A1349786818F004FF0346FB7315
:104AF00002E04FF0FF33FFE718461437BD4690BD84
:104B0000CC080020542E03085C2E0308602E0308F6
:104B1000702E0308802E0308BC080020142E030802
:104B2000642F03084C2E0308682F0308E42E0308A3
:104B3000C82E0308A447030880B584B002AF78608C
:104B40000B46FB707B6800221A70114B0093114BCF
:104B5000114A1249786818F0CDFEFB78012B02D07B
:104B6000022B06D00BE00B4A0D49786818F0C2FE04
:104B700008E0084A0B49786818F0BCFE02E04FF0E4
:104B8000FF3300E0002318460837BD4680BD00BF54
:104B9000C82E0308BC080020142E0308902F030819
:104BA00094000020A400002080B586B002AFF86019
:104BB000B96087ED010A7868FBF7DEFC02460B4618
:104BC000CDE90023BA680449F86818F093FE00BFE5
:104BD0001037BD4680BD00BF9C2F0308B0B584B020
:104BE00000AFF860B96087ED010AF868FBF7A2FC36
:104BF00004460D46B868FBF79DFC4FF00002174BCA
:104C0000FBF712FD02460B4620462946FBF736FE0F
:104C100002460B4610461946FBF7FEFF0346104AB4
:104C200013607868FBF7A8FC4FF000020B4BFBF712
:104C3000FBFC02460B464FF000000A49FBF71EFE44
:104C400002460B4610461946FBF7E6FF0346064AA6
:104C5000136000BF1037BD46B0BD00BF00408F409D
:104C6000B40000200000F03FB800002080B485B000
:104C700000AF78600023BB730223FB730EE0FB7B65
:104C80007A6813441B787B73FB7B7A6813441A7829
:104C9000BB7B1344BB73FB7B0133FB73FB7B162B8A
:104CA000EDD97B6817331B78BA7B9A4201D1012377
:104CB00000E0002318461437BD465DF8047B7047BA
:104CC00080B582B000AF78607B6801335A21184606
:104CD000FBF786FA0346002B02D14FF0FF33A7E023
:104CE0007868FFF7C3FF0346002B02D16FF0010382
:104CF0009EE07B6802331B781A047B6803331B78C1
:104D00001B0213447A680432127813444A4A13602F
:104D10007B6814331B789B09DBB203F00103002B83
:104D20000ED07B6805331B781A047B6806331B782A
:104D30001B0213447A680732127813443F4A136007
:104D40007B6808331B781A047B6809331B781B02C5
:104D500013447A680A3212781344394A13607B6824
:104D600014331B785B09DBB203F00103002B0ED078
:104D70007B680B331B781A047B680C331B781B028F
:104D800013447A680D32127813442E4A13607B68FC
:104D90000E331B781A047B680F331B781B021344F5
:104DA0007A68103212781344274A13607B681433F0
:104DB0001B781B09DBB203F00103002B0ED07B68CC
:104DC00011331B781A047B6812331B781B021344BF
:104DD0007A681332127813441C4A13607B681533C7
:104DE0001B781B029BB27A681632127813449AB26F
:104DF000174B1A807B6814331B78DB09DBB203F096
:104E00000103002B04D0134B1B680133114A1360BC
:104E1000114B1A880E4B1B889A4204D90F4B1B6802
:104E200001330E4A13600A4B1A880B4B1A80002379
:104E300018460837BD4680BDE0080020E408002081
:104E4000F0080020F4080020E8080020EC0800200A
:104E5000FC080020F8080020FE08002000090020BF
:104E600080B400AF0E4B1B68002B02D1DFED0D6A42
:104E70000DE00D4B1B6807EE903AB8EE677A084BD1
:104E80001B6807EE903AF8EE677AC7EE276AF0EEF5
:104E9000667AB0EE670ABD465DF8047B704700BFD6
:104EA000E408002000000000E008002080B582B087
:104EB00000AFFFF7D5FF87ED000A0D4BD3ED007A69
:104EC00097ED007A67EE277AC7ED017AD7ED017A80
:104ED000F5EEC07AF1EE10FA01D5064B7B607B68E7
:104EE00007EE903AB0EE670A0837BD4680BD00BFB6
:104EF000B40000205F70893080B400AF0E4B1B6897
:104F0000002B02D1DFED0D6A0DE00D4B1B6807EEA3
:104F1000903AB8EE677A084B1B6807EE903AF8EEC5
:104F2000677AC7EE276AF0EE667AB0EE670ABD468A
:104F30005DF8047B704700BFF4080020000000000B
:104F4000F008002080B582B000AFFFF7D5FF87EDF5
:104F5000000A0D4BD3ED007A97ED007A67EE277AC1
:104F6000C7ED017AD7ED017AF5EEC07AF1EE10FACD
:104F700001D5064B7B607B6807EE903AB0EE670A7E
:104F80000837BD4680BD00BFB80000205F70893083
:104F900080B483B000AF184B1B68002B02D14FF0D8
:104FA00000031FE0154B1A68134B1B68B2FBF3F3A9
:104FB00007EE903AB8EE677A114BD3ED007A27EE00
:104FC000277A104BD3ED007A67EE277AC7ED017A86
:104FD000D7ED017AF5EEC07AF1EE10FA01D50A4B61
:104FE0007B607B6807EE903AB0EE670A0C37BD46EF
:104FF0005DF8047B704700BFEC080020E808002043
:10500000B4000020B80000205F70893080B584B003
:1050100000AFFFF74BFF87ED020AFFF793FF87ED25
:10502000010A97ED027AD7ED017A67EE277AC7ED8C
:10503000037AD7ED037AB2EE0E7AF4EEC77AF1EE88
:1050400010FA01D5044BFB60FB6807EE903AB0EE16
:10505000670A1037BD4680BD5F70893080B584B067
:1050600000AFFFF795FF87ED030AFFF7CFFF87ED4E
:10507000020AD7ED027AF5EE407AF1EE10FA02D18B
:105080004FF000031EE0D7ED037AF5EE407AF1EE23
:1050900010FA02D14FF0000314E097ED037AD7ED38
:1050A000027AB4EEE77AF1EE10FA02DD4FF07E53A9
:1050B00008E0D7ED036A97ED027AC6EE877AC7ED6E
:1050C000017A7B6807EE903AB0EE670A1037BD466A
:1050D00080BD000080B400AF034B1B681846BD467E
:1050E0005DF8047B704700BF0009002080B400AF6A
:1050F000034B1B681846BD465DF8047B704700BF34
:10510000F808002080B400AF034B1B881846BD464A
:105110005DF8047B704700BFFC0800200000000021
:10512000B0B584B000AFFFF771FF87ED020A384BCE
:105130001B681846FBF7FEF902460B464FF00000CD
:105140003449FBF79BFB02460B4614461D46324B87
:1051500093ED007A314BD3ED007A67EE277A17EEA4
:10516000900AFBF709FA02460B464FF00000294966
:10517000FBF784FB02460B4620462946FBF754FA10
:1051800002460B46104619461DA3D3E90023FBF740
:105190004BFA02460B46104619461BA3D3E90023DF
:1051A000FBF742FA02460B4610461946FBF734FD60
:1051B00003467B60FFF78EFF03461C04FFF7A2FF48
:1051C000034623443B603B6807EE903AF8EEE76AFB
:1051D00097ED017AC6EE877AC7ED037AD7ED037AA9
:1051E000F5EEC07AF1EE10FA01D50D4BFB60FB68CD
:1051F00007EE903AB0EE670A1037BD46B0BD00BF6B
:105200000000000065CDCD41000000000020AC4052
:10521000E80800200000F03FB4000020B8000020A3
:105220005F70893080B400AF00BFBD465DF8047B7D
:105230007047000080B485B000AFF860B9607A6054
:105240003B60FB68002B03D00E4AFB68D36002E092
:105250000C4B0D4ADA60BB68002B03D0094ABB68CF
:10526000136102E0074B084A1A61064A7B685360E3
:10527000044A3B68936000BF1437BD465DF8047B69
:10528000704700BF040900202552010880B500AF17
:1052900000F0ACF8662000F03DFA992000F03AFAF0
:1052A00000F0AEF800BF80BD80B500AF642000F014
:1052B000FBFAFFF7EBFF642000F0F6FA642000F041
:1052C000F3FA00BF80BD000090B585B000AF7860F4
:1052D000FFF7EAFF00F0E1F9F860FB683E4A93420D
:1052E0003FD0FB683C4A934267D8FB683B4A9342F5
:1052F00021D0FB68394A93425FD8FB68384A934211
:1053000045D0FB68374A934257D1374B354A1A602C
:10531000354B01229A80344B0122DA80324B4FF414
:1053200080521A81304B4FF480725A812E4B4FF4C9
:1053300000729A8145E02C4B284A1A602A4B0122C0
:105340009A80294B0122DA80274B4FF480521A8130
:10535000254B4FF480725A81234B4FF480629A811F
:105360002FE0214B1C4A1A601F4B01229A801E4BD2
:105370000122DA801C4B4FF480521A811A4B4FF4F1
:1053800080725A81184B4FF400629A8119E0164BD3
:10539000134A1A60144B01229A80134B0122DA80BF
:1053A000114B4FF480521A810F4B4FF480725A8187
:1053B0000D4B4FF480629A8103E00B4B00221A6080
:1053C00000BF7B68084A1C4613460FCB84E80F00D9
:1053D00078681437BD4690BD1740EF001640EF00C7
:1053E0001620C2001540EF001809002080B500AF5C
:1053F000024BDB68984700BF80BD00BF0409002056
:1054000080B500AF024B1B69984700BF80BD00BF4D
:105410000409002080B582B000AF786000F08AF9FE
:10542000FFF7E4FF202000F075F97B681B0CDBB26E
:10543000184600F06FF97B681B0ADBB2184600F0D3
:1054400069F97B68DBB2184600F064F9FFF7D8FF12
:1054500000F07BF900BF0837BD4680BD80B500AFC6
:1054600000F068F9FFF7C2FFC72000F053F9FFF71B
:10547000C7FF00F06AF900BF80BD80B584B000AFFF
:10548000F860B9601346FB8000F054F9FFF7AEFFF7
:10549000022000F03FF9BB681B0CDBB2184600F09D
:1054A00039F9BB681B0ADBB2184600F033F9BB6858
:1054B000DBB2184600F02EF907E0FB681B781846AF
:1054C00000F028F9FB680133FB60FB885A1EFA8064
:1054D000002BF2D1FFF794FF00F037F900BF10372F
:1054E000BD4680BD80B586B000AFF860B960134698
:1054F000FB800023FB750023BB7500237B75002315
:105500003B750023FB74BB687B757B7D5B423B7501
:10551000FB881B0A9BB2FB75FB88BB757B7D002B50
:1055200024D1FB7D002B14D1FB881A46B968F8689A
:10553000FFF7A3FF7BE04FF48072B968F868FFF7CC
:105540009CFFBB6803F58073BB60FB6803F5807349
:10555000FB60FB7D5A1EFA75002BECD1BB7D9BB224
:105560001A46B968F868FFF788FF60E0FB7D002BFA
:1055700025D1BA7D3B7D9A421AD9BA7D3B7DD31A9B
:10558000FB743B7D9BB21A46B968F868FFF775FF5C
:105590003B7DBA681344BB603B7DFA681344FB60F3
:1055A000FB7C9BB21A46B968F868FFF766FF3EE0DD
:1055B000FB881A46B968F868FFF75FFF37E03B7D64
:1055C0009BB2FA88D31AFB80FB881B0A9BB2FB753F
:1055D000FB88BB753B7D9BB21A46B968F868FFF73C
:1055E0004CFF3B7DBA681344BB603B7DFA681344B3
:1055F000FB600DE04FF48072B968F868FFF73DFF7B
:10560000BB6803F58073BB60FB6803F58073FB60C8
:10561000FB7D5A1EFA75002BECD1BB7D002B06D00A
:10562000BB7D9BB21A46B968F868FFF726FF00BF3A
:105630001837BD4680BD80B584B000AFF860B96052
:105640001346FB80FFF7D2FE032000F063F8BB682F
:105650001B0CDBB2184600F05DF8BB681B0ADBB21E
:10566000184600F057F8BB68DBB2184600F052F855
:1056700008E000F045F803461A46FB681A70FB681C
:105680000133FB60FB885A1EFA80002BF1D1FFF733
:10569000B7FE00BF1037BD4680BD80B584B000AFF7
:1056A0000023FB600023BB6000237B6000233B6082
:1056B000FFF79CFEFFF7A4FEFFF798FEFFF7A0FEA2
:1056C000FFF794FE9F2000F025F800F019F803463C
:1056D000BB6000F015F803467B6000F011F803464C
:1056E0003B60FFF78DFEBB681A047B681B02134307
:1056F0003A681343FB60FB6818461037BD4680BD0F
:1057000080B500AF024B5B6898470346184680BDE2
:105710000409002080B582B000AF0346FB71044B42
:105720009B68FA791046984700BF0837BD4680BD90
:105730000409002080B500AFFFF758FE0620FFF7F0
:10574000E9FFFFF75DFE00BF80BD80B582B000AF0E
:105750000023FB71FFF74AFE0520FFF7DBFFFFF791
:10576000CFFF0346FB71FB7903F00103002BF6D159
:10577000FFF746FE00BF0837BD4680BD84B080B548
:1057800000AF07F1080C8CE80F00074B184607F133
:1057900008035822194618F0D0FB00BFBD46BDE8EB
:1057A000804004B0704700BF2809002080B582B057
:1057B00000AFF91D41F288330122044801F0AEFA2E
:1057C000FB7918460837BD4680BD00BF2809002078
:1057D00080B582B000AF0346FB71F91D41F28833FA
:1057E0000122034801F057F900BF0837BD4680BDCC
:1057F0002809002080B500AF00221021024800F0E7
:105800008BFB00BF80BD00BF0000024080B500AF31
:1058100001221021024800F07FFB00BF80BD00BFC5
:105820000000024080B500AF0E4B1B680D4A43F4E8
:10583000007313600B4B1B680A4A43F480631360C8
:10584000084B1B68074A43F480731360032000F081
:10585000FCF80F20FDF74CF9FDF72EF80023184651
:1058600080BD00BF003C024080B400AF064B1B78F7
:105870001A46064B1B681344044A136000BFBD461A
:105880005DF8047B704700BFC00000208009002045
:1058900080B400AF034B1B681846BD465DF8047B1F
:1058A000704700BF8009002080B584B000AF7860E9
:1058B000FFF7EEFFB8607B68FB60FB68B3F1FF3F6A
:1058C00005D00A4B1B781A46FB681344FB6000BFE7
:1058D000FFF7DEFF0246BB68D31AFA689A42F7D890
:1058E00000BF00BF1037BD4680BD00BFC000002014
:1058F00080B485B000AF78607B6803F00703FB607D
:105900000C4BDB68BB60BA684FF6FF031340BB600B
:10591000FB681A02BB68134343F0BF6343F40033D0
:10592000BB60044ABB68D36000BF1437BD465DF856
:10593000047B704700ED00E080B400AF044BDB68EF
:105940001B0A03F007031846BD465DF8047B704749
:1059500000ED00E080B483B000AF0346FB7197F91F
:105960000730002B0BDBFB7903F01F02074997F987
:1059700007305B09012000FA02F241F8232000BF42
:105980000C37BD465DF8047B704700BF00E100E0C6
:1059900080B483B000AF03463960FB7197F90730DC
:1059A000002B0ADB3B68DAB20C4997F90730120189
:1059B000D2B20B4483F800230AE03B68DAB208490C
:1059C000FB7903F00F03043B1201D2B20B441A76A9
:1059D00000BF0C37BD465DF8047B704700E100E076
:1059E00000ED00E080B489B000AFF860B9607A6083
:1059F000FB6803F00703FB61FB69C3F10703042B9A
:105A000028BF0423BB61FB690433062B02D9FB6961
:105A1000033B00E000237B614FF0FF32BB6902FAD9
:105A200003F3DA43BB681A407B699A404FF0FF31B9
:105A30007B6901FA03F3D9437B680B401343184693
:105A40002437BD465DF8047B704780B582B000AF57
:105A500078607868FFF74CFF00BF0837BD4680BD0F
:105A600080B586B000AF0346B9607A60FB7300234F
:105A70007B61FFF761FF78617A68B9687869FFF741
:105A8000B1FF024697F90F3011461846FFF780FF25
:105A900000BF1837BD4680BD80B582B000AF034659
:105AA000FB7197F907301846FFF754FF00BF08371E
:105AB000BD4680BD80B582B000AF78607B68002BAA
:105AC00001D101230EE07B685B79DBB2002B05D1AD
:105AD0007B6800221A717868FCF71AFF7B68012244
