:020000040801F1
:1000000000000120D92D0108D52B0108DB2B0108A8
:10001000E12B0108E72B0108ED2B0108000000008F
:100020000000000000000000000000001134020881
:10003000F32B0108000000006136020815010208D8
:10004000292E0108292E0108292E0108292E010830
:10005000292E0108292E0108292E0108292E010820
:10006000292E0108292E0108292E0108292E010810
:10007000292E0108292E0108292E0108292E010800
:10008000292E0108292E0108292E01080000000050
:10009000000000000000000000000000292E010800
:1000A000292E0108012C0108292E0108292E0108FA
:1000B000292E0108292E0108292E0108292E0108C0
:1000C000292E0108292E0108292E0108292E0108B0
:1000D000292E0108292E0108152C01080000000016
:1000E000292E0108292E0108292E010800000000F0
:1000F000000000000000000000000000292E0108A0
:1001000000000000292E0108292E0108292E0108CF
:1001100000000000000000000000000000000000DF
:10012000292E0108292E0108292E0108292E01084F
:10013000292E01080000000000000000000000005F
:10014000000000000000000000000000292E01084F
:10015000292E0108292E0108292E0108292E01081F
:10016000292E0108292E01080000000000000000CF
:10017000000000000000000000000000000000007F
:1001800000000000292E010800000000000000000F
:04019000292E01080B
:1001A00010B5054C237833B9044B13B10448AFF3B1
:1001B00000800123237010BDF80200200000000021
:1001C000841A030808B5034B1BB103490348AFF376
:1001D000008008BD00000000FC020020841A030813
:1001E00010F8012B11F8013B012A28BF9A42F7D0E1
:1001F000D01A70470000000000000000000000005E
:1002000001F0FF01102A2BDB10F0070F08D010F8C7
:10021000013B013A8B422DD010F0070F42B3F6D1CB
:10022000F0B441EA012141EA014122F007047FF0E4
:1002300000070023F0E80256083C85EA010586EA3B
:10024000010685FA47F5A3FA87F586FA47F6A5FA77
:1002500087F68EB9EED1F0BC01F0FF0102F0070283
:1002600032B110F8013B013A83EA010313B1F8D12E
:100270000020704701387047002D06BF354603380F
:10028000073815F0010F07D1013015F4807F02BF48
:10029000013015F4C03F0130F0BC0138704700BF99
:1002A000034613F8012B002AFBD1181A01387047B6
:1002B00081F0004102E000BF83F0004330B54FEA17
:1002C00041044FEA430594EA050F08BF90EA020F84
:1002D0001FBF54EA000C55EA020C7FEA645C7FEA17
:1002E000655C00F0E2804FEA5454D4EB5555B8BF3A
:1002F0006D420CDD2C4480EA020281EA030382EAAB
:10030000000083EA010180EA020281EA0303362D3C
:1003100088BF30BD11F0004F4FEA01314FF4801C0F
:100320004CEA113102D0404261EB410113F0004F21
:100330004FEA03334CEA133302D0524263EB4303D8
:1003400094EA050F00F0A780A4F10104D5F1200E76
:100350000DDB02FA0EFC22FA05F2801841F10001D1
:1003600003FA0EF2801843FA05F359410EE0A5F1A5
:1003700020050EF1200E012A03FA0EFC28BF4CF0D6
:10038000020C43FA05F3C01851EBE37101F000458C
:1003900007D54FF0000EDCF1000C7EEB00006EEB99
:1003A0000101B1F5801F1BD3B1F5001F0CD3490823
:1003B0005FEA30004FEA3C0C04F101044FEA44527A
:1003C00012F5800F80F09A80BCF1004F08BF5FEA01
:1003D000500C50F1000041EB045141EA050130BDE1
:1003E0005FEA4C0C404141EB0101013C28BFB1F5F3
:1003F000801FE9D291F0000F04BF01460020B1FA3E
:1004000081F308BF2033A3F10B03B3F120020CDA10
:100410000C3208DD02F1140CC2F10C0201FA0CF0EE
:1004200021FA02F10CE002F11402D8BFC2F1200C53
:1004300001FA02F120FA0CFCDCBF41EA0C01904009
:10044000E41AA2BF01EB0451294330BD6FEA040452
:100450001F3C1CDA0C340EDC04F11404C4F120023D
:1004600020FA04F001FA02F340EA030021FA04F34F
:1004700045EA030130BDC4F10C04C4F1200220FAA6
:1004800002F001FA04F340EA0300294630BD21FAE4
:1004900004F0294630BD94F0000F83F4801306BFAA
:1004A00081F480110134013D4EE77FEA645C18BF9E
:1004B0007FEA655C29D094EA050F08BF90EA020F35
:1004C00005D054EA000C04BF1946104630BD91EA2D
:1004D000030F1EBF0021002030BD5FEA545C05D130
:1004E0004000494128BF41F0004130BD14F580046F
:1004F0003CBF01F5801130BD01F0004545F0FE41E3
:1005000041F470014FF0000030BD7FEA645C1ABF17
:10051000194610467FEA655C1CBF0B46024650EA4E
:10052000013406BF52EA033591EA030F41F400217A
:1005300030BD00BF90F0000F04BF0021704730B500
:100540004FF4806404F132044FF000054FF00001D5
:1005500050E700BF90F0000F04BF0021704730B596
:100560004FF4806404F1320410F0004548BF40426B
:100570004FF000013EE700BF42004FEAE2014FEAC0
:1005800031014FEA02701FBF12F07F4393F07F4F9B
:1005900081F06051704732F07F4208BF704793F09E
:1005A0007F4F04BF41F40021704730B54FF46074B1
:1005B00001F0004521F000411CE700BF50EA0102B4
:1005C00008BF704730B54FF000050AE050EA01025D
:1005D00008BF704730B511F0004502D5404261EBCD
:1005E00041014FF4806404F132045FEA915C3FF40E
:1005F000D8AE4FF003025FEADC0C18BF03325FEAAB
:10060000DC0C18BF033202EBDC02C2F1200300FA5B
:1006100003FC20FA02F001FA03FE40EA0E0021FA80
:1006200002F11444BDE600BF70B54FF0FF0C4CF46E
:10063000E06C1CEA11541DBF1CEA135594EA0C0F20
:1006400095EA0C0F00F0DEF82C4481EA030621EA5B
:100650004C5123EA4C5350EA013518BF52EA033596
:1006600041F4801143F4801338D0A0FB02CE4FF048
:100670000005E1FB02E506F00042E0FB03E54FF078
:100680000006E1FB03569CF0000F18BF4EF0010E70
:10069000A4F1FF04B6F5007F64F5407404D25FEA6C
:1006A0004E0E6D4146EB060642EAC62141EA55511F
:1006B0004FEAC52040EA5E504FEACE2EB4F1FD0C61
:1006C00088BFBCF5E06F1ED8BEF1004F08BF5FEADF
:1006D000500E50F1000041EB045170BD06F0004691
:1006E00046EA010140EA020081EA0301B4EB5C043E
:1006F000C2BFD4EB0C0541EA045170BD41F4801136
:100700004FF0000E013C00F3AB8014F1360FDEBF5A
:10071000002001F0004170BDC4F10004203C35DA36
:100720000C341BDC04F11404C4F1200500FA05F3B9
:1007300020FA04F001FA05F240EA020001F000425A
:1007400021F0004110EBD37021FA04F642EB0601D0
:100750005EEA430E08BF20EAD37070BDC4F10C04FA
:10076000C4F1200500FA04F320FA05F001FA04F2BE
:1007700040EA020001F0004110EBD37041F10001AA
:100780005EEA430E08BF20EAD37070BDC4F12005B5
:1007900000FA05F24EEA020E20FA04F301FA05F21D
:1007A00043EA020321FA04F001F0004121FA04F2C5
:1007B00020EA020000EBD3705EEA430E08BF20EA95
:1007C000D37070BD94F0000F0FD101F000464000CF
:1007D00041EB010111F4801F08BF013CF7D041EA51
:1007E000060195F0000F18BF704703F00046520055
:1007F00043EB030313F4801F08BF013DF7D043EA26
:100800000603704794EA0C0F0CEA135518BF95EADB
:100810000C0F0CD050EA410618BF52EA4306D1D162
:1008200081EA030101F000414FF0000070BD50EA81
:10083000410606BF1046194652EA430619D094EA0B
:100840000C0F02D150EA013613D195EA0C0F05D1F5
:1008500052EA03361CBF104619460AD181EA030149
:1008600001F0004141F0FE4141F470014FF0000001
:1008700070BD41F0FE4141F4780170BD70B54FF09C
:10088000FF0C4CF4E06C1CEA11541DBF1CEA13551C
:1008900094EA0C0F95EA0C0F00F0A7F8A4EB0504FE
:1008A00081EA030E52EA03354FEA013100F08880F5
:1008B0004FEA03334FF0805545EA131343EA1263BE
:1008C0004FEA022245EA111545EA10654FEA002673
:1008D0000EF000419D4208BF964244F1FD0404F52C
:1008E000407402D25B084FEA3202B61A65EB030588
:1008F0005B084FEA32024FF480104FF4002CB6EB45
:10090000020E75EB030E22BFB61A754640EA0C00C4
:100910005B084FEA3202B6EB020E75EB030E22BF04
:10092000B61A754640EA5C005B084FEA3202B6EB45
:10093000020E75EB030E22BFB61A754640EA9C0004
:100940005B084FEA3202B6EB020E75EB030E22BFD4
:10095000B61A754640EADC0055EA060E18D04FEA92
:10096000051545EA16754FEA06164FEAC30343EA32
:1009700052734FEAC2025FEA1C1CC0D111F4801FFF
:100980000BD141EA00014FF000004FF0004CB6E7F8
:1009900011F4801F04BF01430020B4F1FD0C88BF97
:1009A000BCF5E06F3FF6AFAEB5EB030C04BFB6EBA2
:1009B000020C5FEA500C50F1000041EB045170BD95
:1009C0000EF0004E4EEA113114EB5C04C2BFD4EBC2
:1009D0000C0541EA045170BD41F480114FF0000E46
:1009E000013C90E645EA060E8DE60CEA135594EAC2
:1009F0000C0F08BF95EA0C0F3FF43BAF94EA0C0FC5
:100A00000AD150EA01347FF434AF95EA0C0F7FF439
:100A100025AF104619462CE795EA0C0F06D152EA8D
:100A200003353FF4FDAE1046194622E750EA410671
:100A300018BF52EA43067FF4C5AE50EA41047FF482
:100A40000DAF52EA43057FF4EBAE12E74FF0FF3CE7
:100A500006E000BF4FF0010C02E000BF4FF0010CB8
:100A60004DF804CD4FEA410C7FEA6C5C4FEA430C31
:100A700018BF7FEA6C5C1BD001B050EA410C0CBF80
:100A800052EA430C91EA030F02BF90EA020F0020E2
:100A9000704710F1000F91EA030F58BF994208BF49
:100AA00090422CBFD8176FEAE37040F00100704706
:100AB0004FEA410C7FEA6C5C02D150EA013C07D15D
:100AC0004FEA430C7FEA6C5CD6D152EA033CD3D0A8
:100AD0005DF8040B704700BF8446104662468C46A2
:100AE0001946634600E000BF01B5FFF7B7FF0028D5
:100AF00048BF10F1000F01BD4DF808EDFFF7F4FFFE
:100B00000CBF012000205DF808FB00BF4DF808ED88
:100B1000FFF7EAFF34BF012000205DF808FB00BFAB
:100B20004DF808EDFFF7E0FF94BF012000205DF8CD
:100B300008FB00BF4DF808EDFFF7CEFF94BF012082
:100B400000205DF808FB00BF4DF808EDFFF7C4FF7B
:100B500034BF012000205DF808FB00BF4FEA410CC4
:100B60007FEA6C5C02D150EA013C0AD14FEA430CA7
:100B70007FEA6C5C02D152EA033C02D14FF00000E4
:100B800070474FF0010070474FEA410212F5001222
:100B900015D211D56FF47873B3EB625212D94FEAC4
:100BA000C12343F0004343EA505311F0004F23FAAE
:100BB00002F018BF404270474FF00000704750EA03
:100BC000013005D111F0004008BF6FF000407047C0
:100BD0004FF00000704700BF4A0011D212F500121A
:100BE00011D20DD56FF47873B3EB62520ED44FEA85
:100BF000C12343F0004343EA505323FA02F0704705
:100C00004FF00000704750EA013002D14FF0FF3042
:100C100070474FF0000070474FEA4102B2F1E043E5
:100C200024BFB3F5001CDCF1FE5C0DD901F0004CD3
:100C30004FEAC0024CEA5070B2F1004F40EB830023
:100C400008BF20F00100704711F0804F21D113F14F
:100C50003872BCBF01F00040704741F480114FEA88
:100C60005252C2F11802C2F1200C10FA0CF320FA11
:100C700002F018BF40F001004FEAC1234FEAD3232E
:100C800003FA0CFC40EA0C0023FA02F34FEA430398
:100C9000CCE77FEA625307D150EA01331EBF4FF021
:100CA000FE4040F44000704701F0004040F0FE403C
:100CB00040F40000704700BF53B94AB9002908BF8B
:100CC00000281CBF4FF0FF314FF0FF3000F0BAB9E1
:100CD000ADF1080C6DE904CE00F050F8DDF804E049
:100CE000DDE9022304B07047430803F05533C01A0E
:100CF000830803F0333300F03330184400EB101056
:100D000000F00F3000EB002000EB0040000E7047B9
:100D100038B50022002304460D46FFF7F7FE28B938
:100D200020462946BDE8384000F00AB8204605F1C3
:100D3000004100F005F8404261EB410138BD00BFC1
:100D4000D0B50C4B002206460F46FFF76DFCFFF7AF
:100D500043FF0446FFF7EEFB074B0022FFF764FC5E
:100D600002460B4630463946FFF7A6FAFFF734FF36
:100D70002146D0BD0000F03D0000F0412DE9F047D4
:100D8000089E0D4604460F46002B4AD18A429446DF
:100D900065D9B2FA82F343B102FA03FCC3F120022F
:100DA0009F4020FA02F217439C404FEA1C4E1FFA64
:100DB0008CF5B7FBFEF1220C0EFB117742EA0742DD
:100DC00001FB05F090420AD91CEB020201F1FF374A
:100DD00080F01C81904240F2198102396244121A5B
:100DE000A4B2B2FBFEF00EFB102244EA024400FB68
:100DF00005F5A5420AD91CEB040400F1FF3280F08E
:100E00000781A54240F204816444023840EA01406F
:100E1000641B00211EB1DC400023C6E90043BDE88D
:100E2000F0878B4208D9002E00F0ED800021C6E942
:100E300000050846BDE8F087B3FA83F1002949D1DF
:100E4000AB4202D3824200F2F880841A65EB0302BF
:100E500001201746002EE2D0C6E90047DFE702B9BD
:100E6000FFDEB2FA82F3002B40F090808A1A4FEA3C
:100E70001C471FFA8CFE0121B2FBF7F507FB15207A
:100E8000220C42EA00420EFB05F0904208D91CEB0E
:100E9000020205F1FF3802D2904200F2CB804546B3
:100EA000121AA4B2B2FBF7F007FB102244EA024484
:100EB0000EFB00FEA64508D91CEB040400F1FF322E
:100EC00002D2A64500F2BB801046A4EB0E0440EA15
:100ED00005409FE7C1F120078B4022FA07FC4CEA4E
:100EE000030C05FA01F420FA07F3FD404FEA1C4910
:100EF0002343B5FBF9F81FFA8CFE09FB18551C0CAF
:100F000044EA054408FB0EF5A54202FA01F200FA94
:100F100001F00BD91CEB040408F1FF3A80F0888043
:100F2000A54240F28580A8F102086444641B9DB28A
:100F3000B4FBF9F309FB134445EA044403FB0EFE3A
:100F4000A64508D91CEB040403F1FF356CD2A64575
:100F50006AD9023B644443EA0843A3FB0295A4EB2D
:100F60000E04AC42C846AE4656D353D056B1B0EB91
:100F7000080264EB0E0404FA07F7CA40CC4017439A
:100F8000C6E9007418460021BDE8F087C3F12001CE
:100F900002FA03FC20FA01F225FA01F19D402A43EE
:100FA0004FEA1C471FFA8CFEB1FBF7F007FB101548
:100FB000110C41EA054100FB0EF58D4204FA03F4E1
:100FC00008D91CEB010100F1FF382FD28D422DD939
:100FD00002386144491B92B2B1FBF7F507FB1511CA
:100FE00042EA014205FB0EF1914208D91CEB0202D4
:100FF00005F1FF3816D2914214D9023D6244521ACB
:1010000045EA004138E73146304608E73946E6E62A
:101010001046FBE64845A9D2B9EB020865EB0C0E79
:10102000013BA3E74546EAE72B4694E74046D1E774
:10103000D0467BE7023D624432E708460AE7644453
:10104000023842E7704700BF80B400AF00BFBD4622
:101050005DF8047B704780B400AF00231846BD469E
:101060005DF8047B704780B500AF03F0A5FA00BFC0
:1010700080BD000080B582B000AF78600B467B80F9
:101080007B681B680E4A934216D17B88182B13D1BC
:101090000C4B1B6818460FF0CBFB0346002B06D108
:1010A000084B18680023002207490FF003FB1822A1
:1010B0000549064806F0BAFC00BF0837BD4680BDAA
:1010C000004400404804002074040020D80300209D
:1010D00080B500AF044B1B684FF0FF3118460FF08E
:1010E000EEF900BF80BD00BF6404002080B500AFF2
:1010F000034B1B6818460FF02DFA00BF80BD00BFE0
:101100006404002080B500AF044B1B684FF0FF3132
:1011100018460FF0D4F900BF80BD00BF680400205E
:1011200080B500AF034B1B6818460FF013FA00BFE1
:1011300080BD00BF6804002080B500AF044B1B6871
:101140004FF0FF3118460FF0BAF900BF80BD00BF65
:101150006C04002080B500AF034B1B6818460FF0ED
:10116000F9F900BF80BD00BF6C04002080B500AF5E
:10117000044B1B684FF0FF3118460FF0A0F900BF79
:1011800080BD00BF7004002080B500AF034B1B681A
:1011900018460FF0DFF900BF80BD00BF70040020CB
:1011A00080B500AF00220221024804F06FFE00BFAC
:1011B00080BD00BF0000024080B500AF01220221C7
:1011C000024804F063FE00BF80BD00BF0000024083
:1011D00080B500AF72B600BF604B614A9A6062B6DC
:1011E00000BF04F0FDFA00F027F95E480BF0BEFCEA
:1011F00000F054FA00F026FA00F0B8F900F0ECF92B
:101200000EF056FF00F084F900F096F90EF050FF52
:101210000EF09AFF54480FF0CCF80346534A13607F
:1012200053480FF0C6F80346524A136052480FF075
:10123000C0F80346514A136051480FF0BAF803460C
:10124000504A1360504A1E2101200FF0C0F9034696
:101250004E4A13604E4A202101200FF0B8F9034690
:101260004C4A13604C4A242101200FF0B0F9034688
:101270004A4A13604A4A082101200FF0A8F90346A0
:10128000484A1360484AC62101200FF0A0F90346DE
:10129000464A1360464A022101200FF098F903469E
:1012A000444A1360444A042101200FF090F9034698
:1012B000424A1360424A002142480EF08FFF034623
:1012C000414A1360414A002141480EF087FF03461E
:1012D000404A1360404A002140480EF07FFF034619
:1012E0003F4A13603F4A00213F480EF077FF034614
:1012F0003E4A13603E4A00213E480EF06FFF03460F
:101300003D4A13603D4A00213D480EF067FF034609
:101310003C4A13603C4A00213C480EF05FFF034604
:101320003B4A13603B4A00213B480EF057FF0346FF
:101330003A4A13603A4A00213A480EF04FFF0346FA
:10134000394A1360394A002139480EF047FF0346F5
:10135000384A13600EF01CFFFEE700BF00ED00E00E
:1013600000000108B5FE01080044030864040020E1
:101370001044030868040020204403086C04002083
:101380003044030870040020584303084804002038
:10139000704303084C0400208843030850040020D5
:1013A000A043030854040020B84303085804002055
:1013B000D04303085C040020E843030860040020D5
:1013C000F04103089117010820040020144203088B
:1013D000A117010824040020384203083519010828
:1013E000280400205C4203089D1C01082C040020F6
:1013F00080420308D91C010830040020A4420308DD
:101400005522010834040020C842030801230108C2
:1014100038040020EC420308992401083C04002011
:1014200010430308552701084004002034430308F3
:10143000712701084404002080B594B000AF07F183
:1014400020033022002118461CF050FB07F10C034A
:1014500000221A605A609A60DA601A610023BB6049
:10146000294B1B6C284A43F080531364264B1B6C9A
:1014700003F08053BB60BB6800237B60234B1B6879
:1014800023F44043214A43F4004313601F4B1B687D
:1014900003F440437B607B6809233B624FF4803355
:1014A0007B6201237B630223BB634FF48003FB63F6
:1014B00004233B6454237B640223BB640423FB6446
:1014C00007F12003184604F04DFD0346002B01D020
:1014D00001F0ECF90F23FB6002233B6100237B61E9
:1014E0004FF48053BB610023FB6107F10C03022121
:1014F000184604F0AFFF0346002B01D001F0D6F9E7
:1015000000BF5037BD4680BD00380240007000402B
:1015100080B500AF064B074A1A60054804F084FA0C
:101520000346002B01D001F0C1F900BF80BD00BF10
:10153000140300200030024080B500AF094B0A4A76
:101540001A60084B06225A60064B40F6FF729A60FA
:10155000044804F0B4FC0346002B01D001F0A6F9C6
:1015600000BF80BD1C0300200030004080B500AFEC
:10157000174B184A1A60164B4FF482725A60144B7C
:1015800000229A60124B0022DA60114B02221A618B
:101590000F4B01225A610E4B4FF400729A610C4BB3
:1015A0000022DA610A4B00221A62094B00225A62B9
:1015B000074B00229A62064B0A22DA62044805F0C1
:1015C0009BF90346002B01D001F070F900BF80BDEC
:1015D000280300200030014080B500AF174B184AA7
:1015E0001A60164B4FF482725A60144B00229A60B4
:1015F000124B0022DA60114B02221A610F4B0122BA
:101600005A610E4B4FF400729A610C4B0022DA6162
:101610000A4B00221A62094B00225A62074B002231
:101620009A62064B0A22DA62044805F065F903461D
:10163000002B01D001F03AF900BF80BD80030020EB
:10164000003C004080B500AF124B134A1A60114BAA
:101650004FF496525A600F4B4FF480529A600D4BE4
:101660000022DA600B4B4FF480621A61094B0422AE
:101670005A61084B00229A61064B0022DA61054844
:1016800006F084F90346002B01D001F00FF900BFEA
:1016900080BD00BFD80300200044004080B588B062
:1016A00000AF07F10C0300221A605A609A60DA60FA
:1016B0001A610023BB60334B1B6B324A43F080033B
:1016C0001363304B1B6B03F08003BB60BB680023CC
:1016D0007B602C4B1B6B2B4A43F001031363294B9C
:1016E0001B6B03F001037B607B6800233B60254B91
:1016F0001B6B244A43F002031363224B1B6B03F062
:1017000002033B603B68012212211F4804F0BEFB2C
:1017100000224FF400411C4804F0B8FB0022402195
:101720001A4804F0B3FB48F20203FB6001233B615B
:1017300000237B610023BB6107F10C0319461248AB
:1017400004F020FA1023FB6001233B6100237B613E
:101750000323BB6107F10C0319460B4804F012FA8E
:101760004023FB6001233B6100237B610023BB61BD
:1017700007F10C031946054804F004FA00BF2037AE
:10178000BD4680BD00380240000002400004024017
:1017900080B582B000AF786001200EF0EFFDFBE76E
:1017A00080B598B000AF78600023FB65574BFB60B5
:1017B00000233B7241F288300EF0E0FD544B1B6871
:1017C00007F10801002218460FF0B4FEFB68BB6564
:1017D000FFF7F2FC4FF4FA700EF0D0FD4D4B5B6852
:1017E00018224D494D4806F021F94FF47A700EF059
:1017F000C5FDFFF7D5FCD7ED037AB0EE670A4FF4CD
:101800007A71474803F0E4F9464B186807F1340150
:101810004FF47A7300220EF0ADFF034613F1020F6E
:101820004CD007F13403184603F044FA0346002B6A
:1018300055D103F071FCF0EE407A3B4BC3ED007ADA
:1018400003F06AFCB0EE407A384BD3ED007A77EEC5
:10185000277AC7ED067A03F025FBF0EE407AC7ED54
:10186000047A03F0CFFBF0EE407AC7ED087A03F07C
:101870008BFBF0EE407AC7ED077A03F05FFBF0EEEA
:10188000407AC7ED057A03F0E5FBF0EE407AC7ED4C
:10189000097A03F01BFC0346BB6203F023FC0346FA
:1018A000FB6203F02BFC03463B63214B186807F1F6
:1018B0001001022300220FF0B7FA10E0FB6D013394
:1018C000FB6504E0134B5B687B650EF037FD182267
:1018D0001149124806F0AAF80346012BF2D00EF087
:1018E0002DFD0B4B1B6807F10801002218460FF075
:1018F00021FED7ED037A97ED167AB4EE677AF1EE12
:1019000010FA81D0FB68BB6575E700BF6F12833AA0
:10191000540400200044004074040020D803002038
:10192000C0AF1C004804002098040020940400204C
:101930005004002090B5ADF25C4D12AF07F5826304
:10194000A3F20C4318601423C7F80C340023C7F823
:1019500008344FF0000307F204421360BC4C6846A1
:1019600004F11003482219461CF095FA94E80F0080
:1019700003F0E2FEB74BB84AB849B94803F056FC49
:1019800007F5827207F5017107F541704FF4807316
:1019900019F0B8FAB349B44819F098FA19F0EAFA0C
:1019A0000346002B03DA19F00DFB19F0E3FAAF48F8
:1019B00019F090FB0346002B0FDD07F1FC01082313
:1019C0000022AA4819F00AFBA94B186807F1FC018C
:1019D000022300220FF028FA13E007F58263A3F533
:1019E0004573A44A5A6007F58263A3F54573012243
:1019F0001A709F4B186807F1FC01022300220FF0B8
:101A000013FA9D4819F066FB0346002B0FDD07F122
:101A10003401C6230022984819F0E0FA974B186861
:101A200007F13401022300220FF0FEF927E007F549
:101A30008263A3F5777301221A7007F58263A3F519
:101A4000777300225A7007F58263A3F5777300223B
:101A500083F8842007F58263A3F57773002283F867
:101A6000A52007F58263A3F5777300229A70834B54
:101A7000186807F13401022300220FF0D5F98048DD
:101A800019F028FB0346002B0FDD07F1300102237C
:101A900000227B4819F0A2FA7A4B186807F130014E
:101AA000022300220FF0C0F90BE007F58263A3F5D3
:101AB000787300225A7007F58263A3F578730122C8
:101AC0001A70714819F006FB0346002B0BDD042346
:101AD00000226E496C4819F081FA6C4B1B6807F2C2
:101AE000044213600DE0694B4FF000021A604FF0A2
:101AF000000307F20442136004226449624819F0AB
:101B0000B1FA634819F062FB624819F041FC614880
:101B100019F05CFB564B1B6807F1FC0100221846CC
:101B20000FF008FD07F58263A3F545731B78002BC2
:101B300014D007F58263A3F5457300221A7007F1EC
:101B4000FC0308221946494819F08CFA484B1868DA
:101B500007F1FC01022300220FF066F9474B1B68D6
:101B600007F13401002218460FF0E4FC07F5826308
:101B7000A3F577731B78002B14D007F58263A3F5C8
:101B8000777300221A7007F13403C62219463A48C7
:101B900019F068FA394B186807F134010223002262
:101BA0000FF042F9374B1B6807F13001002218464D
:101BB0000FF0C0FC07F58263A3F578731B78002B48
:101BC0000CD007F58263A3F5787300221A7007F131
:101BD0003003022219462A4819F044FA2E4B1B689A
:101BE00007F10C01002218460FF0A4FCD7F80C24D2
:101BF000D7F808349A4212D307F58263A3F204435C
:101C000093ED027A07F20443D3ED007A77EE677A18
:101C1000B7EE007AF4EEC77AF1EE10FA0DDD07F1B7
:101C20000C03083304221946174819F01BFAD7F899
:101C30000C3403F56163C7F80C34D7F8083401336A
:101C4000C7F808344FF47A700EF098FB62E700BFD3
:101C5000280300208D57010869570108C95701085A
:101C6000B15701082111010805110108C41B03081F
:101C7000540400206F12833AD41B03085804002038
:101C8000E41B03085C040020F81B030894040020F4
:101C90000C1C0308141C03085004002080B584B0F9
:101CA00000AF78600023FB60FB680133FB600AF043
:101CB00037FA0DF06FFE0AF0C1FF064B186807F106
:101CC0000C01022300220FF0AFF84FF47A700EF0EF
:101CD00055FBE9E76004002090B5ADF5845D83B065
:101CE00012AF07F1400343F83C0C07F5805303F1B2
:101CF00008032022002118461BF0F8FE07F5815347
:101D000003F108031722002118461BF0EFFE4023C1
:101D100007F5815202F108021370082307F581527A
:101D200002F109021370DC4B1B7807F5815202F1B6
:101D30000A021370D94B1B7807F5815202F10B028E
:101D40001370D74B1B7807F5815202F10C02137008
:101D5000D44B1B7807F5815202F10D02137007F581
:101D6000805303F10B0307F5815202F1080210685A
:101D7000186092889A80022307F5815202F11E02B0
:101D8000137007F5815303F10E031B6807F58052AA
:101D900002F11102136007F5815303F112031B686E
:101DA00007F5805202F11502136007F5815303F124
:101DB00016031B6807F5805202F11902136007F53C
:101DC000815303F11A031B6807F5805202F11D02CB
:101DD0001360B54C684604F11003482219461CF004
:101DE0005AF894E80F000EF027F9B049B0480EF009
:101DF000CFF8B0480EF0B4F807F5815303F10803AB
:101E000018460DF0B1FFAC49AC4808F0F3F8AC4906
:101E1000AC4808F0C9F8AC49AC4808F09FF8AC4AA7
:101E2000AC49AC4808F04AFE07F12003183B4FF4D8
:101E30000062194604200AF0ABFEA7480AF096FE9D
:101E4000A649A7480AF076FE07F5815303F11E0361
:101E50001B7807F5815202F101021370002307F588
:101E6000805202F1080213700EF03CF80346002B7A
:101E700040F0EB814FF4FA7010F03CF807F5815315
:101E800003F10803062219464FF4106006F022FE03
:101E900007F5815303F11E031B78022B06D107F6C9
:101EA0000803194600200AF091F803E00DF06CFFDA
:101EB0000EF00CF8FFF740F90DF0B6FF0DF0CCFF77
:101EC0000346002B40F0E080002307F5815202F129
:101ED0000E021370002307F5815202F10F021370F6
:101EE000002307F5815202F110021370002307F559
:101EF000815202F111021370002307F5815202F1A1
:101F000012021370002307F5815202F113021370BD
:101F1000002307F5815202F114021370002307F524
:101F2000815202F115021370002307F5815202F16C
:101F300016021370002307F5815202F11702137085
:101F4000002307F5815202F118021370002307F5F0
:101F5000815202F119021370002307F5815202F138
:101F60001A021370002307F5815202F11B0213704D
:101F7000002307F5815202F11C021370002307F5BC
:101F8000815202F11D021370FFF7E4F8002307F5F8
:101F9000815202F11F0213705AE007F5815303F1D9
:101FA0001F031A7807F5815303F11F031B7802F50D
:101FB00082523A4412F8122C03F582533B4403F840
:101FC0002F2C07F5815303F11F031A7807F581536E
:101FD00003F11F031B7802F582523A4412F80E2CCB
:101FE00003F582533B4403F82B2C07F5815303F18F
:101FF0001F031A7807F5815303F11F031B7802F5BD
:1020000082523A4412F80A2C03F582533B4403F8F7
:10201000272C07F5815303F11F031A7807F5815325
:1020200003F11F031B7802F582523A4412F8062C82
:1020300003F582533B4403F8232C07F5815303F146
:102040001F031B78013307F5815202F11F02137041
:1020500007F5815303F11F031B78032B9DD9002340
:1020600007F5805202F1080213701E4B186807F53D
:10207000805101F10801022300220EF0D5FE00BFBD
:1020800001200EF07BF9DFE6002307F5815202F113
:102090001F02137083E000BF107AFF1F117AFF1F29
:1020A000127AFF1F137AFF1F80030020F1FF01083F
:1020B000D9FF01087D030208690002088D000208AB
:1020C0002100020809000208ED100108D1100108E2
:1020D000BDFD0108D5FD0108B5FE01088911010803
:1020E0006D1101084C04002007F5815303F11F0313
:1020F0001A7807F5815303F11F031B7802F582520A
:102100003A4412F8122C03F582533B4403F82F2C67
:1021100007F5815303F11F031A7807F5815303F183
:102120001F031B7802F582523A4412F80E2C03F575
:1021300082533B4403F82B2C07F5815303F11F0313
:102140001A7807F5815303F11F031B7802F58252B9
:102150003A4412F80A2C03F582533B4403F8272C27
:1021600007F5815303F11F031A7807F5815303F133
:102170001F031B7802F582523A4412F8062C03F52D
:1021800082533B4403F8232C07F5815303F11F03CB
:102190001B78013307F5815202F11F02137007F516
:1021A000815303F11F031B78032B9DD9012307F5EE
:1021B000805202F1080213700DF070FE0346DBB28C
:1021C00007F5805202F10A0213700DF05BFE034620
:1021D000DBB207F5805202F1090213700AF02EF803
:1021E000034607F5815202F104021360FEF7B2FFC5
:1021F00007F5815303F10E031B78002B0ED1144B0E
:10220000186807F5805101F10801022300220EF041
:102210000BFE4FF47A700EF0B1F815E007F580531D
:1022200003F10803153318460AF0CCFC084B186874
:1022300007F5805101F10801022300220EF0F4FDA0
:102240004FF47A700EF09AF834E600BFFCE500BF58
:102250004C04002080B584B000AF78601F4B1B6831
:1022600018460EF04DF8F8601D4B1B6818460EF02E
:1022700047F8F8601B4B1B6818460EF041F8F860F1
:10228000194B1B6818460EF03BF8F860174B1B689B
:1022900018460EF035F8F860154B1B6818460EF01E
:1022A0002FF8F860134B1B6818460EF029F8F860F9
:1022B000114B1B6818460EF023F8F8600F4B1B6893
:1022C00018460EF01DF8F86000200EF019F8F860BE
:1022D0004FF47A700EF052F8C0E700BF20040020DF
:1022E00024040020280400202C04002030040020B6
:1022F00034040020380400203C0400204404002062
:1023000080B5ADF5815D84B000AF07F1300343F8CF
:102310002C0C514A07F5805303F10803126811464B
:1023200019800233120C1A70032307F5815202F14F
:102330000E02137007F5805303F1080307F581526D
:1023400002F10E02127807F6080107F110000838B2
:102350000CF048FD41480DF0B7FC41480DF0CCFCB5
:10236000404B1B680321184600F026FE3E4B1B68BD
:102370000421184600F020FE3C4B1B680021184643
:1023800000F01AFE3A4B1B680221184600F014FEBA
:10239000384B1B680521184600F00EFE36493748B9
:1023A0000DF014FB364937480DF010FB364937481D
:1023B0000DF00CFB364B1B6807F5805101F10C0149
:1023C000002218460FF0B6F807F5805303F10C030E
:1023D0001B78002B37D00DF06DFD0346012B32D159
:1023E000002307F5815202F10F0213701EE0FEF781
:1023F000A3FE07F5815303F10F031B7818460CF079
:102400000DFDFEF7A7FE234B4FF080521A60BFF37D
:102410004F8FBFF36F8F07F5815303F10F031B78C5
:10242000013307F5815202F10F02137007F5815352
:1024300003F10F031A7807F5815303F10E031B789C
:102440009A42D4D303E04FF47A700DF097FF6420E2
:102450000DF094FFAEE700BF34280308513D01089A
:10246000653E010850040020540400205804002058
:102470005C04002060040020201C03083C1F0308AB
:10248000481F03087C220308902203082828030819
:102490004C04002004ED00E080B5ADF5226D02AFE4
:1024A00007F61823A3F6142318609E499E4801F0EE
:1024B000A9FD4FF47A700DF061FF9C4B1B6807F685
:1024C000F811002218460FF035F897F8F83983F024
:1024D0000103DBB2002B40F01A810DF0EBFC034648
:1024E000012B40F01481924B1B6807F51361002209
:1024F00018460FF01FF80BE04FF47A700DF03EFF16
:102500008B4B1B6807F51361002218460FF012F879
:1025100097F8313983F00103DBB2002BECD197F847
:10252000313983F00103DBB2002B40F0F28007F277
:102530000C5207F5136107F6F8104FF4806301930E
:1025400007F5867300934FF4806301F077FD03462F
:10255000002B40F0E08001F05DFE0346002BC0F24E
:10256000DC8001F0A7FE0346002B40F0D88007F185
:102570008C030021184602F0D9FA6D4B1B6807F551
:102580001361002218460EF0D5FF97F8313983F019
:102590000103DBB2002B02D002F014F8B2E0654B6D
:1025A0001B6807F60C11002218460EF0C3FF07F651
:1025B0001823A3F58673D3ED027A07F10C03B0EE6E
:1025C000670A5D49184602F0E9FA07F10C0207F1C3
:1025D0008C031146184601F0BFFF0346002B40F064
:1025E000868007F61823A3F58673D3ED007A07F1EA
:1025F0000C03B0EE670A5149184602F0CFFA07F112
:102600000C0207F18C031146184601F0A5FF0346A2
:10261000002B6ED107F61823A3F58673D3ED017A4C
:1026200007F10C03B0EE670A4549184602F0B6FA06
:1026300007F10C0207F18C031146184601F08CFFDC
:102640000346002B57D107F61823A3F58673D3ED65
:10265000057A9FED3C7A67EE877A07F10C03B0EEBE
:10266000670A3949184602F099FA07F10C0207F196
:102670008C031146184601F06FFF0346002B3CD136
:1026800007F61823A3F58673D3ED037A07F10C033D
:10269000B0EE670A2D49184602F080FA07F10C02E5
:1026A00007F18C031146184601F056FF0346002B34
:1026B00025D107F61823A3F58673D3ED047A07F125
:1026C0000C03B0EE670A2249184602F067FA07F1D8
:1026D0000C0207F18C031146184601F03DFF03463A
:1026E000002B0ED147F230500DF048FE45E700BFF9
:1026F00008E000BF06E000BF04E000BF02E000BF4A
:1027000000E000BF4FF47A700DF038FED1E600BF54
:10271000CFE600BFCDE600BFCBE600BFC9E600BFF5
:10272000C7E600BF55110108391101084C0400200B
:1027300058040020500400203828030840280308CB
:10274000482803080000C8425028030860280308EE
:102750006828030880B582B000AF7860034803F0B2
:10276000F0FB4FF4FA700DF009FEF7E71C030020B0
:1027700080B5CEB002AF07F59873A3F596731860D5
:10278000404B1B6807F58671002218460EF0D2FEFA
:1027900097F80C3183F00103DBB2002B04D10DF06C
:1027A00089FB0346012B04D042F210700DF0E6FDC8
:1027B00067E097F815315AB297F819315BB2DB43ED
:1027C0005BB213435BB2DBB287F8083197F816317E
:1027D0005AB297F81A315BB2DB435BB213435BB278
:1027E000DBB287F8093197F817315AB297F81B31E5
:1027F0005BB2DB435BB213435BB2DBB287F80A31F7
:1028000097F818315AB297F81C315BB2DB435BB2D0
:1028100013435BB2DBB287F80B3107F586731846BA
:1028200000F004FB07F108034FF48071184600F034
:102830000DFB0346A7F82E31B7F92E31002B1FDB15
:10284000FEF77AFCFEF792FC002341F28832022167
:10285000042006F035FBB7F82E2107F5847307F145
:10286000080141F288300090042007F007F8FEF7D5
:102870008BFCFEF76FFC41F288300DF07FFD7FE7A7
:1028800000BF7DE74C04002080B582B000AF7860C7
:102890007B681B68044A934201D102F0C3FF00BF6A
:1028A0000837BD4680BD00BF0000014080B400AFC6
:1028B00072B600BFFEE7000080B582B000AF002313
:1028C0007B60124B5B6C114A43F4804353640F4BA3
:1028D0005B6C03F480437B607B6800233B600B4BA5
:1028E0001B6C0A4A43F080531364084B1B6C03F0C3
:1028F00080533B603B6800220F216FF0010003F022
:1029000069F800BF0837BD4680BD00BF00380240EF
:1029100080B485B000AF78607B681B680B4A934237
:102920000DD10023FB600A4B1B6B094A43F4805313
:102930001363074B1B6B03F48053FB60FB6800BF02
:102940001437BD465DF8047B704700BF003002407D
:102950000038024080B58CB000AF786007F11C03EE
:1029600000221A605A609A60DA601A617B681B68FC
:10297000324A93422CD10023BB61314B5B6C304A0D
:1029800043F4805353642E4B5B6C03F48053BB6160
:10299000BB6900237B612A4B1B6B294A43F001036F
:1029A0001363274B1B6B03F001037B617B69E023FF
:1029B000FB6102233B6200237B620323BB6205238E
:1029C000FB6207F11C0319461E4803F0DBF830E0F8
:1029D0007B681B681C4A93422BD100233B61184B38
:1029E0001B6C174A43F400431364154B1B6C03F430
:1029F00000433B613B690023FB60114B1B6B104A9A
:102A000043F0020313630E4B1B6B03F00203FB60E6
:102A1000FB683823FB6102233B6200237B620323B4
:102A2000BB620623FB6207F11C031946074803F04B
:102A3000A9F800BF3037BD4680BD00BF003001405F
:102A40000038024000000240003C00400004024008
:102A500080B58AB000AF786007F1140300221A60D5
:102A60005A609A60DA601A617B681B681D4A93425B
:102A700033D100233B611C4B1B6C1B4A43F40033D6
:102A80001364194B1B6C03F400333B613B69002357
:102A9000FB60154B1B6B144A43F001031363124B8D
:102AA0001B6B03F00103FB60FB680C237B610223BB
:102AB000BB610023FB6103233B6207237B6207F1B9
:102AC00014031946094803F05DF800220521262069
:102AD00002F080FF262002F099FF00BF2837BD4694
:102AE00080BD00BF004400400038024000000240AA
:102AF00080B58CB000AF78600023BB6200237B629E
:102B00000023BB602E4B5B6C2D4A43F001035364E2
:102B10002B4B5B6C03F00103BB60BB6807F10C023D
:102B200007F110031146184603F0B4FE03F09EFEB1
:102B3000B862BB6A234AA2FB03239B0C013B7B6266
:102B4000214B224A1A60204B40F2E732DA601E4ADB
:102B50007B6A53601C4B00221A611B4B00229A6057
:102B6000194B00229A61184804F09CFC034687F830
:102B70002F3097F82F30002B1BD1134804F0ECFCBA
:102B8000034687F82F3097F82F30002B11D11920EA
:102B900002F03CFF7B680F2B08D8002279681920CF
:102BA00002F018FF0A4A7B68136002E0012387F8ED
:102BB0002F3097F82F3018463037BD4680BD00BF04
:102BC0000038024083DE1B439C04002000000140CB
:102BD000BC00002080B400AFFEE780B400AFFEE789
:102BE00080B400AFFEE780B400AFFEE780B400AF72
:102BF000FEE780B400AF00BFBD465DF8047B7047C0
:102C000080B500AF024804F009FD00BF80BD00BFE1
:102C10009C04002080B500AF024804F065FF00BFAF
:102C200080BD00BFD803002080B400AF0123184648
:102C3000BD465DF8047B704780B582B000AF786018
:102C400039601BF0F3F8034616221A604FF0FF3389
:102C500018460837BD4680BD80B582B000AF7860A9
:102C60004FF0FF317868FFF7E7FFFEE780B586B0E9
:102C700000AFF860B9607A6000237B610AE0AFF3CF
:102C800000800146BB685A1CBA60CAB21A707B69E0
:102C900001337B617A697B689A42F0DB7B68184676
:102CA0001837BD4680BD80B586B000AFF860B9600A
:102CB0007A6000237B6109E0BB685A1CBA601B780C
:102CC0001846AFF300807B6901337B617A697B68CA
:102CD0009A42F1DB7B6818461837BD4680BD80B448
:102CE00083B000AF78604FF0FF3318460C37BD4615
:102CF0005DF8047B704780B483B000AF78603960C2
:102D00003B684FF400525A60002318460C37BD460A
:102D10005DF8047B704780B483B000AF7860012316
:102D200018460C37BD465DF8047B704780B485B00B
:102D300000AFF860B9607A60002318461437BD46CA
:102D40005DF8047B7047000080B586B000AF786006
:102D5000144A154BD31A7B617B693B61134B1B688B
:102D6000002B02D1114B124A1A60104B1A687B6873
:102D700013443A699A4207D21BF058F803460C22D2
:102D80001A604FF0FF3309E0084B1B68FB60074BEC
:102D90001A687B681344054A1360FB6818461837A5
:102DA000BD4680BD0000012000040000E4040020B6
:102DB00018DB002080B400AF064BD3F88830054AFA
:102DC00043F47003C2F8883000BFBD465DF8047B51
:102DD000704700BF00ED00E0DFF834D0FFF7EAFFF6
:102DE0000C480D490D4A002302E0D458C450043366
:102DF000C4188C42F9D30A4A0A4C002301E013603C
:102E00000432A242FBD31BF017F8FEF7E1F970473A
:102E10000000012000000020F8020020E851030813
:102E2000F802002014DB0020FEE7000080B582B02D
:102E300000AF78602022796803481BF02CF800BFAF
:102E40000837BD4680BD00BFE8040020F0B5ADB036
:102E500018AF78640B46A7F842307B6C00221A70DA
:102E60003C4BDB78FB633B4B1B79BB63394B5B799A
:102E70007B63384B9B793B63364BDB79FB62354B8D
:102E80001B7ABB62334B5B7A7B62324B9B7A3B6231
:102E9000304BDB7AFB612F4B1B7BBB612D4B5B7B8C
:102EA0007B612C4B9B7B3B612A4BDB7BFB60294B83
:102EB0001B7CBB60274B5B7C7B60264B9B7C3B6019
:102EC000244BDB7C1E46234B1B7D1D46214B5B7D2B
:102ED0001C46204B9B7D18461E4BDB7D19461D4B27
:102EE0001B7E1A461C4B1693159214911390129444
:102EF000119510963A680F927A680E92BA680D9200
:102F0000FA680C923A690B927A690A92BA69099244
:102F1000FA6908923A6A07927A6A0692BA6A059240
:102F2000FA6A04923A6B03927A6B0292BA6B01923C
:102F3000FB6B0093094B0A4A0A49786C1AF086FC2D
:102F40000346A7F84E30B7F94E3018465437BD4601
:102F5000F0BD00BFE80400205029030878280308CA
:102F6000882803089028030880B483B000AF034684
:102F7000FB71FB792F2B05D9FB79392B02D8FB7913
:102F8000303B12E0FB79602B05D9FB79662B02D828
:102F9000FB79573B09E0FB79402B05D9FB79462BA0
:102FA00002D8FB79373B00E0002318460C37BD46BA
:102FB0005DF8047B7047000080B483B000AF786098
:102FC0000B46FB70FB78002B06D17B68002B34D0BE
:102FD0001D4A7B68136030E0FB78012B06D17B68CB
:102FE000002B2AD0194A7B68136026E0FB78022B5D
:102FF00006D17B68002B20D0154A7B6813601CE04B
:10300000FB78032B06D17B68002B16D0114A7B6816
:10301000136012E0FB78042B06D17B68002B0CD0E8
:103020000D4A7B68136008E0FB78052B05D17B68AF
:10303000002B02D0094A7B68136000BF0C37BD46E5
:103040005DF8047B704700BF080500200C050020D8
:103050001005002014050020180500201C05002084
:1030600080B5CCB000AF07F59873A3F596731860E0
:103070000A4607F59873A3F22D131A7007F5987393
:10308000A3F22D131B78042B00F28A8101A252F8BF
:1030900023F000BFA9300108A133010875320108EF
:1030A000A13301083B33010807F16403C622002164
:1030B00018461AF01BFD07F59873A3F59673BC49E3
:1030C00018680BF0FBFC0346312118461AF025FD69
:1030D0000346002B0FD107F59873A3F59673B449F7
:1030E00018680BF0EBFC0346B24918461AF0D8FDFD
:1030F0000346002B03D0012387F8653022E007F553
:103100009873A3F59673AA4918680BF0D7FC034689
:10311000302118461AF001FD0346002B0FD107F5A8
:103120009873A3F59673A24918680BF0C7FC034681
:10313000A14918461AF0B4FD0346002B02D0002323
:1031400087F8653007F59873A3F596739B4918685F
:103150000BF0B4FCC7F82C01D7F82C31002B06D1AA
:10316000D7F82C01FDF79CF80346202B07D807F170
:1031700064038433D7F82C1118461AF084FE07F53F
:103180009873A3F596738E4918680BF097FCC7F8EF
:103190002C01D7F82C31002B06D1D7F82C01FDF7E4
:1031A0007FF80346202B07D807F16403A533D7F82F
:1031B0002C1118461AF067FE07F59873A3F596735D
:1031C000804918680BF07AFCC7F82C01D7F82C312D
:1031D000002B06D1D7F82C01FDF762F803467F2BB0
:1031E00008D807F1640302337F22D7F82C11184660
:1031F0001AF0D6FC07F59873A3F596737249186810
:103200000BF05CFCC7F82C01D7F82C31002B06D151
:10321000D7F82C01FDF744F80346052B1ED807F11B
:1032200016031A466949D7F82C011AF02FFB07F547
:103230009873A3F58D731B88002B0FD007F5987337
:10324000A3F58D731B884FF6FD72934206D807F5E0
:103250009873A3F58D731B88A7F8E630012387F8D0
:1032600064305B4B186807F16401022300220DF003
:10327000DBFD98E007F11C030222002118461AF03A
:1032800035FC07F59873A3F59673524918680BF04F
:1032900015FC0346312118461AF03FFC0346002B6B
:1032A0000FD107F59873A3F596734A4918680BF088
:1032B00005FC03463F4918461AF0F2FC0346002B72
:1032C00006D007F59873A3F58A7301225A7025E09A
:1032D00007F59873A3F596733E4918680BF0EEFB5B
:1032E0000346302118461AF018FC0346002B0FD174
:1032F00007F59873A3F59673364918680BF0DEFB53
:1033000003462D4918461AF0CBFC0346002B05D086
:1033100007F59873A3F58A7300225A7007F598731E
:10332000A3F58A7301221A702B4B186807F11C0150
:10333000022300220DF078FD35E007F59873A3F520
:103340009673264918680BF0B9FBC7F82C01D7F81B
:103350002C31002B26D0224A2249D7F82C011AF012
:1033600095FA1F4BD3ED007AF5EEC07AF1EE10FA24
:1033700000DC17E01A4B1A6807F59873A3F59273EF
:103380005A6007F59873A3F5927301221A70164BD1
:10339000186807F10C01022300220DF045FD01E041
:1033A00000BF00E000BF00BF07F59877BD4680BDB5
:1033B00058290308602903086829030870290308AD
:1033C0007829030884290308882903089029030819
:1033D0000805002094290308100500209C290308F3
:1033E00020050020A4290308180500202DE9F04F2E
:1033F000ADF50B7D0AAF07F50073A3F5F273186006
:1034000007F50073A3F5F6731A6007F50073A3F2CE
:10341000E5130A461A7007F50073A3F5A473734AFF
:103420001846114651231A461AF035FD07F5007368
:10343000A3F5E6736E4A1846114684231A461AF01D
:103440002AFD07F50073A3F5F0736A4A1C4615467A
:103450000FCD0FC42B68238007F50073A3F2E5138B
:103460001B78042B00F09380042B00F3B880002B12
:1034700002D0032B31D0B2E05F4B1B6807F59C7183
:10348000002218460EF056F8B7F8BA311D4697F8E4
:1034900039311E4607F59C739C1C07F59C7303F19C
:1034A000840207F1B80107F50073A3F5F2700196E5
:1034B0000095234600681AF0C9F907F50073A3F5D3
:1034C000F2731868FCF7ECFE03469AB207F5007336
:1034D000A3F5F6731B681A8082E0484B1B6807F55A
:1034E0008A71002218460EF025F8D7F814311846D4
:1034F000FDF742F8C7E90201D7F818311846FDF781
:103500003BF804460D46D7F820311846FDF734F84D
:1035100080468946D7F824311846FDF72DF88246B3
:103520008B46D7F828311846FDF726F8C7E9000181
:10353000D7F81C311846FDF71FF802460B4607F175
:10354000340607F50071A1F5F270CDE9082397ED77
:10355000007B8DED067BCDE904ABCDE90289CDE999
:103560000045D7E90223314600681AF06FF907F5E4
:103570000073A3F5F2731868FCF792FE03469AB243
:1035800007F50073A3F5F6731B681A8028E01C4B3F
:103590001B6807F58671002218460DF0CBFFD7F89F
:1035A00010311846FCF7E8FF02460B4607F12001F0
:1035B00007F50070A0F5F27000681AF047F907F5FA
:1035C0000073A3F5F2731868FCF76AFE03469AB21B
:1035D00007F50073A3F5F6731B681A8000E000BFBF
:1035E00000BF07F50177BD46BDE8F08FA8290308A5
:1035F000FC290308802A0308080500201405002080
:103600001805002090B5ADF53F7D02AF07F53C747D
:10361000A4F53974206007F53C70A0F53A7001609C
:1036200007F53C71A1F53B710A6007F53C72A2F504
:103630003C72136007F19003C7F8E43207F53C735E
:10364000A3F53973AC4918680BF038FAC7F8E002F3
:10365000D7F8E032002B25D007F53C73A3F53C7377
:1036600007F19402196810461AF00DFC07F1940353
:103670002D22D7F8E01218461AF06DFA07F53C73C0
:10368000A3F539739D4918680BF018FAC7F8E002E2
:10369000D7F8E002FCF704FE0346B3F5007F80F0A4
:1036A000138111E007F53C73A3F53B731B68944A43
:1036B0001068186092889A8007F53C73A3F53A73F6
:1036C0001B6805221A8011E1D7F8E032002B00F0C8
:1036D000E980D7F8E002FCF7E3FD0346C7F8DC32E7
:1036E000D7F8DC3207F1C8000093D7F8E032D7F8FA
:1036F000E4224FF4007117F087FEC7F8EC0207F5DB
:103700003C73A3F539737F4918680BF0D7F9C7F8F4
:10371000D8020023C7F8E83230E0D7F8E832D7F80B
:10372000D82213441B781846FFF71EFCC7F8CC02BA
:10373000D7F8E8320133D7F8D82213441B7818465B
:10374000FFF712FCC7F8C802D7F8CC321B015AB2F7
:10375000D7F8C8325BB2134359B2D7F8E832DA0F60
:1037600013445B101A46C9B207F53C73A3F52273E4
:103770009954D7F8E8320233C7F8E832D7F8E8327C
:103780001F2BCADD07F53C73A3F5227300221A74C0
:1037900007F11003184617F053FF07F110031846FE
:1037A00017F06CFFD7F8E4321A6807F1C80107F187
:1037B0001003184618F04CFE07F17C0207F11003C5
:1037C0001146184618F0B9FE07F11003184617F015
:1037D00044FF07F53C73A3F51D7300221A7407F12B
:1037E0007C0107F16803102218461AF0C7F9034656
:1037F000002B06D04FF0FF33C7F8EC32D7F8EC328D
:1038000074E007F53C73A3F539733F4918680BF072
:1038100055F9C7F8D4020A21D7F8D4020BF000FA00
:103820000346C7F8D032D7F8D032002B0FD1374B30
:1038300000221A60D7F8E4321A6807F1C80107F1CC
:103840009403184617F00EFCC7F8EC021DE00A219D
:10385000D7F8D4020BF0E4F903461A462B4B1B6849
:103860009A4206D04FF0FF33C7F8EC32D7F8EC326B
:103870003CE0D7F8E4321A6807F1C80107F1940375
:10388000184617F04BFCC7F8EC02204B1B680133BD
:103890001E4A1360D7F8EC32002B15DA0023C7F864
:1038A000EC3211E007F53C73A3F53B731B68144A37
:1038B0001068186092889A8007F53C73A3F53A73F4
:1038C0001B6805221A8011E007F53C73A3F53B73D2
:1038D0001B680F4A1188927819809A7007F53C731B
:1038E000A3F53A731B6802221A80FFE7184607F512
:1038F0003D77BD4690BD00BF942A0308A82A03085F
:10390000A02A0308B02A0308B82A030824050020C7
:10391000C02A030880B592B002AF786039601249BE
:1039200078680BF0CBF8F863FB6B002B05D1F86BD4
:10393000FCF7B6FC03462C2B10D807F10800FB6BF4
:1039400000933B68094A322119F04CFF07F1080344
:10395000184617F03BFC03465BB201E04FF0FF3323
:1039600018464037BD4680BDC42A0308CC2A030848
:103970002DE9F04FADF5337D16AF07F51C73A3F5B8
:103980000D73186007F51C73A3F50E73196007F526
:103990001C73A3F50B735D4A184611464FF49773D9
:1039A0001A461AF078FA5A4B1B6807F51371002271
:1039B00018460DF0BFFD574B1B6807F5117100222B
:1039C00018460DF0B7FD544B1B6807F5BE71002279
:1039D00018460DF0AFFD514B1B6807F5BC71002276
:1039E00018460DF0A7FD4E4B1B6807F5BA71002273
:1039F00018460DF09FFDD7F84C321846FCF7BCFD79
:103A0000C7E90C01D7F850321846FCF7B5FDC7E9F5
:103A10000A01D7F858321846FCF7AEFDC7E908018D
:103A2000D7F85C321846FCF7A7FDC7E90601D7F8BE
:103A300060321846FCF7A0FDC7E90401D7F85432FC
:103A40001846FCF799FD82468B46D7F8483218464F
:103A5000FCF792FD8046894697F87931FB6097F82C
:103A60007D31BB60B7F8FE317B60D7F86442D7F890
:103A70006802D7F86C12D7F8742107F1440607F5ED
:103A80001C73A3F50D75149213911290119407F500
:103A9000BE730233109379680F9107F5BE738433B8
:103AA0000E93B9680D91FB680C93CDE90A89CDE9B5
:103AB00008AB97ED047B8DED067B97ED067B8DEDD6
:103AC000047B97ED087B8DED027B97ED0A7B8DEDF6
:103AD000007BD7E90C233146286819F0B7FE07F5BB
:103AE0001C73A3F50D731868FCF7DAFB03469AB252
:103AF00007F51C73A3F50E731B681A800023184684
:103B000007F51D77BD46BDE8F08F00BFD42A030836
:103B100014050020180500200805002010050020CD
:103B20001C050020F0B5DBB00EAF786307F5987088
:103B3000A0F58070016007F59871A1F582710A60A7
:103B400007F59872A2F5847213600023C7F82C3130
:103B500007F1C003184617F073FD07F1C0031846BC
:103B600017F08CFD07F13C03796B18461AF08BF9BE
:103B700007F59873A3F5807307F13C0014221968C8
:103B800019F0E9FF07F17C0341220021184619F0E2
:103B9000ADFF07F17C0107F13C004023D7F82C2151
:103BA00017F01CFA0346A7F82A31B7F82A31402B40
:103BB00010D1B7F82A2107F17C0107F1C00318469C
:103BC00018F046FCB7F82A31D7F82C211344C7F86F
:103BD0002C3119E0B7F82A2107F17C0107F1C00365
:103BE000184618F035FC07F58C7207F1C003114632
:103BF000184618F0A2FC07F1C003184617F02DFD77
:103C0000002387F8283102E00CF098FBBAE797F818
:103C100018319C4697F819319E4697F81A311D467F
:103C200097F81B311E4697F81C317B6297F81D31BF
:103C30003B6297F81E31FB6197F81F31BB6197F823
:103C400020317B6197F821313B6197F82231FB608D
:103C500097F82331BB6097F824317B6097F82531C2
:103C60001C4697F82631194697F827311A4607F56A
:103C70009873A3F582700D920C910B947A680A9256
:103C8000BA680992FA6808923A6907927A690692C4
:103C9000BA690592FA6904923A6A03927B6A0293BE
:103CA00001960095734662460849006819F0CEFDFA
:103CB00007F59873A3F584731B6820221A800023EC
:103CC000184607F59A77BD46F0BD00BF042C0308DF
:103CD00080B592B000AF7860396007F10803184AE8
:103CE00007CA03C31A8007F108031846FCF7D8FA7D
:103CF00003461A4607F10803134412491A460B46B5
:103D000003CB106051601B78137207F108030E4952
:103D1000184617F05DFB78647B6C002B0ADB7B6830
:103D20000A4A1188927819809A703B6802221A8098
:103D3000012300E0002318464837BD4680BD00BF80
:103D4000482C0308542C0308602C0308702C03082B
:103D500080B586B000AFF860B9607A603B60002340
:103D6000FB7500233B603749F868FCF739FA0346D6
:103D7000002B06D10021B868FFF772F90123FB750B
:103D80005AE03149F868FCF72BFA0346002B06D1BC
:103D90000221B868FFF764F90123FB754CE02B4959
:103DA000F868FCF71DFA0346002B0ED1284B7A6801
:103DB0003968B868FFF726FC0346002B02DA0023B7
:103DC000FB7539E00123FB7536E02249F868FCF702
:103DD00007FA0346002B0CD11D49B868FFF79AFD7E
:103DE0000346002B02DB0123FB7525E00223FB7554
:103DF00022E01949F868FCF7F3F90346002B06D1D5
:103E00000421B868FFF72CF90123FB7514E013496E
:103E1000F868FCF7E5F90346002B0DD1104B7A68E2
:103E20003968B868FFF7EEFB0346002B02DA00237F
:103E3000FB7501E00123FB75FB7D18461837BD4675
:103E400080BD00BF742C0308882C03089C2C030839
:103E5000AC2C0308B42C0308C42C0308DC2C030886
:103E6000482C030880B586B000AFF860B9607A606E
:103E70000023FB754F49F868FCF7B2F90346002BA5
:103E800007D17A680021B868FFF7B0FA0123FB7503
:103E90008BE04949F868FCF7A3F90346002B0BD1E6
:103EA000BB6846491A460B461B8813800123FB75E5
:103EB0007B6802221A8078E04149F868FCF790F9A3
:103EC0000346002B07D17A680321B868FFF78EFA02
:103ED0000123FB7569E03B49F868FCF781F903466B
:103EE000002B07D17A680421B868FFF77FFA012315
:103EF000FB755AE03449F868FCF772F90346002B69
:103F000006D17968B868FFF733FD0123FB754CE0F3
:103F10002E49F868FCF764F90346002B11D17B6841
:103F2000BA682B492B48FFF7FDFD0346002B02D151
:103F30000123FB7539E07B6800221A800023FB75A2
:103F400033E02549F868FCF74BF90346002B06D10E
:103F50007968B868FFF7BCFE0346FB7525E01F498A
:103F6000F868FCF73DF90346002B05D11C4817F013
:103F70000FFA0123FB7518E01A49F868FCF730F9CD
:103F80000346002B05D1184817F03AF90123FB75B9
:103F90000BE01649F868FCF723F90346002B04D11F
:103FA000134817F0F5F90123FB75FB7D1846183708
:103FB000BD4680BDF02C0308042D0308102D030816
:103FC000142D0308202D0308342D0308402D030869
:103FD000542C0308482C0308582D0308702D03089F
:103FE000882D0308902D0308A42D0308B82D03087D
:103FF000CC2D030880B400AF00BFBD465DF8047B44
:104000007047000080B483B000AF786039607B688F
:10401000002B02D07B68074A13603B68002B02D05C
:104020003B68054A136000BF0C37BD465DF8047B52
:10403000704700BF5C00002060000020B0B588B071
:1040400004AFF860B9607A607B805E4AFB681360F9
:104050005D4ABB6813605D4A7B6813605C4A3B6ADB
:1040600013605C4A7B8813805B4ABB8C1380554B82
:104070001B68DB781C46534B1B681B791D46514B54
:104080001B685B791A464F4B1B689B7919464D4B51
:104090001B68DB7918464B4B1B681B7A0393029015
:1040A000019100922B4622464C494D4819F0CEFB17
:1040B0004B4800F091FA434B1B685B7A1946414B21
:1040C0001B689B7A18463F4B1B68DB7A1A463D4BB0
:1040D0001B681B7B0193009203460A4641494248F4
:1040E00019F0B4FB404800F099FA374B1B680233D3
:1040F000184608F0A9FD0346002B0CD0324B1B6874
:10410000981C3A4B01933A4B00933A4B3A4A3B493D
:1041100019F0BCFB0DE02C4B1B68023336491846E6
:1041200008F062FD0346B3F1FF3F02D14FF0FF33C9
:1041300043E0334B0022DA76314B03221A72304BC4
:10414000274ADA602E4B41F288321A832C4B012227
:104150009A761D4B1B688433294A13641A4B1B68DB
:10416000A533274AD364184B1B68B3F88220254B2C
:104170001A80254B00229A80234B00221A70224B72
:1041800000229A70204B00225A7005211F4809F026
:1041900041FB0E4B1A680F4B1B8818460C4B1B68D3
:1041A0000D490988029101930090134642F2107262
:1041B0001649174808F032FE002318461037BD464E
:1041C000B0BD00BF2C0500202805002058050020A8
:1041D000540500203608002034080020D02D0308A4
:1041E00030050020EC2D0308400500203B0800208E
:1041F0003A0800203908002038080020F82D03086C
:10420000040000203C080020AC08002040080020EA
:104210005008002080B582B000AF1F4B1B68984744
:104220001E4B1B881A461E491E4809F070FB0346A8
:10423000FB801D4B1B689847B7F90630012B10D047
:10424000154B1B689847174B1B68DBB2184604F0E8
:104250004BFF154B1B689847FB880A3B9BB21BB270
:1042600016E00D4B1B6898471049114809F0E6F815
:104270000346FB800C4B1B689847B7F90630002BB0
:1042800004D0FB88143B9BB21BB201E0B7F90630A7
:1042900018460837BD4680BD5C0000203C08002061
:1042A00038080020400800206000002004000020A2
:1042B0005008002080B582B000AF80220021A048C5
:1042C00019F014FC002203219D4800F0C7F90022D8
:1042D00003219C4800F074FA9A48FBF7E1FF03467B
:1042E000994AD360984B974A9A60974B01225A702B
:1042F000964B1B689847944A9149954809F024F9D0
:104300000346FB71934B1B68984797F90730002BC6
:1043100002D097F907300FE18B4B9B8801339AB29B
:10432000894B9A8080220021854819F0DFFB00220A
:104330000521834800F092F900220521814800F010
:104340003FFA8048FBF7ACFF03467F4AD3607E4BC1
:104350007C4A9A607C4B01225A707C4B1B689847C0
:10436000794A77497A4809F0EFF80346FB71794BAF
:104370001B68984797F90730002B02D097F9073050
:10438000DAE0714B9B8801339AB26F4B9A8080229E
:1043900000216B4819F0AAFB00220421684800F0B4
:1043A0005DF900220421674800F00AFA6548FBF72E
:1043B00077FF0346644AD360634B624A9A60624B5C
:1043C00001225A70614B1B6898475F4A5C496048FC
:1043D00009F0BAF80346FB715E4B1B68984797F9E2
:1043E0000730002B02D097F90730A5E0564B9B8889
:1043F00001339AB2544B9A8080220021504819F020
:1044000075FB002208214E4800F028F900220821FF
:104410004C4800F0D5F94B48FBF742FF03464A4AA7
:10442000D360494B474A9A60474B01225A70474B29
:104430001B689847444A4249454809F085F80346B5
:10444000FB71444B1B68984797F90730002B02D04B
:1044500097F9073070E03C4B9B8801339AB23A4B96
:104460009A8080220021364819F040FB0022062164
:10447000334800F0F3F800220621324800F0A0F99A
:104480003048FBF70DFF03462F4AD3602E4B2D4AD1
:104490009A602D4B01225A702C4B1B6898472A4A70
:1044A00027492B4809F050F80346FB71294B1B683C
:1044B000984797F90730002B02D097F907303BE077
:1044C000214B9B8801339AB21F4B9A808022002196
:1044D0001B4819F00BFB00220721194800F0BEF819
:1044E00000220721174800F06BF91648FBF7D8FEA9
:1044F0000346154AD360144B124A9A60124B0122AC
:104500005A70124B1B6898470F4A0D49104809F022
:104510001BF80346FB710F4B1B68984797F9073050
:10452000002B02D097F9073006E0074B9B88013338
:104530009AB2054B9A80002318460837BD4680BDC5
:104540005C050020DC050020AC0800205C00002099
:10455000500800206000002080B584B000AF786073
:1045600039603868FBF79CFE03460F4AD3600E4A59
:104570003B6893600C4B9B8801339AB20A4B9A803C
:104580000A4B1B689847084A7968094808F0DCFF1D
:104590000346FB73074B1B68984797F90F30184683
:1045A0001037BD4680BD00BFAC0800205C00002075
:1045B000500800206000002080B500AF09F0B6F878
:1045C00000BF80BD80B500AF024809F07CF800BF95
:1045D00080BD00BF5008002080B584B000AF786077
:1045E0000023FB737868FBF75BFE03460D2B02D9B3
:1045F0000E23FB7304E07868FBF752FE0346FB735F
:10460000FB7B1A467968044819F0CAFA0023184659
:104610001037BD4680BD00BFBC08002080B582B009
:1046200000AF78600C4B00221A707868FBF738FEF8
:104630000346122B0AD87868FBF732FE03461A4667
:104640007968054819F0ACFA002301E04FF0FF3318
:1046500018460837BD4680BDCC08002080B586B01E
:1046600004AF78600B46FB701346BB70002178687E
:1046700019F009FCFB78013B072B7BD801A252F80B
:1046800023F000BFA5460108BF460108D94601082E
:104690000D470108F3460108414701085B4701083F
:1046A00027470108BB780293364B0193364B0093A2
:1046B000364B374A3749786819F0C8F85DE0BB785F
:1046C0000293354B0193304B0093334B304A3149C1
:1046D000786819F0BBF850E0304B02932A4B0193F5
:1046E0002F4B00932F4B2A4A2F49786819F0AEF8C8
:1046F00043E02E4B0293244B0193294B0093294B0B
:10470000234A2949786819F0A1F836E0284B02932A
:104710001D4B0193224B0093224B1D4A224978687E
:1047200019F094F829E0234B0293174B01931C4B8B
:1047300000931C4B164A1C49786819F087F81CE056
:104740001D4B0293104B0193154B0093154B104AD0
:104750001549786819F07AF80FE0184B02930A4B64
:1047600001930F4B00930F4B094A0F49786819F0DA
:104770006DF802E04FF0FF3300E0002318460837E1
:10478000BD4680BD8C000020BC08002074000020C5
:10479000640000205844030884000020342E0308DD
:1047A0003C2E0308142E03081C2E0308442E030875
:1047B0004C2E0308542E0308642E0308742E03089D
:1047C00090B597B012AF78600B46FB701346BB7084
:1047D0000023FB737B6800221A70FB78013B072BD8
:1047E00000F2818101A252F823F000BF4148010884
:1047F0000D4801086F4801081B490108C548010818
:10480000C7490108914A010871490108BB78BA7883
:10481000B978B878814C0794814C0694804C059403
:1048200004907F4803900291019200937C4B7C4A54
:104830007C49786819F00AF80346FB73FB7B55E165
:10484000B978BB78BA787548059075480490744873
:1048500003900292724A019200930B46704A724989
:10486000786818F0F3FF0346FB73FB7B3EE16B4B6C
:1048700010936E4B0F936E4B0E936E4B0D936E4BCE
:104880000C936E4B0B93664B0A936D4B09936D4BD8
:1048900008936D4B0793624B0693694B05936B4BE3
:1048A00004936B4B0393684B02936A4B01935C4BED
:1048B0000093634B644A6849786818F0C7FF034661
:1048C000FB7313E1554B1093584B0F93584B0E93BA
:1048D000584B0D93584B0C93584B0B93504B0A93DA
:1048E000574B09935D4B08935D4B07934C4B0693D5
:1048F000534B05935B4B04935B4B0393584B0293D1
:10490000544B0193464B00934D4B554A524978689E
:1049100018F09CFF0346FB73E8E0404B1093434BB9
:104920000F93434B0E93434B0D93434B0C93434BCD
:104930000B933B4B0A93424B09934C4B08934C4BC4
:104940000793374B06933E4B05934A4B0493464BD4
:104950000393474B02933F4B0193314B0093384BEA
:10496000434A3D49786818F071FF0346FB73BDE088
:104970002A4B10932D4B0F932D4B0E932D4B0D93D4
:104980002D4B0C932D4B0B93254B0A932C4B0993DA
:10499000394B0893394B0793214B0693284B0593CA
:1049A000374B0493304B0393344B0293294B0193C1
:1049B0001B4B0093224B314A2749786818F046FF79
:1049C0000346FB7392E0154B1093184B0F93184B53
:1049D0000E93184B0D93184B0C93184B0B93104BD5
:1049E0000A93174B0993274B0893274B07930C4BBC
:1049F0000693134B0593254B04931B4B0393224BB8
:104A00000293144B0193064B00930D4B1E4A12491F
:104A1000786818F01BFF0346FB7367E0CC080020A2
:104A2000BC08002074440308344603087C2E0308A5
:104A3000842E0308882E0308982E0308A82E030846
:104A40003C2E0308B82E0308342E0308BC2E03089E
:104A5000CC2E0308F02E0308CC470308F82E0308D9
:104A6000442E0308FC2E03080C2F0308102F030804
:104A70004C2E0308142F0308382F0308542E030864
:104A80003C2F03085C2F0308642E0308602F0308E3
:104A9000184B1093184B0F93184B0E93184B0D9304
:104AA000184B0C93184B0B93184B0A93184B099304
:104AB000184B0893184B0793144B0693144B05930C
:104AC000164B0493164B0393134B0293154B019310
:104AD0000E4B00930E4B104A1349786818F0B6FE3F
:104AE0000346FB7302E04FF0FF33FFE7184614372D
:104AF000BD4690BDCC0800207C2E0308842E030800
:104B0000882E0308982E0308A82E0308BC0800204E
:104B10003C2E03088C2F0308742E0308902F0308E3
:104B20000C2F0308F02E0308CC47030880B584B08F
:104B300002AF78600B46FB707B6800221A70114B45
:104B40000093114B114A1249786818F07FFEFB78E8
:104B5000012B02D0022B06D00BE00B4A0D497868DE
:104B600018F074FE08E0084A0B49786818F06EFEE9
:104B700002E04FF0FF3300E0002318460837BD463F
:104B800080BD00BFF02E0308BC0800203C2E0308A7
:104B9000B82F030894000020A400002080B586B040
:104BA00002AFF860B96087ED010A7868FBF7E4FCB2
:104BB00002460B46CDE90023BA680449F86818F0AC
:104BC00045FE00BF1037BD4680BD00BFC42F03089F
:104BD000B0B584B000AFF860B96087ED010AF8683D
:104BE000FBF7A8FC04460D46B868FBF7A3FC4FF0A2
:104BF0000002174BFBF718FD02460B4620462946DC
:104C0000FBF73CFE02460B4610461946FCF704F83B
:104C10000346104A13607868FBF7AEFC4FF00002C1
:104C20000B4BFBF701FD02460B464FF000000A4913
:104C3000FBF724FE02460B4610461946FBF7ECFF35
:104C40000346064A136000BF1037BD46B0BD00BF23
:104C500000408F40B40000200000F03FB80000206A
:104C600080B485B000AF78600023BB730223FB7370
:104C70000EE0FB7B7A6813441B787B73FB7B7A68BE
:104C800013441A78BB7B1344BB73FB7B0133FB7368
:104C9000FB7B162BEDD97B6817331B78BA7B9A42C6
:104CA00001D1012300E0002318461437BD465DF80A
:104CB000047B704780B582B000AF78607B680133B9
:104CC0005A211846FBF78CFA0346002B02D14FF00D
:104CD000FF33A9E07868FFF7C3FF0346002B02D13A
:104CE0006FF00103A0E07B6802331B781A047B6835
:104CF00003331B781B0213447A680432127813447E
:104D00004B4A13607B6814331B789B09DBB203F0BA
:104D10000103002B0ED07B6805331B781A047B68D7
:104D200006331B781B0213447A6807321278134447
:104D3000404A13607B6808331B781A047B68093388
:104D40001B781B0213447A680A32127813443A4AD9
:104D500013607B6814331B785B09DBB203F001033B
:104D6000002B0ED07B680B331B781A047B680C3346
:104D70001B781B0213447A680D32127813442F4AB1
:104D800013607B680E331B781A047B680F331B7823
:104D90001B0213447A68103212781344284A1360B5
:104DA0007B6814331B781B09DBB203F00103002B73
:104DB0000ED07B6811331B781A047B6812331B7882
:104DC0001B0213447A681332127813441D4A13608D
:104DD0007B6815331B789BB21B029AB27B68163333
:104DE0001B789BB213449AB2174B1A807B6814331A
:104DF0001B78DB09DBB203F00103002B04D0134B5B
:104E00001B680133114A1360114B1A880E4B1B8823
:104E10009A4204D90F4B1B6801330E4A13600A4BA8
:104E20001A880B4B1A80002318460837BD4680BDF0
:104E3000E0080020E4080020F0080020F40800202A
:104E4000E8080020EC080020FC080020F8080020FA
:104E5000FE0800200009002080B400AF0E4B1B6844
:104E6000002B02D1DFED0D6A0DE00D4B1B6807EE44
:104E7000903AB8EE677A084B1B6807EE903AF8EE66
:104E8000677AC7EE276AF0EE667AB0EE670ABD462B
:104E90005DF8047B704700BFE408002000000000BC
:104EA000E008002080B582B000AFFFF7D5FF87EDA6
:104EB000000A0D4BD3ED007A97ED007A67EE277A62
:104EC000C7ED017AD7ED017AF5EEC07AF1EE10FA6E
:104ED00001D5064B7B607B6807EE903AB0EE670A1F
:104EE0000837BD4680BD00BFB40000205F70893028
:104EF00080B400AF0E4B1B68002B02D1DFED0D6AB2
:104F00000DE00D4B1B6807EE903AB8EE677A084B40
:104F10001B6807EE903AF8EE677AC7EE276AF0EE64
:104F2000667AB0EE670ABD465DF8047B704700BF45
:104F3000F408002000000000F008002080B582B0D6
:104F400000AFFFF7D5FF87ED000A0D4BD3ED007AD8
:104F500097ED007A67EE277AC7ED017AD7ED017AEF
:104F6000F5EEC07AF1EE10FA01D5064B7B607B6856
:104F700007EE903AB0EE670A0837BD4680BD00BF25
:104F8000B80000205F70893080B483B000AF184B48
:104F90001B68002B02D14FF000031FE0154B1A686D
:104FA000134B1B68B2FBF3F307EE903AB8EE677A47
:104FB000114BD3ED007A27EE277A104BD3ED007A10
:104FC00067EE277AC7ED017AD7ED017AF5EEC07A60
:104FD000F1EE10FA01D50A4B7B607B6807EE903A40
:104FE000B0EE670A0C37BD465DF8047B704700BF22
:104FF000EC080020E8080020B4000020B8000020E1
:105000005F70893080B584B000AFFFF74BFF87ED4C
:10501000020AFFF793FF87ED010A97ED027AD7EDB9
:10502000017A67EE277AC7ED037AD7ED037AB2EEFD
:105030000E7AF4EEC77AF1EE10FA01D5044BFB605C
:10504000FB6807EE903AB0EE670A1037BD4680BDA8
:105050005F70893080B584B000AFFFF795FF87EDB2
:10506000030AFFF7CFFF87ED020AD7ED027AF5EECC
:10507000407AF1EE10FA02D14FF000031EE0D7EDB6
:10508000037AF5EE407AF1EE10FA02D14FF0000308
:1050900014E097ED037AD7ED027AB4EEE77AF1EEF9
:1050A00010FA02DD4FF07E5308E0D7ED036A97ED6A
:1050B000027AC6EE877AC7ED017A7B6807EE903AEE
:1050C000B0EE670A1037BD4680BD000080B400AF67
:1050D000034B1B681846BD465DF8047B704700BF54
:1050E0000009002080B400AF034B1B681846BD4682
:1050F0005DF8047B704700BFF808002080B400AF63
:10510000034B1B881846BD465DF8047B704700BF03
:10511000FC08002000000000B0B584B000AFFFF72D
:1051200071FF87ED020A384B1B681846FBF702FA3D
:1051300002460B464FF000003449FBF79FFB024646
:105140000B4614461D46324B93ED007A314BD3ED9E
:10515000007A67EE277A17EE900AFBF70DFA0246FF
:105160000B464FF000002949FBF788FB02460B462F
:1051700020462946FBF758FA02460B4610461946C8
:105180001DA3D3E90023FBF74FFA02460B46104656
:1051900019461BA3D3E90023FBF746FA02460B4648
:1051A00010461946FBF738FD03467B60FFF78EFF7C
:1051B00003461C04FFF7A2FF034623443B603B6801
:1051C00007EE903AF8EEE76A97ED017AC6EE877A35
:1051D000C7ED037AD7ED037AF5EEC07AF1EE10FA57
:1051E00001D50D4BFB60FB6807EE903AB0EE670A05
:1051F0001037BD46B0BD00BF0000000065CDCD41F9
:10520000000000000020AC40E80800200000F03F53
:10521000B4000020B80000205F70893080B400AF77
:1052200000BFBD465DF8047B7047000080B485B0C8
:1052300000AFF860B9607A603B60FB68002B03D078
:105240000E4AFB68D36002E00C4B0D4ADA60BB6883
:10525000002B03D0094ABB68136102E0074B084AE0
:105260001A61064A7B685360044A3B68936000BF3A
:105270001437BD465DF8047B704700BF0409002069
:105280001D52010880B500AF00F09CF8662000F0C8
:105290001FFA992000F01CFA00F09EF800BF80BDB4
:1052A00090B585B000AF7860FFF7ECFF00F0D2F961
:1052B000F860FB683E4A93423FD0FB683C4A934209
:1052C00067D8FB683B4A934221D0FB68394A934236
:1052D0005FD8FB68384A934245D0FB68374A93420F
:1052E00057D1374B354A1A60354B01229A80344BDF
:1052F0000122DA80324B4FF480521A81304B4FF446
:1053000080725A812E4B4FF400729A8145E02C4BEB
:10531000284A1A602A4B01229A80294B0122DA80FE
:10532000274B4FF480521A81254B4FF480725A81DB
:10533000234B4FF480629A812FE0214B1C4A1A6064
:105340001F4B01229A801E4B0122DA801C4B4FF426
:1053500080521A811A4B4FF480725A81184B4FF4C5
:1053600000629A8119E0164B134A1A60144B01220D
:105370009A80134B0122DA80114B4FF480521A812C
:105380000F4B4FF480725A810D4B4FF480629A811B
:1053900003E00B4B00221A6000BF7B68084A1C46E2
:1053A00013460FCB84E80F0078681437BD4690BDD4
:1053B0001740EF001640EF001620C2001540EF0026
:1053C0001809002080B500AF024BDB68984700BF8A
:1053D00080BD00BF0409002080B500AF024B1B69EF
:1053E000984700BF80BD00BF0409002080B582B08F
:1053F00000AF786000F07CF9FFF7E4FF202000F0B8
:1054000067F97B681B0CDBB2184600F061F97B681A
:105410001B0ADBB2184600F05BF97B68DBB218466A
:1054200000F056F9FFF7D8FF00F06DF900BF08371C
:10543000BD4680BD80B584B000AFF860B96013464A
:10544000FB8000F055F9FFF7BDFF022000F040F9A6
:10545000BB681B0CDBB2184600F03AF9BB681B0AAC
:10546000DBB2184600F034F9BB68DBB2184600F036
:105470002FF907E0FB681B78184600F029F9FB6854
:105480000133FB60FB885A1EFA80002BF2D1FFF734
:10549000A3FF00F038F900BF1037BD4680BD80B5CE
:1054A00086B000AFF860B9601346FB800023FB753F
:1054B0000023BB7500237B7500233B750023FB7421
:1054C000BB687B757B7D5B423B75FB881B0A9BB28F
:1054D000FB75FB88BB757B7D002B24D1FB7D002BEE
:1054E00014D1FB881A46B968F868FFF7A3FF7BE080
:1054F0004FF48072B968F868FFF79CFFBB6803F54A
:105500008073BB60FB6803F58073FB60FB7D5A1EF4
:10551000FA75002BECD1BB7D9BB21A46B968F868CE
:10552000FFF788FF60E0FB7D002B25D1BA7D3B7D36
:105530009A421AD9BA7D3B7DD31AFB743B7D9BB24C
:105540001A46B968F868FFF775FF3B7DBA681344DF
:10555000BB603B7DFA681344FB60FB7C9BB21A4640
:10556000B968F868FFF766FF3EE0FB881A46B9683D
:10557000F868FFF75FFF37E03B7D9BB2FA88D31AEC
:10558000FB80FB881B0A9BB2FB75FB88BB753B7DD0
:105590009BB21A46B968F868FFF74CFF3B7DBA68C2
:1055A0001344BB603B7DFA681344FB600DE04FF48D
:1055B0008072B968F868FFF73DFFBB6803F5807338
:1055C000BB60FB6803F58073FB60FB7D5A1EFA75B8
:1055D000002BECD1BB7D002B06D0BB7D9BB21A46C5
:1055E000B968F868FFF726FF00BF1837BD4680BDD1
:1055F00080B584B000AFF860B9601346FB80FFF758
:10560000E1FE032000F064F8BB681B0CDBB2184617
:1056100000F05EF8BB681B0ADBB2184600F058F8D1
:10562000BB68DBB2184600F053F808E000F046F81B
:1056300003461A46FB681A70FB680133FB60FB885F
:105640005A1EFA80002BF1D1FFF7C6FE00BF1037BB
:10565000BD4680BD80B584B000AF0023FB60002351
:10566000BB6000237B6000233B60FFF7ABFEFFF7CE
:10567000B3FEFFF7A7FEFFF7AFFEFFF7A3FE9F20E5
:1056800000F026F800F01AF80346BB6000F016F8A8
:1056900003467B6000F012F803463B60FFF79CFE78
:1056A000BB681A047B681B0213433A681343FB6010
:1056B000FB6818461037BD4680BD000080B500AFBE
:1056C000024B5B6898470346184680BD04090020DA
:1056D00080B582B000AF0346FB71044B9B68FA793A
:1056E0001046984700BF0837BD4680BD040900201A
:1056F00080B500AFFFF766FE0620FFF7E9FFFFF772
:105700006BFE00BF80BD80B582B000AF0023FB718F
:10571000FFF758FE0520FFF7DBFFFFF7CFFF03463B
:10572000FB71FB7903F00103002BF6D1FFF754FE68
:1057300000BF0837BD4680BD84B080B500AF07F11B
:10574000080C8CE80F00074B184607F10803582295
:10575000194618F0A0FB00BFBD46BDE8804004B06C
:10576000704700BF2809002080B582B000AFF91D46
:1057700041F288330122044801F08AFAFB79184685
:105780000837BD4680BD00BF2809002080B582B023
:1057900000AF0346FB71F91D41F288330122034833
:1057A00001F033F900BF0837BD4680BD280900204D
:1057B00080B500AF00221021024800F067FB00BF57
:1057C00080BD00BF0000024080B500AF0122102163
:1057D000024800F05BFB00BF80BD00BF000002403C
:1057E00080B500AF0E4B1B680D4A43F40073136085
:1057F0000B4B1B680A4A43F480631360084B1B6819
:10580000074A43F480731360032000F0D8F80F2098
:10581000FDF76EF9FDF750F80023184680BD00BF74
:10582000003C024080B400AF064B1B781A46064B82
:105830001B681344044A136000BFBD465DF8047B37
:10584000704700BFC00000208009002080B400AF76
:10585000034B1B681846BD465DF8047B704700BFCC
:105860008009002080B485B000AF78607B6803F0C9
:105870000703FB600C4BDB68BB60BA684FF6FF03A5
:105880001340BB60FB681A02BB68134343F0BF635D
:1058900043F40033BB60044ABB68D36000BF1437D5
:1058A000BD465DF8047B704700ED00E080B400AFBA
:1058B000044BDB681B0A03F007031846BD465DF87E
:1058C000047B704700ED00E080B483B000AF034676
:1058D000FB7197F90730002B0BDBFB7903F01F02FC
:1058E000074997F907305B09012000FA02F241F8F5
:1058F000232000BF0C37BD465DF8047B704700BF16
:1059000000E100E080B483B000AF03463960FB7172
:1059100097F90730002B0ADB3B68DAB20C4997F99C
:1059200007301201D2B20B4483F800230AE03B682F
:10593000DAB20849FB7903F00F03043B1201D2B23B
:105940000B441A7600BF0C37BD465DF8047B7047E8
:1059500000E100E000ED00E080B489B000AFF86045
:10596000B9607A60FB6803F00703FB61FB69C3F170
:105970000703042B28BF0423BB61FB690433062BF8
:1059800002D9FB69033B00E000237B614FF0FF324B
:10599000BB6902FA03F3DA43BB681A407B699A4099
:1059A0004FF0FF317B6901FA03F3D9437B680B4069
:1059B000134318462437BD465DF8047B704780B515
:1059C00082B000AF78607868FFF74CFF00BF0837FF
:1059D000BD4680BD80B586B000AF0346B9607A6031
:1059E000FB7300237B61FFF761FF78617A68B96818
:1059F0007869FFF7B1FF024697F90F301146184654
:105A0000FFF780FF00BF1837BD4680BD80B582B06C
:105A100000AF0346FB7197F907301846FFF754FFB4
:105A200000BF0837BD4680BD80B582B000AF78604A
:105A30007B68002B01D101230EE07B685B79DBB230
:105A4000002B05D17B6800221A717868FCF760FF93
:105A50007B6801225A71002318460837BD4680BD75
:105A600080B584B000AF78607B689B6DFB60FFF70A
:105A7000EDFEB8607B6893F83530DBB2022B08D0BE
:105A80007B6880225A657B68002283F834200123DA
:105A900052E07B681B681A687B681B6822F016025C
:105AA0001A607B681B685A697B681B6822F0800259
:105AB0005A617B681B6C002B03D17B689B6C002BAD
:105AC00007D07B681B681A687B681B6822F0080295
:105AD0001A607B681B681A687B681B6822F00102E9
