:020000040801F1
:1000000000000120A92B0108A5290108AB2901083E
:10001000B1290108B7290108BD2901080000000025
:10002000000000000000000000000000D12C0208C9
:10003000C329010800000000212F0208EDF9010882
:10004000F92B0108F92B0108F92B0108F92B0108FC
:10005000F92B0108F92B0108F92B0108F92B0108EC
:10006000F92B0108F92B0108F92B0108F92B0108DC
:10007000F92B0108F92B0108F92B0108F92B0108CC
:10008000F92B0108F92B0108F92B010800000000E9
:10009000000000000000000000000000F92B010833
:1000A000F92B0108D1290108F92B0108F92B0108C6
:1000B000F92B0108F92B0108F92B0108F92B01088C
:1000C000F92B0108F92B0108F92B0108F92B01087C
:1000D000F92B0108F92B0108E529010800000000AF
:1000E000F92B0108F92B0108F92B01080000000089
:1000F000000000000000000000000000F92B0108D3
:1001000000000000F92B0108F92B0108F92B010868
:1001100000000000000000000000000000000000DF
:10012000F92B0108F92B0108F92B0108F92B01081B
:10013000F92B010800000000000000000000000092
:10014000000000000000000000000000F92B010882
:10015000F92B0108F92B0108F92B0108F92B0108EB
:10016000F92B0108F92B0108000000000000000035
:10017000000000000000000000000000000000007F
:1001800000000000F92B0108000000000000000042
:04019000F92B01083E
:1001A00010B5054C237833B9044B13B10448AFF3B1
:1001B00000800123237010BDF80200200000000021
:1001C0001413030808B5034B1BB103490348AFF3ED
:1001D000008008BD00000000FC020020141303088A
:1001E00010F8012B11F8013B012A28BF9A42F7D0E1
:1001F000D01A70470000000000000000000000005E
:1002000001F0FF01102A2BDB10F0070F08D010F8C7
:10021000013B013A8B422DD010F0070F42B3F6D1CB
:10022000F0B441EA012141EA014122F007047FF0E4
:1002300000070023F0E80256083C85EA010586EA3B
:10024000010685FA47F5A3FA87F586FA47F6A5FA77
:1002500087F68EB9EED1F0BC01F0FF0102F0070283
:1002600032B110F8013B013A83EA010313B1F8D12E
:100270000020704701387047002D06BF354603380F
:10028000073815F0010F07D1013015F4807F02BF48
:10029000013015F4C03F0130F0BC0138704700BF99
:1002A000034613F8012B002AFBD1181A01387047B6
:1002B00081F0004102E000BF83F0004330B54FEA17
:1002C00041044FEA430594EA050F08BF90EA020F84
:1002D0001FBF54EA000C55EA020C7FEA645C7FEA17
:1002E000655C00F0E2804FEA5454D4EB5555B8BF3A
:1002F0006D420CDD2C4480EA020281EA030382EAAB
:10030000000083EA010180EA020281EA0303362D3C
:1003100088BF30BD11F0004F4FEA01314FF4801C0F
:100320004CEA113102D0404261EB410113F0004F21
:100330004FEA03334CEA133302D0524263EB4303D8
:1003400094EA050F00F0A780A4F10104D5F1200E76
:100350000DDB02FA0EFC22FA05F2801841F10001D1
:1003600003FA0EF2801843FA05F359410EE0A5F1A5
:1003700020050EF1200E012A03FA0EFC28BF4CF0D6
:10038000020C43FA05F3C01851EBE37101F000458C
:1003900007D54FF0000EDCF1000C7EEB00006EEB99
:1003A0000101B1F5801F1BD3B1F5001F0CD3490823
:1003B0005FEA30004FEA3C0C04F101044FEA44527A
:1003C00012F5800F80F09A80BCF1004F08BF5FEA01
:1003D000500C50F1000041EB045141EA050130BDE1
:1003E0005FEA4C0C404141EB0101013C28BFB1F5F3
:1003F000801FE9D291F0000F04BF01460020B1FA3E
:1004000081F308BF2033A3F10B03B3F120020CDA10
:100410000C3208DD02F1140CC2F10C0201FA0CF0EE
:1004200021FA02F10CE002F11402D8BFC2F1200C53
:1004300001FA02F120FA0CFCDCBF41EA0C01904009
:10044000E41AA2BF01EB0451294330BD6FEA040452
:100450001F3C1CDA0C340EDC04F11404C4F120023D
:1004600020FA04F001FA02F340EA030021FA04F34F
:1004700045EA030130BDC4F10C04C4F1200220FAA6
:1004800002F001FA04F340EA0300294630BD21FAE4
:1004900004F0294630BD94F0000F83F4801306BFAA
:1004A00081F480110134013D4EE77FEA645C18BF9E
:1004B0007FEA655C29D094EA050F08BF90EA020F35
:1004C00005D054EA000C04BF1946104630BD91EA2D
:1004D000030F1EBF0021002030BD5FEA545C05D130
:1004E0004000494128BF41F0004130BD14F580046F
:1004F0003CBF01F5801130BD01F0004545F0FE41E3
:1005000041F470014FF0000030BD7FEA645C1ABF17
:10051000194610467FEA655C1CBF0B46024650EA4E
:10052000013406BF52EA033591EA030F41F400217A
:1005300030BD00BF90F0000F04BF0021704730B500
:100540004FF4806404F132044FF000054FF00001D5
:1005500050E700BF90F0000F04BF0021704730B596
:100560004FF4806404F1320410F0004548BF40426B
:100570004FF000013EE700BF42004FEAE2014FEAC0
:1005800031014FEA02701FBF12F07F4393F07F4F9B
:1005900081F06051704732F07F4208BF704793F09E
:1005A0007F4F04BF41F40021704730B54FF46074B1
:1005B00001F0004521F000411CE700BF50EA0102B4
:1005C00008BF704730B54FF000050AE050EA01025D
:1005D00008BF704730B511F0004502D5404261EBCD
:1005E00041014FF4806404F132045FEA915C3FF40E
:1005F000D8AE4FF003025FEADC0C18BF03325FEAAB
:10060000DC0C18BF033202EBDC02C2F1200300FA5B
:1006100003FC20FA02F001FA03FE40EA0E0021FA80
:1006200002F11444BDE600BF70B54FF0FF0C4CF46E
:10063000E06C1CEA11541DBF1CEA135594EA0C0F20
:1006400095EA0C0F00F0DEF82C4481EA030621EA5B
:100650004C5123EA4C5350EA013518BF52EA033596
:1006600041F4801143F4801338D0A0FB02CE4FF048
:100670000005E1FB02E506F00042E0FB03E54FF078
:100680000006E1FB03569CF0000F18BF4EF0010E70
:10069000A4F1FF04B6F5007F64F5407404D25FEA6C
:1006A0004E0E6D4146EB060642EAC62141EA55511F
:1006B0004FEAC52040EA5E504FEACE2EB4F1FD0C61
:1006C00088BFBCF5E06F1ED8BEF1004F08BF5FEADF
:1006D000500E50F1000041EB045170BD06F0004691
:1006E00046EA010140EA020081EA0301B4EB5C043E
:1006F000C2BFD4EB0C0541EA045170BD41F4801136
:100700004FF0000E013C00F3AB8014F1360FDEBF5A
:10071000002001F0004170BDC4F10004203C35DA36
:100720000C341BDC04F11404C4F1200500FA05F3B9
:1007300020FA04F001FA05F240EA020001F000425A
:1007400021F0004110EBD37021FA04F642EB0601D0
:100750005EEA430E08BF20EAD37070BDC4F10C04FA
:10076000C4F1200500FA04F320FA05F001FA04F2BE
:1007700040EA020001F0004110EBD37041F10001AA
:100780005EEA430E08BF20EAD37070BDC4F12005B5
:1007900000FA05F24EEA020E20FA04F301FA05F21D
:1007A00043EA020321FA04F001F0004121FA04F2C5
:1007B00020EA020000EBD3705EEA430E08BF20EA95
:1007C000D37070BD94F0000F0FD101F000464000CF
:1007D00041EB010111F4801F08BF013CF7D041EA51
:1007E000060195F0000F18BF704703F00046520055
:1007F00043EB030313F4801F08BF013DF7D043EA26
:100800000603704794EA0C0F0CEA135518BF95EADB
:100810000C0F0CD050EA410618BF52EA4306D1D162
:1008200081EA030101F000414FF0000070BD50EA81
:10083000410606BF1046194652EA430619D094EA0B
:100840000C0F02D150EA013613D195EA0C0F05D1F5
:1008500052EA03361CBF104619460AD181EA030149
:1008600001F0004141F0FE4141F470014FF0000001
:1008700070BD41F0FE4141F4780170BD70B54FF09C
:10088000FF0C4CF4E06C1CEA11541DBF1CEA13551C
:1008900094EA0C0F95EA0C0F00F0A7F8A4EB0504FE
:1008A00081EA030E52EA03354FEA013100F08880F5
:1008B0004FEA03334FF0805545EA131343EA1263BE
:1008C0004FEA022245EA111545EA10654FEA002673
:1008D0000EF000419D4208BF964244F1FD0404F52C
:1008E000407402D25B084FEA3202B61A65EB030588
:1008F0005B084FEA32024FF480104FF4002CB6EB45
:10090000020E75EB030E22BFB61A754640EA0C00C4
:100910005B084FEA3202B6EB020E75EB030E22BF04
:10092000B61A754640EA5C005B084FEA3202B6EB45
:10093000020E75EB030E22BFB61A754640EA9C0004
:100940005B084FEA3202B6EB020E75EB030E22BFD4
:10095000B61A754640EADC0055EA060E18D04FEA92
:10096000051545EA16754FEA06164FEAC30343EA32
:1009700052734FEAC2025FEA1C1CC0D111F4801FFF
:100980000BD141EA00014FF000004FF0004CB6E7F8
:1009900011F4801F04BF01430020B4F1FD0C88BF97
:1009A000BCF5E06F3FF6AFAEB5EB030C04BFB6EBA2
:1009B000020C5FEA500C50F1000041EB045170BD95
:1009C0000EF0004E4EEA113114EB5C04C2BFD4EBC2
:1009D0000C0541EA045170BD41F480114FF0000E46
:1009E000013C90E645EA060E8DE60CEA135594EAC2
:1009F0000C0F08BF95EA0C0F3FF43BAF94EA0C0FC5
:100A00000AD150EA01347FF434AF95EA0C0F7FF439
:100A100025AF104619462CE795EA0C0F06D152EA8D
:100A200003353FF4FDAE1046194622E750EA410671
:100A300018BF52EA43067FF4C5AE50EA41047FF482
:100A40000DAF52EA43057FF4EBAE12E74FF0FF3CE7
:100A500006E000BF4FF0010C02E000BF4FF0010CB8
:100A60004DF804CD4FEA410C7FEA6C5C4FEA430C31
:100A700018BF7FEA6C5C1BD001B050EA410C0CBF80
:100A800052EA430C91EA030F02BF90EA020F0020E2
:100A9000704710F1000F91EA030F58BF994208BF49
:100AA00090422CBFD8176FEAE37040F00100704706
:100AB0004FEA410C7FEA6C5C02D150EA013C07D15D
:100AC0004FEA430C7FEA6C5CD6D152EA033CD3D0A8
:100AD0005DF8040B704700BF8446104662468C46A2
:100AE0001946634600E000BF01B5FFF7B7FF0028D5
:100AF00048BF10F1000F01BD4DF808EDFFF7F4FFFE
:100B00000CBF012000205DF808FB00BF4DF808ED88
:100B1000FFF7EAFF34BF012000205DF808FB00BFAB
:100B20004DF808EDFFF7E0FF94BF012000205DF8CD
:100B300008FB00BF4DF808EDFFF7CEFF94BF012082
:100B400000205DF808FB00BF4DF808EDFFF7C4FF7B
:100B500034BF012000205DF808FB00BF4FEA410CC4
:100B60007FEA6C5C02D150EA013C0AD14FEA430CA7
:100B70007FEA6C5C02D152EA033C02D14FF00000E4
:100B800070474FF0010070474FEA410212F5001222
:100B900015D211D56FF47873B3EB625212D94FEAC4
:100BA000C12343F0004343EA505311F0004F23FAAE
:100BB00002F018BF404270474FF00000704750EA03
:100BC000013005D111F0004008BF6FF000407047C0
:100BD0004FF00000704700BF4A0011D212F500121A
:100BE00011D20DD56FF47873B3EB62520ED44FEA85
:100BF000C12343F0004343EA505323FA02F0704705
:100C00004FF00000704750EA013002D14FF0FF3042
:100C100070474FF0000070474FEA4102B2F1E043E5
:100C200024BFB3F5001CDCF1FE5C0DD901F0004CD3
:100C30004FEAC0024CEA5070B2F1004F40EB830023
:100C400008BF20F00100704711F0804F21D113F14F
:100C50003872BCBF01F00040704741F480114FEA88
:100C60005252C2F11802C2F1200C10FA0CF320FA11
:100C700002F018BF40F001004FEAC1234FEAD3232E
:100C800003FA0CFC40EA0C0023FA02F34FEA430398
:100C9000CCE77FEA625307D150EA01331EBF4FF021
:100CA000FE4040F44000704701F0004040F0FE403C
:100CB00040F40000704700BF53B94AB9002908BF8B
:100CC00000281CBF4FF0FF314FF0FF3000F0BAB9E1
:100CD000ADF1080C6DE904CE00F050F8DDF804E049
:100CE000DDE9022304B07047430803F05533C01A0E
:100CF000830803F0333300F03330184400EB101056
:100D000000F00F3000EB002000EB0040000E7047B9
:100D100038B50022002304460D46FFF7F7FE28B938
:100D200020462946BDE8384000F00AB8204605F1C3
:100D3000004100F005F8404261EB410138BD00BFC1
:100D4000D0B50C4B002206460F46FFF76DFCFFF7AF
:100D500043FF0446FFF7EEFB074B0022FFF764FC5E
:100D600002460B4630463946FFF7A6FAFFF734FF36
:100D70002146D0BD0000F03D0000F0412DE9F047D4
:100D8000089E0D4604460F46002B4AD18A429446DF
:100D900065D9B2FA82F343B102FA03FCC3F120022F
:100DA0009F4020FA02F217439C404FEA1C4E1FFA64
:100DB0008CF5B7FBFEF1220C0EFB117742EA0742DD
:100DC00001FB05F090420AD91CEB020201F1FF374A
:100DD00080F01C81904240F2198102396244121A5B
:100DE000A4B2B2FBFEF00EFB102244EA024400FB68
:100DF00005F5A5420AD91CEB040400F1FF3280F08E
:100E00000781A54240F204816444023840EA01406F
:100E1000641B00211EB1DC400023C6E90043BDE88D
:100E2000F0878B4208D9002E00F0ED800021C6E942
:100E300000050846BDE8F087B3FA83F1002949D1DF
:100E4000AB4202D3824200F2F880841A65EB0302BF
:100E500001201746002EE2D0C6E90047DFE702B9BD
:100E6000FFDEB2FA82F3002B40F090808A1A4FEA3C
:100E70001C471FFA8CFE0121B2FBF7F507FB15207A
:100E8000220C42EA00420EFB05F0904208D91CEB0E
:100E9000020205F1FF3802D2904200F2CB804546B3
:100EA000121AA4B2B2FBF7F007FB102244EA024484
:100EB0000EFB00FEA64508D91CEB040400F1FF322E
:100EC00002D2A64500F2BB801046A4EB0E0440EA15
:100ED00005409FE7C1F120078B4022FA07FC4CEA4E
:100EE000030C05FA01F420FA07F3FD404FEA1C4910
:100EF0002343B5FBF9F81FFA8CFE09FB18551C0CAF
:100F000044EA054408FB0EF5A54202FA01F200FA94
:100F100001F00BD91CEB040408F1FF3A80F0888043
:100F2000A54240F28580A8F102086444641B9DB28A
:100F3000B4FBF9F309FB134445EA044403FB0EFE3A
:100F4000A64508D91CEB040403F1FF356CD2A64575
:100F50006AD9023B644443EA0843A3FB0295A4EB2D
:100F60000E04AC42C846AE4656D353D056B1B0EB91
:100F7000080264EB0E0404FA07F7CA40CC4017439A
:100F8000C6E9007418460021BDE8F087C3F12001CE
:100F900002FA03FC20FA01F225FA01F19D402A43EE
:100FA0004FEA1C471FFA8CFEB1FBF7F007FB101548
:100FB000110C41EA054100FB0EF58D4204FA03F4E1
:100FC00008D91CEB010100F1FF382FD28D422DD939
:100FD00002386144491B92B2B1FBF7F507FB1511CA
:100FE00042EA014205FB0EF1914208D91CEB0202D4
:100FF00005F1FF3816D2914214D9023D6244521ACB
:1010000045EA004138E73146304608E73946E6E62A
:101010001046FBE64845A9D2B9EB020865EB0C0E79
:10102000013BA3E74546EAE72B4694E74046D1E774
:10103000D0467BE7023D624432E708460AE7644453
:10104000023842E7704700BF80B400AF00BFBD4622
:101050005DF8047B704780B400AF00231846BD469E
:101060005DF8047B7047000080B582B000AF786007
:101070000B467B807B681B680E4A934216D17B88A7
:10108000182B13D10C4B1B6818460FF03DF8034684
:10109000002B06D1084B18680023002207490EF0E8
:1010A00075FF18220549064806F06AF900BF08379F
:1010B000BD4680BD00440040340400206004002090
:1010C000CC03002080B500AF044B1B684FF0FF310C
:1010D00018460EF060FE00BF80BD00BF5004002027
:1010E00080B500AF034B1B6818460EF09FFE00BF93
:1010F00080BD00BF5004002080B500AF044B1B68CA
:101100004FF0FF3118460EF046FE00BF80BD00BF15
:101110005404002080B500AF034B1B6818460EF046
:1011200085FE00BF80BD00BF5404002080B500AF25
:10113000044B1B684FF0FF3118460EF02CFE00BF29
:1011400080BD00BF5804002080B500AF034B1B6872
:1011500018460EF06BFE00BF80BD00BF5804002093
:1011600080B500AF044B1B684FF0FF3118460EF0FE
:1011700012FE00BF80BD00BF5C04002080B500AF40
:10118000034B1B6818460EF051FE00BF80BD00BF28
:101190005C04002080B500AF00220221024804F068
:1011A00071FB00BF80BD00BF0000024080B500AFF2
:1011B00001220221024804F065FB00BF80BD00BF90
:1011C0000000024080B500AF72B600BF574B584ACE
:1011D0009A6062B600BF03F0FFFF00F009F95548BE
:1011E0000BF08EF900F01AFA00F0ECF900F07EF93D
:1011F00000F0B2F90EF0C8FB00F064F90EF0C4FB89
:101200000EF00EFC4C480EF040FD03464B4A1360B6
:101210004B480EF03AFD03464A4A13604A480EF026
:1012200034FD0346494A136049480EF02EFD03463B
:10123000484A1360484A1E2101200EF034FE03463E
:10124000464A1360464A202101200EF02CFE034638
:10125000444A1360444A242101200EF024FE034630
:10126000424A1360424A082101200EF01CFE034648
:10127000404A1360404AC62101200EF014FE034686
:101280003E4A13603E4A022101200EF00CFE034646
:101290003C4A13603C4A042101200EF004FE034640
:1012A0003A4A13603A4A00213A480EF003FC0346DA
:1012B000394A1360394A002139480EF0FBFB0346D6
:1012C000384A1360384A002138480EF0F3FB0346D1
:1012D000374A1360374A002137480EF0EBFB0346CC
:1012E000364A1360364A002136480EF0E3FB0346C7
:1012F000354A1360354A002135480EF0DBFB0346C2
:10130000344A1360344A002134480EF0D3FB0346BC
:10131000334A1360334A002133480EF0CBFB0346B7
:10132000324A13600EF0A0FBFEE700BF00ED00E0C4
:10133000000001088DF70108B83A030850040020A6
:10134000C83A030854040020D83A0308580400207F
:10135000E83A03085C040020103A03083404002033
:10136000283A030838040020403A03083C040020CF
:10137000583A030840040020703A0308440400204F
:10138000883A030848040020A03A03084C040020CF
:10139000F038030811170108140400201439030859
:1013A000211701081804002038390308B51801086E
:1013B0001C0400205C390308251C010820040020BF
:1013C00080390308611C010824040020A4390308A3
:1013D000DD21010828040020C8390308792201080A
:1013E0002C040020EC390308FD2301083004002000
:1013F00080B594B000AF07F12003302200211846D9
:101400001BF0BAFF07F10C0300221A605A609A60C1
:10141000DA601A610023BB60284B1B6C274A43F03B
:1014200080531364254B1B6C03F08053BB60BB6877
:1014300000237B60224B1B6823F44043204A43F483
:10144000004313601E4B1B6803F440437B607B68C2
:1014500001233B624FF480337B620223BB634FF472
:101460008003FB6304233B6454237B640223BB643B
:101470000423FB6407F12003184604F01DFA034619
:10148000002B01D001F0FAF80F23FB6002233B612F
:1014900000237B614FF48053BB610023FB6107F1A4
:1014A0000C030221184604F07FFC0346002B01D0F8
:1014B00001F0E4F800BF5037BD4680BD003802405F
:1014C0000070004080B500AF064B074A1A6005481F
:1014D00003F0A6FF0346002B01D001F0CFF800BFB8
:1014E00080BD00BF140300200030024080B500AF73
:1014F000174B184A1A60164B4FF482725A60144BFD
:1015000000229A60124B0022DA60114B02221A610B
:101510000F4B01225A610E4B4FF400729A610C4B33
:101520000022DA610A4B00221A62094B00225A6239
:10153000074B00229A62064B0A22DA62044804F042
:1015400085FE0346002B01D001F098F800BF80BD56
:101550001C0300200030014080B500AF174B184A33
:101560001A60164B4FF482725A60144B00229A6034
:10157000124B0022DA60114B02221A610F4B01223A
:101580005A610E4B4FF400729A610C4B0022DA61E3
:101590000A4B00221A62094B00225A62074B0022B2
:1015A0009A62064B0A22DA62044804F04FFE0346B0
:1015B000002B01D001F062F800BF80BD7403002051
:1015C000003C004080B500AF124B134A1A60114B2B
:1015D0004FF496525A600F4B4FF480529A600D4B65
:1015E0000022DA600B4B4FF480621A61094B04222F
:1015F0005A61084B00229A61064B0022DA610548C5
:1016000005F06EFE0346002B01D001F037F800BF55
:1016100080BD00BFCC0300200044004080B588B0EE
:1016200000AF07F10C0300221A605A609A60DA607A
:101630001A610023BB60334B1B6B324A43F08003BB
:101640001363304B1B6B03F08003BB60BB6800234C
:101650007B602C4B1B6B2B4A43F001031363294B1C
:101660001B6B03F001037B607B6800233B60254B11
:101670001B6B244A43F002031363224B1B6B03F0E2
:1016800002033B603B68012212211F4804F0FAF874
:1016900000224FF400411C4804F0F4F800224021DD
:1016A0001A4804F0EFF848F20203FB6001233B61A3
:1016B00000237B610023BB6107F10C03194612482C
:1016C00003F05CFF1023FB6001233B6100237B617F
:1016D0000323BB6107F10C0319460B4803F04EFFCF
:1016E0004023FB6001233B6100237B610023BB613E
:1016F00007F10C031946054803F040FF00BF2037EF
:10170000BD4680BD00380240000002400004024097
:1017100080B582B000AF786001200EF09BFAFBE745
:1017200080B598B000AF78600023FB65574B3B61F4
:1017300000233B7341F288300EF08CFA544B1B6847
:1017400007F10C01002218460FF060FBFFF72EFD99
:101750004FF4FA700EF07EFA4E4B5B6818224E4939
:101760004E4805F00DFE4FF47A700EF073FAFFF755
:1017700011FDD7ED047AB0EE670A4FF47A7148484C
:1017800002F024FF474B186807F138014FF47A73D1
:1017900000220EF05BFC034613F1020F4CD007F160
:1017A0003803184602F084FF0346002B55D103F09E
:1017B000AFF9F0EE407A3C4BC3ED007A03F0A8F9A4
:1017C000B0EE407A394BD3ED007A77EE277AC7ED49
:1017D000077A03F065F8F0EE407AC7ED057A03F07A
:1017E0000FF9F0EE407AC7ED097A03F0CBF8F0EE8E
:1017F000407AC7ED087A03F09FF8F0EE407AC7ED23
:10180000067A03F025F9F0EE407AC7ED0A7A03F084
:101810005BF90346FB6203F063F903463B6303F0A5
:101820006BF903467B63224B186807F1140102230E
:1018300000220EF065FF10E0FB6D0133FB6504E054
:10184000144B5B68BB650EF0E5F91822124913488A
:1018500005F096FD0346012BF2D00EF0DBF90C4BA0
:101860001B6807F10C01002218460FF0CFFA3B7BF2
:10187000002B87D000233B73054B186807F10C0140
:10188000022300220EF03CFF73E700BF6F12833A81
:10189000400400200044004060040020CC030020ED
:1018A000C0AF1C0034040020840400208004002009
:1018B0003C04002090B5ADF25C4D12AF07F5826399
:1018C000A3F20C4318601423C7F80C340023C7F8A4
:1018D00008344FF0000307F204421360BD4C684621
:1018E00004F11003482219461BF01BFF94E80F0077
:1018F00003F01EFCB84BB94AB949BA4803F092F953
:1019000007F5827207F5017107F541704FF4807396
:1019100018F058FFB449B54818F038FF18F08AFF9E
:101920000346002B03DA18F0ADFF18F083FFB04830
:1019300019F032F80346002B0FDD07F1FC010823F4
:101940000022AB4818F0AAFFAA4B186807F1FC0167
:10195000022300220EF0D4FE13E007F58263A3F504
:101960004573A54A5A6007F58263A3F545730122C2
:101970001A70A04B186807F1FC01022300220EF038
:10198000BFFE9E4819F008F80346002B0FDD07F153
:101990003401C6230022994818F080FF984B18683C
:1019A00007F13401022300220EF0AAFE27E007F51A
:1019B0008263A3F5777301221A7007F58263A3F59A
:1019C000777300225A7007F58263A3F577730022BC
:1019D00083F8842007F58263A3F57773002283F8E8
:1019E000A52007F58263A3F5777300229A70844BD4
:1019F000186807F13401022300220EF081FE8148AD
:101A000018F0CAFF0346002B0FDD07F13001022357
:101A100000227C4818F042FF7B4B186807F1300128
:101A2000022300220EF06CFE0BE007F58263A3F5A3
:101A3000787300225A7007F58263A3F57873012248
:101A40001A70724818F0A8FF0346002B0BDD042320
:101A500000226F496D4818F021FF6D4B1B6807F29B
:101A6000044213600DE06A4B4FF000021A604FF021
:101A7000000307F20442136004226549634818F02A
:101A800051FF644819F004F8634819F001F86348FD
:101A900019F0CCF8614818F0FBFF564B1B6807F1B2
:101AA000FC01002218460FF0B1F907F58263A3F597
:101AB00045731B78002B14D007F58263A3F545739B
:101AC00000221A7007F1FC0308221946484818F052
:101AD00029FF484B186807F1FC01022300220EF091
:101AE0000FFE474B1B6807F13401002218460FF028
:101AF0008DF907F58263A3F577731B78002B14D05B
:101B000007F58263A3F5777300221A7007F1340397
:101B1000C6221946394818F005FF394B186807F1F5
:101B20003401022300220EF0EBFD374B1B6807F156
:101B30003001002218460FF069F907F58263A3F51A
:101B400078731B78002B0CD007F58263A3F57873AC
:101B500000221A7007F1300302221946294818F0B2
:101B6000E1FE2F4B1B6807F10C01002218460FF015
:101B70004DF9D7F80C24D7F808349A4212D307F558
:101B80008263A3F2044393ED027A07F20443D3ED98
:101B9000007A77EE677AB7EE007AF4EEC77AF1EE64
:101BA00010FA0DDD07F10C0308330422194617481B
:101BB00018F0B8FED7F80C3403F56163C7F80C349D
:101BC000D7F808340133C7F808344FF47A700EF0B0
:101BD00041F862E71C0300208551010861510108AA
:101BE000C1510108A951010815110108F910010896
:101BF00034140308400400206F12833A441403088D
:101C00004404002054140308480400206814030806
:101C1000800400207C140308841403089014030833
:101C20003C04002080B584B000AF78600023FB60E6
:101C3000FB680133FB6009F03DFF0DF017FB0AF074
:101C4000C5FC064B186807F10C01022300220EF0B8
:101C500057FD4FF47A700DF0FDFFE9E74C040020CA
:101C600090B5ADF5845D83B012AF07F1400343F842
:101C70003C0C07F5805303F108032022002118468D
:101C80001BF07AFB07F5815303F1080317220021AB
:101C900018461BF071FB402307F5815202F1080240
:101CA0001370082307F5815202F109021370DC4B0F
:101CB0001B7807F5815202F10A021370D94B1B7889
:101CC00007F5815202F10B021370D74B1B7807F511
:101CD000815202F10C021370D44B1B7807F581522C
:101CE00002F10D02137007F5805303F10B0307F5A2
:101CF000815202F108021068186092889A800223CB
:101D000007F5815202F11E02137007F5815303F1AA
:101D10000E031B6807F5805202F11102136007F5EC
:101D2000815303F112031B6807F5805202F115027B
:101D3000136007F5815303F116031B6807F5805202
:101D400002F11902136007F5815303F11A031B68AE
:101D500007F5805202F11D021360B54C684604F18C
:101D60001003482219461BF0DCFC94E80F000DF02C
:101D7000CFFDB049B0480DF077FDB0480DF05CFDE7
:101D800007F5815303F1080318460DF059FCAC49DF
:101D9000AC4807F0D9FDAC49AC4807F0AFFDAC4901
:101DA000AC4807F085FDAC4AAC49AC4808F030FBC4
:101DB00007F12003183B4FF40062194604200AF093
:101DC000B1FBA7480AF09CFBA649A7480AF07CFB98
:101DD00007F5815303F11E031B7807F5815202F1C9
:101DE00001021370002307F5805202F108021370FC
:101DF0000DF0E4FC0346002B40F0EB814FF4FA7049
:101E00000FF0E4FC07F5815303F10803062219469D
:101E10004FF4106006F008FB07F5815303F11E0331
:101E20001B78022B06D107F608031946002009F09B
:101E300097FD03E00DF014FC0DF0B4FCFFF776F90C
:101E40000DF05EFC0DF074FC0346002B40F0E080CA
:101E5000002307F5815202F10E021370002307F5EB
:101E6000815202F10F021370002307F5815202F133
:101E700010021370002307F5815202F11102137052
:101E8000002307F5815202F112021370002307F5B7
:101E9000815202F113021370002307F5815202F1FF
:101EA00014021370002307F5815202F1150213701A
:101EB000002307F5815202F116021370002307F583
:101EC000815202F117021370002307F5815202F1CB
:101ED00018021370002307F5815202F119021370E2
:101EE000002307F5815202F11A021370002307F54F
:101EF000815202F11B021370002307F5815202F197
:101F00001C021370002307F5815202F11D021370A9
:101F1000FFF71AF9002307F5815202F11F0213702F
:101F20005AE007F5815303F11F031A7807F581532F
:101F300003F11F031B7802F582523A4412F8122C67
:101F400003F582533B4403F82F2C07F5815303F12B
:101F50001F031A7807F5815303F11F031B7802F55D
:101F600082523A4412F80E2C03F582533B4403F894
:101F70002B2C07F5815303F11F031A7807F58153C2
:101F800003F11F031B7802F582523A4412F80A2C1F
:101F900003F582533B4403F8272C07F5815303F1E3
:101FA0001F031A7807F5815303F11F031B7802F50D
:101FB00082523A4412F8062C03F582533B4403F84C
:101FC000232C07F5815303F11F031B78013307F519
:101FD000815202F11F02137007F5815303F11F03B1
:101FE0001B78032B9DD9002307F5805202F10802CC
:101FF00013701E4B186807F5805101F10801022388
:1020000000220EF07DFB00BF01200DF023FEDFE675
:10201000002307F5815202F11F02137083E000BF15
:10202000107AFF1F117AFF1F127AFF1F137AFF1F0A
:1020300074030020C9F80108B1F8010855FC010833
:1020400041F9010865F90108F9F80108E1F801080A
:10205000E1100108C510010895F60108ADF6010868
:102060008DF701087D110108611101083804002075
:1020700007F5815303F11F031A7807F5815303F124
:102080001F031B7802F582523A4412F8122C03F512
:1020900082533B4403F82F2C07F5815303F11F03B0
:1020A0001A7807F5815303F11F031B7802F582525A
:1020B0003A4412F80E2C03F582533B4403F82B2CC0
:1020C00007F5815303F11F031A7807F5815303F1D4
:1020D0001F031B7802F582523A4412F80A2C03F5CA
:1020E00082533B4403F8272C07F5815303F11F0368
:1020F0001A7807F5815303F11F031B7802F582520A
:102100003A4412F8062C03F582533B4403F8232C7F
:1021100007F5815303F11F031B78013307F5815243
:1021200002F11F02137007F5815303F11F031B789F
:10213000032B9DD9012307F5805202F10802137089
:102140000DF018FB0346DBB207F5805202F10A02DC
:1021500013700DF003FB0346DBB207F5805202F16A
:102160000902137009F034FD034607F5815202F1AC
:1021700004021360FEF7E8FF07F5815303F10E0335
:102180001B78002B0ED1144B186807F5805101F114
:102190000801022300220EF0B3FA4FF47A700DF01A
:1021A00059FD15E007F5805303F108031533184670
:1021B0000AF0D2F9084B186807F5805101F10801BF
:1021C000022300220EF09CFA4FF47A700DF042FDCB
:1021D00034E600BFFCE500BF3804002080B584B0C1
:1021E00000AF78601D4B1B6818460DF0F5FCF860D9
:1021F0001B4B1B6818460DF0EFFCF860194B1B6871
:1022000018460DF0E9FCF860174B1B6818460DF0F6
:10221000E3FCF860154B1B6818460DF0DDFCF86018
:10222000134B1B6818460DF0D7FCF860114B1B6868
:1022300018460DF0D1FCF86000200DF0CDFCF860E0
:1022400000200DF0C9FCF86000200DF0C5FCF8601E
:102250004FF47A700DF0FEFCC4E700BF14040020B8
:10226000180400201C040020200400202404002066
:10227000280400202C04002080B5ADF5815D84B0D9
:1022800000AF07F1300343F82C0C4D4A07F580539B
:1022900003F108031268114619800233120C1A70F8
:1022A000032307F5815202F10E02137007F58053E4
:1022B00003F1080307F5815202F10E02127807F6C6
:1022C000080107F1100008380CF0F8F93D480DF04E
:1022D00067F93D480DF07CF93C4B1B68032118461B
:1022E00000F0B2FC3A4B1B680421184600F0ACFC2D
:1022F000384B1B680021184600F0A6FC364B1B68C3
:102300000221184600F0A0FC344B1B68052118463A
:1023100000F09AFC324933480CF0C4FF324933488C
:102320000CF0C0FF324933480CF0BCFF324B1B6845
:1023300007F5805101F10C01002218460EF066FDF0
:1023400007F5805303F10C031B78002B2FD00DF001
:102350001DFA0346012B2AD1002307F5815202F111
:102360000F02137016E0FEF7E1FE07F5815303F14B
:102370000F031B7818460CF0BDF9FEF7E5FE07F5D4
:10238000815303F10F031B78013307F5815202F1EA
:102390000F02137007F5815303F10F031A7807F545
:1023A000815303F10E031B789A42DCD303E04FF410
:1023B0007A700DF04FFC64200DF04CFCB6E700BFC6
:1023C000B0200308F5380108DD3901083C0400207D
:1023D0004004002044040020480400204C04002055
:1023E0009C140308B8170308C4170308F81A030855
:1023F0000C1B0308A42003083804002080B5ADF5A9
:10240000226D02AF07F61823A3F61423186087493C
:10241000874801F0A3FB4FF47A700DF01BFC854B4D
:102420001B6807F6F811002218460EF0EFFC97F82B
:10243000F83983F00103DBB2002B40F0EC800DF0A3
:10244000A5F90346012B40F0E6807B4B1B6807F59E
:102450001361002218460EF0D9FC0BE04FF47A709D
:102460000DF0F8FB744B1B6807F51361002218464A
:102470000EF0CCFC97F8313983F00103DBB2002B6E
:10248000ECD197F8313983F00103DBB2002B40F037
:10249000C48007F20C5207F5136107F6F8104FF4E9
:1024A0008063019307F5867300934FF4806301F016
:1024B00071FB0346002B40F0B28001F057FC03464D
:1024C000002BC0F2AE8001F0A1FC0346002B40F0CF
:1024D000AA8007F18C030021184602F025F8574B1B
:1024E0001B6807F60C11002218460EF08FFC07F649
:1024F0001823A3F58673D3ED027A07F10C03B0EE2F
:10250000670A4F49184602F047F807F10C0207F135
:102510008C031146184601F087FD0346002B6CD151
:1025200007F61823A3F58673D3ED007A07F10C03A1
:10253000B0EE670A4349184602F02EF807F10C0284
:1025400007F18C031146184601F06EFD0346002B7F
:1025500055D107F61823A3F58673D3ED017A07F159
:102560000C03B0EE670A3849184602F015F807F177
:102570000C0207F18C031146184601F055FD034685
:10258000002B3ED107F61823A3F58673D3ED057A09
:102590009FED2E7A67EE877A07F10C03B0EE670A9B
:1025A0002B49184601F0F8FF07F10C0207F18C03E4
:1025B0001146184601F038FD0346002B23D107F6DB
:1025C0001823A3F58673D3ED047A07F10C03B0EE5C
:1025D000670A2049184601F0DFFF07F10C0207F1F6
:1025E0008C031146184601F01FFD0346002B0CD149
:1025F00047F230500DF02EFB71E700BF06E000BF40
:1026000004E000BF02E000BF00E000BF4FF47A70BA
:102610000DF020FBFFE600BFFDE600BFFBE600BFBC
:10262000F9E600BFF7E600BFF5E600BF4911010873
:102630002D11010838040020440400203C0400202F
:10264000B4200308BC200308C42003080000C842CB
:10265000CC200308DC20030880B582B000AF78608E
:102660007B681B68044A934201D102F0D7FD00BF8A
:102670000837BD4680BD00BF0000014080B400AFF8
:1026800072B600BFFEE7000080B582B000AF002345
:102690007B60124B5B6C114A43F4804353640F4BD5
:1026A0005B6C03F480437B607B6800233B600B4BD7
:1026B0001B6C0A4A43F080531364084B1B6C03F0F5
:1026C00080533B603B6800220F216FF0010002F055
:1026D0007DFE00BF0837BD4680BD00BF0038024008
:1026E00080B485B000AF78607B681B680B4A93426A
:1026F0000DD10023FB600A4B1B6B094A43F4805346
:102700001363074B1B6B03F48053FB60FB6800BF34
:102710001437BD465DF8047B704700BF00300240AF
:102720000038024080B58CB000AF786007F11C0320
:1027300000221A605A609A60DA601A617B681B682E
:10274000324A93422CD10023BB61314B5B6C304A3F
:1027500043F4805353642E4B5B6C03F48053BB6192
:10276000BB6900237B612A4B1B6B294A43F00103A1
:102770001363274B1B6B03F001037B617B69E02331
:10278000FB6102233B6200237B620323BB620523C0
:10279000FB6207F11C0319461E4802F0EFFE30E011
:1027A0007B681B681C4A93422BD100233B61184B6A
:1027B0001B6C174A43F400431364154B1B6C03F462
:1027C00000433B613B690023FB60114B1B6B104ACC
:1027D00043F0020313630E4B1B6B03F00203FB6019
:1027E000FB683823FB6102233B6200237B620323E7
:1027F000BB620623FB6207F11C031946074802F07F
:10280000BDFE00BF3037BD4680BD00BF0030014077
:102810000038024000000240003C0040000402403A
:1028200080B58AB000AF786007F1140300221A6007
:102830005A609A60DA601A617B681B681D4A93428D
:1028400033D100233B611C4B1B6C1B4A43F4003308
:102850001364194B1B6C03F400333B613B69002389
:10286000FB60154B1B6B144A43F001031363124BBF
:102870001B6B03F00103FB60FB680C237B610223ED
:10288000BB610023FB6103233B6207237B6207F1EB
:1028900014031946094802F071FE00220521262082
:1028A00002F094FD262002F0ADFD00BF2837BD46A2
:1028B00080BD00BF004400400038024000000240DC
:1028C00080B58CB000AF78600023BB6200237B62D0
:1028D0000023BB602E4B5B6C2D4A43F00103536415
:1028E0002B4B5B6C03F00103BB60BB6807F10C0270
:1028F00007F110031146184603F076FC03F060FC64
:10290000B862BB6A234AA2FB03239B0C013B7B6298
:10291000214B224A1A60204B40F2E732DA601E4A0D
:102920007B6A53601C4B00221A611B4B00229A6089
:10293000194B00229A61184804F05EFA034687F8A2
:102940002F3097F82F30002B1BD1134804F0AEFA2C
:10295000034687F82F3097F82F30002B11D119201C
:1029600002F050FD7B680F2B08D8002279681920EF
:1029700002F02CFD0A4A7B68136002E0012387F80D
:102980002F3097F82F3018463037BD4680BD00BF36
:102990000038024083DE1B43880400200000014011
:1029A000BC00002080B400AFFEE780B400AFFEE7BB
:1029B00080B400AFFEE780B400AFFEE780B400AFA4
:1029C000FEE780B400AF00BFBD465DF8047B7047F2
:1029D00080B500AF024804F0CBFA00BF80BD00BF55
:1029E0008804002080B500AF024804F027FD00BF36
:1029F00080BD00BFCC03002080B400AF0123184687
:102A0000BD465DF8047B704780B582B000AF78604A
:102A100039601AF051FE034616221A604FF0FF3358
:102A200018460837BD4680BD80B582B000AF7860DB
:102A30004FF0FF317868FFF7E7FFFEE780B586B01B
:102A400000AFF860B9607A6000237B610AE0AFF301
:102A500000800146BB685A1CBA60CAB21A707B6912
:102A600001337B617A697B689A42F0DB7B681846A8
:102A70001837BD4680BD80B586B000AFF860B9603C
:102A80007A6000237B6109E0BB685A1CBA601B783E
:102A90001846AFF300807B6901337B617A697B68FC
:102AA0009A42F1DB7B6818461837BD4680BD80B47A
:102AB00083B000AF78604FF0FF3318460C37BD4647
:102AC0005DF8047B704780B483B000AF78603960F4
:102AD0003B684FF400525A60002318460C37BD463D
:102AE0005DF8047B704780B483B000AF7860012349
:102AF00018460C37BD465DF8047B704780B485B03E
:102B000000AFF860B9607A60002318461437BD46FC
:102B10005DF8047B7047000080B586B000AF786038
:102B2000144A154BD31A7B617B693B61134B1B68BD
:102B3000002B02D1114B124A1A60104B1A687B68A5
:102B400013443A699A4207D21AF0B6FD03460C22A2
:102B50001A604FF0FF3309E0084B1B68FB60074B1E
:102B60001A687B681344054A1360FB6818461837D7
:102B7000BD4680BD0000012000040000D0040020FC
:102B8000E0DA002080B400AF064BD3F88830054A65
:102B900043F47003C2F8883000BFBD465DF8047B83
:102BA000704700BF00ED00E0DFF834D0FFF7EAFF28
:102BB0000C480D490D4A002302E0D458C450043398
:102BC000C4188C42F9D30A4A0A4C002301E013606E
:102BD0000432A242FBD31AF075FDFEF7F3FA7047F8
:102BE0000000012000000020F8020020A048030897
:102BF000F8020020E0DA0020FEE780B483B000AFE6
:102C00000346FB71FB792F2B05D9FB79392B02D8B1
:102C1000FB79303B12E0FB79602B05D9FB79662B01
:102C200002D8FB79573B09E0FB79402B05D9FB79AA
:102C3000462B02D8FB79373B00E0002318460C37BF
:102C4000BD465DF8047B704780B483B000AF786008
:102C50000B46FB70FB78002B06D17B68002B34D031
:102C60001D4A7B68136030E0FB78012B06D17B683E
:102C7000002B2AD0194A7B68136026E0FB78022BD0
:102C800006D17B68002B20D0154A7B6813601CE0BE
:102C9000FB78032B06D17B68002B16D0114A7B688A
:102CA000136012E0FB78042B06D17B68002B0CD05C
:102CB0000D4A7B68136008E0FB78052B05D17B6823
:102CC000002B02D0094A7B68136000BF0C37BD4659
:102CD0005DF8047B704700BFD4040020D8040020B6
:102CE000DC040020E0040020E4040020E8040020CC
:102CF00080B5CCB000AF07F59873A3F59673186054
:102D00000A4607F59873A3F22D131A7007F5987306
:102D1000A3F22D131B78042B00F24A8101A252F872
:102D200023F000BF392D0108B12F0108C52E01087D
:102D3000B12F01084B2F010807F16403C6220021BF
:102D400018461AF019FB07F59873A3F596739C497A
:102D500018680BF01FFB0346312118461AF023FBBD
:102D60000346002B03D0012387F8653012E007F5F6
:102D70009873A3F59673924918680BF00BFB034602
:102D8000302118461AF00FFB0346002B02D0002317
:102D900087F8653007F59873A3F596738949186825
:102DA0000BF0F8FAC7F82C01D7F82C31002B06D11C
:102DB000D7F82C01FDF774FA0346202B07D807F14A
:102DC00064038433D7F82C1118461AF0A2FC07F5D7
:102DD0009873A3F596737C4918680BF0DBFAC7F873
:102DE0002C01D7F82C31002B06D1D7F82C01FDF798
:102DF00057FA0346202B07D807F16403A533D7F809
:102E00002C1118461AF085FC07F59873A3F59673F4
:102E10006E4918680BF0BEFAC7F82C01D7F82C31B0
:102E2000002B06D1D7F82C01FDF73AFA03467F2B89
:102E300008D807F1640302337F22D7F82C11184613
:102E40001AF0F4FA07F59873A3F5967360491868B9
:102E50000BF0A0FAC7F82C01D7F82C31002B06D1C3
:102E6000D7F82C01FDF71CFA0346052B1ED807F1F5
:102E700016031A465749D7F82C011AF04DF907F5F1
:102E80009873A3F58D731B88002B0FD007F59873EB
:102E9000A3F58D731B884FF6FF72934206D007F59A
:102EA0009873A3F58D731B88A7F8E630012387F884
:102EB0006430494B186807F16401022300220DF0C9
:102EC0001FFC78E007F11C030222002118461AF0CB
:102ED00053FA07F59873A3F59673404918680BF0F9
:102EE00059FA0346312118461AF05DFA0346002BC1
:102EF00006D007F59873A3F58A7301225A7015E07E
:102F000007F59873A3F59673344918680BF042FAE5
:102F10000346302118461AF046FA0346002B05D026
:102F200007F59873A3F58A7300225A7007F5987312
:102F3000A3F58A7301221A70294B186807F11C0146
:102F4000022300220DF0DCFB35E007F59873A3F5B2
:102F50009673244918680BF01DFAC7F82C01D7F8AE
:102F60002C31002B26D0204A2049D7F82C011AF00A
:102F7000D3F81D4BD3ED007AF5EEC07AF1EE10FADE
:102F800000DC17E0184B1A6807F59873A3F59273E5
:102F90005A6007F59873A3F5927301221A70144BC7
:102FA000186807F10C01022300220DF0A9FB01E0D3
:102FB00000BF00E000BF00BF07F59877BD4680BDA9
:102FC000E4200308EC200308F42003080021030890
:102FD000042103080C210308D40400201021030855
:102FE000DC04002018210308EC0400202021030841
:102FF000E40400202DE9F04FADF50B7D0AAF07F595
:103000000073A3F5F273186007F50073A3F5F67368
:103010001A6007F50073A3F2E5130A461A7007F564
:103020000073A3F5A473734A1846114651231A4638
:103030001AF077FB07F50073A3F5E6736E4A18469E
:10304000114684231A461AF06CFB07F50073A3F5AA
:10305000F0736A4A1C4615460FCD0FC42B682380B7
:1030600007F50073A3F2E5131B78042B00F093809F
:10307000042B00F3B880002B02D0032B31D0B2E038
:103080005F4B1B6807F59C71002218460DF0BEFED1
:10309000B7F8BA311D4697F839311E4607F59C73CB
:1030A0009C1C07F59C7303F1840207F1B80107F536
:1030B0000073A3F5F27001960095234600681AF09C
:1030C0000BF807F50073A3F5F2731868FDF7E8F83D
:1030D00003469AB207F50073A3F5F6731B681A80CE
:1030E00082E0484B1B6807F58A71002218460DF0F4
:1030F0008DFED7F814311846FDF73EFAC7E90201F4
:10310000D7F818311846FDF737FA04460D46D7F8B8
:1031100020311846FDF730FA80468946D7F8243129
:103120001846FDF729FA82468B46D7F8283118460B
:10313000FDF722FAC7E90001D7F81C311846FDF760
:103140001BFA02460B4607F1340607F50071A1F59C
:10315000F270CDE9082397ED007B8DED067BCDE97C
:1031600004ABCDE90289CDE90045D7E90223314618
:10317000006819F0B1FF07F50073A3F5F273186842
:10318000FDF78EF803469AB207F50073A3F5F673C0
:103190001B681A8028E01C4B1B6807F5867100220B
:1031A00018460DF033FED7F810311846FDF7E4F954
:1031B00002460B4607F1200107F50070A0F5F270FA
:1031C000006819F089FF07F50073A3F5F27318681A
:1031D000FDF766F803469AB207F50073A3F5F67398
:1031E0001B681A8000E000BF00BF07F50177BD46ED
:1031F000BDE8F08F2421030878210308FC2103088F
:10320000D4040020E0040020E404002090B5ADF5D3
:103210003F7D02AF07F53C74A4F53974206007F5D3
:103220003C70A0F53A70016007F53C71A1F53B7167
:103230000A6007F53C72A2F53C72136007F1900337
:10324000C7F8E43207F53C73A3F53973AC49186845
:103250000BF0A0F8C7F8E002D7F8E032002B25D039
:1032600007F53C73A3F53C7307F194021968104607
:103270001AF04FFA07F194032D22D7F8E0121846FE
:103280001AF0AFF807F53C73A3F539739D49186838
:103290000BF080F8C7F8E002D7F8E002FDF700F87D
:1032A0000346B3F5007F80F0138111E007F53C730E
:1032B000A3F53B731B68944A1068186092889A8043
:1032C00007F53C73A3F53A731B6805221A8011E1D8
:1032D000D7F8E032002B00F0E980D7F8E002FCF7E5
:1032E000DFFF0346C7F8DC32D7F8DC3207F1C8004D
:1032F0000093D7F8E032D7F8E4224FF4007117F0CA
:10330000C9FCC7F8EC0207F53C73A3F539737F4994
:1033100018680BF03FF8C7F8D8020023C7F8E83266
:1033200030E0D7F8E832D7F8D82213441B78184693
:10333000FFF763FCC7F8CC02D7F8E8320133D7F8BF
:10334000D82213441B781846FFF757FCC7F8C80269
:10335000D7F8CC321B015AB2D7F8C8325BB213434C
:1033600059B2D7F8E832DA0F13445B101A46C9B2E3
:1033700007F53C73A3F522739954D7F8E83202336A
:10338000C7F8E832D7F8E8321F2BCADD07F53C73DF
:10339000A3F5227300221A7407F11003184617F0E0
:1033A00095FD07F11003184617F0AEFDD7F8E4328B
:1033B0001A6807F1C80107F11003184618F08EFCCF
:1033C00007F17C0207F110031146184618F0FBFCC8
:1033D00007F11003184617F086FD07F53C73A3F5B7
:1033E0001D7300221A7407F17C0107F16803102293
:1033F00018461AF009F80346002B06D04FF0FF33A9
:10340000C7F8EC32D7F8EC3274E007F53C73A3F55B
:1034100039733F4918680AF0BDFFC7F8D4020A2182
:10342000D7F8D4020BF068F80346C7F8D032D7F8C3
:10343000D032002B0FD1374B00221A60D7F8E4327C
:103440001A6807F1C80107F19403184617F06AFAE1
:10345000C7F8EC021DE00A21D7F8D4020BF04CF8B3
:1034600003461A462B4B1B689A4206D04FF0FF3397
:10347000C7F8EC32D7F8EC323CE0D7F8E4321A68FF
:1034800007F1C80107F19403184617F0A9FAC7F825
:10349000EC02204B1B6801331E4A1360D7F8EC3254
:1034A000002B15DA0023C7F8EC3211E007F53C7366
:1034B000A3F53B731B68144A1068186092889A80C1
:1034C00007F53C73A3F53A731B6805221A8011E0D7
:1034D00007F53C73A3F53B731B680F4A118892787C
:1034E00019809A7007F53C73A3F53A731B680222A2
:1034F0001A80FFE7184607F53D77BD4690BD00BF2F
:1035000010220308242203081C2203082C2203088B
:1035100034220308F00400203C2203082DE9F04F78
:10352000ADF5337D16AF07F51C73A3F50D73186069
:1035300007F51C73A3F50E73196007F51C73A3F54B
:103540000B735D4A184611464FF497731A461AF0EA
:10355000E8F85A4B1B6807F51371002218460DF066
:1035600055FC574B1B6807F51171002218460DF0EA
:103570004DFC544B1B6807F5BE71002218460DF038
:1035800045FC514B1B6807F5BC71002218460DF035
:103590003DFC4E4B1B6807F5BA71002218460DF032
:1035A00035FCD7F84C321846FCF7E6FFC7E90C01AA
:1035B000D7F850321846FCF7DFFFC7E90A01D7F801
:1035C00058321846FCF7D8FFC7E90801D7F85C3233
:1035D0001846FCF7D1FFC7E90601D7F86032184654
:1035E000FCF7CAFFC7E90401D7F854321846FCF7C4
:1035F000C3FF82468B46D7F848321846FCF7BCFF1B
:103600008046894697F87931FB6097F87D31BB6039
:10361000B7F8FE317B60D7F86442D7F86802D7F874
:103620006C12D7F8742107F1440607F51C73A3F553
:103630000D75149213911290119407F5BE73023315
:10364000109379680F9107F5BE7384330E93B968B0
:103650000D91FB680C93CDE90A89CDE908AB97ED94
:10366000047B8DED067B97ED067B8DED047B97ED5E
:10367000087B8DED027B97ED0A7B8DED007BD7E912
:103680000C233146286819F027FD07F51C73A3F5B4
:103690000D731868FCF704FE03469AB207F51C7315
:1036A000A3F50E731B681A800023184607F51D77D3
:1036B000BD46BDE8F08F00BF40220308E0040020B3
:1036C000E4040020D4040020DC040020E8040020EE
:1036D000F0B5DBB00EAF786307F59870A0F5807099
:1036E000016007F59871A1F582710A6007F598727B
:1036F000A2F5847213600023C7F82C3107F1C003D0
:10370000184617F0E3FB07F1C003184617F0FCFB5F
:1037100007F13C03796B184619F0FBFF07F5987326
:10372000A3F5807307F13C001422196819F059FEC3
:1037300007F17C0341220021184619F01DFE07F114
:103740007C0107F13C004023D7F82C2117F0A6F8A4
:103750000346A7F82A31B7F82A31402B10D1B7F821
:103760002A2107F17C0107F1C003184618F0B6FAC8
:10377000B7F82A31D7F82C211344C7F82C31D7E7F2
:10378000B7F82A2107F17C0107F1C003184618F0A9
:10379000A5FA07F58C7207F1C0031146184618F018
:1037A00012FB07F1C003184617F09DFB002387F8B2
:1037B000283100BF97F818319C4697F819319E467A
:1037C00097F81A311D4697F81B311E4697F81C31A1
:1037D0007B6297F81D313B6297F81E31FB6197F8C9
:1037E0001F31BB6197F820317B6197F821313B6134
:1037F00097F82231FB6097F82331BB6097F82431AA
:103800007B6097F825311C4697F82631194697F8C2
:1038100027311A4607F59873A3F582700D920C9123
:103820000B947A680A92BA680992FA6808923A691F
:1038300007927A690692BA690592FA6904923A6A1D
:1038400003927B6A0293019600957346624608498B
:10385000006819F041FC07F59873A3F584731B68A1
:1038600020221A800023184607F59A77BD46F0BD3E
:103870007023030880B592B000AF7860396007F11B
:103880000803184A07CA03C31A8007F10803184639
:10389000FCF706FD03461A4607F1080313441249D4
:1038A0001A460B4603CB106051601B78137207F168
:1038B00008030E49184617F0D1F978647B6C002B89
:1038C0000ADB7B680A4A1188927819809A703B68F3
:1038D00002221A80012300E0002318464837BD4623
:1038E00080BD00BFB4230308C0230308CC23030812
:1038F000DC23030880B586B000AFF860B9607A6059
:103900003B600023FB7500233B602D49F868FCF702
:1039100067FC0346002B06D10021B868FFF7E8F9E1
:103920000123FB7546E02749F868FCF759FC03467C
:10393000002B06D10221B868FFF7DAF90123FB75E5
:1039400038E02149F868FCF74BFC0346002B0ED108
:103950001E4B7A683968B868FFF758FC0346002B9D
:1039600002DA0023FB7525E00123FB7522E01849EC
:10397000F868FCF735FC0346002B06D10421B86833
:10398000FFF7B6F90123FB7514E01249F868FCF75C
:1039900027FC0346002B0DD10F4B7A683968B868B5
:1039A000FFF734FC0346002B02DA0023FB7501E02D
:1039B0000123FB75FB7D18461837BD4680BD00BF4F
:1039C000E0230308F4230308082403081824030849
:1039D0002024030838240308B423030880B586B0E4
:1039E00000AFF860B9607A600023FB754949F86858
:1039F000FCF7F6FB0346002B07D17A680021B86874
:103A0000FFF7F8FA0123FB757EE04349F868FCF7FD
:103A1000E7FB0346002B0BD1BB6840491A460B4617
:103A20001B8813800123FB757B6802221A806BE0E0
:103A30003B49F868FCF7D4FB0346002B07D17A68B2
:103A40000321B868FFF7D6FA0123FB755CE035491E
:103A5000F868FCF7C5FB0346002B07D17A68042100
:103A6000B868FFF7C7FA0123FB754DE02E49F868E7
:103A7000FCF7B6FB0346002B06D17968B868FFF760
:103A80004DFD0123FB753FE02849F868FCF7A8FBD2
:103A90000346002B11D17B68BA6825492548FFF7FA
:103AA00017FE0346002B02D10123FB752CE07B6837
:103AB00000221A800023FB7526E01F49F868FCF7F6
:103AC0008FFB0346002B06D17968B868FFF7D2FE5A
:103AD0000346FB7518E01949F868FCF781FB0346BB
:103AE000002B05D1164816F0EDFF0123FB750BE006
:103AF0001449F868FCF774FB0346002B04D1124804
:103B000017F094F80123FB75FB7D18461837BD4666
:103B100080BD00BF4C240308602403086C24030804
:103B2000702403087C240308902403089C240308C1
:103B3000C0230308B4230308B4240308CC240308D7
:103B4000E0240308F42403080825030880B400AF28
:103B500000BFBD465DF8047B7047000080B483B0B1
:103B600000AF786039607B68002B02D07B68074A21
:103B700013603B68002B02D03B68054A136000BF0E
:103B80000C37BD465DF8047B704700BF5C00002029
:103B900060000020B0B588B004AFF860B9607A600A
:103BA0007B805E4AFB6813605D4ABB6813605D4AB8
:103BB0007B6813605C4A3B6A13605C4A7B881380B5
:103BC0005B4ABB8C1380554B1B68DB781C46534B00
:103BD0001B681B791D46514B1B685B791A464F4B7E
:103BE0001B689B7919464D4B1B68DB7918464B4B7C
:103BF0001B681B7A03930290019100922B46224688
:103C00004C494D4819F068FA4B4800F03DFA434BD7
:103C10001B685B7A1946414B1B689B7A18463F4BE1
:103C20001B68DB7A1A463D4B1B681B7B0193009295
:103C300003460A464149424819F04EFA404800F00E
:103C400045FA374B1B680233184608F0C5FC03469B
:103C5000002B0CD0324B1B68981C3A4B01933A4B0B
:103C600000933A4B3A4A3B4919F056FA0DE02C4B77
:103C70001B6802333649184608F080FC0346B3F14E
:103C8000FF3F02D14FF0FF3343E0334B0022DA769F
:103C9000314B03221A72304B274ADA602E4B41F225
:103CA00088321A832C4B01229A761D4B1B68843371
:103CB000294A13641A4B1B68A533274AD364184B4F
:103CC0001B68B3F88220254B1A80254B00229A806E
:103CD000234B00221A70224B00229A70204B0022A4
:103CE0005A7005211F4809F011FA0E4B1A680F4B44
:103CF0001B8818460C4B1B680D49098802910193DB
:103D0000009013464FF47A721649174808F04EFD9A
:103D1000002318461037BD46B0BD00BFF804002090
:103D2000F4040020240500202005002002080020C3
:103D3000000800200C250308FC04002028250308A7
:103D40000C050020070800200608002005080020B8
:103D5000040800203425030804000020080800207F
:103D6000780800200C0800201C08002080B582B0D4
:103D700000AF1F4B1B6898471E4B1B881A461E49F5
:103D80001E4809F040FA0346FB801D4B1B6898470C
:103D9000B7F90630012B10D0154B1B689847174B0D
:103DA0001B68DBB2184604F049FE154B1B689847A8
:103DB000FB880A3B9BB21BB216E00D4B1B68984771
:103DC0001049114808F0F8FF0346FB800C4B1B68B4
:103DD0009847B7F90630002B04D0FB88143B9BB200
:103DE0001BB201E0B7F9063018460837BD4680BD62
:103DF0005C00002008080020040800200C080020B7
:103E000060000020040000201C08002080B582B063
:103E100000AF802200217E4819F0AEFA0022032173
:103E20007B4800F073F9002203217A4800F00EFA73
:103E30007848FCF735FA0346774AD360764B754AE3
:103E40009A60764B1B689847734A7149744809F029
:103E500039F80346FB71734B1B68984797F9073095
:103E6000002B02D097F90730CEE06B4B9B880133D3
:103E70009AB2694B9A8080220021654819F07CFA39
:103E800000220521624800F041F900220521614825
:103E900000F0DCF95F48FCF703FA03465E4AD360A2
:103EA0005D4B5C4A9A605D4B1B6898475A4A58497B
:103EB0005B4809F007F80346FB715A4B1B689847AB
:103EC00097F90730002B02D097F907309CE0524B4E
:103ED0009B8801339AB2504B9A80802200214C4833
:103EE00019F04AFA00220421494800F00FF9002293
:103EF0000421484800F0AAF94648FCF7D1F90346E6
:103F0000454AD360444B434A9A60444B1B689847E8
:103F1000414A3F49424808F0D5FF0346FB71414BF7
:103F20001B68984797F90730002B02D097F90730A4
:103F30006AE0394B9B8801339AB2374B9A808022D2
:103F40000021334819F018FA00220621304800F009
:103F5000DDF8002206212F4800F078F92D48FCF703
:103F60009FF903462C4AD3602B4B2A4A9A602B4B6D
:103F70001B689847284A2649294808F0A3FF0346AA
:103F8000FB71284B1B68984797F90730002B02D02C
:103F900097F9073038E0204B9B8801339AB21E4BCB
:103FA0009A80802200211A4819F0E6F900220721A0
:103FB000174800F0ABF800220721164800F046F938
:103FC0001448FCF76DF90346134AD360124B114AAB
:103FD0009A60124B1B6898470F4A0D49104808F029
:103FE00071FF0346FB710F4B1B68984797F9073029
:103FF000002B02D097F9073006E0074B9B8801336E
:104000009AB2054B9A80002318460837BD4680BDFA
:1040100028050020A8050020780800205C0000206A
:104020001C0800206000002080B584B000AF7860DC
:1040300039603868FCF734F903460F4AD3600E4AFA
:104040003B6893600C4B9B8801339AB20A4B9A8071
:104050000A4B1B689847084A7968094808F032FFFC
:104060000346FB73074B1B68984797F90F301846B8
:104070001037BD4680BD00BF780800205C000020DE
:104080001C0800206000002080B584B000AF78607C
:104090000023FB737868FCF703F903460D2B02D964
:1040A0000E23FB7304E07868FCF7FAF80346FB7311
:1040B000FB7B1A467968044819F0B8F900231846C2
:1040C0001037BD4680BD00BF8808002080B582B093
:1040D00000AF78600C4B00221A707868FCF7E0F8AB
:1040E0000346122B0AD87868FCF7DAF803461A461A
:1040F0007968054819F09AF9002301E04FF0FF3381
:1041000018460837BD4680BD9808002080B586B0A7
:1041100004AF78600B46FB701346BB7000217868D3
:1041200019F0F7FAFB78013B062B6CD801A252F884
:1041300023F000BF514101086B410108854101088E
:10414000B94101089F410108D3410108ED4101082F
:10415000BB7802932F4B01932F4B00932F4B304A88
:104160003049786818F0B8FF4EE0BB7802932E4BC8
:104170000193294B00932C4B294A2A49786818F05F
:10418000ABFF41E0294B0293234B0193284B009353
:10419000284B234A2849786818F09EFF34E0274BC3
:1041A00002931D4B0193224B0093224B1C4A224940
:1041B000786818F091FF27E0214B0293164B01938A
:1041C0001B4B00931B4B164A1B49786818F084FF61
:1041D0001AE01C4B0293104B0193154B0093154BA7
:1041E0000F4A1549786818F077FF0DE0164B0293D7
:1041F000094B01930E4B00930E4B094A0E49786808
:1042000018F06AFF00E000BF002318460837BD46DB
:1042100080BD00BF8C0000208808002074000020B2
:1042200064000020103B0308840000207025030870
:10423000782503085025030858250308802503081E
:104240008825030890250308A025030890B597B09A
:1042500012AF78600B46FB701346BB700023FB73F4
:104260007B6800221A70FB78013B062B00F21A8152
:1042700001A252F823F000BFC9420108954201088B
:10428000F7420108A34301084D430108F94301081F
:104290004F440108BB78BA78B978B878854C079450
:1042A000854C0694844C05940490834803900291B5
:1042B00001920093804B804A8049786818F00CFF87
:1042C0000346FB73FB7BF0E0B978BB78BA7879489A
:1042D000059079480490784803900292764A0192BA
:1042E00000930B46744A7649786818F0F5FE034649
:1042F000FB73FB7BD9E06F4B1093724B0F93724BA8
:104300000E93724B0D93724B0C93724B0B936A4B43
:104310000A93714B0993714B0893714B0793664B4A
:1043200006936D4B05936F4B04936F4B03936C4B4C
:1043300002936E4B0193604B0093674B684A6C4944
:10434000786818F0C9FE0346FB73AEE0594B109332
:104350005C4B0F935C4B0E935C4B0D935C4B0C933F
:104360005C4B0B93544B0A935B4B0993614B089343
:10437000614B0793504B0693574B05935F4B049348
:104380005F4B03935C4B0293584B01934A4B009352
:10439000514B594A5649786818F09EFE0346FB7304
:1043A00083E0444B1093474B0F93474B0E93474B7F
:1043B0000D93474B0C93474B0B933F4B0A93464B44
:1043C0000993504B0893504B07933B4B0693424B3A
:1043D00005934E4B04934A4B03934B4B0293434B31
:1043E0000193354B00933C4B474A4149786818F09C
:1043F00073FE0346FB7358E02E4B1093314B0F9323
:10440000314B0E93314B0D93314B0C93314B0B933E
:10441000294B0A93304B09933D4B08933D4B07932F
:10442000254B06932C4B05933B4B0493344B039342
:10443000384B02932D4B01931F4B0093264B354A6B
:104440002B49786818F048FE0346FB732DE0194BA2
:1044500010931C4B0F931C4B0E931C4B0D931C4B3A
:104460000C931C4B0B93144B0A931B4B09932B4B34
:1044700008932B4B0793104B0693174B0593294B2F
:1044800004931F4B0393264B0293184B01930A4B43
:104490000093114B224A1649786818F01DFE034616
:1044A000FB7302E04FF0FF33FFE718461437BD46B9
:1044B00090BD00BF98080020880800202C3B03080E
:1044C000EC3C0308A8250308B0250308B825030819
:1044D000C8250308D825030878250308E82503081C
:1044E00070250308EC250308FC2503082026030893
:1044F000843E030828260308802503082C26030889
:104500003C260308402603088825030844260308A0
:104510005C26030890250308602603088C26030800
:10452000A02503089026030880B584B002AF786008
:104530000B46FB707B6800221A70114B0093114BE5
:10454000114A1249786818F0C7FDFB78012B02D098
:10455000022B06D00BE00B4A0D49786818F0BCFD21
:1045600008E0084A0B49786818F0B6FD02E04FF001
:10457000FF3300E0002318460837BD4680BD00BF6A
:10458000202603088808002078250308B826030899
:1045900094000020A400002080B586B002AFF8602F
:1045A000B96087ED010A7868FBF7E6FF02460B4623
:1045B000CDE90023BA680449F86818F08DFD00BF02
:1045C0001037BD4680BD00BFC4260308B0B584B017
:1045D00000AFF860B96087ED010AF868FBF7AAFF41
:1045E00004460D46B868FBF7A5FF4FF00002174BD5
:1045F000FCF71AF802460B4620462946FCF73EF91E
:1046000002460B4610461946FCF706FB0346104AC5
:1046100013607868FBF7B0FF4FF000020B4BFCF71C
:1046200003F802460B464FF000000A49FCF726F952
:1046300002460B4610461946FCF7EEFA0346064AB8
:10464000136000BF1037BD46B0BD00BF00408F40B3
:10465000B40000200000F03FB800002080B485B016
:1046600000AF78600023BB730223FB730EE0FB7B7B
:104670007A6813441B787B73FB7B7A6813441A783F
:10468000BB7B1344BB73FB7B0133FB73FB7B162BA0
:10469000EDD97B6817331B78BA7B9A4201D101238D
:1046A00000E0002318461437BD465DF8047B7047D0
:1046B00080B582B000AF78607B6801335A2118461C
:1046C000FBF78EFD0346002B02D14FF0FF33A9E02C
:1046D0007868FFF7C3FF0346002B02D16FF0010398
:1046E000A0E07B6802331B781A047B6803331B78D5
:1046F0001B0213447A680432127813444B4A136045
:104700007B6814331B789B09DBB203F00103002B99
:104710000ED07B6805331B781A047B6806331B7840
:104720001B0213447A68073212781344404A13601C
:104730007B6808331B781A047B6809331B781B02DB
:1047400013447A680A32127813443A4A13607B6839
:1047500014331B785B09DBB203F00103002B0ED08E
:104760007B680B331B781A047B680C331B781B02A5
:1047700013447A680D32127813442F4A13607B6811
:104780000E331B781A047B680F331B781B0213440B
:104790007A68103212781344284A13607B68143305
:1047A0001B781B09DBB203F00103002B0ED07B68E2
:1047B00011331B781A047B6812331B781B021344D5
:1047C0007A681332127813441D4A13607B681533DC
:1047D0001B789BB21B029AB27B6816331B789BB284
:1047E00013449AB2174B1A807B6814331B78DB0989
:1047F000DBB203F00103002B04D0134B1B68013321
:10480000114A1360114B1A880E4B1B889A4204D927
:104810000F4B1B6801330E4A13600A4B1A880B4B6F
:104820001A80002318460837BD4680BDAC0800201A
:10483000B0080020BC080020C0080020B4080020F8
:10484000B8080020C8080020C4080020CA080020BA
:10485000CC08002080B400AF0E4B1B68002B02D1A7
:10486000DFED0D6A0DE00D4B1B6807EE903AB8EED8
:10487000677A084B1B6807EE903AF8EE677AC7EE46
:10488000276AF0EE667AB0EE670ABD465DF8047BF3
:10489000704700BFB008002000000000AC080020F6
:1048A00080B582B000AFFFF7D5FF87ED000A0D4B52
:1048B000D3ED007A97ED007A67EE277AC7ED017A9B
:1048C000D7ED017AF5EEC07AF1EE10FA01D5064B7C
:1048D0007B607B6807EE903AB0EE670A0837BD460A
:1048E00080BD00BFB40000205F70893080B400AF8D
:1048F0000E4B1B68002B02D1DFED0D6A0DE00D4B56
:104900001B6807EE903AB8EE677A084B1B6807EE13
:10491000903AF8EE677AC7EE276AF0EE667AB0EE64
:10492000670ABD465DF8047B704700BFC0080020E1
:1049300000000000BC08002080B582B000AFFFF787
:10494000D5FF87ED000A0D4BD3ED007A97ED007A85
:1049500067EE277AC7ED017AD7ED017AF5EEC07AD6
:10496000F1EE10FA01D5064B7B607B6807EE903ABA
:10497000B0EE670A0837BD4680BD00BFB800002012
:104980005F70893080B483B000AF184B1B68002B78
:1049900002D14FF000031FE0154B1A68134B1B6840
:1049A000B2FBF3F307EE903AB8EE677A114BD3ED12
:1049B000007A27EE277A104BD3ED007A67EE277A3C
:1049C000C7ED017AD7ED017AF5EEC07AF1EE10FA73
:1049D00001D50A4B7B607B6807EE903AB0EE670A20
:1049E0000C37BD465DF8047B704700BFB808002057
:1049F000B4080020B4000020B80000205F708930A7
:104A000080B584B000AFFFF74BFF87ED020AFFF7D8
:104A100093FF87ED010A97ED027AD7ED017A67EEF1
:104A2000277AC7ED037AD7ED037AB2EE0E7AF4EE69
:104A3000C77AF1EE10FA01D5044BFB60FB6807EE74
:104A4000903AB0EE670A1037BD4680BD5F7089307E
:104A500080B584B000AFFFF795FF87ED030AFFF73D
:104A6000CFFF87ED020AD7ED027AF5EE407AF1EE3C
:104A700010FA02D14FF07E531EE0D7ED037AF5EE27
:104A8000407AF1EE10FA02D14FF07E5314E097ED28
:104A9000037AD7ED027AB4EEE77AF1EE10FA02DD8E
:104AA0004FF07E5308E0D7ED036A97ED027AC6EE29
:104AB000877AC7ED017A7B6807EE903AB0EE670A15
:104AC0001037BD4680BD000080B400AF034B1B68AB
:104AD0001846BD465DF8047B704700BFCC08002037
:104AE00080B400AF034B1B681846BD465DF8047BDD
:104AF000704700BFC408002080B400AF034B1B8880
:104B00001846BD465DF8047B704700BFC80800200A
:104B1000B0B584B000AFFFF773FF87ED020A384BE2
:104B20001B681846FBF706FD02460B464FF00000D7
:104B30003449FBF7A3FE02460B4614461D46324B92
:104B400093ED007A314BD3ED007A67EE277A17EEBA
:104B5000900AFBF711FD02460B464FF00000294971
:104B6000FBF78CFE02460B4620462946FBF75CFD10
:104B700002460B46104619461DA3D3E90023FBF756
:104B800053FD02460B46104619461BA3D3E90023EA
:104B9000FBF74AFD02460B4610461946FCF73CF867
:104BA00003467B60FFF790FF03461C04FFF7A4FF5A
:104BB000034623443B603B6807EE903AF8EEE76A11
:104BC00097ED017AC6EE877AC7ED037AD7ED037ABF
:104BD000F5EEC07AF1EE10FA01D50D4BFB60FB68E3
:104BE00007EE903AB0EE670A1037BD46B0BD00BF81
:104BF0000000000065CDCD41000000000020AC4069
:104C0000B40800200000F03FB4000020B8000020ED
:104C10005F70893080B400AF00BFBD465DF8047B93
:104C20007047000080B485B000AFF860B9607A606A
:104C30003B60FB68002B03D00E4AFB68D36002E0A8
:104C40000C4B0D4ADA60BB68002B03D0094ABB68E5
:104C5000136102E0074B084A1A61064A7B685360F9
:104C6000044A3B68936000BF1437BD465DF8047B7F
:104C7000704700BFD0080020154C010880B500AF78
:104C800000F09CF8662000F01FFA992000F01CFA52
:104C900000F09EF800BF80BD90B585B000AF786091
:104CA000FFF7ECFF00F0D2F9F860FB683E4A934250
:104CB0003FD0FB683C4A934267D8FB683B4A93422B
:104CC00021D0FB68394A93425FD8FB68384A934247
:104CD00045D0FB68374A934257D1374B354A1A6063
:104CE000354B01229A80344B0122DA80324B4FF44B
:104CF00080521A81304B4FF480725A812E4B4FF400
:104D000000729A8145E02C4B284A1A602A4B0122F6
:104D10009A80294B0122DA80274B4FF480521A8166
:104D2000254B4FF480725A81234B4FF480629A8155
:104D30002FE0214B1C4A1A601F4B01229A801E4B08
:104D40000122DA801C4B4FF480521A811A4B4FF427
:104D500080725A81184B4FF400629A8119E0164B09
:104D6000134A1A60144B01229A80134B0122DA80F5
:104D7000114B4FF480521A810F4B4FF480725A81BD
:104D80000D4B4FF480629A8103E00B4B00221A60B6
:104D900000BF7B68084A1C4613460FCB84E80F000F
:104DA00078681437BD4690BD1740EF001640EF00FD
:104DB0001620C2001540EF00E408002080B500AFC7
:104DC000024BDB68984700BF80BD00BFD0080020C1
:104DD00080B500AF024B1B69984700BF80BD00BF84
:104DE000D008002080B582B000AF786000F07CF978
:104DF000FFF7E4FF202000F067F97B681B0CDBB2B3
:104E0000184600F061F97B681B0ADBB2184600F017
:104E10005BF97B68DBB2184600F056F9FFF7D8FF64
:104E200000F06DF900BF0837BD4680BD80B584B085
:104E300000AFF860B9601346FB8000F055F9FFF74A
:104E4000BDFF022000F040F9BB681B0CDBB2184626
:104E500000F03AF9BB681B0ADBB2184600F034F9DF
:104E6000BB68DBB2184600F02FF907E0FB681B783F
:104E7000184600F029F9FB680133FB60FB885A1ED5
:104E8000FA80002BF2D1FFF7A3FF00F038F900BF42
:104E90001037BD4680BD80B586B000AFF860B96000
:104EA0001346FB800023FB750023BB7500237B7535
:104EB00000233B750023FB74BB687B757B7D5B42E5
:104EC0003B75FB881B0A9BB2FB75FB88BB757B7D22
:104ED000002B24D1FB7D002B14D1FB881A46B96826
:104EE000F868FFF7A3FF7BE04FF48072B968F868B9
:104EF000FFF79CFFBB6803F58073BB60FB6803F59D
:104F00008073FB60FB7D5A1EFA75002BECD1BB7DD4
:104F10009BB21A46B968F868FFF788FF60E0FB7D2E
:104F2000002B25D1BA7D3B7D9A421AD9BA7D3B7DB3
:104F3000D31AFB743B7D9BB21A46B968F868FFF739
:104F400075FF3B7DBA681344BB603B7DFA68134430
:104F5000FB60FB7C9BB21A46B968F868FFF766FFF6
:104F60003EE0FB881A46B968F868FFF75FFF37E054
:104F70003B7D9BB2FA88D31AFB80FB881B0A9BB24D
:104F8000FB75FB88BB753B7D9BB21A46B968F86818
:104F9000FFF74CFF3B7DBA681344BB603B7DFA686A
:104FA0001344FB600DE04FF48072B968F868FFF7B6
:104FB0003DFFBB6803F58073BB60FB6803F580733E
:104FC000FB60FB7D5A1EFA75002BECD1BB7D002BDC
:104FD00006D0BB7D9BB21A46B968F868FFF726FF7A
:104FE00000BF1837BD4680BD80B584B000AFF86003
:104FF000B9601346FB80FFF7E1FE032000F064F880
:10500000BB681B0CDBB2184600F05EF8BB681B0ADD
:10501000DBB2184600F058F8BB68DBB2184600F067
:1050200053F808E000F046F803461A46FB681A7089
:10503000FB680133FB60FB885A1EFA80002BF1D11C
:10504000FFF7C6FE00BF1037BD4680BD80B584B0F7
:1050500000AF0023FB600023BB6000237B600023C4
:105060003B60FFF7ABFEFFF7B3FEFFF7A7FEFFF7CE
:10507000AFFEFFF7A3FE9F2000F026F800F01AF81D
:105080000346BB6000F016F803467B6000F012F8A0
:1050900003463B60FFF79CFEBB681A047B681B025B
:1050A00013433A681343FB60FB6818461037BD464C
:1050B00080BD000080B500AF024B5B689847034697
:1050C000184680BDD008002080B582B000AF0346EE
:1050D000FB71044B9B68FA791046984700BF08376C
:1050E000BD4680BDD008002080B500AFFFF766FE4A
:1050F0000620FFF7E9FFFFF76BFE00BF80BD80B51C
:1051000082B000AF0023FB71FFF758FE0520FFF7C8
:10511000DBFFFFF7CFFF0346FB71FB7903F00103D1
:10512000002BF6D1FFF754FE00BF0837BD4680BD07
:1051300084B080B500AF07F1080C8CE80F00074B76
:10514000184607F108035822194618F0EAFA00BF7A
:10515000BD46BDE8804004B0704700BFF4080020A1
:1051600080B582B000AFF91D41F2883301220448B6
:1051700001F038FAFB7918460837BD4680BD00BFFC
:10518000F408002080B582B000AF0346FB71F91D22
:1051900041F288330122034801F0E1F800BF0837EB
:1051A000BD4680BDF408002080B500AF002210216C
:1051B000024800F067FB00BF80BD00BF0000024056
:1051C00080B500AF01221021024800F05BFB00BF58
:1051D00080BD00BF0000024080B500AF0E4B1B68D1
:1051E0000D4A43F4007313600B4B1B680A4A43F4E7
:1051F00080631360084B1B68074A43F48073136095
:10520000032000F0D8F80F20FDF75AFBFDF73CFA19
:105210000023184680BD00BF003C024080B400AFB0
:10522000064B1B781A46064B1B681344044A13604E
:1052300000BFBD465DF8047B704700BFC000002082
:105240004C09002080B400AF034B1B681846BD46D4
:105250005DF8047B704700BF4C09002080B485B026
:1052600000AF78607B6803F00703FB600C4BDB68E2
:10527000BB60BA684FF6FF031340BB60FB681A02BD
:10528000BB68134343F0BF6343F40033BB60044A7D
:10529000BB68D36000BF1437BD465DF8047B704720
:1052A00000ED00E080B400AF044BDB681B0A03F0A4
:1052B00007031846BD465DF8047B704700ED00E02B
:1052C00080B483B000AF0346FB7197F90730002B21
:1052D0000BDBFB7903F01F02074997F907305B09E5
:1052E000012000FA02F241F8232000BF0C37BD462E
:1052F0005DF8047B704700BF00E100E080B483B03C
:1053000000AF03463960FB7197F90730002B0ADBC9
:105310003B68DAB20C4997F907301201D2B20B445C
:1053200083F800230AE03B68DAB20849FB7903F00E
:105330000F03043B1201D2B20B441A7600BF0C37A4
:10534000BD465DF8047B704700E100E000ED00E041
:1053500080B489B000AFF860B9607A60FB6803F090
:105360000703FB61FB69C3F10703042B28BF042378
:10537000BB61FB690433062B02D9FB69033B00E0E8
:1053800000237B614FF0FF32BB6902FA03F3DA437B
:10539000BB681A407B699A404FF0FF317B6901FA84
:1053A00003F3D9437B680B40134318462437BD46AB
:1053B0005DF8047B704780B582B000AF7860786894
:1053C000FFF74CFF00BF0837BD4680BD80B586B0F3
:1053D00000AF0346B9607A60FB7300237B61FFF77F
:1053E00061FF78617A68B9687869FFF7B1FF0246B2
:1053F00097F90F3011461846FFF780FF00BF1837A6
:10540000BD4680BD80B582B000AF0346FB7197F901
:1054100007301846FFF754FF00BF0837BD4680BD70
:1054200080B582B000AF78607B68002B01D101238A
:105430000EE07B685B79DBB2002B05D17B68002234
:105440001A717868FDF74CF97B6801225A710023C4
:1054500018460837BD4680BD80B584B000AF78607F
:105460007B689B6DFB60FFF7EDFEB8607B6893F88F
:105470003530DBB2022B08D07B6880225A657B680E
:10548000002283F83420012352E07B681B681A68ED
:105490007B681B6822F016021A607B681B685A69D9
:1054A0007B681B6822F080025A617B681B6C002BB2
:1054B00003D17B689B6C002B07D07B681B681A6844
:1054C0007B681B6822F008021A607B681B681A68F8
:1054D0007B681B6822F001021A6013E0FFF7B2FE3E
:1054E0000246BB68D31A052B0CD97B6820225A656B
:1054F0007B68032283F835207B68002283F8342000
:10550000032315E07B681B681B6803F00103002B75
:10551000E4D17B68DB6D3F229A40FB689A607B6830
:10552000012283F835207B68002283F83420002391
:1055300018461037BD4680BD80B483B000AF786098
:105540007B6893F83530DBB2022B04D07B68802275
:105550005A6501230CE07B68052283F835207B68BF
:105560001B681A687B681B6822F001021A6000231E
:1055700018460C37BD465DF8047B704780B489B08F
:1055800000AF7860396000237B6100233B6100231A
:10559000BB610023FB6159E10122FB6902FA03F3BD
:1055A0007B613B681B687A6913403B613A697B69A0
:1055B0009A4240F048813B685B6803F00303012B8B
:1055C00005D03B685B6803F00303022B30D17B6896
:1055D0009B68BB61FB695B00032202FA03F3DB43B8
:1055E000BA691340BB613B68DA68FB695B0002FA89
:1055F00003F3BA691343BB617B68BA699A607B683D
:105600005B68BB610122FB6902FA03F3DB43BA6901
:105610001340BB613B685B681B0903F00102FB6937
:1056200002FA03F3BA691343BB617B68BA695A6033
:105630003B685B6803F00303032B17D07B68DB68D0
:10564000BB61FB695B00032202FA03F3DB43BA6927
:105650001340BB613B689A68FB695B0002FA03F385
:10566000BA691343BB617B68BA69DA603B685B68FF
:1056700003F00303022B23D1FB69DA087B680832AD
:1056800053F82230BB61FB6903F007039B000F2234
:1056900002FA03F3DB43BA691340BB613B681A6942
:1056A000FB6903F007039B0002FA03F3BA69134393
:1056B000BB61FB69DA087B680832B96943F82210DC
:1056C0007B681B68BB61FB695B00032202FA03F382
:1056D000DB43BA691340BB613B685B6803F00302BC
:1056E000FB695B0002FA03F3BA691343BB617B6891
:1056F000BA691A603B685B6803F44033002B00F022
:10570000A2800023FB60574B5B6C564A43F48043F6
:105710005364544B5B6C03F48043FB60FB68524A58
:10572000FB699B08023352F82330BB61FB6903F02D
:1057300003039B000F2202FA03F3DB43BA69134011
:10574000BB617B68494A934219D07B68484A9342BF
:1057500013D07B68474A93420DD07B68464A9342F8
:1057600007D07B68454A934201D1042308E0072310
:1057700006E0032304E0022302E0012300E000230B
:10578000FA6902F0030292009340BA691343BB61C5
:105790003549FB699B080233BA6941F82320384B2D
:1057A0009B68BB613B69DB43BA691340BB613B68E3
:1057B0005B6803F48013002B03D0BA693B69134381
:1057C000BB612F4ABB6993602D4BDB68BB613B69B2
:1057D000DB43BA691340BB613B685B6803F40013A9
:1057E000002B03D0BA693B691343BB61244ABB69F0
:1057F000D360234B5B68BB613B69DB43BA691340F1
:10580000BB613B685B6803F40033002B03D0BA69CB
:105810003B691343BB611A4ABB695360184B1B6851
:10582000BB613B69DB43BA691340BB613B685B68A2
:1058300003F48033002B03D0BA693B691343BB6187
:105840000F4ABB691360FB690133FB61FB690F2BD6
:105850007FF6A2AE00BF00BF2437BD465DF8047BD3
:10586000704700BF0038024000380140000002408D
:105870000004024000080240000C024000100240F8
:10588000003C014080B483B000AF78600B467B8061
:1058900013467B707B78002B03D07A887B689A61F3
:1058A00003E07B881A047B689A6100BF0C37BD4611
:1058B0005DF8047B7047000080B586B000AF78606B
:1058C0007B68002B01D1012367E27B681B6803F032
:1058D0000103002B75D0884B9B6803F00C03042B4D
:1058E0000CD0854B9B6803F00C03082B12D1824B24
:1058F0005B6803F48003B3F5800F0BD17E4B1B680C
:1059000003F40033002B5BD07B685B68002B57D11E
:10591000012342E27B685B68B3F5803F06D1764B9A
:105920001B68754A43F4803313601DE07B685B6835
:10593000B3F5A02F0CD1704B1B686F4A43F4802342
:1059400013606D4B1B686C4A43F4803313600BE0AB
:10595000694B1B68684A23F480331360664B1B68ED
:10596000654A23F4802313607B685B68002B13D0A7
:10597000FFF768FC386108E0FFF764FC02463B690A
:10598000D31A642B01D9032307E25B4B1B6803F492
:105990000033002BF0D014E0FFF754FC386108E02E
:1059A000FFF750FC02463B69D31A642B01D903234D
:1059B000F3E1514B1B6803F40033002BF0D100E0FE
:1059C00000BF7B681B6803F00203002B63D04A4BC7
:1059D0009B6803F00C03002B0BD0474B9B6803F034
:1059E0000C03082B1CD1444B5B6803F48003002B91
:1059F00016D1414B1B6803F00203002B05D07B68D6
:105A0000DB68012B01D00123C7E13B4B1B6823F06E
:105A1000F8027B681B69DB00374913430B603AE0EF
:105A20007B68DB68002B20D0344B01221A60FFF723
:105A300009FC386108E0FFF705FC02463B69D31A10
:105A4000022B01D90323A8E12B4B1B6803F00203AF
:105A5000002BF0D0284B1B6823F0F8027B681B69F1
:105A6000DB00254913430B6015E0244B00221A602C
:105A7000FFF7E8FB386108E0FFF7E4FB02463B690B
:105A8000D31A022B01D9032387E11B4B1B6803F0B8
:105A90000203002BF0D17B681B6803F00803002B86
:105AA00036D07B685B69002B16D0154B01221A603B
:105AB000FFF7C8FB386108E0FFF7C4FB02463B690B
:105AC000D31A022B01D9032367E10B4B5B6F03F061
:105AD0000203002BF0D01BE0094B00221A60FFF7F5
