:020000040800F2
:1000000000000120D9280008D5260008DB260008BA
:10001000E1260008E7260008ED26000800000000A1
:10002000000000000000000000000000C1250108E1
:10003000F3260008000000001128010819F3000849
:100040002929000829290008292900082929000848
:100050002929000829290008292900082929000838
:100060002929000829290008292900082929000828
:100070002929000829290008292900082929000818
:100080002929000829290008292900080000000062
:100090000000000000000000000000002929000806
:1000A0002929000801270008292900082929000812
:1000B00029290008292900082929000829290008D8
:1000C00029290008292900082929000829290008C8
:1000D0002929000829290008152700080000000028
:1000E0002929000829290008292900080000000002
:1000F00000000000000000000000000029290008A6
:1001000000000000292900082929000829290008E1
:1001100000000000000000000000000000000000DF
:100120002929000829290008292900082929000867
:100130002929000800000000000000000000000065
:100140000000000000000000000000002929000855
:100150002929000829290008292900082929000837
:1001600029290008292900080000000000000000DB
:10017000000000000000000000000000000000007F
:100180000000000029290008000000000000000015
:040190002929000811
:1001A00010B5054C237833B9044B13B10448AFF3B1
:1001B00000800123237010BDF80200200000000021
:1001C0004400020808B5034B1BB103490348AFF3D1
:1001D000008008BD00000000FC020020440002086E
:1001E00010F8012B11F8013B012A28BF9A42F7D0E1
:1001F000D01A70470000000000000000000000005E
:1002000001F0FF01102A2BDB10F0070F08D010F8C7
:10021000013B013A8B422DD010F0070F42B3F6D1CB
:10022000F0B441EA012141EA014122F007047FF0E4
:1002300000070023F0E80256083C85EA010586EA3B
:10024000010685FA47F5A3FA87F586FA47F6A5FA77
:1002500087F68EB9EED1F0BC01F0FF0102F0070283
:1002600032B110F8013B013A83EA010313B1F8D12E
:100270000020704701387047002D06BF354603380F
:10028000073815F0010F07D1013015F4807F02BF48
:10029000013015F4C03F0130F0BC0138704700BF99
:1002A000034613F8012B002AFBD1181A01387047B6
:1002B00081F0004102E000BF83F0004330B54FEA17
:1002C00041044FEA430594EA050F08BF90EA020F84
:1002D0001FBF54EA000C55EA020C7FEA645C7FEA17
:1002E000655C00F0E2804FEA5454D4EB5555B8BF3A
:1002F0006D420CDD2C4480EA020281EA030382EAAB
:10030000000083EA010180EA020281EA0303362D3C
:1003100088BF30BD11F0004F4FEA01314FF4801C0F
:100320004CEA113102D0404261EB410113F0004F21
:100330004FEA03334CEA133302D0524263EB4303D8
:1003400094EA050F00F0A780A4F10104D5F1200E76
:100350000DDB02FA0EFC22FA05F2801841F10001D1
:1003600003FA0EF2801843FA05F359410EE0A5F1A5
:1003700020050EF1200E012A03FA0EFC28BF4CF0D6
:10038000020C43FA05F3C01851EBE37101F000458C
:1003900007D54FF0000EDCF1000C7EEB00006EEB99
:1003A0000101B1F5801F1BD3B1F5001F0CD3490823
:1003B0005FEA30004FEA3C0C04F101044FEA44527A
:1003C00012F5800F80F09A80BCF1004F08BF5FEA01
:1003D000500C50F1000041EB045141EA050130BDE1
:1003E0005FEA4C0C404141EB0101013C28BFB1F5F3
:1003F000801FE9D291F0000F04BF01460020B1FA3E
:1004000081F308BF2033A3F10B03B3F120020CDA10
:100410000C3208DD02F1140CC2F10C0201FA0CF0EE
:1004200021FA02F10CE002F11402D8BFC2F1200C53
:1004300001FA02F120FA0CFCDCBF41EA0C01904009
:10044000E41AA2BF01EB0451294330BD6FEA040452
:100450001F3C1CDA0C340EDC04F11404C4F120023D
:1004600020FA04F001FA02F340EA030021FA04F34F
:1004700045EA030130BDC4F10C04C4F1200220FAA6
:1004800002F001FA04F340EA0300294630BD21FAE4
:1004900004F0294630BD94F0000F83F4801306BFAA
:1004A00081F480110134013D4EE77FEA645C18BF9E
:1004B0007FEA655C29D094EA050F08BF90EA020F35
:1004C00005D054EA000C04BF1946104630BD91EA2D
:1004D000030F1EBF0021002030BD5FEA545C05D130
:1004E0004000494128BF41F0004130BD14F580046F
:1004F0003CBF01F5801130BD01F0004545F0FE41E3
:1005000041F470014FF0000030BD7FEA645C1ABF17
:10051000194610467FEA655C1CBF0B46024650EA4E
:10052000013406BF52EA033591EA030F41F400217A
:1005300030BD00BF90F0000F04BF0021704730B500
:100540004FF4806404F132044FF000054FF00001D5
:1005500050E700BF90F0000F04BF0021704730B596
:100560004FF4806404F1320410F0004548BF40426B
:100570004FF000013EE700BF42004FEAE2014FEAC0
:1005800031014FEA02701FBF12F07F4393F07F4F9B
:1005900081F06051704732F07F4208BF704793F09E
:1005A0007F4F04BF41F40021704730B54FF46074B1
:1005B00001F0004521F000411CE700BF50EA0102B4
:1005C00008BF704730B54FF000050AE050EA01025D
:1005D00008BF704730B511F0004502D5404261EBCD
:1005E00041014FF4806404F132045FEA915C3FF40E
:1005F000D8AE4FF003025FEADC0C18BF03325FEAAB
:10060000DC0C18BF033202EBDC02C2F1200300FA5B
:1006100003FC20FA02F001FA03FE40EA0E0021FA80
:1006200002F11444BDE600BF70B54FF0FF0C4CF46E
:10063000E06C1CEA11541DBF1CEA135594EA0C0F20
:1006400095EA0C0F00F0DEF82C4481EA030621EA5B
:100650004C5123EA4C5350EA013518BF52EA033596
:1006600041F4801143F4801338D0A0FB02CE4FF048
:100670000005E1FB02E506F00042E0FB03E54FF078
:100680000006E1FB03569CF0000F18BF4EF0010E70
:10069000A4F1FF04B6F5007F64F5407404D25FEA6C
:1006A0004E0E6D4146EB060642EAC62141EA55511F
:1006B0004FEAC52040EA5E504FEACE2EB4F1FD0C61
:1006C00088BFBCF5E06F1ED8BEF1004F08BF5FEADF
:1006D000500E50F1000041EB045170BD06F0004691
:1006E00046EA010140EA020081EA0301B4EB5C043E
:1006F000C2BFD4EB0C0541EA045170BD41F4801136
:100700004FF0000E013C00F3AB8014F1360FDEBF5A
:10071000002001F0004170BDC4F10004203C35DA36
:100720000C341BDC04F11404C4F1200500FA05F3B9
:1007300020FA04F001FA05F240EA020001F000425A
:1007400021F0004110EBD37021FA04F642EB0601D0
:100750005EEA430E08BF20EAD37070BDC4F10C04FA
:10076000C4F1200500FA04F320FA05F001FA04F2BE
:1007700040EA020001F0004110EBD37041F10001AA
:100780005EEA430E08BF20EAD37070BDC4F12005B5
:1007900000FA05F24EEA020E20FA04F301FA05F21D
:1007A00043EA020321FA04F001F0004121FA04F2C5
:1007B00020EA020000EBD3705EEA430E08BF20EA95
:1007C000D37070BD94F0000F0FD101F000464000CF
:1007D00041EB010111F4801F08BF013CF7D041EA51
:1007E000060195F0000F18BF704703F00046520055
:1007F00043EB030313F4801F08BF013DF7D043EA26
:100800000603704794EA0C0F0CEA135518BF95EADB
:100810000C0F0CD050EA410618BF52EA4306D1D162
:1008200081EA030101F000414FF0000070BD50EA81
:10083000410606BF1046194652EA430619D094EA0B
:100840000C0F02D150EA013613D195EA0C0F05D1F5
:1008500052EA03361CBF104619460AD181EA030149
:1008600001F0004141F0FE4141F470014FF0000001
:1008700070BD41F0FE4141F4780170BD70B54FF09C
:10088000FF0C4CF4E06C1CEA11541DBF1CEA13551C
:1008900094EA0C0F95EA0C0F00F0A7F8A4EB0504FE
:1008A00081EA030E52EA03354FEA013100F08880F5
:1008B0004FEA03334FF0805545EA131343EA1263BE
:1008C0004FEA022245EA111545EA10654FEA002673
:1008D0000EF000419D4208BF964244F1FD0404F52C
:1008E000407402D25B084FEA3202B61A65EB030588
:1008F0005B084FEA32024FF480104FF4002CB6EB45
:10090000020E75EB030E22BFB61A754640EA0C00C4
:100910005B084FEA3202B6EB020E75EB030E22BF04
:10092000B61A754640EA5C005B084FEA3202B6EB45
:10093000020E75EB030E22BFB61A754640EA9C0004
:100940005B084FEA3202B6EB020E75EB030E22BFD4
:10095000B61A754640EADC0055EA060E18D04FEA92
:10096000051545EA16754FEA06164FEAC30343EA32
:1009700052734FEAC2025FEA1C1CC0D111F4801FFF
:100980000BD141EA00014FF000004FF0004CB6E7F8
:1009900011F4801F04BF01430020B4F1FD0C88BF97
:1009A000BCF5E06F3FF6AFAEB5EB030C04BFB6EBA2
:1009B000020C5FEA500C50F1000041EB045170BD95
:1009C0000EF0004E4EEA113114EB5C04C2BFD4EBC2
:1009D0000C0541EA045170BD41F480114FF0000E46
:1009E000013C90E645EA060E8DE60CEA135594EAC2
:1009F0000C0F08BF95EA0C0F3FF43BAF94EA0C0FC5
:100A00000AD150EA01347FF434AF95EA0C0F7FF439
:100A100025AF104619462CE795EA0C0F06D152EA8D
:100A200003353FF4FDAE1046194622E750EA410671
:100A300018BF52EA43067FF4C5AE50EA41047FF482
:100A40000DAF52EA43057FF4EBAE12E74FF0FF3CE7
:100A500006E000BF4FF0010C02E000BF4FF0010CB8
:100A60004DF804CD4FEA410C7FEA6C5C4FEA430C31
:100A700018BF7FEA6C5C1BD001B050EA410C0CBF80
:100A800052EA430C91EA030F02BF90EA020F0020E2
:100A9000704710F1000F91EA030F58BF994208BF49
:100AA00090422CBFD8176FEAE37040F00100704706
:100AB0004FEA410C7FEA6C5C02D150EA013C07D15D
:100AC0004FEA430C7FEA6C5CD6D152EA033CD3D0A8
:100AD0005DF8040B704700BF8446104662468C46A2
:100AE0001946634600E000BF01B5FFF7B7FF0028D5
:100AF00048BF10F1000F01BD4DF808EDFFF7F4FFFE
:100B00000CBF012000205DF808FB00BF4DF808ED88
:100B1000FFF7EAFF34BF012000205DF808FB00BFAB
:100B20004DF808EDFFF7E0FF94BF012000205DF8CD
:100B300008FB00BF4DF808EDFFF7CEFF94BF012082
:100B400000205DF808FB00BF4DF808EDFFF7C4FF7B
:100B500034BF012000205DF808FB00BF4FEA410CC4
:100B60007FEA6C5C02D150EA013C0AD14FEA430CA7
:100B70007FEA6C5C02D152EA033C02D14FF00000E4
:100B800070474FF0010070474FEA410212F5001222
:100B900015D211D56FF47873B3EB625212D94FEAC4
:100BA000C12343F0004343EA505311F0004F23FAAE
:100BB00002F018BF404270474FF00000704750EA03
:100BC000013005D111F0004008BF6FF000407047C0
:100BD0004FF00000704700BF4A0011D212F500121A
:100BE00011D20DD56FF47873B3EB62520ED44FEA85
:100BF000C12343F0004343EA505323FA02F0704705
:100C00004FF00000704750EA013002D14FF0FF3042
:100C100070474FF0000070474FEA4102B2F1E043E5
:100C200024BFB3F5001CDCF1FE5C0DD901F0004CD3
:100C30004FEAC0024CEA5070B2F1004F40EB830023
:100C400008BF20F00100704711F0804F21D113F14F
:100C50003872BCBF01F00040704741F480114FEA88
:100C60005252C2F11802C2F1200C10FA0CF320FA11
:100C700002F018BF40F001004FEAC1234FEAD3232E
:100C800003FA0CFC40EA0C0023FA02F34FEA430398
:100C9000CCE77FEA625307D150EA01331EBF4FF021
:100CA000FE4040F44000704701F0004040F0FE403C
:100CB00040F40000704700BF53B94AB9002908BF8B
:100CC00000281CBF4FF0FF314FF0FF3000F0BAB9E1
:100CD000ADF1080C6DE904CE00F050F8DDF804E049
:100CE000DDE9022304B07047430803F05533C01A0E
:100CF000830803F0333300F03330184400EB101056
:100D000000F00F3000EB002000EB0040000E7047B9
:100D100038B50022002304460D46FFF7F7FE28B938
:100D200020462946BDE8384000F00AB8204605F1C3
:100D3000004100F005F8404261EB410138BD00BFC1
:100D4000D0B50C4B002206460F46FFF76DFCFFF7AF
:100D500043FF0446FFF7EEFB074B0022FFF764FC5E
:100D600002460B4630463946FFF7A6FAFFF734FF36
:100D70002146D0BD0000F03D0000F0412DE9F047D4
:100D8000089E0D4604460F46002B4AD18A429446DF
:100D900065D9B2FA82F343B102FA03FCC3F120022F
:100DA0009F4020FA02F217439C404FEA1C4E1FFA64
:100DB0008CF5B7FBFEF1220C0EFB117742EA0742DD
:100DC00001FB05F090420AD91CEB020201F1FF374A
:100DD00080F01C81904240F2198102396244121A5B
:100DE000A4B2B2FBFEF00EFB102244EA024400FB68
:100DF00005F5A5420AD91CEB040400F1FF3280F08E
:100E00000781A54240F204816444023840EA01406F
:100E1000641B00211EB1DC400023C6E90043BDE88D
:100E2000F0878B4208D9002E00F0ED800021C6E942
:100E300000050846BDE8F087B3FA83F1002949D1DF
:100E4000AB4202D3824200F2F880841A65EB0302BF
:100E500001201746002EE2D0C6E90047DFE702B9BD
:100E6000FFDEB2FA82F3002B40F090808A1A4FEA3C
:100E70001C471FFA8CFE0121B2FBF7F507FB15207A
:100E8000220C42EA00420EFB05F0904208D91CEB0E
:100E9000020205F1FF3802D2904200F2CB804546B3
:100EA000121AA4B2B2FBF7F007FB102244EA024484
:100EB0000EFB00FEA64508D91CEB040400F1FF322E
:100EC00002D2A64500F2BB801046A4EB0E0440EA15
:100ED00005409FE7C1F120078B4022FA07FC4CEA4E
:100EE000030C05FA01F420FA07F3FD404FEA1C4910
:100EF0002343B5FBF9F81FFA8CFE09FB18551C0CAF
:100F000044EA054408FB0EF5A54202FA01F200FA94
:100F100001F00BD91CEB040408F1FF3A80F0888043
:100F2000A54240F28580A8F102086444641B9DB28A
:100F3000B4FBF9F309FB134445EA044403FB0EFE3A
:100F4000A64508D91CEB040403F1FF356CD2A64575
:100F50006AD9023B644443EA0843A3FB0295A4EB2D
:100F60000E04AC42C846AE4656D353D056B1B0EB91
:100F7000080264EB0E0404FA07F7CA40CC4017439A
:100F8000C6E9007418460021BDE8F087C3F12001CE
:100F900002FA03FC20FA01F225FA01F19D402A43EE
:100FA0004FEA1C471FFA8CFEB1FBF7F007FB101548
:100FB000110C41EA054100FB0EF58D4204FA03F4E1
:100FC00008D91CEB010100F1FF382FD28D422DD939
:100FD00002386144491B92B2B1FBF7F507FB1511CA
:100FE00042EA014205FB0EF1914208D91CEB0202D4
:100FF00005F1FF3816D2914214D9023D6244521ACB
:1010000045EA004138E73146304608E73946E6E62A
:101010001046FBE64845A9D2B9EB020865EB0C0E79
:10102000013BA3E74546EAE72B4694E74046D1E774
:10103000D0467BE7023D624432E708460AE7644453
:10104000023842E7704700BF80B582B000AF7860D9
:101050000B467B807B681B68084A93420AD17B88D9
:10106000182B07D1064B18680023002205490EF003
:1010700023FC00BF00BF0837BD4680BD00440040D0
:10108000340400205C04002080B500AF044B1B68D2
:101090004FF0FF3118460EF014FB00BF80BD00BFBB
:1010A0004C04002080B500AF034B1B6818460EF0BF
:1010B00053FB00BF80BD00BF4C04002080B500AFD3
:1010C000044B1B684FF0FF3118460EF0FAFA00BFD0
:1010D00080BD00BF5004002080B500AF034B1B68EB
:1010E00018460EF039FB00BF80BD00BF5004002041
:1010F00080B500AF044B1B684FF0FF3118460EF06F
:10110000E0FA00BF80BD00BF5404002080B500AFEE
:10111000034B1B6818460EF01FFB00BF80BD00BFCD
:101120005404002080B500AF044B1B684FF0FF3122
:1011300018460EF0C6FA00BF80BD00BF580400205C
:1011400080B500AF034B1B6818460EF005FB00BFCF
:1011500080BD00BF5804002080B500AF03F0D2FC72
:1011600000F0F8F84E480AF061FE00F009FA00F0CD
:10117000DBF900F06DF900F0A1F90EF09BF800F03A
:1011800053F90EF097F80EF0E1F846480EF013FA16
:101190000346454A136045480EF00DFA0346444A9B
:1011A000136044480EF007FA0346434A136043486D
:1011B0000EF001FA0346424A1360424A1E21012002
:1011C0000EF007FB0346404A1360404A20210120ED
:1011D0000EF0FFFA03463E4A13603E4A18210120F2
:1011E0000EF0F7FA03463C4A13603C4A08210120FE
:1011F0000EF0EFFA03463A4A13603A4AC62101203C
:101200000EF0E7FA0346384A1360384A02210120FB
:101210000EF0DFFA0346364A1360364A002136489C
:101220000EF0DEF80346354A1360354A0021354892
:101230000EF0D6F80346344A1360344A002134488D
:101240000EF0CEF80346334A1360334A0021334888
:101250000EF0C6F80346324A1360324A0021324883
:101260000EF0BEF80346314A1360314A002131487E
:101270000EF0B6F80346304A1360304A0021304879
:101280000EF0AEF803462F4A13602F4A00212F4874
:101290000EF0A6F803462E4A13600EF07BF8FEE728
:1012A000B9F00008742602084C04002084260208C5
:1012B000500400209426020854040020A4260208AA
:1012C00058040020E425020834040020FC2502080C
:1012D00038040020142602083C0400202C260208B2
:1012E0004004002044260208440400205C26020832
:1012F00048040020C42402087516000814040020C5
:10130000E824020885160008180400200C250208AD
:10131000CD1700081C040020302502083D1A0008E3
:101320002004002054250208651A00082404002027
:1013300078250208E11F0008280400209C250208E7
:101340007D2000082C040020C0250208F12100089F
:101350003004002080B594B000AF07F120033022A4
:10136000002118461AF0A0FE07F10C0300221A60B3
:101370005A609A60DA601A610023BB60284B1B6CCC
:10138000274A43F080531364254B1B6C03F08053B2
:10139000BB60BB6800237B60224B1B6823F4404387
:1013A000204A43F4004313601E4B1B6803F4404380
:1013B0007B607B6801233B624FF480337B620223B6
:1013C000BB634FF48003FB6304233B6454237B64BF
:1013D0000223BB640423FB6407F12003184603F0D7
:1013E00001FF0346002B01D000F0E0FF0F23FB605C
:1013F00002233B6100237B614FF48053BB610023D8
:10140000FB6107F10C030221184604F063F903465F
:10141000002B01D000F0CAFF00BF5037BD4680BD91
:10142000003802400070004080B500AF064B074A0C
:101430001A60054803F08AFC0346002B01D000F037
:10144000B5FF00BF80BD00BF140300200030024084
:1014500080B500AF174B184A1A60164B4FF48272D2
:101460005A60144B00229A60124B0022DA60114B32
:1014700002221A610F4B01225A610E4B4FF4007287
:101480009A610C4B0022DA610A4B00221A62094B66
:1014900000225A62074B00229A62064B0A22DA6245
:1014A000044804F069FB0346002B01D000F07EFFE6
:1014B00000BF80BD1C0300200030014080B500AF9C
:1014C000174B184A1A60164B4FF482725A60144B2D
:1014D00000229A60124B0022DA60114B02221A613C
:1014E0000F4B01225A610E4B4FF400729A610C4B64
:1014F0000022DA610A4B00221A62094B00225A626A
:10150000074B00229A62064B0A22DA62044804F072
:1015100033FB0346002B01D000F048FF00BF80BD25
:1015200074030020003C004080B500AF124B134A0A
:101530001A60114B4FF496525A600F4B4FF4805281
:101540009A600D4B0022DA600B4B4FF480621A61F7
:10155000094B04225A61084B00229A61064B002273
:10156000DA61054805F052FB0346002B01D000F07C
:101570001DFF00BF80BD00BFCC0300200044004021
:1015800080B588B000AF07F10C0300221A605A60E2
:101590009A60DA601A610023BB60334B1B6B324ADE
:1015A00043F080031363304B1B6B03F08003BB607D
:1015B000BB6800237B602C4B1B6B2B4A43F0010361
:1015C0001363294B1B6B03F001037B607B680023D3
:1015D0003B60254B1B6B244A43F002031363224BF1
:1015E0001B6B03F002033B603B68012210211F4884
:1015F00003F0DEFD00224FF400411C4803F0D8FD4B
:10160000002240211A4803F0D3FD1023FB60012380
:101610003B6100237B610323BB6107F10C03194687
:10162000124803F041FC4FF40043FB6001233B618F
:1016300000237B610023BB6107F10C0319460B48B3
:1016400003F032FC4023FB6001233B6100237B61FC
:101650000023BB6107F10C031946054803F024FC85
:1016600000BF2037BD4680BD003802400000024068
:101670000004024080B582B000AF786001200DF018
:101680007FFFFBE780B594B000AF7860474B3B61CC
:1016900000233B73464B186807F10C01022300221C
:1016A0000EF0C4FC424B1B6807F10C0100221846E7
:1016B0000FF042F818223F493F4805F0F7FA64203E
:1016C0000DF05EFFD7ED047AB0EE670A4FF47A7141
:1016D0003A4802F06BFC3A4B1B6818460EF0AAF928
:1016E0000346002B40D0364B186807F12C014FF40D
:1016F0007A7300220EF040F907F12C03184602F02D
:10170000C7FC0346002B2FD102F0A2FEF0EE407A78
:10171000C7ED077A02F0C4FDF0EE407AC7ED057A16
:1017200002F04AFEF0EE407AC7ED097A02F012FEAE
:10173000F0EE407AC7ED087A02F0F2FDF0EE407A62
:10174000C7ED067A02F053FEF0EE407AC7ED0A7A52
:101750001C4B186807F11401022300220EF066FCEE
:1017600002E0194B5B68FB6418221249124805F02D
:101770009DFA0346012BF4D04FF47A700DF000FF70
:101780000B4B1B6807F10C01002218460EF0D4FF2A
:101790003B7B002B9FD000233B73054B186807F160
:1017A0000C01022300220EF041FC7BE76F12833A0A
:1017B000400400205C040020CC030020C0AF1C00CB
:1017C000340400203C0400200044004090B5ADF2F9
:1017D0002C4D12AF07F57873A3F577731860874C1B
:1017E000684604F11003482219461AF032FE94E8C4
:1017F0000F0003F033F9824B824A8349834802F099
:10180000A7FE07F1E00207F5F07107F538704FF415
:10181000807317F08BFF7E497E4817F06BFF17F03F
:10182000BDFF0346002B03DA17F0E0FF17F0B6FF09
:10183000794818F065F80346002B0FDD07F1D80151
:1018400008230022744817F0DDFF744B186807F175
:10185000D801022300220EF0E9FB13E007F57873AC
:10186000A3F542736E4A5A6007F57873A3F5427385
:1018700001221A70694B186807F1D801022300226F
:101880000EF0D4FB674818F03BF80346002B0FDD41
:1018900007F11001C6230022624817F0B3FF624B24
:1018A000186807F11001022300220EF0BFFB13E0BD
:1018B00007F57873A3F5747301221A7007F578732E
:1018C000A3F5747300225A70574B186807F1100182
:1018D000022300220EF0AAFB544818F011F8034628
:1018E000002B0FDD07F10C01022300224F4817F0F7
:1018F00089FF4F4B186807F10C01022300220EF0FC
:1019000095FB0BE007F57873A3F5757300225A7009
:1019100007F57873A3F5757301221A70454818F01E
:101920006BF8454818F068F83C4B1B6807F1D80184
:10193000002218460EF000FF07F57873A3F54273F6
:101940001B78002B14D007F57873A3F5427300229F
:101950001A7007F1D803082219462F4817F096FF8E
:101960002E4B186807F1D801022300220EF05EFB0F
:101970002D4B1B6807F11001002218460EF0DCFE0B
:1019800007F57873A3F574731B78002B14D007F553
:101990007873A3F5747300221A7007F11003C6223E
:1019A0001946204817F072FF1F4B186807F1100105
:1019B000022300220EF03AFB1D4B1B6807F10C01BD
:1019C000002218460EF0B8FE07F57873A3F575737C
:1019D0001B78002B0CD007F57873A3F575730022E4
:1019E0001A7007F10C0302221946104817F04EFF37
:1019F0004FF47A700DF0C4FD96E700BF1C03002081
:101A0000B14A00088D4A0008ED4A0008D54A00088E
:101A1000D9100008BD1000085C0102084004002035
:101A20006F12833A6C010208440400207C01020812
:101A300048040020900102089801020880B584B093
:101A400000AF78600023FB60FB680133FB6009F0A6
:101A5000C7FC0DF0A1F80AF04FFA4FF47A700DF0C0
:101A60008FFDF1E790B5ADF5845D83B012AF07F15E
:101A7000400343F83C0C07F5805303F10803202290
:101A8000002118461AF010FB07F5815303F10803F3
:101A90001722002118461AF007FB402307F5815250
:101AA00002F108021370082307F5815202F10902BE
:101AB0001370DC4B1B7807F5815202F10A02137098
:101AC000D94B1B7807F5815202F10B021370D74BEB
:101AD0001B7807F5815202F10C021370D44B1B786E
:101AE00007F5815202F10D02137007F5805303F1DF
:101AF0000B0307F5815202F1080210681860928802
:101B00009A80022307F5815202F11E02137007F535
:101B1000815303F10E031B6807F5805202F1110295
:101B2000136007F5815303F112031B6807F5805218
:101B300002F11502136007F5815303F116031B68C8
:101B400007F5805202F11902136007F5815303F182
:101B50001A031B6807F5805202F11D021360B54C91
:101B6000684604F11003482219461AF072FC94E802
:101B70000F000DF063FBB049B0480DF00BFBB0480F
:101B80000DF0F0FA07F5815303F1080318460DF044
:101B9000EDF9AC49AC4807F06DFBAC49AC4807F037
:101BA00043FBAC49AC4807F019FBAC4AAC49AC4824
:101BB00008F0C4F807F12003183B4FF400621946FF
:101BC00004200AF045F9A7480AF030F9A649A748C9
:101BD0000AF010F907F5815303F11E031B7807F58E
:101BE000815202F101021370002307F5805202F1C5
:101BF000080213700DF078FA0346002B40F0EB81D9
:101C00004FF4FA700FF074FA07F5815303F10803EB
:101C1000062219464FF4106006F09CF807F5815330
:101C200003F11E031B78022B06D107F608031946A1
:101C3000002009F02BFB03E00DF0A8F90DF048FAA5
:101C4000FFF756FA0DF0F2F90DF008FA0346002BF3
:101C500040F0E080002307F5815202F10E0213707C
:101C6000002307F5815202F10F021370002307F5DC
:101C7000815202F110021370002307F5815202F124
:101C800011021370002307F5815202F11202137042
:101C9000002307F5815202F113021370002307F5A8
:101CA000815202F114021370002307F5815202F1F0
:101CB00015021370002307F5815202F1160213700A
:101CC000002307F5815202F117021370002307F574
:101CD000815202F118021370002307F5815202F1BC
:101CE00019021370002307F5815202F11A021370D2
:101CF000002307F5815202F11B021370002307F540
:101D0000815202F11C021370002307F5815202F187
:101D10001D021370FFF7FAF9002307F5815202F153
:101D20001F0213705AE007F5815303F11F031A785D
:101D300007F5815303F11F031B7802F582523A44E1
:101D400012F8122C03F582533B4403F82F2C07F5AD
:101D5000815303F11F031A7807F5815303F11F0321
:101D60001B7802F582523A4412F80E2C03F5825386
:101D70003B4403F82B2C07F5815303F11F031A781A
:101D800007F5815303F11F031B7802F582523A4491
:101D900012F80A2C03F582533B4403F8272C07F56D
:101DA000815303F11F031A7807F5815303F11F03D1
:101DB0001B7802F582523A4412F8062C03F582533E
:101DC0003B4403F8232C07F5815303F11F031B78D1
:101DD000013307F5815202F11F02137007F5815399
:101DE00003F11F031B78032B9DD9002307F58052B5
:101DF00002F1080213701E4B186807F5805101F1BB
:101E00000801022300220EF011F900BF01200DF09D
:101E1000B7FBDFE6002307F5815202F11F021370C2
:101E200083E000BF107AFF1F117AFF1F127AFF1F95
:101E3000137AFF1F74030020F5F10008DDF100089C
:101E400081F500086DF2000891F2000825F2000803
:101E50000DF20008A510000889100008C1EF000865
:101E6000D9EF0008B9F00008411100082511000859
:101E70003804002007F5815303F11F031A7807F592
:101E8000815303F11F031B7802F582523A4412F882
:101E9000122C03F582533B4403F82F2C07F5815392
:101EA00003F11F031A7807F5815303F11F031B7811
:101EB00002F582523A4412F80E2C03F582533B4449
:101EC00003F82B2C07F5815303F11F031A7807F54C
:101ED000815303F11F031B7802F582523A4412F832
:101EE0000A2C03F582533B4403F8272C07F5815352
:101EF00003F11F031A7807F5815303F11F031B78C1
:101F000002F582523A4412F8062C03F582533B4400
:101F100003F8232C07F5815303F11F031B780133CA
:101F200007F5815202F11F02137007F5815303F187
:101F30001F031B78032B9DD9012307F5805202F163
:101F4000080213700DF0ACF80346DBB207F58052BF
:101F500002F10A0213700DF097F80346DBB207F5A1
:101F6000805202F10902137009F0C8FA034607F51E
:101F7000815202F104021360FFF7C8F807F581539C
:101F800003F10E031B78002B0ED1144B186807F5D4
:101F9000805101F10801022300220EF047F84FF4AE
:101FA0007A700DF0EDFA15E007F5805303F10803A0
:101FB0001533184609F066FF084B186807F580517D
:101FC00001F10801022300220EF030F84FF47A707C
:101FD0000DF0D6FA34E600BFFCE500BF380400205F
:101FE00080B584B000AF78601D4B1B6818460DF0BB
:101FF00089FAF8601B4B1B6818460DF083FAF860ED
:10200000194B1B6818460DF07DFAF860174B1B68DA
:1020100018460DF077FAF860154B1B6818460DF05E
:1020200071FAF860134B1B6818460DF06BFAF860F4
:10203000114B1B6818460DF065FAF86000200DF092
:1020400061FAF86000200DF05DFAF86000200DF0F4
:1020500059FAF8604FF47A700DF092FAC4E700BFB5
:1020600014040020180400201C0400202004002078
:1020700024040020280400202C04002080B5ADF5A5
:10208000815D84B000AF07F1300343F82C0C4A4A5D
:1020900007F5805303F108031268114619800233D3
:1020A000120C1A70032307F5815202F10E0213700D
:1020B00007F5805303F1080307F5815202F10E0280
:1020C000127807F6080107F1100008380BF08CFFB2
:1020D0003A480CF0FBFE3A480CF010FF394B1B68F5
:1020E0000321184600F048FC374B1B6804211846B2
:1020F00000F042FC354B1B680021184600F03CFC08
:10210000334B1B680221184600F036FC3149324837
:102110000CF05EFD314932480CF05AFD314932482D
:102120000CF056FD314B1B6807F5805101F10C0195
:10213000002218460EF000FB07F5805303F10C0354
:102140001B78002B31D00CF0B7FF0346012B2CD1AC
:10215000002307F5815202F10F02137018E0FEF719
:10216000C7FF07F5815303F10F031B7818460BF0E7
:1021700057FFFEF7CBFF0DF0E3F907F5815303F1AD
:102180000F031B78013307F5815202F10F02137020
:1021900007F5815303F10F031A7807F5815303F113
:1021A0000E031B789A42DAD303E04FF47A700DF0F5
:1021B000E7F90DF0C5F9B5E75C0E0208B933000880
:1021C000613400083C040020400400204404002046
:1021D00048040020A4010208C0040208CC0402083C
:1021E000780802088C080208500E02083804002003
:1021F00080B5ADF5216D02AF07F60823A3F60423E1
:1022000018605A495A4801F099F94FF47A700DF064
:10221000B7F9584B1B6807F6E811002218460EF074
:102220008BFA97F8E83983F00103DBB2002B40F01A
:1022300093800CF041FF0346012B40F08D804E4B04
:102240001B6807F51261002218460EF075FA0BE0C4
:102250004FF47A700DF094F9474B1B6807F5126143
:10226000002218460EF068FA97F8213983F001032E
:10227000DBB2002BECD197F8213983F00103DBB2FC
:10228000002B6BD107F5A16207F5126107F6E81084
:102290004FF48063019307F5847300934FF48063D8
:1022A00001F068F90346002B5AD101F04FFA0346BA
:1022B000002B57DB01F09AFA0346002B54D107F1AB
:1022C00088030021184601F01FFE2C4B1B6807F6FF
:1022D0000811002218460EF02FFA07F60823A3F57E
:1022E0008073D3ED027A07F10803B0EE670A244940
:1022F000184601F041FE07F1080207F18803114674
:10230000184601F081FB0346002B1DD107F6082378
:10231000A3F58073D3ED007A07F10803B0EE670AE6
:102320001849184601F028FE07F1080207F1880352
:102330001146184601F068FB0346002B06D14FF406
:102340007A700DF01DF9C0E700BF00E000BF4FF448
:102350007A700DF015F958E700BF56E700BF54E753
:1023600000BF52E700BF50E700BF4EE70D11000865
:10237000F110000838040020440400203C04002030
:10238000600E0208680E020880B582B000AF786067
:102390007B681B68044A934201D102F0D5FB00BF61
:1023A0000837BD4680BD00BF0000014080B400AFCB
:1023B00072B600BFFEE7000080B582B000AF002318
:1023C0007B60124B5B6C114A43F4804353640F4BA8
:1023D0005B6C03F480437B607B6800233B600B4BAA
:1023E0001B6C0A4A43F080531364084B1B6C03F0C8
:1023F00080533B603B6800220F216FF0010002F028
:102400007BFC00BF0837BD4680BD00BF00380240DE
:1024100080B485B000AF78607B681B680B4A93423C
:102420000DD10023FB600A4B1B6B094A43F4805318
:102430001363074B1B6B03F48053FB60FB6800BF07
:102440001437BD465DF8047B704700BF0030024082
:102450000038024080B58CB000AF786007F11C03F3
:1024600000221A605A609A60DA601A617B681B6801
:10247000324A93422CD10023BB61314B5B6C304A12
:1024800043F4805353642E4B5B6C03F48053BB6165
:10249000BB6900237B612A4B1B6B294A43F0010374
:1024A0001363274B1B6B03F001037B617B69E02304
:1024B000FB6102233B6200237B620323BB62052393
:1024C000FB6207F11C0319461E4802F0EDFC30E0E8
:1024D0007B681B681C4A93422BD100233B61184B3D
:1024E0001B6C174A43F400431364154B1B6C03F435
:1024F00000433B613B690023FB60114B1B6B104A9F
:1025000043F0020313630E4B1B6B03F00203FB60EB
:10251000FB683823FB6102233B6200237B620323B9
:10252000BB620623FB6207F11C031946074802F051
:10253000BBFC00BF3037BD4680BD00BF003001404E
:102540000038024000000240003C0040000402400D
:1025500080B58AB000AF786007F1140300221A60DA
:102560005A609A60DA601A617B681B681D4A934260
:1025700033D100233B611C4B1B6C1B4A43F40033DB
:102580001364194B1B6C03F400333B613B6900235C
:10259000FB60154B1B6B144A43F001031363124B92
:1025A0001B6B03F00103FB60FB680C237B610223C0
:1025B000BB610023FB6103233B6207237B6207F1BE
:1025C00014031946094802F06FFC00220521262059
:1025D00002F092FB262002F0ABFB00BF2837BD467D
:1025E00080BD00BF004400400038024000000240AF
:1025F00080B58CB000AF78600023BB6200237B62A3
:102600000023BB602E4B5B6C2D4A43F001035364E7
:102610002B4B5B6C03F00103BB60BB6807F10C0242
:1026200007F110031146184603F074FA03F05EFA3E
:10263000B862BB6A234AA2FB03239B0C013B7B626B
:10264000214B224A1A60204B40F2E732DA601E4AE0
:102650007B6A53601C4B00221A611B4B00229A605C
:10266000194B00229A61184804F05CF8034687F879
:102670002F3097F82F30002B1BD1134804F0ACF803
:10268000034687F82F3097F82F30002B11D11920EF
:1026900002F04EFB7B680F2B08D8002279681920C6
:1026A00002F02AFB0A4A7B68136002E0012387F8E4
:1026B0002F3097F82F3018463037BD4680BD00BF09
:1026C0000038024083DE1B437C04002000000140F0
:1026D000BC00002080B400AFFEE780B400AFFEE78E
:1026E00080B400AFFEE780B400AFFEE780B400AF77
:1026F000FEE780B400AF00BFBD465DF8047B7047C5
:1027000080B500AF024804F0C9F800BF80BD00BF2B
:102710007C04002080B500AF024804F025FB00BF18
:1027200080BD00BFCC03002080B400AF0123184659
:10273000BD465DF8047B704780B582B000AF78601D
:10274000396019F051FE034616221A604FF0FF332C
:1027500018460837BD4680BD80B582B000AF7860AE
:102760004FF0FF317868FFF7E7FFFEE780B586B0EE
:1027700000AFF860B9607A6000237B610AE0AFF3D4
:1027800000800146BB685A1CBA60CAB21A707B69E5
:1027900001337B617A697B689A42F0DB7B6818467B
:1027A0001837BD4680BD80B586B000AFF860B9600F
:1027B0007A6000237B6109E0BB685A1CBA601B7811
:1027C0001846AFF300807B6901337B617A697B68CF
:1027D0009A42F1DB7B6818461837BD4680BD80B44D
:1027E00083B000AF78604FF0FF3318460C37BD461A
:1027F0005DF8047B704780B483B000AF78603960C7
:102800003B684FF400525A60002318460C37BD460F
:102810005DF8047B704780B483B000AF786001231B
:1028200018460C37BD465DF8047B704780B485B010
:1028300000AFF860B9607A60002318461437BD46CF
:102840005DF8047B7047000080B586B000AF78600B
:10285000144A154BD31A7B617B693B61134B1B6890
:10286000002B02D1114B124A1A60104B1A687B6878
:1028700013443A699A4207D219F0B6FD03460C2276
:102880001A604FF0FF3309E0084B1B68FB60074BF1
:102890001A687B681344054A1360FB6818461837AA
:1028A000BD4680BD0000012000040000C4040020DB
:1028B00090DA002080B400AF064BD3F88830054A88
:1028C00043F47003C2F8883000BFBD465DF8047B56
:1028D000704700BF00ED00E0DFF834D0FFF7EAFFFB
:1028E0000C480D490D4A002302E0D458C45004336B
:1028F000C4188C42F9D30A4A0A4C002301E0136041
:102900000432A242FBD319F075FDFEF725FC704797
:102910000000012000000020F802002048340208D6
:10292000F802002090DA0020FEE780B483B000AF08
:102930000346FB71FB792F2B05D9FB79392B02D884
:10294000FB79303B12E0FB79602B05D9FB79662BD4
:1029500002D8FB79573B09E0FB79402B05D9FB797D
:10296000462B02D8FB79373B00E0002318460C3792
:10297000BD465DF8047B704780B483B000AF7860DB
:102980000B46FB70FB78002B06D17B68002B2AD00E
:10299000184A7B68136026E0FB78012B06D17B6820
:1029A000002B20D0144A7B6813601CE0FB78022BBC
:1029B00006D17B68002B16D0104A7B68136012E0AA
:1029C000FB78032B06D17B68002B0CD00C4A7B686C
:1029D000136008E0FB78042B05D17B68002B02D044
:1029E000084A7B68136000BF0C37BD465DF8047B66
:1029F000704700BFC8040020CC040020D004002091
:102A0000D4040020D804002080B5CCB000AF07F576
:102A10009873A3F5967318600A4607F59873A3F2A6
:102A20002D131A7007F59873A3F22D131B78042B3E
:102A300000F24F8101A252F823F000BF512A000892
:102A4000D32C0008DD2B0008D32C0008632C0008D1
:102A500007F16403C6220021184619F025FB07F58B
:102A60009873A3F59673A24918680BF029F90346E9
:102A70003121184619F02FFB0346002B03D0012308
:102A800087F8653012E007F59873A3F596739849B7
:102A900018680BF015F903463021184619F01BFB96
:102AA0000346002B02D0002387F8653007F59873A2
:102AB000A3F596738F4918680BF002F9C7F82C013B
:102AC000D7F82C31002B06D1D7F82C01FDF7E8FB05
:102AD0000346202B07D807F164038433D7F82C1161
:102AE000184619F0AEFC07F59873A3F59673824962
:102AF00018680BF0E5F8C7F82C01D7F82C31002B3B
:102B000006D1D7F82C01FDF7CBFB0346202B07D8C5
:102B100007F16403A533D7F82C11184619F091FC7E
:102B200007F59873A3F59673744918680BF0C8F805
:102B3000C7F82C01D7F82C31002B06D1D7F82C017F
:102B4000FDF7AEFB03467F2B08D807F16403023381
:102B50007F22D7F82C11184619F000FB07F598735F
:102B6000A3F59673664918680BF0AAF8C7F82C010C
:102B7000D7F82C31002B06D1D7F82C01FDF790FBAC
:102B80000346052B1ED807F116031A465D49D7F8F0
:102B90002C0119F059F907F59873A3F58D731B886B
:102BA000002B0FD007F59873A3F58D731B884FF694
:102BB000FF72934206D007F59873A3F58D731B88B7
:102BC000A7F8E630012387F864304F4B186807F107
:102BD0006401022300220DF029FA7DE007F11C03B5
:102BE00002220021184619F05FFA07F59873A3F541
:102BF0009673464918680BF063F80346312118466E
:102C000019F069FA0346002B06D007F59873A3F56F
:102C10008A7301225A7015E007F59873A3F596732D
:102C20003A4918680BF04CF803463021184619F061
:102C300052FA0346002B05D007F59873A3F58A7363
:102C400000225A7007F59873A3F58A7301221A704F
:102C50002F4B186807F11C01022300220DF0E6F942
:102C60003AE007F59873A3F596732A4918680BF0B4
:102C700027F8C7F82C01D7F82C31002B2BD0264A87
:102C80002649D7F82C0119F0DFF8234B1B681846AA
:102C9000FDF772FC14A3D3E90023FDF755FF0346AB
:102CA000002B00D117E01C4B1A6807F59873A3F5A9
:102CB00092735A6007F59873A3F5927301221A7004
:102CC000174B186807F10C01022300220DF0AEF932
:102CD00001E000BF00E000BF00BF07F59877BD46E8
:102CE00080BD00BFAFF300802D431CEBE2361A3FDE
:102CF000700E0208780E0208800E02088C0E020880
:102D0000900E0208980E0208C80400209C0E0208CB
:102D1000D0040020A40E0208DC040020AC0E02083F
:102D2000D80400202DE9F04FADF5097D0AAF07F575
:102D3000FC73A3F5EE73186007F5FC73A3F5F2734B
:102D40001A6007F5FC73A3F2DD130A461A7007F543
:102D5000FC73A3F59E73734A1846114651231A4615
:102D600019F077FB07F5FC73A3F5E0736E4A18467C
:102D7000114684231A4619F06CFB07F5FC73A3F582
:102D8000EA736A4A1C4615460FCD0FC42B68238090
:102D900007F5FC73A3F2DD131B78042B00F093807E
:102DA000042B00F3B880002B02D0032B31D0B2E00B
:102DB0005F4B1B6807F59871002218460DF0BCFCAC
:102DC000B7F8B2311D4697F831311E4607F59873B2
:102DD0009C1C07F5987303F1840207F1BC0107F509
:102DE000FC73A3F5EE70019600952346006819F078
:102DF0000BF807F5FC73A3F5EE731868FDF750FAAE
:102E000003469AB207F5FC73A3F5F2731B681A80A8
:102E100082E0484B1B6807F58C71002218460DF0C4
:102E20008BFCD7F818311846FDF7A6FBC7E902015D
:102E3000D7F81C311846FDF79FFB04460D46D7F81E
:102E400024311846FDF798FB80468946D7F828318B
:102E50001846FDF791FB82468B46D7F82C31184671
:102E6000FDF78AFBC7E90001D7F820311846FDF7C6
:102E700083FB02460B4607F1380607F5FC71A1F506
:102E8000EE70CDE9082397ED007B8DED067BCDE953
:102E900004ABCDE90289CDE90045D7E902233146EB
:102EA000006818F0B1FF07F5FC73A3F5EE7318681E
:102EB000FDF7F6F903469AB207F5FC73A3F5F27332
:102EC0001B681A8028E01C4B1B6807F588710022DC
:102ED00018460DF031FCD7F814311846FDF74CFBBD
:102EE00002460B4607F1240107F5FC70A0F5EE70D1
:102EF000006818F089FF07F5FC73A3F5EE731868F6
:102F0000FDF7CEF903469AB207F5FC73A3F5F27309
:102F10001B681A8000E000BF00BF07F5FE77BD46C2
:102F2000BDE8F08FB00E0208040F0208880F0208F7
:102F3000C8040020D4040020D804002080B5ADF5DA
:102F40003E7D02AF07F53C73A3F53973186007F5B2
:102F50003C73A3F53A73196007F53C73A3F53B7313
:102F60001A6007F19003C7F8E43207F53C73A3F544
:102F70003973AB4918680AF0A3FEC7F8E002D7F826
:102F8000E032002B23D007F19403A64A92E8030015
:102F900018600433197007F194032D22D7F8E0125A
:102FA000184619F0B6F807F53C73A3F539739E4936
:102FB00018680AF085FEC7F8E002D7F8E002FDF7CE
:102FC0006FF90346B3F5007F80F0138111E007F538
:102FD0003C73A3F53B731B68944A10681860928891
:102FE0009A8007F53C73A3F53A731B6805221A8093
:102FF00011E1D7F8E032002B00F0E980D7F8E002C9
:10300000FDF74EF90346C7F8DC32D7F8DC3207F19A
:10301000C8000093D7F8E032D7F8E4224FF40071EB
:1030200016F004FDC7F8EC0207F53C73A3F53973FD
:103030007F4918680AF044FEC7F8D8020023C7F891
:10304000E83230E0D7F8E832D7F8D82213441B78BA
:103050001846FFF76AFCC7F8CC02D7F8E83201330C
:10306000D7F8D82213441B781846FFF75EFCC7F840
:10307000C802D7F8CC321B015AB2D7F8C8325BB2BB
:10308000134359B2D7F8E832DA0F13445B101A46EB
:10309000C9B207F53C73A3F522739954D7F8E83207
:1030A0000233C7F8E832D7F8E8321F2BCADD07F53C
:1030B0003C73A3F5227300221A7407F1100318461B
:1030C00016F0D0FD07F11003184616F0E9FDD7F809
:1030D000E4321A6807F1C80107F11003184617F027
:1030E000C9FC07F17C0207F110031146184617F0DE
:1030F00036FD07F11003184616F0C1FD07F53C73C5
:10310000A3F51D7300221A7407F17C0107F168030F
:103110001022184619F010F80346002B06D04FF085
:10312000FF33C7F8EC32D7F8EC3274E007F53C73A4
:10313000A3F539733F4918680AF0C2FDC7F8D402F5
:103140000A21D7F8D4020AF06DFE0346C7F8D03240
:10315000D7F8D032002B0FD1374B00221A60D7F8A6
:10316000E4321A6807F1C80107F19403184616F013
:103170008DFBC7F8EC021DE00A21D7F8D4020AF053
:1031800051FE03461A462C4B1B689A4206D04FF05C
:10319000FF33C7F8EC32D7F8EC323CE0D7F8E43232
:1031A0001A6807F1C80107F19403184616F0CCFB22
:1031B000C7F8EC02204B1B6801331F4A1360D7F895
:1031C000EC32002B15DA0023C7F8EC3211E007F5DA
:1031D0003C73A3F53B731B68144A1068186092880F
:1031E0009A8007F53C73A3F53A731B6805221A8091
:1031F00011E007F53C73A3F53B731B680F4A118878
:10320000927819809A7007F53C73A3F53A731B689E
:1032100002221A80FFE7184607F53C77BD4680BDBD
:103220009C0F0208A80F0208B80F0208B00F02088E
:10323000C00F0208C80F0208E0040020D00F0208E7
:103240002DE9F04FADF5117D12AF07F5FC73A3F535
:10325000EA73186007F5FC73A3F5EC73196007F5C2
:10326000FC73A3F5E8734F4A18461146E4231A4647
:1032700019F0EFF84C4B1B6807F5F0710022184667
:103280000DF05AFA494B1B6807F5EC7100221846FD
:103290000DF052FA464B1B6807F58871002218465C
:1032A0000DF04AFA434B1B6807F586710022184659
:1032B0000DF042FAD7F8E0311846FDF75DF9C7E99D
:1032C0000601D7F8E4311846FDF756F982468B46D9
:1032D000D7F8EC311846FDF74FF905460E46D7F8FA
:1032E000F0311846FDF748F9C7E90401D7F8F43181
:1032F0001846FDF741F9C7E90201D7F8E831184649
:10330000FDF73AF980468946D7F8DC311846FDF7D3
:1033100033F997F80D317B6097F811313B60B7F8BE
:1033200092311A4607F1280C07F5FC73A3F5EA74ED
:1033300007F58873023310930F9207F5887384336F
:103340000E933B680D937B680C93CDE90A01CDE9A0
:10335000088997ED027B8DED067B97ED047B8DED63
:10336000047BCDE90256CDE900ABD7E906236146DF
:10337000206818F049FD07F5FC73A3F5EA73186897
:10338000FCF78EFF03469AB207F5FC73A3F5EC73C6
:103390001B681A800023184607F5FE77BD46BDE876
:1033A000F08F00BFD40F0208D4040020D8040020FE
:1033B000C8040020D004002080B586B000AFF860BB
:1033C000B9607A603B6000233B602149F868FCF7F4
:1033D00007FF0346002B06D10021B868FFF714FB56
:1033E0000123FB752FE01B49F868FCF7F9FE034643
:1033F000002B06D10221B868FFF706FB0123FB75FD
:1034000021E01549F868FCF7EBFE0346002B0DD1CF
:103410007A683968B868FFF791FD0346002B02DA35
:103420000023FB750FE00123FB750CE00B49F868E6
:10343000FCF7D6FE0346002B05D10421B868FFF740
:10344000E3FA0123FB75FB7D18461837BD4680BDA6
:10345000B8100208CC100208E0100208F0100208B0
:1034600080B586B000AFF860B9607A600023FB7564
:103470002849F868FCF7B4FE0346002B07D17A68A8
:103480000021B868FFF74EFC0123FB753DE022499F
:10349000F868FCF7A5FE0346002B0BD1BB681F495B
:1034A0001A460B461B8813800123FB757B6802229A
:1034B0001A802AE01A49F868FCF792FE0346002BAE
:1034C00007D17A680321B868FFF72CFC0123FB754C
:1034D0001BE01449F868FCF783FE0346002B07D174
:1034E0007A680421B868FFF71DFC0123FB750CE026
:1034F0000D49F868FCF774FE0346002B05D1796886
:10350000B868FFF79DFE0123FB75FB7D1846183751
:10351000BD4680BD081102081C110208D00F020828
:1035200028110208341102084811020880B400AFC3
:1035300000BFBD465DF8047B7047000080B483B0D7
:1035400000AF786039607B68002B02D07B68074A47
:1035500013603B68002B02D03B68054A136000BF34
:103560000C37BD465DF8047B704700BF5C0000204F
:1035700060000020B0B588B004AFF860B9607A6030
:103580007B805E4AFB6813605D4ABB6813605D4ADE
:103590007B6813605C4A3B6A13605C4A7B881380DB
:1035A0005B4ABB8C1380554B1B68DB781C46534B26
:1035B0001B681B791D46514B1B685B791A464F4BA4
:1035C0001B689B7919464D4B1B68DB7918464B4BA2
:1035D0001B681B7A03930290019100922B462246AE
:1035E0004C494D4818F010FC4B4800F03DFA434B55
:1035F0001B685B7A1946414B1B689B7A18463F4B08
:103600001B68DB7A1A463D4B1B681B7B01930092BB
:1036100003460A464149424818F0F6FB404800F08C
:1036200045FA374B1B680233184608F06BFC03461B
:10363000002B0CD0324B1B68981C3A4B01933A4B31
:1036400000933A4B3A4A3B4918F0FEFB0DE02C4BF5
:103650001B6802333649184608F026FC0346B3F1CE
:10366000FF3F02D14FF0FF3343E0334B0022DA76C5
:10367000314B03221A72304B274ADA602E4B41F24B
:1036800088321A832C4B01229A761D4B1B68843397
:10369000294A13641A4B1B68A533274AD364184B75
:1036A0001B68B3F88220254B1A80254B00229A8094
:1036B000234B00221A70224B00229A70204B0022CA
:1036C0005A7005211F4809F0B7F90E4B1A680F4BC5
:1036D0001B8818460C4B1B680D4909880291019301
:1036E000009013464FF47A721649174808F0F4FC1C
:1036F000002318461037BD46B0BD00BFE8040020C7
:10370000E40400201405002010050020F20700202A
:10371000F007002054110208EC0400207011020888
:10372000FC040020F7070020F6070020F507002022
:10373000F40700207C11020804000020F807002094
:1037400068080020FC0700200C08002080B582B02B
:1037500000AF1F4B1B6898471E4B1B881A461E491B
:103760001E4809F0E6F90346FB801D4B1B6898478D
:10377000B7F90630012B10D0154B1B689847174B33
:103780001B68DBB2184604F0EFFD154B1B68984729
:10379000FB880A3B9BB21BB216E00D4B1B68984797
:1037A0001049114808F09EFF0346FB800C4B1B6834
:1037B0009847B7F90630002B04D0FB88143B9BB226
:1037C0001BB201E0B7F9063018460837BD4680BD88
:1037D0005C000020F8070020F4070020FC07002010
:1037E00060000020040000200C08002080B582B09A
:1037F00000AF802200217E4818F056FC00220321F1
:103800007B4800F073F9002203217A4800F00EFA99
:103810007848FCF745FD0346774AD360764B754AF6
:103820009A60764B1B689847734A7149744808F050
:10383000DFFF0346FB71734B1B68984797F907300E
:10384000002B02D097F90730CEE06B4B9B880133F9
:103850009AB2694B9A8080220021654818F024FCB6
:1038600000220521624800F041F90022052161484B
:1038700000F0DCF95F48FCF713FD03465E4AD360B5
:103880005D4B5C4A9A605D4B1B6898475A4A5849A1
:103890005B4808F0ADFF0346FB715A4B1B68984725
:1038A00097F90730002B02D097F907309CE0524B74
:1038B0009B8801339AB2504B9A80802200214C4859
:1038C00018F0F2FB00220421494800F00FF9002211
:1038D0000421484800F0AAF94648FCF7E1FC0346F9
:1038E000454AD360444B434A9A60444B1B6898470F
:1038F000414A3F49424808F07BFF0346FB71414B78
:103900001B68984797F90730002B02D097F90730CA
:103910006AE0394B9B8801339AB2374B9A808022F8
:103920000021334818F0C0FB00220621304800F087
:10393000DDF8002206212F4800F078F92D48FCF729
:10394000AFFC03462C4AD3602B4B2A4A9A602B4B80
:103950001B689847284A2649294808F049FF03462A
:10396000FB71284B1B68984797F90730002B02D052
:1039700097F9073038E0204B9B8801339AB21E4BF1
:103980009A80802200211A4818F08EFB002207211D
:10399000174800F0ABF800220721164800F046F95E
:1039A0001448FCF77DFC0346134AD360124B114ABE
:1039B0009A60124B1B6898470F4A0D49104808F04F
:1039C00017FF0346FB710F4B1B68984797F90730A9
:1039D000002B02D097F9073006E0074B9B88013394
:1039E0009AB2054B9A80002318460837BD4680BD21
:1039F0001805002098050020680800205C000020C1
:103A00000C0800206000002080B584B000AF786012
:103A100039603868FCF744FC03460F4AD3600E4A0D
:103A20003B6893600C4B9B8801339AB20A4B9A8097
:103A30000A4B1B689847084A7968094808F0D8FE7D
:103A40000346FB73074B1B68984797F90F301846DE
:103A50001037BD4680BD00BF680800205C00002014
:103A60000C0800206000002080B584B000AF7860B2
:103A70000023FB737868FCF713FC03460D2B02D977
:103A80000E23FB7304E07868FCF70AFC0346FB7323
:103A9000FB7B1A467968044818F060FB002318463F
:103AA0001037BD4680BD00BF7808002080B582B0C9
:103AB00000AF78600C4B00221A707868FCF7F0FBBE
:103AC0000346122B0AD87868FCF7EAFB03461A462D
:103AD0007968054818F042FB002301E04FF0FF33FE
:103AE00018460837BD4680BD8808002080B586B0DE
:103AF00004AF78600B46FB701346BB7000217868FA
:103B000018F09FFCFB78013B062B6CD801A252F801
:103B100023F000BF313B00084B3B0008653B000829
:103B2000993B00087F3B0008B33B0008CD3B0008F1
:103B3000BB7802932F4B01932F4B00932F4B304AAE
:103B40003049786818F060F94EE0BB7802932E4B4C
:103B50000193294B00932C4B294A2A49786818F085
:103B600053F941E0294B0293234B0193284B0093D7
:103B7000284B234A2849786818F046F934E0274B47
:103B800002931D4B0193224B0093224B1C4A224966
:103B9000786818F039F927E0214B0293164B01930E
:103BA0001B4B00931B4B164A1B49786818F02CF9E5
:103BB0001AE01C4B0293104B0193154B0093154BCD
:103BC0000F4A1549786818F01FF90DE0164B02935B
:103BD000094B01930E4B00930E4B094A0E4978682E
:103BE00018F012F900E000BF002318460837BD4660
:103BF00080BD00BF8C0000207808002074000020E9
:103C000064000020CC26020884000020B8110208BD
:103C1000C011020898110208A0110208C811020878
:103C2000D0110208D8110208E811020890B597B027
:103C300012AF78600B46FB701346BB700023FB731A
:103C40007B6800221A70FB78013B062B00F21A8178
:103C500001A252F823F000BFA93C0008753C0008FF
:103C6000D73C0008833D00082D3D0008D93D0008E1
:103C70002F3E0008BB78BA78B978B878854C07949D
:103C8000854C0694844C05940490834803900291DB
:103C900001920093804B804A8049786818F0B4F80C
:103CA0000346FB73FB7BF0E0B978BB78BA787948C0
:103CB000059079480490784803900292764A0192E0
:103CC00000930B46744A7649786818F09DF80346CD
:103CD000FB73FB7BD9E06F4B1093724B0F93724BCE
:103CE0000E93724B0D93724B0C93724B0B936A4B6A
:103CF0000A93714B0993714B0893714B0793664B71
:103D000006936D4B05936F4B04936F4B03936C4B72
:103D100002936E4B0193604B0093674B684A6C496A
:103D2000786818F071F80346FB73AEE0594B1093B6
:103D30005C4B0F935C4B0E935C4B0D935C4B0C9365
:103D40005C4B0B93544B0A935B4B0993614B089369
:103D5000614B0793504B0693574B05935F4B04936E
:103D60005F4B03935C4B0293584B01934A4B009378
:103D7000514B594A5649786818F046F80346FB7388
:103D800083E0444B1093474B0F93474B0E93474BA5
:103D90000D93474B0C93474B0B933F4B0A93464B6A
:103DA0000993504B0893504B07933B4B0693424B60
:103DB00005934E4B04934A4B03934B4B0293434B57
:103DC0000193354B00933C4B474A4149786818F0C2
:103DD0001BF80346FB7358E02E4B1093314B0F93A7
:103DE000314B0E93314B0D93314B0C93314B0B9365
:103DF000294B0A93304B09933D4B08933D4B079356
:103E0000254B06932C4B05933B4B0493344B039368
:103E1000384B02932D4B01931F4B0093264B354A91
:103E20002B49786817F0F0FF0346FB732DE0194B20
:103E300010931C4B0F931C4B0E931C4B0D931C4B60
:103E40000C931C4B0B93144B0A931B4B09932B4B5A
:103E500008932B4B0793104B0693174B0593294B55
:103E600004931F4B0393264B0293184B01930A4B69
:103E70000093114B224A1649786817F0C5FF034694
:103E8000FB7302E04FF0FF33FFE718461437BD46DF
:103E900090BD00BF8808002078080020E8260208AE
:103EA000A8280208F0110208F811020800120208FE
:103EB0001012020820120208C01102083012020873
:103EC000B8110208341202083C12020860120208FB
:103ED000402A020868120208C81102086C1202087F
:103EE0007412020878120208D01102087C1202082B
:103EF00084120208D8110208881202088C120208E3
:103F0000E81102089012020880B584B002AF786010
:103F10000B46FB707B6800221A70114B0093114B0B
:103F2000114A1249786817F06FFFFB78012B02D015
:103F3000022B06D00BE00B4A0D49786817F064FF9E
:103F400008E0084A0B49786817F05EFF02E04FF07E
:103F5000FF3300E0002318460837BD4680BD00BF90
:103F60006012020878080020C0110208B812020886
:103F700094000020A400002080B586B002AFF86055
:103F8000B96087ED010A7868FCF7F6FA02460B463D
:103F9000CDE90023BA680449F86817F035FF00BF7F
:103FA0001037BD4680BD00BFC4120208B0B584B052
:103FB00000AFF860B96087ED010AF868FCF7BAFA5B
:103FC00004460D46B868FCF7B5FA4FF00002174BEF
:103FD000FCF72AFB02460B4620462946FCF74EFC1E
:103FE00002460B4610461946FCF716FE0346104AD9
:103FF00013607868FCF7C0FA4FF000020B4BFCF737
:1040000013FB02460B464FF000000A49FCF736FC52
:1040100002460B4610461946FCF7FEFD0346064ACB
:10402000136000BF1037BD46B0BD00BF00408F40D9
:10403000B40000200000F03FB800002080B485B03C
:1040400000AF78600023BB730223FB730EE0FB7BA1
:104050007A6813441B787B73FB7B7A6813441A7865
:10406000BB7B1344BB73FB7B0133FB73FB7B162BC6
:10407000EDD97B6817331B78BA7B9A4201D10123B3
:1040800000E0002318461437BD465DF8047B7047F6
:1040900080B582B000AF78607B6801335A21184642
:1040A000FCF79EF80346002B02D14FF0FF33B6E039
:1040B0007868FFF7C3FF0346002B02D16FF00103BE
:1040C000ADE07B6802331B781A047B6803331B78EE
:1040D0001B0213447A68043212781344524A136064
:1040E0007B6814331B789B09DBB203F00103002BC0
:1040F0001BD07B6805331B781A047B6806331B785A
:104100001B0213447A68073212781344474A13603B
:10411000454B1A68454B1B68B2FBF3F307EE903A28
:10412000F8EE677A424BC3ED007A7B6808331B7860
:104130001A047B6809331B781B0213447A680A321D
:10414000127813443B4A13607B6814331B785B0975
:10415000DBB203F00103002B0ED07B680B331B781E
:104160001A047B680C331B781B0213447A680D32E7
:1041700012781344304A13607B680E331B781A049C
:104180007B680F331B781B0213447A681032127855
:1041900013442A4A13607B6814331B781B09DBB273
:1041A00003F00103002B0ED07B6811331B781A0437
:1041B0007B6812331B781B0213447A68133212781F
:1041C00013441F4A13607B6815331B789BB21B0294
:1041D0009AB27B6816331B789BB213449AB2194B80
:1041E0001A807B6814331B78DB09DBB203F0010310
:1041F000002B04D0144B1B680133134A1360134B7C
:104200001A88104B1B889A4204D9114B1B68013342
:104210000F4A13600B4B1A880C4B1A800023184668
:104220000837BD4680BD00BF9C080020A0080020C4
:10423000B4080020AC080020B0080020A40800202A
:10424000A8080020BC080020B8080020BE080020F4
:10425000C008002080B400AF0E4B1B68002B02D1B9
:10426000DFED0D6A0DE00D4B1B6807EE903AB8EEDE
:10427000677A084B1B6807EE903AF8EE677AC7EE4C
:10428000276AF0EE667AB0EE670ABD465DF8047BF9
:10429000704700BFA0080020000000009C0800201C
:1042A00080B582B000AFFFF7D5FF87ED010A084B5C
:1042B000D3ED007A97ED017A67EE277AC7ED007AA1
:1042C0003B6807EE903AB0EE670A0837BD4680BDFE
:1042D000B400002080B400AF0E4B1B68002B02D14D
:1042E000DFED0D6A0DE00D4B1B6807EE903AB8EE5E
:1042F000677A084B1B6807EE903AF8EE677AC7EECC
:10430000276AF0EE667AB0EE670ABD465DF8047B78
:10431000704700BFB008002000000000AC0800207B
:1043200080B582B000AFFFF7D5FF87ED010A084BDB
:10433000D3ED007A97ED017A67EE277AC7ED007A20
:104340003B6807EE903AB0EE670A0837BD4680BD7D
:10435000B800002080B483B000AF134B1B68002B63
:1043600002D14FF0000316E0104B1A680E4B1B6889
:10437000B2FBF3F307EE903AB8EE677A0C4BD3ED4D
:10438000007A27EE277A0B4BD3ED007A67EE277A77
:10439000C7ED017A7B6807EE903AB0EE670A0C37FA
:1043A000BD465DF8047B7047A8080020A4080020E3
:1043B000B4000020B800002080B584B000AFFFF743
:1043C0006FFF87ED030AFFF7ABFF87ED020A97ED5A
:1043D000037AD7ED027A67EE277AC7ED017A7B6818
:1043E00007EE903AB0EE670A1037BD4680BD80B543
:1043F00084B000AFFFF7AEFF87ED030AFFF7DCFFE5
:1044000087ED020AD7ED027AF5EE407AF1EE10FA66
:1044100002D14FF07E5314E097ED037AD7ED027A84
:10442000B4EEE77AF1EE10FA02DD4FF07E5308E0C9
:10443000D7ED036A97ED027AC6EE877AC7ED017A67
:104440007B6807EE903AB0EE670A1037BD4680BD34
:10445000B0B584B000AFFFF7AFFF87ED030A324B72
:104460001B681846FCF766F802460B464FF0000042
:104470002E49FCF703FA02460B4614461D462C4B08
:1044800093ED007A2B4BD3ED007A67EE277A17EE87
:10449000900AFCF771F802460B464FF000002349E2
:1044A000FCF7ECF902460B4620462946FCF7BCF81F
:1044B00002460B461046194617A3D3E90023FCF722
:1044C000B3F802460B461046194615A3D3E900235C
:1044D000FCF7AAF802460B4610461946FCF79CFB6F
:1044E0000346BB60144B1B681B04144A1288134418
:1044F0007B607B6807EE903AF8EEE76A97ED027A08
:10450000C6EE877AC7ED007A3B6807EE903AB0EEC8
:10451000670A1037BD46B0BD0000000065CDCD4133
:10452000000000000020AC40A40800200000F03F84
:10453000B4000020B8000020B8080020BC0800200B
:1045400080B400AF00BFBD465DF8047B704700003B
:1045500080B485B000AFF860B9607A603B60FB68FA
:10456000002B03D00E4AFB68D36002E00C4B0D4ACF
:10457000DA60BB68002B03D0094ABB68136102E014
:10458000074B084A1A61064A7B685360044A3B6835
:10459000936000BF1437BD465DF8047B704700BFD1
:1045A000C40800204145000880B500AF00F09CF829
:1045B000662000F01FFA992000F01CFA00F09EF827
:1045C00000BF80BD90B585B000AF7860FFF7ECFF0D
:1045D00000F0D2F9F860FB683E4A93423FD0FB6896
:1045E0003C4A934267D8FB683B4A934221D0FB6820
:1045F000394A93425FD8FB68384A934245D0FB68FA
:10460000374A934257D1374B354A1A60354B01220E
:104610009A80344B0122DA80324B4FF480521A8157
:10462000304B4FF480725A812E4B4FF400729A81B6
:1046300045E02C4B284A1A602A4B01229A80294BCC
:104640000122DA80274B4FF480521A81254B4FF418
:1046500080725A81234B4FF480629A812FE0214B64
:104660001C4A1A601F4B01229A801E4B0122DA80DD
:104670001C4B4FF480521A811A4B4FF480725A81AE
:10468000184B4FF400629A8119E0164B134A1A60D6
:10469000144B01229A80134B0122DA80114B4FF404
:1046A00080521A810F4B4FF480725A810D4B4FF498
:1046B00080629A8103E00B4B00221A6000BF7B6886
:1046C000084A1C4613460FCB84E80F00786814375D
:1046D000BD4690BD1740EF001640EF001620C20007
:1046E0001540EF00D808002080B500AF024BDB6812
:1046F000984700BF80BD00BFC408002080B500AF50
:10470000024B1B69984700BF80BD00BFC408002052
:1047100080B582B000AF786000F07CF9FFF7E4FF6D
:10472000202000F067F97B681B0CDBB2184600F014
:1047300061F97B681B0ADBB2184600F05BF97B6805
:10474000DBB2184600F056F9FFF7D8FF00F06DF91C
:1047500000BF0837BD4680BD80B584B000AFF860AB
:10476000B9601346FB8000F055F9FFF7BDFF02204A
:1047700000F040F9BB681B0CDBB2184600F03AF9B8
:10478000BB681B0ADBB2184600F034F9BB68DBB229
:10479000184600F02FF907E0FB681B78184600F078
:1047A00029F9FB680133FB60FB885A1EFA80002B55
:1047B000F2D1FFF7A3FF00F038F900BF1037BD4674
:1047C00080BD80B586B000AFF860B9601346FB804D
:1047D0000023FB750023BB7500237B7500233B750D
:1047E0000023FB74BB687B757B7D5B423B75FB885C
:1047F0001B0A9BB2FB75FB88BB757B7D002B24D10C
:10480000FB7D002B14D1FB881A46B968F868FFF7C6
:10481000A3FF7BE04FF48072B968F868FFF79CFF54
:10482000BB6803F58073BB60FB6803F58073FB60B6
:10483000FB7D5A1EFA75002BECD1BB7D9BB21A464C
:10484000B968F868FFF788FF60E0FB7D002B25D191
:10485000BA7D3B7D9A421AD9BA7D3B7DD31AFB744F
:104860003B7D9BB21A46B968F868FFF775FF3B7D40
:10487000BA681344BB603B7DFA681344FB60FB7C61
:104880009BB21A46B968F868FFF766FF3EE0FB88FE
:104890001A46B968F868FFF75FFF37E03B7D9BB2C7
:1048A000FA88D31AFB80FB881B0A9BB2FB75FB8836
:1048B000BB753B7D9BB21A46B968F868FFF74CFFA1
:1048C0003B7DBA681344BB603B7DFA681344FB60D0
:1048D0000DE04FF48072B968F868FFF73DFFBB68E0
:1048E00003F58073BB60FB6803F58073FB60FB7DA1
:1048F0005A1EFA75002BECD1BB7D002B06D0BB7D78
:104900009BB21A46B968F868FFF726FF00BF183750
:10491000BD4680BD80B584B000AFF860B960134675
:10492000FB80FFF7E1FE032000F064F8BB681B0C7E
:10493000DBB2184600F05EF8BB681B0ADBB2184613
:1049400000F058F8BB68DBB2184600F053F808E0F6
:1049500000F046F803461A46FB681A70FB680133FC
:10496000FB60FB885A1EFA80002BF1D1FFF7C6FED0
:1049700000BF1037BD4680BD80B584B000AF0023B6
:10498000FB600023BB6000237B6000233B60FFF7DC
:10499000ABFEFFF7B3FEFFF7A7FEFFF7AFFEFFF793
:1049A000A3FE9F2000F026F800F01AF80346BB6033
:1049B00000F016F803467B6000F012F803463B60F7
:1049C000FFF79CFEBB681A047B681B0213433A681E
:1049D0001343FB60FB6818461037BD4680BD0000DE
:1049E00080B500AF024B5B6898470346184680BD10
:1049F000C408002080B582B000AF0346FB71044BB1
:104A00009B68FA791046984700BF0837BD4680BDBD
:104A1000C408002080B500AFFFF766FE0620FFF750
:104A2000E9FFFFF76BFE00BF80BD80B582B000AF2D
:104A30000023FB71FFF758FE0520FFF7DBFFFFF7B0
:104A4000CFFF0346FB71FB7903F00103002BF6D186
:104A5000FFF754FE00BF0837BD4680BD84B080B567
:104A600000AF07F1080C8CE80F00074B184607F160
:104A700008035822194617F0ECFC00BFBD46BDE8FC
:104A8000804004B0704700BFE808002080B582B0C5
:104A900000AFF91D41F288330122044801F038FAD1
:104AA000FB7918460837BD4680BD00BFE8080020E6
:104AB00080B582B000AF0346FB71F91D41F2883327
:104AC0000122034801F0E1F800BF0837BD4680BD70
:104AD000E808002080B500AF00221021024800F055
:104AE00067FB00BF80BD00BF0000024080B500AF83
:104AF00001221021024800F05BFB00BF80BD00BF17
:104B00000000024080B500AF0E4B1B680D4A43F415
:104B1000007313600B4B1B680A4A43F480631360F5
:104B2000084B1B68074A43F480731360032000F0AE
:104B3000D8F80F20FDF75CFDFDF73EFC002318467A
:104B400080BD00BF003C024080B400AF064B1B7824
:104B50001A46064B1B681344044A136000BFBD4647
:104B60005DF8047B704700BFC000002040090020B2
:104B700080B400AF034B1B681846BD465DF8047B4C
:104B8000704700BF4009002080B485B000AF786056
:104B90007B6803F00703FB600C4BDB68BB60BA6803
:104BA0004FF6FF031340BB60FB681A02BB68134358
:104BB00043F0BF6343F40033BB60044ABB68D36077
:104BC00000BF1437BD465DF8047B704700ED00E080
:104BD00080B400AF044BDB681B0A03F007031846E0
:104BE000BD465DF8047B704700ED00E080B483B003
:104BF00000AF0346FB7197F90730002B0BDBFB7905
:104C000003F01F02074997F907305B09012000FAFA
:104C100002F241F8232000BF0C37BD465DF8047B4B
:104C2000704700BF00E100E080B483B000AF0346EE
:104C30003960FB7197F90730002B0ADB3B68DAB269
:104C40000C4997F907301201D2B20B4483F80023C4
:104C50000AE03B68DAB20849FB7903F00F03043B32
:104C60001201D2B20B441A7600BF0C37BD465DF874
:104C7000047B704700E100E000ED00E080B489B003
:104C800000AFF860B9607A60FB6803F00703FB616E
:104C9000FB69C3F10703042B28BF0423BB61FB6935
:104CA0000433062B02D9FB69033B00E000237B6140
:104CB0004FF0FF32BB6902FA03F3DA43BB681A40D4
:104CC0007B699A404FF0FF317B6901FA03F3D943C6
:104CD0007B680B40134318462437BD465DF8047BC0
:104CE000704780B582B000AF78607868FFF74CFFFE
:104CF00000BF0837BD4680BD80B586B000AF034613
:104D0000B9607A60FB7300237B61FFF761FF786114
:104D10007A68B9687869FFF7B1FF024697F90F30F2
:104D200011461846FFF780FF00BF1837BD4680BD0B
:104D300080B582B000AF0346FB7197F90730184683
:104D4000FFF754FF00BF0837BD4680BD80B582B075
:104D500000AF78607B68002B01D101230EE07B68F7
:104D60005B79DBB2002B05D17B6800221A71786871
:104D7000FDF74EFB7B6801225A7100231846083765
:104D8000BD4680BD80B584B000AF78607B689B6D08
:104D9000FB60FFF7EDFEB8607B6893F83530DBB25F
:104DA000022B08D07B6880225A657B68002283F83A
:104DB0003420012352E07B681B681A687B681B68FB
:104DC00022F016021A607B681B685A697B681B68B0
:104DD00022F080025A617B681B6C002B03D17B6838
:104DE0009B6C002B07D07B681B681A687B681B686C
:104DF00022F008021A607B681B681A687B681B68CF
:104E000022F001021A6013E0FFF7B2FE0246BB680F
:104E1000D31A052B0CD97B6820225A657B680322A4
:104E200083F835207B68002283F83420032315E0C3
:104E30007B681B681B6803F00103002BE4D17B68CF
:104E4000DB6D3F229A40FB689A607B68012283F801
:104E500035207B68002283F8342000231846103761
:104E6000BD4680BD80B483B000AF78607B6893F8A6
:104E70003530DBB2022B04D07B6880225A650123D7
:104E80000CE07B68052283F835207B681B681A6874
:104E90007B681B6822F001021A60002318460C3759
:104EA000BD465DF8047B704780B489B000AF786080
:104EB000396000237B6100233B610023BB61002339
:104EC000FB6159E10122FB6902FA03F37B613B6854
:104ED0001B687A6913403B613A697B699A4240F0EA
:104EE00048813B685B6803F00303012B05D03B68F6
:104EF0005B6803F00303022B30D17B689B68BB61C6
:104F0000FB695B00032202FA03F3DB43BA69134037
:104F1000BB613B68DA68FB695B0002FA03F3BA69BC
:104F20001343BB617B68BA699A607B685B68BB614D
:104F30000122FB6902FA03F3DB43BA691340BB6148
:104F40003B685B681B0903F00102FB6902FA03F38B
:104F5000BA691343BB617B68BA695A603B685B6896
:104F600003F00303032B17D07B68DB68BB61FB698D
:104F70005B00032202FA03F3DB43BA691340BB610F
:104F80003B689A68FB695B0002FA03F3BA69134352
:104F9000BB617B68BA69DA603B685B6803F0030356
:104FA000022B23D1FB69DA087B68083253F82230E0
:104FB000BB61FB6903F007039B000F2202FA03F3B6
:104FC000DB43BA691340BB613B681A69FB6903F0B4
:104FD00007039B0002FA03F3BA691343BB61FB6941
:104FE000DA087B680832B96943F822107B681B68CD
:104FF000BB61FB695B00032202FA03F3DB43BA697E
:105000001340BB613B685B6803F00302FB695B0014
:1050100002FA03F3BA691343BB617B68BA691A6089
:105020003B685B6803F44033002B00F0A280002350
:10503000FB60574B5B6C564A43F480435364544BBC
:105040005B6C03F48043FB60FB68524AFB699B087E
:10505000023352F82330BB61FB6903F003039B006A
:105060000F2202FA03F3DB43BA691340BB617B688A
:10507000494A934219D07B68484A934213D07B68CF
:10508000474A93420DD07B68464A934207D07B68DB
:10509000454A934201D1042308E0072306E0032395
:1050A00004E0022302E0012300E00023FA6902F099
:1050B000030292009340BA691343BB613549FB690F
:1050C0009B080233BA6941F82320384B9B68BB61C7
:1050D0003B69DB43BA691340BB613B685B6803F41F
:1050E0008013002B03D0BA693B691343BB612F4A7D
:1050F000BB6993602D4BDB68BB613B69DB43BA69DD
:105100001340BB613B685B6803F40013002B03D0C2
:10511000BA693B691343BB61244ABB69D360234B23
:105120005B68BB613B69DB43BA691340BB613B68A9
:105130005B6803F40033002B03D0BA693B69134367
:10514000BB611A4ABB695360184B1B68BB613B6962
:10515000DB43BA691340BB613B685B6803F480338F
:10516000002B03D0BA693B691343BB610F4ABB698B
:105170001360FB690133FB61FB690F2B7FF6A2AE65
:1051800000BF00BF2437BD465DF8047B704700BFF9
:105190000038024000380140000002400004024094
:1051A00000080240000C024000100240003C014098
:1051B00080B483B000AF78600B467B8013467B7071
:1051C0007B78002B03D07A887B689A6103E07B8828
:1051D0001A047B689A6100BF0C37BD465DF8047BFA
:1051E0007047000080B586B000AF78607B68002B08
:1051F00001D1012367E27B681B6803F00103002BE8
:1052000075D0884B9B6803F00C03042B0CD0854BA6
:105210009B6803F00C03082B12D1824B5B6803F4EC
:105220008003B3F5800F0BD17E4B1B6803F4003372
:10523000002B5BD07B685B68002B57D1012342E2D7
:105240007B685B68B3F5803F06D1764B1B68754A77
:1052500043F4803313601DE07B685B68B3F5A02FD7
:105260000CD1704B1B686F4A43F4802313606D4B65
:105270001B686C4A43F4803313600BE0694B1B6876
:10528000684A23F480331360664B1B68654A23F435
:10529000802313607B685B68002B13D0FFF768FCEA
:1052A000386108E0FFF764FC02463B69D31A642BBF
:1052B00001D9032307E25B4B1B6803F40033002B87
:1052C000F0D014E0FFF754FC386108E0FFF750FC21
:1052D00002463B69D31A642B01D90323F3E1514BF6
:1052E0001B6803F40033002BF0D100E000BF7B68A3
:1052F0001B6803F00203002B63D04A4B9B6803F04A
:105300000C03002B0BD0474B9B6803F00C03082BBE
:105310001CD1444B5B6803F48003002B16D1414B36
:105320001B6803F00203002B05D07B68DB68012BB0
:1053300001D00123C7E13B4B1B6823F0F8027B68D7
:105340001B69DB00374913430B603AE07B68DB687D
:10535000002B20D0344B01221A60FFF709FC386182
:1053600008E0FFF705FC02463B69D31A022B01D97E
:105370000323A8E12B4B1B6803F00203002BF0D0A2
:10538000284B1B6823F0F8027B681B69DB0025496A
:1053900013430B6015E0244B00221A60FFF7E8FB73
:1053A000386108E0FFF7E4FB02463B69D31A022BA1
:1053B00001D9032387E11B4B1B6803F00203002B79
:1053C000F0D17B681B6803F00803002B36D07B68A4
:1053D0005B69002B16D0154B01221A60FFF7C8FB42
:1053E000386108E0FFF7C4FB02463B69D31A022B81
:1053F00001D9032367E10B4B5B6F03F00203002B22
:10540000F0D01BE0094B00221A60FFF7B1FB3861B6
:105410000EE0FFF7ADFB02463B69D31A022B07D91A
:10542000032350E10038024000004742800E47420B
:10543000884B5B6F03F00203002BEAD17B681B688B
:1054400003F00403002B00F097800023FB75814BD1
:105450001B6C03F08053002B0FD10023BB607D4BEE
:105460001B6C7C4A43F0805313647A4B1B6C03F033
:105470008053BB60BB680123FB75774B1B6803F44B
:105480008073002B18D1744B1B68734A43F48073EC
:105490001360FFF76DFB386108E0FFF769FB024618
:1054A0003B69D31A022B01D903230CE16A4B1B6819
:1054B00003F48073002BF0D07B689B68012B06D12E
:1054C000644B1B6F634A43F0010313671CE07B6866
:1054D0009B68052B0CD15F4B1B6F5E4A43F00403A6
:1054E00013675C4B1B6F5B4A43F0010313670BE0D0
:1054F000584B1B6F574A23F001031367554B1B6F23
:10550000544A23F0040313677B689B68002B15D073
:10551000FFF72EFB38610AE0FFF72AFB02463B69E2
:10552000D31A41F28832934201D90323CBE0494B8D
:105530001B6F03F00203002BEED014E0FFF718FB03
:1055400038610AE0FFF714FB02463B69D31A41F2C7
:105550008832934201D90323B5E03E4B1B6F03F021
:105560000203002BEED1FB7D012B05D1394B1B6CC7
:10557000384A23F0805313647B689B69002B00F04A
:10558000A180344B9B6803F00C03082B5CD07B6834
:105590009B69022B41D1314B00221A60FFF7E8FAD8
:1055A000386108E0FFF7E4FA02463B69D31A022BA0
:1055B00001D9032387E0274B1B6803F00073002BFE
:1055C000F0D17B68DA697B681B6A1A437B685B6A87
:1055D0009B011A437B689B6A5B08013B1B041A43CF
:1055E0007B68DB6A1B061B4913434B601B4B012284
:1055F0001A60FFF7BDFA386108E0FFF7B9FA024612
:105600003B69D31A022B01D903235CE0114B1B68C1
:1056100003F00073002BF0D054E0104B00221A600E
:10562000FFF7A6FA386108E0FFF7A2FA02463B69E5
:10563000D31A022B01D9032345E0064B1B6803F064
:105640000073002BF0D13DE07B689B69012B07D1F3
:10565000012338E0003802400070004060004742FB
:105660001B4B5B68FB607B689B69012B28D0FB6848
:1056700003F480027B68DB699A4221D1FB6803F066
:105680003F027B681B6A9A421AD1FA6847F6C073D8
:1056900013407A68526A9201934211D1FB6803F475
:1056A00040327B689B6A5B08013B1B049A4207D12E
:1056B000FB6803F070627B68DB6A1B069A4201D0CC
:1056C000012300E0002318461837BD4680BD00BF07
:1056D0000038024080B584B000AF786039607B68E4
:1056E000002B01D10123CCE0684B1B6803F00703BA
:1056F0003A689A420CD9654B3A68D2B21A70634B39
:105700001B6803F007033A689A4201D00123B8E00E
:105710007B681B6803F00203002B20D07B681B68AA
:1057200003F00403002B05D0594B9B68584A43F4FF
:10573000E05393607B681B6803F00803002B05D0DF
:10574000534B9B68524A43F460439360504B9B68B1
:1057500023F0F0027B689B684D4913438B607B68A4
:105760001B6803F00103002B44D07B685B68012BAE
:1057700007D1474B1B6803F40033002B19D10123D9
:105780007FE07B685B68022B03D07B685B68032B40
:1057900007D13F4B1B6803F00073002B09D1012395
:1057A0006FE03B4B1B6803F00203002B01D1012388
:1057B00067E0374B9B6823F003027B685B683449E2
:1057C00013438B60FFF7D4F9F8600AE0FFF7D0F9D4
:1057D0000246FB68D31A41F28832934201D903236F
:1057E0004FE02B4B9B6803F00C027B685B689B00CF
:1057F0009A42EBD1254B1B6803F007033A689A42A3
:105800000CD2224B3A68D2B21A70204B1B6803F0BC
:1058100007033A689A4201D0012332E07B681B6893
:1058200003F00403002B08D0194B9B6823F4E052CB
:105830007B68DB68164913438B607B681B6803F049
:105840000803002B09D0124B9B6823F460427B684D
:105850001B69DB000E4913438B6000F021F8024600
:105860000B4B9B681B0903F00F030A49CB5C22FA20
:1058700003F3094A1360094B1B681846FCF7B8FE8E
:10588000002318461037BD4680BD00BF003C0240D3
:1058900000380240B426020800000020BC000020AE
:1058A0002DE9B04F94B000AF00237B640023FB646C
:1058B00000233B640023BB64794B9B6803F00C031B
:1058C000082B0DD0082B00F2E180002B02D0042B16
:1058D00003D0DBE0734BBB64DBE0734BBB64D8E00D
:1058E0006F4B5B6803F03F037B646D4B5B6803F4B5
:1058F0008003002B63D06A4B5B689B090022BB636B
:10590000FA63BB6BC3F308033B6300237B63D7E9F4
:105910000C4522462B464FF000004FF00001590184
:1059200041EAD261500102460B462146511A3961C3
:10593000294663EB01037B614FF000024FF0000347
:10594000D7E904AB59468B01514643EA916351466E
:105950008A015146B2EB0108594663EB01094FF049
:1059600000024FF000034FEAC90343EA58734FEABD
:10597000C80290469946234618EB0303BB602B46AA
:1059800049EB0303FB604FF000024FF00003D7E93F
:10599000024529464B02214643EAD15321464A0299
:1059A000104619467B6C0022BB62FA62D7E90A23D3
:1059B000FBF782F902460B461346FB6458E0384B6E
:1059C0005B689B09002218461146C0F308033B623E
:1059D00000237B62D7E9088942464B464FF000001E
:1059E0004FF00001590141EAD261500102460B46D5
:1059F0004146B2EB010A494663EB010B4FF000024E
:105A00004FF000034FEA8B1343EA9A634FEA8A127E
:105A1000B2EB0A0463EB0B054FF000024FF00003FA
:105A2000EB0043EA5473E20014461D464346E31874
:105A30003B604B4645EB03037B604FF000024FF0A9
:105A40000003D7E9004529468B02214643EA9153DA
:105A500021468A02104619467B6C0022BB61FA611E
:105A6000D7E90623FBF728F902460B461346FB64E9
:105A70000B4B5B681B0C03F0030301335B003B64BF
:105A8000FA6C3B6CB2FBF3F3BB6402E0054BBB6406
:105A900000BFBB6C18465037BD46BDE8B08F00BF95
:105AA000003802400024F40000127A0080B400AFF5
:105AB000034B1B681846BD465DF8047B704700BF6A
:105AC0000000002080B500AFFFF7F0FF0246054B55
:105AD0009B689B0A03F007030349CB5C22FA03F39C
